:10000000020003758150120153E582600302006F04
:10001000780079007A007B007C007D00EC4D601C4C
:1000200088828983E493A3A882A9838A828B83F040
:10003000A3AA82AB831CBCFFE31D80E07582007520
:1000400083007C007D00EC4D600AE4F0A31CBCFF43
:10005000F51D80F27582007583007C007D00EC4DFB
:10006000600AE4F0A31CBCFFF51D80F212015212DD
:1000700003FC80FE436F6D6D616E643A2025730052
:10008000526573706F6E73653A2025730D0A000D0B
:100090000A4A44592D343020746573740D0A0041A6
:1000A000542B44564944414641460D0A0041542BC5
:1000B00052464944464642420D0A0041542B564599
:1000C000520D0A0041542B424155440D0A0041543F
:1000D0002B524649440D0A0041542B445649440DC5
:1000E0000A0041542B5246430D0A0041542B504FF5
:1000F00057450D0A0041542B434C53530D0A000D34
:10010000507265737320616E6420686F6C64207434
:10011000686520424F4F5420627574746F6E20746E
:100120006F207472616E736D69742E0D0A004A44FB
:1001300059343020746573742025640D0A005258B8
:100140003A2025730D0A003C4E4F20464C4F415437
:100150003E002275A7007597DE7597AD75FF807517
:10016000EF0675A71075C12075A70075A90075A9C0
:1001700000E5A930E7FB75A90375A903E5A930E7F8
:10018000FB43A41143A60175E10175E20075E3414B
:10019000759810758DE6858D8B53890F438920D214
:1001A0008ED29975820022AA82438E407592B875CC
:1001B00093FF8592948593957591047B00C3EB9A88
:1001C000500BE59130E7FB53917F0B80F075910068
:1001D00022AA82AB837C007D00C3EC9AED9B502B5E
:1001E0007E00BE0400501D7582FAC002C003C00428
:1001F000C005C0061201A7D006D005D004D003D098
:10020000020E80DE0CBC00D10D80CE22AA82AB8310
:10021000ACF0FD75A72075930C75C8107594008A15
:10022000118B128C138D1490A20075F04A74041275
:100230000538AA82AB83ACF0FD751118E4F512F510
:1002400013F5148A828B838CF0ED120538AA82ABE9
:1002500083ACF0FDE4C39AFAE49BFB74019CE49D3B
:100260008A958B96D2C943944075A70022AA8275BD
:10027000A72010C90280FB8A9275A70022AA82AB30
:1002800083ACF08A828B838CF012051CFD60188D84
:1002900082C002C003C00412026DD004D003D00299
:1002A0000ABA00DF0B80DC2275A72010C80280FB91
:1002B00053C83F85928275A7002275A7207A007BDC
:1002C0000020C82675A700758214C002C003120161
:1002D000A7D003D00275A7200ABA00010BBAA8E183
:1002E000BB61DE75A70075820A22C2C853C83F856C
:1002F000928275A70022AA82AB83ACF0C002C00331
:10030000C0041202BAAD82D004D003D002BD0A0AE2
:100310008A828B838CF0E40205D38A828B838CF0F3
:10032000ED1205D3A3AA82AB8380D175A720A2C802
:1003300075A70022AA82AB837C007D00C3EC9AEDF6
:100340009B50477E00BE04005039C002C003C00469
:10035000C005C00612032BE433D006D005D004D06C
:1003600003D0026001227582FAC002C003C004C03B
:1003700005C0061201A7D006D005D004D003D002D4
:100380000E80C20CBC00B50D80B222AA82AB83AC39
:10039000F0C002C003C004C002C003C0047474C033
:1003A000E07400C0E07480C0E01205B2E58124FA78
:1003B000F581C2A09000051201D1D004D003D00273
:1003C0008A828B838CF012027D90003775F0401288
:1003D00002F690000A1201D1D2A07437C0E0740076
:1003E000C0E07440C0E07480C0E07400C0E074807D
:1003F000C0E01205B2E58124FAF581229001F412E1
:1004000001D1748FC0E07400C0E07480C0E01205B8
:10041000B2158115811581902580E4F5F012020C4A
:1004200090009F75F08012038B9000AD75F08012E4
:10043000038B9000BB75F08012038B9000C475F0A5
:100440008012038B9000CE75F08012038B9000D841
:1004500075F08012038B9000E275F08012038B9090
:1004600000EB75F08012038B9000F575F08012039D
:100470008B74FFC0E07400C0E07480C0E01205B26D
:100480001581158115817A007B0020B74B8A048B7A
:10049000050ABA00010BC002C003C004C005742ED7
:1004A000C0E07401C0E07480C0E07437C0E0740044
:1004B000C0E07440C0E012063BE58124F8F581906D
:1004C000003775F04012027D75822E120681900071
:1004D000C8120334D003D002C002C00312032BE4BD
:1004E00033D003D00260A390003775F040C002C043
:1004F000031202F67437C0E07400C0E07440C0E03C
:10050000743EC0E07401C0E07480C0E01205B2E542
:100510008124FAF581D003D00202048A20F7143036
:10052000F6148883A88220F507E6A8837583002245
:10053000E280F7E49322E022FB7A20E4FCFDFEFF58
:10054000E5822582F582E58333F583E5F033F5F026
:10055000EB33FB4017DAE98042E5822582F582E53C
:100560008333F583E5F033F5F0EB33FBEC33FCED4F
:1005700033FDEE33FEEF33FFEC9511ED9512EE9562
:1005800013EF95144013EC9511FCED9512FDEE95CB
:1005900013FEEF9514FF438201DABEEB22020681BF
:1005A00085823085833185F03285103390059D0238
:1005B000071FC008858108E50824FBF533E50824FA
:1005C000FBF8863008863108863290059D12071F99
:1005D000D0082220F71030F6118883A88220F50772
:1005E000F6A88375830022F280F7F022AA82AB0975
:1005F000AC0AAD0B8B828C838DF0EA1205D3050912
:10060000E4B50902050A2285820985830A85F00B73
:10061000850C30850D31850E32850F339005EC1237
:10062000071FAA82AB83AC09AD0AAE0B8C828D8307
:100630008EF0E41205D38A828B8322C0088581085C
:10064000E50824F8F533E50824FBF8860908860A4E
:1006500008860BE50824F8F88630088631088632CB
:100660009005EC12071FAA82AB83AC09AD0AAE0B52
:100670008C828D838EF0E41205D38A828B83D0081E
:1006800022AA82BA0A0810990280FB75990D109966
:100690000280FB8A9922AA8274A7C0E07406C0E097
:1006A000C022C0238A82220529E4B52902052A2214
:1006B000AA8274302AFA24C6500A74072AFA300033
:1006C000034302208A82020696E582FAC4540FF59B
:1006D00082C0021206B0D002740F5AF5820206B030
:1006E000AA24AB25AC26AD27AE28752F20EE2EFE12
:1006F000ED235401FF4206EA2AFAEB33FBEC33FC0C
:10070000ED33FDC3EE952B4008EEC3952BFE43025F
:1007100001D52FD98A248B258C268D278E282285DA
:100720008222858323E4F529F52AAA30AB31AC3245
:100730008A828B838CF012051CFD74012AF530E44B
:100740003BF5318C32EDFA7003020CAFBA25028012
:1007500003020CA7C204C205C206C207C208C2092E
:10076000C20AC20BC201C202C203752B00752C0063
:10077000752DFFAB30AC31AD328B828C838DF01296
:10078000051CFAA3AB82AC838B308C318D32BA2539
:10079000078A8212069680928A06BE3000402E8A10
:1007A00006EE24C6402774FFB52D13E52C75F00A1C
:1007B000A4FEEA24D02EF52C70BFD20580BBE52D17
:1007C00075F00AA4FEEA24D02EF52D80ACBA2E0ACC
:1007D00074FFB52DA4752D00809F8A06BE61004070
:1007E0000E8A06EE248540075302DFD2008002C243
:1007F00000BA20028075BA230302087ABA2A0302DB
:10080000087FBA2B02805FBA2D028055BA4202805F
:100810005FBA43030208C4BA44030209FFBA45039E
:10082000020A19BA4603020A15BA4703020A1DBA98
:1008300049030209FFBA4C02803BBA4E03020A2167
:10084000BA4F03020A06BA5003020998BA530302C8
:1008500008E8BA5503020A0BBA5803020A10020A42
:100860004BD204020779D206020779D20702077930
:10087000D209020779D20A020779D20B02077974EA
:10088000FFB52D2030090BE53314F88833862C0290
:100890000779E53324FEF888338606088607188E24
:1008A0002C02077930090BE53314F88833862D02C2
:1008B0000779E53324FEF888338606088607188E04
:1008C0002D02077930090AE53314F888338602804F
:1008D0000FE53324FEF888338603088604188B025C
:1008E0008A82120696020A50E53324FDF888338680
:1008F0000308860408860518188B248C258D268B02
:10090000828C838DF0120CB6AB82AC838B2E74FF7D
:10091000B52D03852E2D20041DC3E52E952C5016D4
:10092000E52CC3952EF52CAB2C152CEB60087582AD
:100930002012069680F18524828525838526F01273
:10094000051CFBFA6029AB2D152DC3E464808BF0E8
:1009500063F08095F050188A82120696AB24AC257D
:10096000AD260BBB00010C8B248C258D2680C72067
:100970000403020A50C3E52E952C4003020A50E5F9
:100980002CC3952EF52CAB2C152CEB7003020A50C2
:1009900075822012069680EEE53324FDF8883386B2
:1009A0000308860408860518188B248C258D26E5F7
:1009B00026FB30E7047A438013EB546060047A50DE
:1009C000800AEB30E6047A4980027A588A82C002B3
:1009D00012069675823A1206967582301206967540
:1009E0008278120696D002BA4902800BBA50028071
:1009F000068525821206C98524821206C98051D235
:100A000008752B0A804A752B088045752B0A804093
:100A1000752B10803BD2018037D2028033D2038005
:100A20002FE53324FDF888338603088604088605FD
:100A300018188B248C258D268B828C838DF0E529CC
:100A40001205D3A3E52A1205D380058A82120696E1
:100A500020010620020330035AE53324FCF88833D2
:100A600086030886040886050886061818188B244D
:100A70008C258D268E277524477525017526808542
:100A8000243485253585263674012534FEE4353534
:100A9000FFAB368E248F258B268534828535838562
:100AA00036F012051CFBFA700302072A8A8212062E
:100AB0009680CCE52B700302072A7B5030092BE58A
:100AC0003314F88833E6FC3395E0FDFEFF8C248D6B
:100AD000258E268F2720085EAC247D007E007F00B7
:100AE0008C248D258E268F27804C300A1FE53324D9
:100AF000FCF88833860408860508860608860718E9
:100B000018188C248D258E268F27802AE53324FE05
:100B1000F88833860408860518ED3395E0FEFF8CCF
:100B2000248D258E268F2720080CAC24AD257E0031
:100B30007F008E268F27300B43E52445254526452B
:100B40002760397408B52B0C758230C003120696E5
:100B5000D00380287410B52B23758230C003120691
:100B600096D00330000C758278C003120696D0032D
:100B7000800A758258C003120696D003300825AC4F
:100B800024AD25AE26E527FF30E717C3E49CFCE43F
:100B90009DFDE49EFEE49FFF8C248D258E268F27ED
:100BA0008002C208752E00D20C8B00752800C00090
:100BB0001206E0D000200C0DE528C4FCE6FD4CF642
:100BC0001888038002A628052EB20CE52445254589
:100BD00026452770D68803E52C7003752C01200567
:100BE0001A200417E52E04FCC3952C500E758220A4
:100BF000C003120696D003152C80E930080E7582CA
:100C00002DC003120696D003152C8024E52E6020FB
:100C100030060E75822BC003120696D003152C8069
:100C20000F30070C758220C003120696D003152CD6
:100C300020041EAC2C152CC3E52E9C502730050437
:100C40007C3080027C208C82C003120696D0038008
:100C5000E2C3E52E952C5009E52CC3952EF52C808A
:100C600003752C008B00AB2E152EEB6022B20C20EE
:100C70000C0A08E6C4540FFB8B2880078603740F08
:100C80005BF528852882C0001206B0D00080D720EE
:100C9000040302072AAB2C152CEB700302072A75FC
:100CA000822012069680EE8A8212069602072A8514
:100CB0002982852A8322AA82AB83ACF07D007E0044
:100CC0008A828B838CF012051CFFA3AA82AB83EF70
:100CD00060070DBD00EA0E80E78D828E8322000042
:00000001FF
