:100000000200037581401200FCE582600302006F6C
:10001000780079007A007B007C007D00EC4D601C4C
:1000200088828983E493A3A882A9838A828B83F040
:10003000A3AA82AB831CBCFFE31D80E07582007520
:1000400083007C217D00EC4D600AE4F0A31CBCFF22
:10005000F51D80F27582007583007C007D00EC4DFB
:10006000600AE4F0A31CBCFFF51D80F212007412BC
:1000700004B680FEE4F509F50A750B96750C962218
:100090000000000201D4303132333435363738397C
:1000A00041424344454600663D256C6420487A2C15
:1000B00020636F756E743D256C6420202020202005
:1000C000202020200D00487A2C20636F756E743D2F
:1000D000004E4F205349474E414C202020202020E5
:1000E0002020202020202020202020202020200D23
:1000F000003C4E4F20464C4F41543E0075A70075C2
:1001000097DE7597AD43FF8075EF0275A71075C137
:100110002075A70075A90075A900E5A930E7FB7552
:10012000A90375A903E5A930E7FB43A41075E10114
:1001300075E20075E340759810858E8E758DE685A5
:100140008D8B53890F438920D28ED29975A7107554
:10015000C00075D4FF75D5FF43F308D2C2D2AF7586
:10016000A7007582002275A700C2EF75B28075BC2A
:100170002075B91E75E80075DF3F75B300D2EF2218
:10018000AA828537F005F07401800225E0D5F0FBE6
:10019000FB75A720BA0002800ABA0102800FBA02DA
:1001A0001E8014EBF4FA52F1EB42D48012EBF4FA15
:1001B00052F2EB42D58008EBF4FA52F3EB42CC75E5
:1001C000A700228582BBC2EDD2EC30EDFD85BD8259
:1001D00085BE8322C0E0C002C003C0D075D00075C8
:1001E000A710C2C775D2C475D3FF74012509F509DC
:1001F000E4350AF50A74D0B5090A7407B50A05E4AE
:10020000F509F50AAA0B7B00C3EA9509EB950A40AC
:1002100004D2948002C294AA0C7B00C3EA9509EB35
:10022000950A4004D2948002C294D0D0D003D00268
:10023000D0E032AA82438E407592B87593FF8592C2
:10024000948593957591047B00C3EB9A500BE591CF
:1002500030E7FB53917F0B80F075910022AA82ABAF
:1002600083BA0004BB0001227582F9C002C00312E8
:1002700002337582F91202337582F91202337582E4
:10028000FA120233D003D0021ABAFF011B80D2AA9D
:1002900082AB83C28C5389F0438901C28C758A007A
:1002A000758C00C28DD28C7C007D00309019108D31
:1002B0000280F80CBC00010DBC0AF0BD00EDC28C40
:1002C000900000E4F5F022C28C758A00758C00C2A3
:1002D0008DD28C7C007D00209019108D0280F80C4E
:1002E000BC00010DBC0AF0BD00EDC28C900000E422
:1002F000F5F022C28C758A00758C00C28D7C007D61
:1003000000D28C7E008E077800C3EF9AE864808B61
:10031000F063F08095F050298C078D0030900C1020
:100320008D0280F80FBF00F40880F120900C108D32
:100330000280F80FBF00F40880F18F0488050E805A
:10034000C4C28C8D038C027D007C00AF8C7E00EFDC
:100350003395E0F8F9EE2CFCEF3DFDE83AFAE93B85
:10036000FBAE8AE4FF3395E0F8F9EE2CFCEF3DFD9F
:10037000E83AFAE93B8C828D838AF022AA82AB8329
:10038000ACF08A828B838CF0120573FD60188D822D
:10039000C002C003C004120844D004D003D0020A33
:1003A000BA00DF0B80DC2285821185831285F01371
:1003B000F514900020E4F0E51430E71B75822D124F
:1003C0000844C3E49511F511E49512F512E4951370
:1003D000F513E49514F51475151FE4F516A80FA987
:1003E00010C3E49511E49512E49513E46480851438
:1003F000F063F08095F0E433FEC3E498E464808910
:10040000F063F08095F0E433FF4E70030204A1AE78
:1004100015AF16151574FFB515021516EE2400F567
:1004200017EF3400F518850D19E50EF51A3395E030
:10043000F51BF51C851937851A38851B39851C3A3B
:100440008511828512838513F0E514C000C0011266
:1004500007C8AE82AF83EE2496F582EF3400F583B1
:10046000E493851782851883F0851937851A3885B6
:100470001B39851C3A8511828512838513F0E5149A
:1004800012074085821185831285F013F514D0017F
:10049000D000E84970030203E118B8FF0119020314
:1004A000E1E515042400FAE43400FB7C008A828B29
:1004B000838CF002037C90001E12028FAA82AB8311
:1004C000ACF0FDC3E49AE49BE49CE464808DF063AB
:1004D000F08095F040030205558A378B388C398DB2
:1004E0003A90000CE4F5F0C002C003C004C005124D
:1004F000058F120817AE82AF83A8F0F9C006C007B7
:10050000C000C00190BEFC75F000744F120859AED7
:1005100082AF83A8F0F9E58124FCF5818E828F8378
:1005200088F0E9120662AE82AF83A8F0F9C006C077
:1005300007C000C00174A7C0E07400C0E07480C0B0
:10054000E01207A7E58124F5F5819000C675F080DB
:1005500012037C801574D1C0E07400C0E07480C0C8
:10056000E01207A71581158115819000C812025D60
:100570000204B620F71430F6148883A88220F50709
:10058000E6A88375830022E280F7E49322E022AAA2
:10059000F0FBE5828537F0A4FCADF0E5838537F00C
:1005A000A42DFDE435F0FEE5828538F0A42DFDE5AF
:1005B000F03EFEE433FFEA8537F0A42EFEE5F03F7F
:1005C000FFE5838538F0A42EFEE5F03FFFE5828548
:1005D00039F0A42EFEE5F03FFFEB8537F0A42FFFA6
:1005E000EA8538F0A42FFFE5838539F0A42FFFE5D5
:1005F00082853AF0A42F8EF08D838C8222FB7A20A4
:10060000E4FCFDFEFFE5822582F582E58333F58378
:10061000E5F033F5F0EB33FB4017DAE98042E58291
:100620002582F582E58333F583E5F033F5F0EB338E
:10063000FBEC33FCED33FDEE33FEEF33FFEC95378F
:10064000ED9538EE9539EF953A4013EC9537FCED82
:100650009538FDEE9539FEEF953AFF438201DABEFB
:10066000EB22120978C3749E9582403979001209F1
:100670008A30D126E9F42401F582EAF43400F583C6
:10068000EBF43400F5F0ECF43400700AE5824583B5
:1006900045F0700122E430E70F22EC20E714898254
:1006A0008A838BF02230D10AE4F582F583F5F07469
:1006B000802274FFF582F583F5F0747F22F9E53727
:1006C00045384539453A60777800C308E53A20E770
:1006D0003BE53725E0F537E53833F538E53933F5CF
:1006E00039E53A33F53AE5829537E5839538E5F013
:1006F0009539E9953A50D4C3E53A13F53AE53913FB
:10070000F539E53813F538E53713F537E5829537D0
:10071000FCE5839538FDE5F09539FEE9953A40070B
:10072000F98EF08D838C82C3E53A13F53AE53913DF
:10073000F539E53813F538E53713F537D8CEE92222
:10074000FBC2D530E715D2D5E4C39582F582E49596
:1007500083F583E495F0F5F0E49BFBE53A30E71789
:10076000B2D5E4C39537F537E49538F538E49539D3
:10077000F539E4953AF53AEB1205FD30D513FBE473
:10078000C39582F582E49583F583E495F0F5F0E472
:100790009B2202084485823085833185F032851D95
:1007A00033900792020A56C008858108E50824FBA9
:1007B000F533E50824FBF886300886310886329048
:1007C0000792120A56D00822F9C2D530E715D2D5C1
:1007D000E4C39582F582E49583F583E495F0F5F022
:1007E000E499F9E53A30E715E4C39537F537E49530
:1007F00038F538E49539F539E4953AF53AE91206D1
:10080000BD30D512E4C39582F582E49583F583E487
:1008100095F0F5F0E49922FCABF0AA83A982749ECE
:10082000F582C2D1EC30E716D2D1E9F42401F9EA1D
:10083000F43400FAEBF43400FBECF43400FC121056
:100840003C020FEDAA82BA0A0810990280FB759942
:100850000D10990280FB8A992212106F30D502B2D6
:10086000D1BF0009BC0003021031021024BC0003F8
:1008700002100EE583B4FF0BE582B4FF03021031D2
:1008800002100EE582B4FF03021024C395835007C3
:10089000247F400B02100E2480145003021024C049
:1008A000E0E4CCCBCAF98D378E388F39EF54F0C4E1
:1008B000F53A758306853AF0EB84F582E9C4F9EAE6
:1008C000C4FAEBC4FBEC540FC47803D6FC18EBD687
:1008D000FB18EAD6FA8582F0EDA4A8F0FD8582F037
:1008E000EEA428FEE435F0F88582F0EFA428FFE4BA
:1008F00035F0F8E99DF9EA9EFAEB9FFBEC98FCAD28
:1009000037AE38AF3930E7101582E92DF9EA3EFAF3
:10091000EB3FFBE43CFC80EDC082D58398C3E93318
:10092000F9EA33FAEB33FBEC33FCC3E99DEA9EEBC7
:100930009FEC9400B3E413F9D002D0E0C44AFAD09B
:1009400003D0E0C44BFBD004D0E0F5F0540FC44C0E
:10095000FCD082158230F40FD3EC13FCEB13FBEACE
:1009600013FAE913F90582E930E70A74012AFAE477
:100970003BFBE43CFC021005AA82AB83A2F7339256
:10098000D16002D2F7F582ACF0226040F8258250A7
:100990000274FFF582E824F8501ECCCBCAF9E4CCEF
:1009A00024F85014CBCAF9E4CB24F8500BCAF9E46C
:1009B000CA24F8500379002224086010F8C3EC130D
:1009C000FCEB13FBEA13FAE913F9D8F122AA8274BB
:1009D000DEC0E07409C0E0C022C0238A822205295B
:1009E000E4B52902052A22AA8274302AFA24C650C4
:1009F0000A74072AFA3000034302208A820209CDD2
:100A0000E582FAC4540FF582C0021209E7D00274DD
:100A10000F5AF5820209E7AA24AB25AC26AD27AE12
:100A200028752F20EE2EFEED235401FF4206EA2A00
:100A3000FAEB33FBEC33FCED33FDC3EE952B4008B2
:100A4000EEC3952BFE430201D52FD98A248B258C2A
:100A5000268D278E2822858222858323E4F529F599
:100A60002AAA30AB31AC328A828B838CF0120573A8
:100A7000FD74012AF530E43BF5318C32EDFA700358
:100A8000020FE6BA25028003020FDEC204C205C2CD
:100A900006C207C208C209C20AC20BC201C202C210
:100AA00003752B00752C00752DFFAB30AC31AD32CA
:100AB0008B828C838DF0120573FAA3AB82AC838B8F
:100AC000308C318D32BA25078A821209CD80928A04
:100AD00006BE3000402E8A06EE24C6402774FFB5BD
:100AE0002D13E52C75F00AA4FEEA24D02EF52C7007
:100AF000BFD20580BBE52D75F00AA4FEEA24D02EF6
:100B0000F52D80ACBA2E0A74FFB52DA4752D00808A
:100B10009F8A06BE6100400E8A06EE248540075378
:100B200002DFD2008002C200BA20028075BA23031D
:100B3000020BB1BA2A03020BB6BA2B02805FBA2DA0
:100B4000028055BA4202805FBA4303020BFBBA44EB
:100B500003020D36BA4503020D50BA4603020D4C8E
:100B6000BA4703020D54BA4903020D36BA4C02804B
:100B70003BBA4E03020D58BA4F03020D3DBA500363
:100B8000020CCFBA5303020C1FBA5503020D42BA2E
:100B90005803020D47020D82D204020AB0D20602A7
:100BA0000AB0D207020AB0D209020AB0D20A020A77
:100BB000B0D20B020AB074FFB52D2030090BE5331B
:100BC00014F88833862C020AB0E53324FEF8883303
:100BD0008606088607188E2C020AB030090BE5330A
:100BE00014F88833862D020AB0E53324FEF88833E2
:100BF0008606088607188E2D020AB030090AE533EA
:100C000014F888338602800FE53324FEF888338693
:100C100003088604188B028A821209CD020D87E52B
:100C20003324FDF8883386030886040886051818DF
:100C30008B248C258D268B828C838DF01210B6AB85
:100C400082AC838B2E74FFB52D03852E2D20041DC1
:100C5000C3E52E952C5016E52CC3952EF52CAB2C08
:100C6000152CEB60087582201209CD80F185248255
:100C70008525838526F0120573FBFA6029AB2D15B7
:100C80002DC3E464808BF063F08095F050188A8265
:100C90001209CDAB24AC25AD260BBB00010C8B2477
:100CA0008C258D2680C7200403020D87C3E52E9571
:100CB0002C4003020D87E52CC3952EF52CAB2C158B
:100CC0002CEB7003020D877582201209CD80EEE5B2
:100CD0003324FDF88833860308860408860518182F
:100CE0008B248C258D26E526FB30E7047A43801380
:100CF000EB546060047A50800AEB30E6047A498055
:100D0000027A588A82C0021209CD75823A1209CD40
:100D10007582301209CD7582781209CDD002BA4998
:100D200002800BBA50028006852582120A008524B3
:100D300082120A008051D208752B0A804A752B084E
:100D40008045752B0A8040752B10803BD20180377F
:100D5000D2028033D203802FE53324FDF888338616
:100D60000308860408860518188B248C258D268B8D
:100D7000828C838DF0E52912109DA3E52A12109D27
:100D800080058A821209CD20010620020330035A11
:100D9000E53324FCF88833860308860408860508B2
:100DA00086061818188B248C258D268E277524F11D
:100DB000752500752680852434852535852636746D
:100DC000012534FEE43535FFAB368E248F258B2686
:100DD0008534828535838536F0120573FBFA7003FE
:100DE000020A618A821209CD80CCE52B7003020AC7
:100DF000617B4030092BE53314F88833E6FC3395EA
:100E0000E0FDFEFF8C248D258E268F2720085EAC0A
:100E1000247D007E007F008C248D258E268F2780E8
:100E20004C300A1FE53324FCF88833860408860515
:100E30000886060886071818188C248D258E268F9C
:100E400027802AE53324FEF88833860408860518AF
:100E5000ED3395E0FEFF8C248D258E268F2720080C
:100E60000CAC24AD257E007F008E268F27300B43EF
:100E7000E52445254526452760397408B52B0C75B2
:100E80008230C0031209CDD00380287410B52B2303
:100E9000758230C0031209CDD00330000C75827802
:100EA000C0031209CDD003800A758258C00312090D
:100EB000CDD003300825AC24AD25AE26E527FF3084
:100EC000E717C3E49CFCE49DFDE49EFEE49FFF8CD9
:100ED000248D258E268F278002C208752E00D20C05
:100EE0008B00752800C000120A17D000200C0DE5F9
:100EF00028C4FCE6FD4CF61888038002A628052EBF
:100F0000B20CE52445254526452770D68803E52CF7
:100F10007003752C0120051A200417E52E04FCC36C
:100F2000952C500E758220C0031209CDD003152CCC
:100F300080E930080E75822DC0031209CDD003154B
:100F40002C8024E52E602030060E75822BC0031203
:100F500009CDD003152C800F30070C758220C003FB
:100F60001209CDD003152C20041EAC2C152CC3E582
:100F70002E9C50273005047C3080027C208C82C05F
:100F8000031209CDD00380E2C3E52E952C5009E56C
:100F90002CC3952EF52C8003752C008B00AB2E15E1
:100FA0002EEB6022B20C200C0A08E6C4540FFB8B17
:100FB0002880078603740F5BF528852882C00012FD
:100FC00009E7D00080D7200403020A61AB2C152C5E
:100FD000EB7003020A617582201209CD80EE8A82CD
:100FE0001209CD020A61852982852A8322B98003EC
:100FF000EA13B34010EA2401FAE43BFBE43CFC5062
:10100000047C800582BC000EBB000BBA0008E4F52E
:10101000F0F583F58222A2D1E582138CF092F78B52
:10102000838A8222E4F583F58275F080F4A2D113DD
:1010300022E4F583F58275F0C0747F227804EC70A9
:1010400011E58224F8500AF582E4C9CACBFCD8EF36
:1010500022EC7820058220E713D5820122C3E933F0
:10106000F9EA33FAEB33FBEC33FCD8EA158222AA17
:1010700082AB83A2F73392D16002D2F7F582ACF053
:10108000E58124F9F8E6FD08E6FE0886F008E6A208
:10109000F73392D56002D2F7F583AFF02220F71034
:1010A00030F6118883A88220F507F6A8837583009F
:1010B00022F280F7F022AA82AB83ACF07D007E00A2
:1010C0008A828B838CF0120573FFA3AA82AB83EF15
:1010D00060070DBD00EA0E80E78D828E832200003E
:00000001FF
