:100000000200037581E312010DE582600302006FB7
:10001000780079007A007B007C007D00EC4D601C4C
:1000200088828983E493A3A882A9838A828B83F040
:10003000A3AA82AB831CBCFFE31D80E07582007520
:1000400083007C007D00EC4D600AE4F0A31CBCFF43
:10005000F51D80F27582007583007C007D00EC4DFB
:10006000600AE4F0A31CBCFFF51D80F21201071228
:10007000066880FE1B5B324A00436F6D6D616E64E3
:100080003A20257300526573706F6E73653A2025B0
:10009000730D0A0041542B44564944414641460DD4
:1000A0000A0041542B52464944464642420D0A003A
:1000B00041542B5645520D0A0041542B42415544A0
:1000C0000D0A0041542B524649440D0A0041542B5D
:1000D000445649440D0A0041542B5246430D0A0030
:1000E00041542B504F57450D0A0041542B434C535C
:1000F000530D0A00252E3366002573200D0A0025B6
:10010000730D0A00256400E4F509F50A2275A700BD
:100110007597DE7597AD75FF8075EF0675A710753D
:10012000C12075A70075A90075A900E5A930E7FBF6
:1001300075A90375A903E5A930E7FB43A41143A6FC
:100140000175E10175E20075E341759810758DE662
:10015000858D8B53890F438920D28ED29975820069
:10016000225389F0438901C28C22AA82438E4075B2
:1001700092B87593FF8592948593957591047B0051
:10018000C3EB9A500BE59130E7FB53917F0B80F066
:1001900075910022AA82AB837C007D00C3EC9AEDAE
:1001A0009B502B7E00BE0400501D7582FAC002C019
:1001B00003C004C005C00612016AD006D005D004F1
:1001C000D003D0020E80DE0CBC00D10D80CE229078
:1001D00001F41201947474C0E07400C0E07480C033
:1001E000E012081F15811581158122AA82AB83AC0C
:1001F000F0FD75A72075930C75C8107594008A17CB
:100200008B188C198D1A90A20075F04A740412068E
:10021000A9AA82AB83ACF0FD751718E4F518F5199F
:10022000F51A8A828B838CF0ED1206A9AA82AB8321
:10023000ACF0FDE4C39AFAE49BFB74019CE49D8A54
:10024000958B96D2C943944075A70022AA8275A7C0
:100250002010C90280FB8A9275A70022AA82AB8374
:10026000ACF08A828B838CF012068DFD60188D8233
:10027000C002C003C00412024CD004D003D0020A52
:10028000BA00DF0B80DC2275A72010C80280FB5368
:10029000C83F85928275A7002275A7207A007B004F
:1002A00020C82675A700758214C002C00312016A17
:1002B000D003D00275A7200ABA00010BBAA8E1BB8F
:1002C00061DE75A70075820A22C2C853C83F8592B5
:1002D0008275A70022AA82AB83ACF0C002C003C023
:1002E00004120299AD82D004D003D002BD0A0A8A5A
:1002F000828B838CF0E40208408A828B838CF0ED41
:10030000120840A3AA82AB8380D175A720A2C8752A
:10031000A70022AA82AB837C007D00C3EC9AED9BF0
:1003200050477E00BE04005039C002C003C004C064
:1003300005C00612030AE433D006D005D004D0036A
:10034000D0026001227582FAC002C003C004C00559
:10035000C00612016AD006D005D004D003D0020E28
:1003600080C20CBC00B50D80B222AA82AB83ACF077
:10037000C002C003C004C002C003C0047479C0E05E
:100380007400C0E07480C0E012081FE58124FAF513
:1003900081C2A0900005120194D004D003D0028A3B
:1003A000828B838CF012025C90008475F040120204
:1003B000D590000A120194D2A07484C0E07400C0E9
:1003C000E07440C0E07485C0E07400C0E07480C098
:1003D000E012081FE58124FAF5812290009475F05F
:1003E0008012036A9000A275F08012036A9000B038
:1003F00075F08012036A9000B975F08012036A905C
:1004000000C375F08012036A9000CD75F08012036E
:100410006A9000D775F08012036A9000E075F08052
:1004200012036A9000EA75F08002036A1208EEAACD
:1004300082AB83ACF0FDC002C003C004C0059000D5
:100440000075F080744712070EAA82AB83ACF0FDF2
:10045000E58124FCF581850B82850C83C002C003F5
:10046000C004C0051208EEAE82AF83A8F0F9C00642
:10047000C007C000C00190000075F08074431207EF
:100480000EAE82AF83A8F0F9E58124FCF581D0059A
:10049000D004D003D002C006C007C000C0018A82C9
:1004A0008B838CF0ED1207B1AA82AB83ACF0FDE533
:1004B0008124FCF581850D82850E83C002C003C0B6
:1004C00004C0051208EEAE82AF83A8F0F9D005D0C3
:1004D00004D003D002C006C007C000C0018A828BCE
:1004E000838CF0ED1207B1AA82AB83ACF0FDE581FD
:1004F00024FCF581C002C003C004C00590F4FC7563
:10050000F032743412070EAA82AB83ACF0FDE581A1
:1005100024FCF5818A828B838CF0ED22AA82AB8346
:10052000ACF0FDC002C003C004C00590000075F02F
:1005300080743F1208FBAA82AB83ACF0FDE58124F6
:10054000FCF5818A828B838CF0ED22758A00758C94
:1005500000C28D2090FD3090FDD28C7A007B00305F
:10056000900C108D0280F80ABA00F40B80F12090F4
:100570000C108D0280F80ABA00F40B80F1C28C8551
:100580008C0B750C00858A0D750E008A828B831288
:10059000042C02051CAA82AB83ACF0FDC002C00390
:1005A000C004C00574F4C0E07400C0E07480C0E012
:1005B0007484C0E07400C0E07440C0E01208A8E594
:1005C0008124F6F58190008475F04012025C900160
:1005D000F402031312030A502A90003475F04012FB
:1005E00002D57434C0E07400C0E07440C0E074F917
:1005F000C0E07400C0E07480C0E012081FE58124F0
:10060000FAF5812212030A502A90003475F0401244
:1006100002D57434C0E07400C0E07440C0E074FFE0
:10062000C0E07400C0E07480C0E012081FE58124BF
:10063000FAF58122C009C00A7404C0E07401C0E068
:100640007480C0E07484C0E07400C0E07440C0E016
:100650001208A8E58124F8F58190008475F0401215
:10066000025C9001F40203131201611201CF902584
:1006700080E4F5F01201EB1203DB12060475920020
:1006800074012509F509E4350AF50A80ED20F7140F
:1006900030F6148883A88220F507E6A883758300C6
:1006A00022E280F7E49322E022FB7A20E4FCFDFEC4
:1006B000FFE5822582F582E58333F583E5F033F5A6
:1006C000F0EB33FB4017DAE98042E5822582F582C0
:1006D000E58333F583E5F033F5F0EB33FBEC33FCE6
:1006E000ED33FDEE33FEEF33FFEC9517ED9518EE8D
:1006F0009519EF951A4013EC9517FCED9518FDEE42
:100700009519FEEF951AFF438201DABEEB22120A19
:100710009CBC0003020A3BEF60FA30D502B2D1E57F
:1007200083B4FF03020A51E582B4FF03020A512594
:100730008340072482400B020A3B248314500302A7
:100740000A51F582EA8DF0A4A8F0EA8EF0A428F808
:10075000E435F0F9EB8DF0A428E935F0F9E433CA7B
:100760008FF0A429F9EA35F0FAEBF88EF0A429F914
:10077000EA35F0FAE433FBEC8DF0A429F9EA35F020
:10078000FAE43BFBE88FF0A42AFAEB35F0FBE43304
:10079000CCFD8EF0A42AFAEB35F0FBE43CFCED8FA7
:1007A000F0A42BFBEC35F0FC20E703120A69020AE7
:1007B0001A120A9C7900E583B58202800D5003125B
:1007C0000ACAE583C39582120AE4E5D0C465D02045
:1007D000E117EA2DFAEB3EFBEC3FFC5009740112E5
:1007E0000AE4EC4480FC020A1AC3EA9DFAEB9EFB81
:1007F000EC9FFC500FC3E499F9E49AFAE49BFBE404
:100800009CFCB2D1120A69020A1A0214B385823022
:1008100085833185F03285163390080A020F06C0B1
:1008200008858108E50824FBF533E50824FBF886F4
:100830003008863108863290080A120F06D0082246
:1008400020F71030F6118883A88220F507F6A883D8
:1008500075830022F280F7F022AA82AB0FAC10ADB4
:10086000118B828C838DF0EA120840050FE4B50FDE
:100870000205102285820F85831085F011851230C4
:10088000851331851432851533900859120F06AA45
:1008900082AB83AC0FAD10AE118C828D838EF0E4F1
:1008A0001208408A828B8322C008858108E50824CB
:1008B000F8F533E50824FBF8860F08861008861142
:1008C000E50824F8F8863008863108863290085901
:1008D000120F06AA82AB83AC0FAD10AE118C828DC5
:1008E000838EF0E41208408A828B83D00822AC8386
:1008F000AB827A007900748E0214D1120A9C30D532
:1009000002B2D1BF0009BC0003020A5E020A51BC58
:100910000003020A3BE583B4FF0BE582B4FF030248
:100920000A5E020A3BE582B4FF03020A51C39583C3
:100930005007247F400B020A3B2480145003020A14
:1009400051C0E0E4CCCBCAF98D178E188F19EF5443
:10095000F0C4F51A758306851AF0EB84F582E9C4B4
:10096000F9EAC4FAEBC4FBEC540FC47803D6FC18C4
:10097000EBD6FB18EAD6FA8582F0EDA4A8F0FD8547
:1009800082F0EEA428FEE435F0F88582F0EFA4288A
:10099000FFE435F0F8E99DF9EA9EFAEB9FFBEC984D
:1009A000FCAD17AE18AF1930E7101582E92DF9EA42
:1009B0003EFAEB3FFBE43CFC80EDC082D58398C35C
:1009C000E933F9EA33FAEB33FBEC33FCC3E99DEA94
:1009D0009EEB9FEC9400B3E413F9D002D0E0C44A3C
:1009E000FAD003D0E0C44BFBD004D0E0F5F0540FB4
:1009F000C44CFCD082158230F40FD3EC13FCEB1303
:100A0000FBEA13FAE913F90582E930E70A74012ACF
:100A1000FAE43BFBE43CFC020A32B98003EA13B37C
:100A20004010EA2401FAE43BFBE43CFC50047C80E7
:100A30000582BC000EBB000BBA0008E4F5F0F5839C
:100A4000F58222A2D1E582138CF092F78B838A8201
:100A500022E4F583F58275F080F4A2D11322E4F547
:100A600083F58275F0C0747F227804EC7011E58202
:100A700024F8500AF582E4C9CACBFCD8EF22EC78FE
:100A800020058220E713D5820122C3E933F9EA3336
:100A9000FAEB33FBEC33FCD8EA158222AA82AB8353
:100AA000A2F73392D16002D2F7F582ACF0E581244F
:100AB000F9F8E6FD08E6FE0886F008E6A2F73392AC
:100AC000D56002D2F7F583AFF022E582C583F582C7
:100AD000A2D133A2D592D11392D5ECCFFCEBCEFBB1
:100AE000EACDFA226040F82582500274FFF582E8D0
:100AF00024F8501ECCCBCAF9E4CC24F85014CBCA4D
:100B0000F9E4CB24F8500BCAF9E4CA24F85003796D
:100B1000002224086010F8C3EC13FCEB13FBEA136B
:100B2000FAE913F9D8F122AA827438C0E0740BC034
:100B3000E0C022C0238A82220529E4B52902052AC1
:100B400022AA8274302AFA24C6500A74072AFA307C
:100B500000034302208A82020B27E582FAC4540F65
:100B6000F582C002120B41D002740F5AF582020BBB
:100B700041AA24AB25AC26AD27AE28752F20EE2E3A
:100B8000FEED235401FF4206EA2AFAEB33FBEC3375
:100B9000FCED33FDC3EE952B4008EEC3952BFE43D1
:100BA0000201D52FD98A248B258C268D278E2822C9
:100BB00078E0E624D075F00AA4FA78E1E624D02A99
:100BC000FA78DF8603BB2D04C3E49AFA752B01C3C0
:100BD000E464808AF063F08095F05029752F038AD1
:100BE0000374F6252F401C052BE52F1424D4F8E5BB
:100BF0002F24D4F98704A604772E1BEBFA60040592
:100C00002F80DE8B02EA30E70D78D5860378D6A6F2
:100C10000378D5762E0AE52D600AE52D04FB252BF9
:100C2000F52B8005300B02052B78D48603E4BB2D11
:100C30000104FB7006200603300702052B30040375
:100C4000020CF7300557EB600C75822DC002120BB9
:100C500027D002801C30060C75822BC002120B2795
:100C6000D002800D30070A758220C002120B27D0F7
:100C70000278D58604BC2E0C758230C002120B2778
:100C8000D002152CAC2C152CC3E52B9C4003020D77
:100C90003B758230C002120B27D00280E7AC2C15C6
:100CA0002CC3E52B9C500C758220C002120B27D060
:100CB0000280EA78D48604BC2D0C75822DC0021205
:100CC0000B27D002801C30060C75822BC002120B41
:100CD00027D002800D30070A758220C002120B2730
:100CE000D00278D58604BC2E52758230C002120B19
:100CF00027D002152C8044EB600E75822DC00212A5
:100D00000B27D002152C802030060E75822BC002D6
:100D1000120B27D002152C800F30070C758220C0D3
:100D200002120B27D002152C78D58603BB2E0C752A
:100D30008230C002120B27D002152C752F01C20D74
:100D4000E52F24D4F88603BB4503020DF8BB2E34EF
:100D50008A03C3E464808BF063F08095F0500F75D4
:100D60008230C003120B27D0031B8B0280E48B025E
:100D7000D20DE52D7038200B03020DF875822E126E
:100D80000B278074300D278A03EB30E71FC3E46420
:100D900080852DF063F08095F0500C758230C00393
:100DA000120B27D003152D0B8B0280DD8B02300D2B
:100DB0000EC3E46480852DF063F08095F05021E54A
:100DC0002F24D4F886038B82C002120B27D0023066
:100DD0000D0EE52F24D4F88603BB2E028002152DBC
:100DE000152CC3E46480852DF063F08095F04003FA
:100DF000200D05052F020D40C3E46480852DF063AE
:100E0000F08095F0500A758230120B27152D80E87E
:100E100030040FAA2C152CEA6008758220120B27CB
:100E200080F122E52D7003300B0D7407252DFAE5B6
:100E30002CC39AF52C8006E52C24FAF52C752F008E
:100E400078D48602BA2B0F20060C78D4762020079F
:100E500005752F01052C200419AA2CC3E464808A8F
:100E6000F063F08095F0500A758220120B27152C44
:100E700080E7C20DE52F24D4F88602BA000280690B
:100E8000BA451F3000027665C3E46480852DF063A7
:100E9000F08095F0500A758230120B27152D80E8EE
:100EA000D20DC3E52F9402E433FA7014EA700EC336
:100EB000E46480852DF063F08095F04003300D16DA
:100EC000E52F24D4F886028A82120B27E52F24FD11
:100ED0005012152D800E7402B52F09300B06758245
:100EE0002E120B27052F020E74300419AA2CC3E40E
:100EF00064808AF063F08095F0500A758220120BAE
:100F000027152C80E722858222858323E4F529F5A5
:100F10002AAA30AB31AC328A828B838CF012068DD8
:100F2000FD74012AF530E43BF5318C32EDFA7003A3
:100F30000214ACBA250280030214A4C204C205C282
:100F400006C207C208C209C20AC20BC201C202C25B
:100F500003752B00752C00752DFFAB30AC31AD3215
:100F60008B828C838DF012068DFAA3AB82AC838BBF
:100F7000308C318D32BA25078A82120B2780928AF3
:100F800006BE3000402E8A06EE24C6402774FFB508
:100F90002D13E52C75F00AA4FEEA24D02EF52C7052
:100FA000BFD20580BBE52D75F00AA4FEEA24D02E41
:100FB000F52D80ACBA2E0A74FFB52DA4752D0080D6
:100FC0009F8A06BE6100400E8A06EE2485400753C4
:100FD00002DFD2008002C200BA20028075BA230369
:100FE000021061BA2A03021066BA2B02805FBA2D82
:100FF000028055BA4202805FBA43030210ABBA4482
:10100000030211E6BA4503021200BA46030211FCBC
:10101000BA4703021204BA49030211E6BA4C02802D
:101020003BBA4E03021208BA4F030211EDBA500345
:1010300002117FBA53030210CFBA55030211F2BA5C
:1010400058030211F7021232D204020F60D20602D4
:101050000F60D207020F60D209020F60D20A020F9E
:1010600060D20B020F6074FFB52D2030090BE53301
:1010700014F88833862C020F60E53324FEF8883399
:101080008606088607188E2C020F6030090BE533A0
:1010900014F88833862D020F60E53324FEF8883378
:1010A0008606088607188E2D020F6030090AE53380
:1010B00014F888338602800FE53324FEF8883386DF
:1010C00003088604188B028A82120B27021237E566
:1010D0003324FDF88833860308860408860518182B
:1010E0008B248C258D268B828C838DF0121614AB6D
:1010F00082AC838B2E74FFB52D03852E2D20041D0D
:10110000C3E52E952C5016E52CC3952EF52CAB2C53
:10111000152CEB6008758220120B2780F185248244
:101120008525838526F012068DFBFA6029AB2D15E7
:101130002DC3E464808BF063F08095F050188A82B0
:10114000120B27AB24AC25AD260BBB00010C8B2466
:101150008C258D2680C7200403021237C3E52E9507
:101160002C4003021237E52CC3952EF52CAB2C1521
:101170002CEB7003021237758220120B2780EEE5EC
:101180003324FDF88833860308860408860518187A
:101190008B248C258D26E526FB30E7047A438013CB
:1011A000EB546060047A50800AEB30E6047A4980A0
:1011B000027A588A82C002120B2775823A120B27D4
:1011C000758230120B27758278120B27D002BA492C
:1011D00002800BBA50028006852582120B5A8524A4
:1011E00082120B5A8051D208752B0A804A752B083F
:1011F0008045752B0A8040752B10803BD2018037CB
:10120000D2028033D203802FE53324FDF888338661
:101210000308860408860518188B248C258D268BD8
:10122000828C838DF0E529120840A3E52A1208403C
:1012300080058A82120B27200106200203300370EA
:10124000E53324FCF88833860308860408860508FD
:1012500086061818188B248C258D268E27E524E504
:1012600025E526E5278B828C838DF0EE1214F5742C
:10127000FFB52D03752D06300327747F5527FB8B93
:1012800028E528EB2BFB8B28E52630E70674014583
:1012900028F528E52824684006749925284002D2BC
:1012A00002300206120E23020F11120BB0020F11B0
:1012B000E52B7003020F117BD930092BE53314F8AD
:1012C0008833E6FC3395E0FDFEFF8C248D258E26C9
:1012D0008F2720085EAC247D007E007F008C248D4B
:1012E000258E268F27804C300A1FE53324FCF88892
:1012F0003386040886050886060886071818188CA1
:10130000248D258E268F27802AE53324FEF8883306
:10131000860408860518ED3395E0FEFF8C248D25A4
:101320008E268F2720080CAC24AD257E007F008EF2
:10133000268F27300B43E524452545264527603970
:101340007408B52B0C758230C003120B27D00380B4
:10135000287410B52B23758230C003120B27D003DD
:1013600030000C758278C003120B27D003800A75F9
:101370008258C003120B27D003300825AC24AD25BA
:10138000AE26E527FF30E717C3E49CFCE49DFDE4AF
:101390009EFEE49FFF8C248D258E268F278002C21F
:1013A00008752E00D20C8B00752800C000120B713E
:1013B000D000200C0DE528C4FCE6FD4CF61888038F
:1013C0008002A628052EB20CE52445254526452792
:1013D00070D68803E52C7003752C0120051A2004B3
:1013E00017E52E04FCC3952C500E758220C0031205
:1013F0000B27D003152C80E930080E75822DC00311
:10140000120B27D003152C8024E52E602030060E09
:1014100075822BC003120B27D003152C800F3007C9
:101420000C758220C003120B27D003152C20041E3C
:10143000AC2C152CC3E52E9C50273005047C308045
:10144000027C208C82C003120B27D00380E2C3E50C
:101450002E952C5009E52CC3952EF52C8003752C68
:10146000008B00AB2E152EEB6022B20C200C0A086C
:10147000E6C4540FFB8B2880078603740F5BF528A6
:10148000852882C000120B41D00080D720040302BF
:101490000F11AB2C152CEB7003020F11758220126B
:1014A0000B2780EE8A82120B27020F118529828575
:1014B0002A8322AA82BA0A0810990280FB75990D24
:1014C00010990280FB8A9922FCABF0AA83A982744E
:1014D0009EF582C2D1EC30E716D2D1E9F42401F9AD
:1014E000EAF43400FAEBF43400FBECF43400FC12C0
:1014F0000A69020A1AC0E0F84582458345F070097E
:10150000F5F0FBFCFDFE0215C3E823A2F792E0F81C
:10151000A982AA83D2F7ABF07C007E07C3749798A8
:10152000404074FF2EFE740A89F0A4F985F082749D
:101530000A8AF0A4FA85F083740A8BF0A4FB740580
:1015400029F9EA3582FAEB3583FB740035F0FCC3E8
:10155000EC13FCEB13FBEA13FAE913F908EC70EF58
:1015600080BAE8C3947FF88B838EF0E4FBFCFDFE29
:10157000FF08C3E933F9EA33FAE58333F583EB3B3C
:10158000D4FBEC3CD4FCED3DD4FDEE3ED4FEEF3F6D
:10159000D4FF602D05F074052BD4FBE43CD4FCE4AF
:1015A0003DD4FDE43ED4FEE43FD4FF758204C3EF96
:1015B00013FFEE13FEED13FDEC13FCEB13FBD582D2
:1015C000EDD8AF78D4D0E020E704762B8002762DDA
:1015D000087906E7C4540F4430F608B90603762E9E
:1015E00008E7540F4430F60819B902E7764508E5D4
:1015F000F020E704762B8004762DF4040875F00AB9
:10160000844430F608E5F04430F608E4F69000D45F
:1016100075F04022AA82AB83ACF07D007E008A8206
:101620008B838CF012068DFFA3AA82AB83EF600739
:101630000DBD00EA0E80E78D828E8322000000003F
:00000001FF
