:100000000200037581CE120183E582600302006F56
:10001000780079007A007B007C007D00EC4D601C4C
:1000200088828983E493A3A882A9838A828B83F040
:10003000A3AA82AB831CBCFFE31D80E07582007520
:1000400083007C007D04EC4D600AE4F0A31CBCFF3F
:10005000F51D80F27582007583007C007D00EC4DFB
:10006000600AE4F0A31CBCFFF51D80F212007412BC
:10007000023D80FEE4F522F523E4F524F525E4F5C0
:100080002AF52BE4F511F5122200000202F70D0A01
:100090004A44592D343020746573740D0A0041545C
:1000A0002B44564944414641460D0A0041542B52C7
:1000B000464944464642420D0A0041542B56455299
:1000C0000D0A0041542B424155440D0A0041542B66
:1000D000524649440D0A0041542B445649440D0AE6
:1000E0000041542B5246430D0A0041542B504F57A8
:1000F000450D0A0041542B434C53530D0A00436FE6
:100100006D6D616E643A20257300526573706F6E79
:1001100073653A2025730D0A004572726F723A209A
:10012000496E70757420737472696E6720697320EC
:10013000746F6F2073686F727420746F2073706CAB
:1001400069742E0A005354523A202573200D0A0078
:1001500020253034640D0A0025730D0A00583A201A
:100160002564200D0A00593A202564200D0A0074E8
:100170006573740D0A003C4E4F20464C4F41543E6F
:1001800000000475A7007597DE7597AD75FF807543
:10019000EF0675A71075C12075A70075A90075A990
:1001A00000E5A930E7FB75A90375A903E5A930E7C8
:1001B000FB43A41143A60175E10175E20075E3411B
:1001C000759810758DE6858D8B53890F438920D2E4
:1001D0008ED29943A504D2AF75820022AA82AB8346
:1001E000ACF0FD75A72075930C75C8107594008A46
:1001F0006D8B6E8C6F8D7090A20075F04A74041236
:1002000009E7AA82AB83ACF0FD756D18E4F56EF5D5
:100210006FF5708A828B838CF0ED1209E7AA82ABAE
:1002200083ACF0FDE4C39AFAE49BFB74019CE49D6B
:100230008A958B96D2C943944075A700229001F409
:100240001209AC748EC0E07400C0E07480C0E0128B
:100250000A61158115811581902580E4F5F0120160
:10026000DC12028B1202DC12086F1208DE12097017
:1002700085820985830A85F00BF50C120979858240
:100280000D85830E85F00FF51080DC90009E75F0D3
:10029000801204599000AC75F0801204599000BA95
:1002A00075F0801204599000C375F08012045990C3
:1002B00000CD75F0801204599000D775F0801204BB
:1002C000599000E175F0801204599000EA75F080B1
:1002D0001204599000F475F08002045975A7107546
:1002E000980043A60175A26075A37375A4FF75A558
:1002F000FF43F304D29A22C0E0C0D075D00075A7A6
:1003000010C29F74012522F522E43523F523C3E5AD
:100310002294E8E52364809483400BE4F522F523DE
:10032000B292E524E525D0D0D0E032AA8275A7208C
:1003300010C90280FB8A9275A70022AA82AB83AC07
:10034000F08A828B838CF0120AF6FD60188D82C0D1
:1003500002C003C00412032BD004D003D0020ABA97
:1003600000DF0B80DC2275A72010C80280FB53C879
:100370003F85928275A7002275A7207A007B002016
:10038000C82675A700758214C002C003120982D066
:1003900003D00275A7200ABA00010BBAA8E1BB611D
:1003A000DE75A70075820A22C2C853C83F859282B3
:1003B00075A70022AA82AB83ACF0C002C003C004C0
:1003C000120378AD82D004D003D002BD0A0A8A821B
:1003D0008B838CF0E4020C618A828B838CF0ED12AB
:1003E0000C61A3AA82AB8380D175A720A2C875A790
:1003F0000022AA82AB837C007D00C3EC9AED9B5067
:10040000477E00BE04005039C002C003C004C005CE
:10041000C0061203E9E433D006D005D004D003D0DF
:10042000026001227582FAC002C003C004C005C088
:1004300006120982D006D005D004D003D0020E8067
:10044000C20CBC00B50D80B222C2CC30C808859267
:100450006D756E0080F5D2CC22AA82AB83ACF0C061
:1004600002C003C004C002C003C00474FEC0E07434
:1004700000C0E07480C0E0120A61E58124FAF581D1
:10048000C2A09000051209ACD004D003D0028A8229
:100490008B838CF012033B90007975F0401203B40B
:1004A00090000A1209ACD2A07479C0E07400C0E0D8
:1004B0007440C0E0740AC0E07401C0E07480C0E021
:1004C000120A61E58124FAF5812285822E85832F27
:1004D00085F030E4F531F532753301E4F534790017
:1004E0007F00852E82852F838530F0120AF6F8B8BA
:1004F0002D0A7533FF7534FF79017F008900E825E7
:100500002EF9EF352FFDAE3089828D838EF0120AE1
:10051000F6FD6051C3ED648094B0403E74B98DF037
:1005200063F08095F0403385316D85326E90000A1E
:10053000C005C007C000120B12AE82A983D000D044
:1005400007D005ED3395E0FAED24D0FDEA34FFFA4B
:10055000ED2EF531EA39F53280049000002208B81A
:10056000009C0F809985316D85326E85338285348C
:1005700083020B1285823B85833C85F03D120D3052
:1005800085823E85833FE4F540F541F542F543C35E
:10059000E53E9406E53F6480948050317419C0E0D4
:1005A0007401C0E07480C0E0120A611581158115E4
:1005B00081C03BC03CC03D7445C0E07401C0E074E4
:1005C00080C0E0120A61E58124FAF58122A83BAFE0
:1005D0003CA93D88828F8389F0120AF6FD6024BD14
:1005E0002D1AE8B53B10EFB53C0CE9B53D08754058
:1005F00001E4F5418006754201E4F54308B800D3F3
:100600000F80D0E5404541605074012535FDE4354B
:1006100036FEAF377401253BF56DE4353CF56E854C
:100620003D6F757003E4F5718D828E838FF0120A31
:100630008274042535FDE43536FEAF378D828E8316
:100640008FF0E4120C61AD35AE36AF378D828E83FC
:100650008FF0742D120C618030853B6D853C6E856A
:100660003D6F757003E4F571853582853683853776
:10067000F0120A8274032535FDE43536FEAF378D5E
:10068000828E838FF0E4120C61E54245436058741A
:10069000012538FDE43539FEAF3AE53E253BF8E566
:1006A0003F353CF9AA3DE824FDF56DE934FFF56ED0
:1006B0008A6F757003E4F5718D828E838FF0120A54
:1006C0008274042538FAE43539FBAC3A8A828B838C
:1006D0008CF0E4120C61AA38AB39AC3A8A828B8375
:1006E0008CF0742D020C61E53E253BFAE53F353C6C
:1006F000FBAC3DEA24FDF56DEB34FFF56E8C6F75B8
:100700007003E4F571853882853983853AF0120AE1
:100710008274032538FAE43539FBAC3A8A828B833C
:100720008CF0E4020C6185824A85834B85F04C9005
:100730000005120B88AD82AE838D518E5275530029
:10074000900005120B88A882A98388548955E4F586
:1007500056F54FF550F54DF54EE54D254AF9E54E68
:10076000354BFEAF4C89828E838FF0120AF6F55717
:10077000E4B557028063855782C006C007C00112E6
:100780000D1CE582D001D007D006700D89828E83C2
:100790008FF0120AF6F9B92D35AE4FAF50054FE480
:1007A000B54F020550EE254AFEEF354BFFA94CE54B
:1007B0004D254AFDE54E354BF8AA4C8D8288838A3B
:1007C000F0120AF6FD8E828F8389F0120C61054DBE
:1007D000E4B54D02054E020759E54F254AFAE550AA
:1007E000354BFBAC4C8A828B838CF0E4120C618518
:1007F0005135855236855337855438855539855658
:100800003A854A82854B83854CF0120574AA44AB25
:1008100045AC468551828552838553F0C002C003A2
:10082000C0041204CAAD82AE83D004D003D0028AC1
:10083000828B838CF0ED120C61A3EE120C61AA473F
:10084000AB48AC498554828555838556F0C002C0BB
:1008500003C0041204CAAD82AE83D004D003D00218
:100860008A828B838CF0ED120C61A3EE020C61E5A1
:100870002445257068E524E525AA2AAB2B052AE442
:10088000B52A02052BC002C0037450C0E07401C039
:10089000E07480C0E07479C0E07400C0E07440C0CF
:1008A000E0120CC9E58124F8F58190007975F040DB
:1008B00012033B7479C0E07400C0E07440C0E0747F
:1008C00058C0E07401C0E07480C0E0120A61E581A4
:1008D00024FAF5811204499000C80203F22212039F
:1008E000E940012290007975F0401203B4120449E6
:1008F00090007975F040120D3085822C85832D751E
:100900004426754500754640754728754800754969
:100910004090007975F040120726C3E52C940BE552
:100920002D648094804033C026C027745DC0E0747D
:1009300001C0E07480C0E0120A61E58124FBF5810A
:10094000C028C0297466C0E07401C0E07480C0E0B3
:10095000120A61E58124FBF58122746FC0E0740105
:10096000C0E07480C0E0120A6115811581158122F2
:10097000852682852783020D0F852882852983029B
:100980000D0FAA82438E407592B87593FF8592949D
:100990008593957591047B00C3EB9A500BE59130DC
:1009A000E7FB53917F0B80F075910022AA82AB8305
:1009B0007C007D00C3EC9AED9B502B7E00BE0400B2
:1009C000501D7582FAC002C003C004C005C00612E3
:1009D0000982D006D005D004D003D0020E80DE0CF0
:1009E000BC00D10D80CE22FB7A20E4FCFDFEFFE5A9
:1009F000822582F582E58333F583E5F033F5F0EB6C
:100A000033FB4017DAE98042E5822582F582E583EF
:100A100033F583E5F033F5F0EB33FBEC33FCED33EA
:100A2000FDEE33FEEF33FFEC956DED956EEE956FB9
:100A3000EF95704013EC956DFCED956EFDEE956FA6
:100A4000FEEF9570FF438201DABEEB220213788538
:100A5000826685836785F068851C69900A4C020D63
:100A6000E1C008858108E50824FBF569E50824FB59
:100A7000F88666088667088668900A4C120DE1D0F1
:100A80000822AA82AB83ACF08A728B738C74A87034
:100A9000A971856D75856E76856F77E849602F85BC
:100AA00075828576838577F0120AF6F578601F18CF
:100AB000B8FF01190575E4B5750205768A828B8346
:100AC0008CF0E578120C61A3AA82AB8380CD8805F7
:100AD000890618B8FF0119ED4E60118A828B838C4C
:100AE000F0E4120C61A3AA82AB8380E28572828556
:100AF00073838574F02220F71430F6148883A8825B
:100B000020F507E6A88375830022E280F7E49322AC
:100B1000E022E582856DF0A4C582C0F0856EF0A468
:100B2000D0F025F0C583856DF0A42583F583227A66
:100B3000007B00900181E493FC740193FDEA4B700B
:100B40000A0ABA00010B1CBCFF011D8A118B128519
:100B50001182851283EC2AFAED3BFBEA24FEFAEBC4
:100B600034FFFBEAF0A3EBF0851182851283E0FAF3
:100B7000A3E0FB8A828B83E4F0A3F08511828512C7
:100B800083A3A3E4F0A3F022858213858314C374A6
:100B9000FB951374FF9514500490000022740425F3
:100BA00013F513E43514F514E51145127003120B17
:100BB0002FAC11AD128C828D83E0FEA3E0FF8E007E
:100BC0008F018C028D03E8C39AF8E99BF98C828D22
:100BD00083A3A3E0FAA3E0FBE8C39AF8E99BF9C377
:100BE000E89513E99514400974042CFAE43DFB8060
:100BF000128E048F058C828D83E0FEA3E0FF4E7081
:100C0000B4FAFBEA4B605574022CFEE43DFF8E8281
:100C10008F83E0F8A3E0F948700D8E828F83E5138F
:100C2000F0A3E514F08035E82CF8E93DF98C828DCD
:100C300083E0FEA3E0FF88828983EEF0A3EFF08CCF
:100C4000828D83E8F0A3E9F088828983A3A3E5136A
:100C5000F0A3E514F0740428FAE439FB8A828B834C
:100C60002220F71030F6118883A88220F507F6A815
:100C70008375830022F280F7F022AA82AB15AC16AE
:100C8000AD178B828C838DF0EA120C610515E4B5EB
:100C9000150205162285821585831685F01785189D
:100CA00066851967851A68851B69900C7A120DE1B3
:100CB000AA82AB83AC15AD16AE178C828D838EF0F5
:100CC000E4120C618A828B8322C008858108E508C2
:100CD00024F8F569E50824FBF886150886160886C9
:100CE00017E50824F8F88666088667088668900C79
:100CF0007A120DE1AA82AB83AC15AD16AE178C82C9
:100D00008D838EF0E4120C618A828B83D00822AC32
:100D100083AB827A007900748E021396AA82BA306D
:100D2000004009EA24C6400475820122758200222F
:100D3000AA82AB83ACF07D007E008A828B838CF02C
:100D4000120AF6FFA3AA82AB83EF60070DBD00EA8B
:100D50000E80E78D828E8322AA827469C0E0740DB2
:100D6000C0E0C058C0598A8222055FE4B55F020521
:100D70006022AA8274302AFA24C6500A74072AFA1A
:100D80003000034302208A82020D58E582FAC454DF
:100D90000FF582C002120D72D002740F5AF5820252
:100DA0000D72AA5AAB5BAC5CAD5DAE5E756520EEB4
:100DB0002EFEED235401FF4206EA2AFAEB33FBEC48
:100DC00033FCED33FDC3EE95614008EEC39561FE43
:100DD000430201D565D98A5A8B5B8C5C8D5D8E5E32
:100DE00022858258858359E4F55FF560AA66AB6772
:100DF000AC688A828B838CF0120AF6FD74012AF5A6
:100E000066E43BF5678C68EDFA7003021371BA254E
:100E1000028003021369C204C205C206C207C208E7
:100E2000C209C20AC20BC201C202C20375610075C7
:100E300062007563FFAB66AC67AD688B828C838D97
:100E4000F0120AF6FAA3AB82AC838B668C678D68CE
:100E5000BA25078A82120D5880928A06BE30004059
:100E60002E8A06EE24C6402774FFB56313E562752B
:100E7000F00AA4FEEA24D02EF56270BFD20580BB32
:100E8000E56375F00AA4FEEA24D02EF56380ACBABF
:100E90002E0A74FFB563A4756300809F8A06BE6145
:100EA00000400E8A06EE248540075302DFD2008000
:100EB00002C200BA20028075BA2303020F3CBA2A8C
:100EC00003020F41BA2B02805FBA2D028055BA424D
:100ED00002805FBA4303020F86BA44030210C1BA0C
:100EE00045030210DBBA46030210D7BA47030210CB
:100EF000DFBA49030210C1BA4C02803BBA4E03026A
:100F000010E3BA4F030210C8BA500302105ABA5382
:100F100003020FAABA55030210CDBA58030210D229
:100F200002110DD204020E3BD206020E3BD2070282
:100F30000E3BD209020E3BD20A020E3BD20B020E2E
:100F40003B74FFB5632030090BE56914F8886986A6
:100F500062020E3BE56924FEF8886986060886076A
:100F6000188E62020E3B30090BE56914F888698619
:100F700063020E3BE56924FEF88869860608860749
:100F8000188E63020E3B30090AE56914F8886986F9
:100F900002800FE56924FEF8886986030886041834
:100FA0008B028A82120D58021112E56924FDF8881D
:100FB00069860308860408860518188B5A8C5B8D91
:100FC0005C8B828C838DF0120D30AB82AC838B6492
:100FD00074FFB5630385646320041DC3E5649562F3
:100FE0005016E562C39564F562AB621562EB60086A
:100FF000758220120D5880F1855A82855B83855C4D
:10100000F0120AF6FBFA6029AB631563C3E464804F
:101010008BF063F08095F050188A82120D58AB5A0D
:10102000AC5BAD5C0BBB00010C8B5A8C5B8D5C80A8
:10103000C7200403021112C3E56495624003021144
:1010400012E562C39564F562AB621562EB70030250
:101050001112758220120D5880EEE56924FDF88882
:1010600069860308860408860518188B5A8C5B8DE0
:101070005CE55CFB30E7047A438013EB546060046A
:101080007A50800AEB30E6047A4980027A588A82E4
:10109000C002120D5875823A120D58758230120D29
:1010A00058758278120D58D002BA4902800BBA5096
:1010B000028006855B82120D8B855A82120D8B8011
:1010C00051D20875610A804A756108804575610AC8
:1010D0008040756110803BD2018037D2028033D2CC
:1010E00003802FE56924FDF88869860308860408D3
:1010F000860518188B5A8C5B8D5C8B828C838DF0E7
:10110000E55F120C61A3E560120C6180058A821212
:101110000D5820010620020330035AE56924FCF82B
:101120008869860308860408860508860618181844
:101130008B5A8C5B8D5C8E5D755A76755B01755C28
:1011400080855A6A855B6B855C6C7401256AFEE458
:10115000356BFFAB6C8E5A8F5B8B5C856A82856BBF
:1011600083856CF0120AF6FBFA7003020DEC8A829A
:10117000120D5880CCE5617003020DEC7BCE300976
:101180002BE56914F88869E6FC3395E0FDFEFF8CD9
:101190005A8D5B8E5C8F5D20085EAC5A7D007E00B0
:1011A0007F008C5A8D5B8E5C8F5D804C300A1FE512
:1011B0006924FCF88869860408860508860608867E
:1011C000071818188C5A8D5B8E5C8F5D802AE56934
:1011D00024FEF88869860408860518ED3395E0FE3C
:1011E000FF8C5A8D5B8E5C8F5D20080CAC5AAD5B1A
:1011F0007E007F008E5C8F5D300B43E55A455B457A
:101200005C455D60397408B5610C758230C00312AD
:101210000D58D00380287410B56123758230C00347
:10122000120D58D00330000C758278C003120D588F
:10123000D003800A758258C003120D58D0033008BD
:1012400025AC5AAD5BAE5CE55DFF30E717C3E49CAF
:10125000FCE49DFDE49EFEE49FFF8C5A8D5B8E5C5A
:101260008F5D8002C208756400D20C8B00755E0031
:10127000C000120DA2D000200C0DE55EC4FCE6FDFE
:101280004CF61888038002A65E0564B20CE55A4548
:101290005B455C455D70D68803E56270037562014D
:1012A00020051A200417E56404FCC39562500E75EE
:1012B0008220C003120D58D003156280E930080E59
:1012C00075822DC003120D58D00315628024E56489
:1012D000602030060E75822BC003120D58D0031506
:1012E00062800F30070C758220C003120D58D003A6
:1012F000156220041EAC621562C3E5649C50273061
:1013000005047C3080027C208C82C003120D58D0F2
:101310000380E2C3E56495625009E562C39564F514
:101320006280037562008B00AB641564EB6022B2CF
:101330000C200C0A08E6C4540FFB8B5E8007860362
:10134000740F5BF55E855E82C000120D72D0008066
:10135000D7200403020DECAB621562EB7003020DA3
:10136000EC758220120D5880EE8A82120D58020D03
:10137000EC855F8285608322AA82BA0A08109902EE
:1013800080FB75990D10990280FB8A9922FCABF0C5
:10139000AA83A982749EF582C2D1EC30E716D2D11D
:1013A000E9F42401F9EAF43400FAEBF43400FBEC3C
:1013B000F43400FC1214090213BAB98003EA13B31F
:1013C0004010EA2401FAE43BFBE43CFC50047C803E
:1013D0000582BC000EBB000BBA0008E4F5F0F583F3
:1013E000F58222A2D1E582138CF092F78B838A8258
:1013F00022E4F583F58275F080F4A2D11322E4F59E
:1014000083F58275F0C0747F227804EC7011E58258
:1014100024F8500AF582E4C9CACBFCD8EF22EC7854
:1014200020058220E713D5820122C3E933F9EA338C
:10143000FAEB33FBEC33FCD8EA1582220000000003
:00000001FF
