:1000000002000E00000000000000000200E7758101
:100010004112009DE582600302007A780079007A3F
:10002000007B007C007D00EC4D601C88828983E4AD
:1000300093A3A882A9838A828B83F0A3AA82AB832D
:100040001CBCFFE31D80E07582007583007C007D91
:1000500000EC4D600AE4F0A31CBCFFF51D80F275B6
:1000600082007583007C007D00EC4D600AE4F0A303
:100070001CBCFFF51D80F212007F12039F80FEE47E
:10008000F521F52275250075260075270075283F96
:10009000752900752A00752B00752C3F2275A70065
:1000A0007597DE7597AD75FF8075EF0675A71075AE
:1000B000C12075A70075A90075A900E5A930E7FB67
:1000C00075A90375A903E5A930E7FB75820022C273
:1000D0008CC28D438E045389F0438901758A607503
:1000E0008C73D2A9D28C22C020C0E0C0F0C082C0E4
:1000F00083C002C003C004C005C006C007C000C062
:1001000001C0D075D00075A700C28C758A60758C4F
:1001100073B292E523452470030201C8C374649549
:1001200021E464808522F063F08095F0502D740105
:10013000B52306E4B5240280028004D2A28015749F
:1001400002B52306E4B5240280028004D2A4800410
:10015000D2A4D2A2E4F521F5228065C025C026C034
:1001600027C02890000075F0C87442120469AA8262
:10017000AB83ACF0FDE58124FCF5818521828522ED
:1001800083C002C003C004C00512050C1203F8AA04
:1001900082E58124FCF581EA60267401B52306E43A
:1001A000B5240280028004C2A280157402B5230621
:1001B000E4B5240280028004C2A48004C2A4C2A2C6
:1001C0000521E4B521020522D28CD0D0D001D00087
:1001D000D007D006D005D004D003D002D083D0827F
:1001E000D0F0D0E0D02032C2A4C2A3C2A2C2A122C9
:1001F000D2A4C2A3D2A2C2A122C2A4D2A3C2A2D21A
:10020000A122AA82AB83ACF0FDC2A4C2A3E4C0E0E9
:10021000C0E0C0E0C0E08A828B838CF0ED1203F86E
:10022000AA82E58124FCF581EA6005D2A2C2A1225E
:10023000C2A2D2A122AA82AB83ACF0FDC2A2C2A10B
:10024000E4C0E0C0E0C0E0C0E08A828B838CF0EDC7
:100250001203F8AA82E58124FCF581EA6005D2A4A4
:10026000C2A322C2A4D2A322AA82AB83ACF0FDC057
:1002700002C003C004C005C002C003C004C005859D
:100280003982853A83853BF0E53C120428AE82E54D
:100290008124FCF581D005D004D003D002EE6003A8
:1002A00002039BC002C003C004C005C035C036C0F5
:1002B00037C038853D82853E83853FF0E540120496
:1002C00028AE82E58124FCF581D005D004D003D08E
:1002D00002EE600302039BE535453645378538F06D
:1002E000C2F745F07013EA4B4C8DF0C2F745F07041
:1002F00008F5411201E702039BC002C003C004C01D
:1003000005E4C0E0C0E0C0E0C0E08A828B838CF0EE
:10031000ED120439AE82E58124FCF581D005D004CC
:10032000D003D002EE601375410185358285368396
:100330008537F0E5381202028061E4C0E0C0E0C019
:10034000E0C0E08A828B838CF0ED1203F8AA82E58C
:100350008124FCF581EA601375410285358285367A
:10036000838537F0E5381202358030E4C0E0C0E024
:10037000C0E0C0E08535828536838537F0E53812E8
:1003800003F8AA82E58124FCF581EA60087541033F
:100390001201F080067541041201F9854182221292
:1003A00000CF852341852535852636852737852845
:1003B00038852D39852E3A852F3B85303C85313D5A
:1003C00085323E85333F853440852982852A838561
:1003D0002BF0E52C120268AA828A23752400852955
:1003E0002D852A2E852B2F852C308525318526328B
:1003F00085273385283480AAFFA88118181205376D
:10040000D2D133E6400730E70B7582012220E706A0
:1004100075820022C2D1120519E97003F5822230DB
:10042000D101B3E433F58222FFA8811818120537F1
:10043000120519E96401F58222FFA8811818120536
:1004400037D2D133E6400730E70B7582002220E730
:100450000675820122C2D1120519E97003F58222C4
:1004600020D101B3E433F582221205E4BC0003027B
:100470000583EF60FA30D502B2D1E583B4FF030201
:100480000599E582B4FF030205992583400724827C
:10049000400B0205832483145003020599F582EA78
:1004A0008DF0A4A8F0EA8EF0A428F8E435F0F9EB7A
:1004B0008DF0A428E935F0F9E433CA8FF0A429F9C6
:1004C000EA35F0FAEBF88EF0A429F9EA35F0FAE40F
:1004D00033FBEC8DF0A429F9EA35F0FAE43BFBE8B4
:1004E0008FF0A42AFAEB35F0FBE433CCFD8EF0A4B8
:1004F0002AFAEB35F0FBE43CFCED8FF0A42BFBEC8F
:1005000035F0FC20E7031205B1020562AC83AB8233
:100510007A007900748E02061B7901AA82E68F8226
:10052000B5821318E6B5F00E18E6B5830918E68A09
:1005300082B58202790022B4800FE5F0700AE5836B
:100540007006E58270027F00EFB6801518B60010C5
:1005500018B6000B18B6000608080876002208082E
:100560000822B98003EA13B34010EA2401FAE43BFD
:10057000FBE43CFC50047C800582BC000EBB000BFD
:10058000BA0008E4F5F0F583F58222A2D1E58213E2
:100590008CF092F78B838A8222E4F583F58275F0E2
:1005A00080F4A2D11322E4F583F58275F0C0747F44
:1005B000227804EC7011E58224F8500AF582E4C92F
:1005C000CACBFCD8EF22EC7820058220E713D58235
:1005D0000122C3E933F9EA33FAEB33FBEC33FCD8FD
:1005E000EA158222AA82AB83A2F73392D16002D2AB
:1005F000F7F582ACF0E58124F9F8E6FD08E6FE089F
:1006000086F008E6A2F73392D56002D2F7F583AF01
:10061000F022FCABF0AA83A982749EF582C2D1ECD1
:1006200030E716D2D1E9F42401F9EAF43400FAEB08
:10063000F43400FBECF43400FC1205B10205620056
:00000001FF
