:020000040800F2
:1000000000200020B9000008ED0A0008010B0008DC
:1000100000000000000000000000000000000000E0
:10002000000000000000000000000000ED0A0008D1
:100030000000000000000000ED0A0008ED0A0008C2
:10004000ED0A0008ED0A0008ED0A0008ED0A0008B4
:10005000ED0A0008ED0A0008ED0A0008ED0A0008A4
:1000600000000000ED0A0008ED0A0008ED0A000893
:10007000ED0A0008ED0A000800000000E100000899
:1000800000000000ED0A0008000000000000000071
:100090005501000800000000ED0A0008ED0A000804
:1000A000ED0A0008ED0A0008ED0A0008790D0008C5
:1000B00055140008ED0A000800F094FC00F056FC0E
:1000C000E1235B02180000F0AFFD62B6C04600F00D
:1000D0004BFB024B180000F017FFFEE7088B0008EF
:1000E00080B500AF8023DB051A698023DB05012181
:1000F0008A431A61144B1B685A1C134B1A60124B2B
:100100001B68180002F03AFF021C104B1B68191CF8
:10011000101C02F053FD031E00D112E00C4B1B68B3
:10012000012B0ED18023DB055B6B10331A0080237B
:10013000DB05FF210A405A63034B00221A6001F0DD
:1001400035FFC046BD4680BDE8010020000000200C
:10015000F001002080B500AF0B4B1A690A4B01215A
:100160008A431A61094B1B685A1C084B1A60074BDB
:100170001B68FA2B04DD054B00221A6001F01CFC01
:10018000C046BD4680BDC04600080140EC010020CD
:1001900080B500AF3D4BDA6A3C4B01210A43DA627D
:1001A000A023DB051B68032293431A00A023DB0571
:1001B00001210A431A60A023DB055A68A023DB054E
:1001C00001218A435A60A023DB051B680C2293435C
:1001D0001A00A023DB0504210A431A60A023DB05D3
:1001E0005A68A023DB0502218A435A60A023DB055D
:1001F0001B68302293431A00A023DB0510210A4319
:100200001A60A023DB055A68A023DB0504218A437A
:100210005A60A023DB051B68C02293431A00A02369
:10022000DB0540210A431A60A023DB055A68A0239E
:10023000DB0508218A435A60A023DB051B68144AAA
:100240001A40A023DB05802149000A431A60A0233D
:10025000DB055A68A023DB0510218A435A60A023DE
:10026000DB051B680B4A1A40A023DB058021C9006F
:100270000A431A60A023DB055A68A023DB0520216E
:100280008A435A60C046BD4680BDC0460010024049
:10029000FFFCFFFFFFF3FFFF80B500AF104BDA6AF2
:1002A0000F4B01210A43DA62A023DB051A68A02361
:1002B000DB050C490A401A60A023DB05DA68A0239D
:1002C000DB05802149040A43DA60A023DB05DA68F4
:1002D000A023DB0504490A40DA60C046BD4680BD64
:1002E00000100240FFFFFFFCFFFFFFFD80B500AFE5
:1002F0000D4BDA6A0C4B02210A43DA620B4B1A6887
:100300000A4B03210A431A60074BDA6A064B0221A3
:100310000A43DA62054B1A68044B0C210A431A603F
:10032000C046BD4680BDC0460010024000040050DB
:1003300080B500AFA023DB05012252429A601B4B1F
:10034000DA6A1A4B01210A43DA62A023DB051B6833
:10035000174A1A40A023DB058021C9040A431A600A
:10036000A023DB055A69A023DB05802189010A430C
:100370005A61A023DB051A68A023DB050D490A405A
:100380001A60A023DB05DA68A023DB058021C903FE
:100390000A43DA60A023DB05DA68A023DB050649FF
:1003A0000A40DA60C046BD4680BDC046001002402B
:1003B000FFFFFFF3FFFF3FFFFFFF7FFF80B500AFB1
:1003C000094BDA6A084B01210A43DA62A023DB05F4
:1003D0001B68064A1A40A023DB05802149020A4314
:1003E0001A60C046BD4680BD00100240FFFFFCFF02
:1003F00080B500AFA023DB051B68134A1A40A02379
:10040000DB05802149010A431A60A023DB055A68F5
:10041000A023DB0540218A435A60A023DB051B682B
:100420000A4A1A40A023DB058021C9010A431A6049
:10043000A023DB055A68A023DB0580218A435A608C
:10044000C046BD4680BDC046FFCFFFFFFF3FFFFF58
:1004500080B500AF294BDA6A284B02210A43DA62E1
:10046000274B1A68264B27490A401A60244BDA6842
:10047000234B8021C9010A43DA60214BDA68204B03
:1004800021490A40DA601E4B1A681D4B1F490A4079
:100490001A601B4BDA681A4B802149010A43DA6063
:1004A000174BDA68164B1A490A40DA60144B1A687F
:1004B000134B18490A401A60114BDA68104B80211F
:1004C000C9000A43DA600E4BDA680D4B12490A4044
:1004D000DA600B4B1A680A4BC0218A431A60084B3A
:1004E000DA68074B40210A43DA60054BDA68044BAF
:1004F00080218A43DA60C046BD4680BD00100240BC
:1005000000040050FF3FFFFFFF7FFFFFFFCFFFFF13
:10051000FFDFFFFFFFF3FFFFFFF7FFFF80B582B0B4
:1005200000AF7860054B1B697A6813405A4253410B
:10053000DBB21800BD4602B080BDC04600040050CA
:1005400080B582B000AF786039603B687A6807494F
:10055000074805F0FFFC064B01220221180001F0BC
:1005600019FCC046BD4602B080BDC046A08A000846
:10057000D801002090B587B002AFF860B9607A600A
:100580003B60F86804F0EAFA02000B00174C1848C8
:10059000B9680091210005F0DDFC154A154B1100EA
:1005A000180005F013FC124B01220121180001F084
:1005B000F1FB786804F0D2FA02000B000E4C0C48F4
:1005C00039680091210005F0C5FC094A094B11006A
:1005D000180005F0FBFB064B01220221180001F078
:1005E000D9FBC046BD4605B090BDC046AC8A0008E8
:1005F000D8010020B88A0008C08A000880B582B0FF
:1006000000AF7860786804F0A9FA02000B0007498F
:10061000074805F09FFC064B01220121180001F05C
:10062000B9FBC046BD4602B080BDC046CC8A0008BA
:10063000D801002080B582B000AF00237B6080200D
:10064000FFF76CFF031E21D01E2000F059FD802013
:10065000FFF764FF031E19D00E4B1B685A1C0D4B8D
:100660001A600C4B1B68032B06D10A4B00221A6040
:1006700002E07B6801337B608020FFF74FFF031EA1
:1006800004D07A68FA235B009A42F2DBC046BD468A
:1006900002B080BD0802002080B582B000AF002308
:1006A0007B604020FFF73AFF031E23D01E2000F09E
:1006B00027FD4020FFF732FF031E1BD00F4B1B68A6
:1006C0005A1C0E4B1A600D4B1B68032B02D10B4BAF
:1006D00000221A6000237B6002E07B6801337B60AC
:1006E0004020FFF71BFF031E04D07A68FA235B004B
:1006F0009A42F2DBC046BD4602B080BD0C0200202B
:1007000080B500AF0820FFF709FF031E23D01E208D
:1007100000F0F6FC0820FFF701FF031E1BD080202D
:10072000FFF7FCFE031E16D00C4B180005F0DAFB99
:100730000B4B01220121180001F02CFB094B012277
:100740000221180001F026FBFA239B00180000F09C
:10075000D7FC01F029FEC046BD4680BDD88A0008FE
:10076000E48A0008EC8A000880B582B000AF00235C
:100770007B60FFF7DDFD96239B01180000F0C4FDB0
:1007800001F038F9FFF704FD01F0DFFAFFF784FD0F
:10079000FFF7ACFDFFF712FEFFF75AFEFFF728FE4A
:1007A00001F0CCFB01F020F801F032FBFA235B00F2
:1007B000180000F0A5FC5B4B180005F007FB01F0EA
:1007C000F3FDFFF79DFF80235B00180001F06AFB3B
:1007D0000300180004F092F90022534B03F0C6FD09
:1007E00002000B001000190004F000FA021C802324
:1007F0001B065A404D4B1A6080239B00180001F0E5
:1008000051FB0300180004F079F90022484B03F073
:10081000ADFD02000B001000190004F0E7F9021C06
:1008200080231B065A40434B1A60FFF703FFFFF774
:1008300033FF3E4B1A68404B1B681900101C01F037
:10084000A1FE02003D4B1A603A4B1A683C4B1B68F4
:100850001900101C01F022FE02003A4B1A60374BBF
:100860001A68384B1B681900100001F0FFF801F0FE
:10087000AFF8354B1B68181C01F00CF9021C324B09
:100880001A60314B1B68181C04F068F902000B0059
:100890002E49080005F09AFA2B4B1B68181C04F02F
:1008A0005DF92B4A2B4B02F03BF9031E1ED0264B61
:1008B0001B68181C04F052F9274A284B02F044F92F
:1008C000031E13D07B685A1C7A60022B13DD244B65
:1008D00001221A601C4B1A68224B1B68191C101C41
:1008E00001F072FB021C1F4B1A6004E000237B60C6
:1008F0001B4B00221A60144B1B68181CFFF77EFE6E
:100900000E4B1A680F4B1B6819001000FFF718FEFA
:10091000154B1B689B68180004F070FBC82000F0A2
:10092000EFFB4EE7F08A000800B0A040F80100207D
:1009300000F09F40FC01002008020020000200207F
:100940000C02002004020020F4010020FC8A0008B0
:10095000333333333333EB3F9A9999999999D93F8C
:10096000F0010020000000200800002080B582B0C7
:1009700000AF164B7B60164B3B6007E07A68131D97
:100980007B603B68191D396012681A603A68114B28
:100990009A42F3D304E03B681A1D3A6000221A60C1
:1009A0003A680D4B9A42F6D30C4B3B6004E03B682F
:1009B0001A1D3A601B6898473A68094B9A42F6D369
:1009C000C046C046BD4602B080BDC046DC910008AE
:1009D00000000020D801002054040020DC91000811
:1009E000DC91000880B500AF3B4B1A683A4B0121FF
:1009F0000A431A60C046384B1B6804221340FAD0E1
:100A0000354B0122DA60C046334BDB680C221340C1
:100A1000042BF9D1314B1A68304B02210A431A607A
:100A20002E4B1A682D4B01210A431A602A4B9A6BF0
:100A3000294B802149050A439A63294B80221201E0
:100A40001A60C046264B5B6810221340FAD1224B35
:100A5000DA68214B23490A40DA601F4BDA681E4BE3
:100A60008821C9030A43DA601B4A1B4BD268DA604B
:100A7000194A194BD268DA60174A174BD268DA6004
:100A8000154B1A68144B18490A401A60124B1A6821
:100A9000114B802149040A431A60C0460E4B1A6864
:100AA00080239B041340F9D00B4BDA680A4B0321D7
:100AB0008A43DA60084BDA68074B03210A43DA609D
:100AC000C046054BDB680C2213400C2BF9D1C04605
:100AD000C046BD4680BDC046001002400020024016
:100AE00000700040FFFF02FFFFFFFFFE80B500AF78
:100AF000024B180000F008FAFEE7C046308B0008F1
:100B000080B500AF024B180000F0FEF9FEE7C046CA
:100B1000608B000890B585B000AF78603960184BE5
:100B20001B68002B02D101235B4224E00023FB6001
:100B30000AE0FB685A1CFA603A68D418114B180096
:100B400000F0ADF9030023707B68013B1A00FB68DD
:100B5000934205D20B4B180000F0CCF9031EE8D1EC
:100B6000FB68002B06D03A68FB68D31800221A7085
:100B7000FB6800E000231800BD4605B090BDC046EC
:100B8000A80200201002002080B584B000AF786079
:100B90003960224B1B68002B02D101235B4238E0F5
:100BA0007B683F2B0BDCC0461D4B180000F0A2F900
:100BB00003004022D21A7B689A42F5D302E0022356
:100BC0005B4226E00023FB600BE03A68FB68D31829
:100BD0001A78134B1100180000F030F9FB6801334C
:100BE000FB607B68FA689A42EFD30E4B1B680822C1
:100BF00013400DD10B4B1A680A4B08210A431A60A7
:100C0000074B180000F04BF903001A00054B9A62DD
:100C100000231800BD4604B080BDC046A8020020D5
:100C20005C0200200038014080B584B000AF7860DD
:100C300072B6C046454B00229A64444B9A6C434BB3
:100C40005A64424B5A6C414B1A64414B00229A64DD
:100C50003F4B9A6C3E4B5A643D4B5A6C3C4B1A646A
:100C60003C4B01221A603C4B00221A603B4BDA6A73
:100C70003A4B01210A43DA62394BFB607968F86824
:100C800001F042FE0300FB60A023DB059A68A0236D
:100C9000DB058021C9020A439A60A023DB055A685C
:100CA000A023DB052F490A405A60A023DB051B68FF
:100CB0002D4A1A40A023DB05802109030A431A604C
:100CC000A023DB055A6AA023DB0540210A435A62B0
:100CD000A023DB051B68254A1A40A023DB058021E1
:100CE00089030A431A60A023DB055A6AA023DB05A7
:100CF0008021C9000A435A62184B5A6B174B802156
:100D0000C9010A435A631A4B1A68194B6C210A43EA
:100D10001A60174B00225A60154B00229A60144B40
:100D2000FA68DA60124B1A68114B01210A431A6003
:100D3000104B1A680F4B802109050A431A6062B6EE
:100D4000C046C046BD4604B080BDC046100200206B
:100D50005C020020A8020020AC020020001002402B
:100D60000048E801FFFDFFFFFFFFF3FFFFFFCFFF9C
:100D70000038014000E100E080B500AF084BDB69BE
:100D80008022134001D000F025F8054BDB692022BA
:100D9000134001D000F006F8C046BD4680BDC046F5
:100DA0000038014080B500AF074B5B6ADAB2074BF1
:100DB0001100180000F042F8031E02D0044B01227B
:100DC0001A60C046BD4680BD0038014010020020B8
:100DD000AC02002080B500AF164B180000F08AF876
:100DE000031E08D0134B180000F059F803001A0036
:100DF000114B9A621BE0104B1A680F4B08218A4373
:100E00001A600D4BDB694022134005D00A4B1A6A69
:100E1000094B40210A431A62074BDB6980221340C9
:100E200005D0054B9A69044B10210A439A61C046CC
:100E3000BD4680BD5C0200200038014080B582B014
:100E400000AF78600A00FB1C1A707B681A6C7B6824
:100E50005B6C9A4205D17B689B6C002B01D001230F
:100E600019E072B6C0467B681B6C591C7A68116425
:100E70007A68F91C0978D1547B689B6C5A1C7B6892
:100E80009A647B681B6C402B02D17B6800221A6439
:100E900062B6C04600231800BD4602B080BD80B5D2
:100EA00084B000AF78607B689B6C002B01D100237D
:100EB0001CE072B6C0467B685B6C591C7A68516452
:100EC0000F22BA187968CB5C13707B685B6C402B7F
:100ED00002D17B6800225A647B689B6C5A1E7B6837
:100EE0009A6462B6C0460F23FB181B781800BD46F3
:100EF00004B080BD80B582B000AF78607B689B6C29
:100F00001800BD4602B080BD80B582B000AF7860E9
:100F10000B4B1B68002B09D101235B420BE07B6864
:100F20005A1C7A6019000120FFF72EFE7B681B789F
:100F3000002BF4D100231800BD4602B080BDC0468E
:100F4000A802002080B582B000AF0200FB1D1A701D
:100F5000FB1D19000120FFF717FEC046BD4602B079
:100F600080BD80B500AF044B1800FFF798FF030069
:100F70001800BD4680BDC04610020020B0B584B048
:100F800000AF786039601E4B1B68002B02D1012333
:100F90005B4231E00023FB600B23FB1800221A7038
:100FA00017E0C046174B1800FFF7A4FF031EF9D047
:100FB0000B257C19134B1800FFF771FF03002370FA
:100FC000FB685A1CFA601A007B689B187A19127821
:100FD0001A703B68013BFA689A4204DA0B23FB184B
:100FE0001B780D2BDDD1FB68002B04DDFB687A68D4
:100FF000D31800221A70FB681800BD4604B0B0BDBB
:10100000A80200201002002090B583B000AFFC1DA4
:10101000FFF7A7FF03002370FB1D1B781800FFF7E5
:1010200091FFFB1D1B781800BD4603B090BDB0B505
:1010300084B000AF78603960214B1B68002B02D16F
:1010400001235B4237E00023FB600B23FB180022E7
:101050001A701DE0C0461B4B1800FFF74BFF031E24
:10106000F9D00B257C19174B1800FFF718FF030068
:1010700023702C003B191B781800FFF763FFFB68F7
:101080005A1CFA601A007B689B183A1912781A7079
:101090003B68013BFA689A4204DA0B23FB181B7881
:1010A0000D2BD7D1FB68002B04DDFB687A68D318C1
:1010B00000221A70FB681800BD4604B0B0BDC046DF
:1010C000A80200201002002080B500AF0A4B0B4A96
:1010D0005A60094B00229A60074B05221A60C046ED
:1010E000054B1A6880235B021340F9D0024B0022A3
:1010F0001A60C046BD4680BD10E000E0FF7C0000E5
:1011000080B584B000AF78600023FB6004E0FFF797
:10111000DBFFFB680133FB60FA687B689A42F6D319
:10112000C046C046BD4604B080BD80B582B000AFA9
:101130000200FB1D1A70FB1D1B7819000F4801F0FF
:10114000E3FB030019000E4801F0DEFB03005A1E0A
:101150000C4B5A600B4B00229A600A4B05221A6016
:10116000C046084B1A6880235B021340F9D0054B38
:1011700000221A60C046BD4602B080BD40420F004A
:101180000048E80110E000E080B584B000AF78606E
:101190000023FB6015E00B23FB1800221A7008E007
:1011A000FA20FFF7C2FF0B217B181A787B18013257
:1011B0001A700B23FB181B78032BF1D9FB68013342
:1011C000FB60FA687B689A42E5D3C046C046BD46DC
:1011D00004B080BD80B582B000AF7860C0467B6847
:1011E0005A1E7A60002BFAD1C046C046BD4602B0F6
:1011F00080BDC04690B585B000AF78603960184BAF
:101200001B68002B02D101235B4224E00023FB601A
:101210000AE0FB685A1CFA603A68D418114B1800AF
:1012200000F0ABF9030023707B68013B1A00FB68F8
:10123000934205D20B4B180000F0CAF9031EE8D107
:10124000FB68002B06D03A68FB68D31800221A709E
:10125000FB6800E000231800BD4605B090BDC04605
:101260006C030020B402002080B584B000AF786029
:101270003960224B1B68002B02D101235B4238E00E
:101280007B684F2B0BDCC0461D4B180000F0A0F90B
:1012900003005022D21A7B689A42F5D302E002235F
:1012A0005B4226E00023FB600BE03A68FB68D31842
:1012B0001A78134B1100180000F02EF9FB68013367
:1012C000FB607B68FA689A42EFD30E4B1B680822DA
:1012D00013400DD10B4B1A680A4B08210A431A60C0
:1012E000074B180000F049F903001A00054B9A62F9
:1012F00000231800BD4604B080BDC0466C0300202A
:10130000100300200044004080B584B000AF786036
:1013100072B6C046454B00229A65444B9A6D434BCA
:101320005A65424B5A6D414B1A65414B00229A65F2
:101330003F4B9A6D3E4B5A653D4B5A6D3C4B1A657F
:101340003C4B01221A603C4B00221A603B4BDA6A8C
:101350003A4B01210A43DA62394BFB607968F8683D
:1013600001F0D2FA0300FB60A023DB059A68A023FA
:10137000DB05802149050A439A60A023DB055A68F2
:10138000A023DB052F490A405A60A023DB051B6818
:101390002D4A1A40A023DB05802189050A431A60E3
:1013A000A023DB055A6AA023DB058021C9040A4378
:1013B0005A62A023DB051B689B009A08A023DB056B
:1013C000802109060A431A60A023DB055A6AA0237C
:1013D000DB058021C9050A435A62184B9A6B174BEB
:1013E000802189020A439A63184B1A68174B6C21B3
:1013F0000A431A60154B00225A60144B00229A606F
:10140000124BFA68DA60114B1A68104B01210A433B
:101410001A600F4B1A680E4B802149050A431A6067
:1014200062B6C046C046BD4604B080BDB4020020CE
:10143000100300206C030020700300200010024005
:101440000048E801FFBFFFFFFFFFFFCF004400405F
:1014500000E100E080B500AF084BDB69802213405B
:1014600001D000F025F8054BDB692022134001D0A4
:1014700000F006F8C046BD4680BDC04600440040AE
:1014800080B500AF074B5B6ADAB2074B110018005A
:1014900000F042F8031E02D0044B01221A60C0463D
:1014A000BD4680BD00440040B4020020700300200F
:1014B00080B500AF164B180000F08AF8031E08D064
:1014C000134B180000F059F803001A00114B9A62F0
:1014D0001BE0104B1A680F4B08218A431A600D4B12
:1014E000DB694022134005D00A4B1A6A094B4021A0
:1014F0000A431A62074BDB698022134005D0054B73
:101500009A69044B10210A439A61C046BD4680BDCA
:10151000100300200044004080B582B000AF786026
:101520000A00FB1C1A707B681A6D7B685B6D9A421F
:1015300005D17B689B6D002B01D0012319E072B6A9
:10154000C0467B681B6D591C7A6811657A68F91C66
:101550000978D1547B689B6D5A1C7B689A657B68BF
:101560001B6D502B02D17B6800221A6562B6C04603
:1015700000231800BD4602B080BD80B584B000AF26
:1015800078607B689B6D002B01D100231CE072B654
:10159000C0467B685B6D591C7A6851650F22BA188A
:1015A0007968CB5C13707B685B6D502B02D17B68D4
:1015B00000225A657B689B6D5A1E7B689A6562B6ED
:1015C000C0460F23FB181B781800BD4604B080BD31
:1015D00080B582B000AF78607B689B6D1800BD4617
:1015E00002B080BD80B582B000AF78600B4B1B6845
:1015F000002B09D101235B420BE07B685A1C7A6007
:1016000019000120FFF730FE7B681B78002BF4D116
:1016100000231800BD4602B080BDC0466C03002008
:1016200080B582B000AF0200FB1D1A70FB1D1900CF
:101630000120FFF719FEC046BD4602B080BD80B54F
:1016400000AF044B1800FFF798FF03001800BD46D9
:1016500080BDC046B4020020B0B584B000AF786051
:1016600039601E4B1B68002B02D101235B4231E025
:101670000023FB600B23FB1800221A7017E0C04602
:10168000174B1800FFF7A4FF031EF9D00B257C1998
:10169000134B1800FFF771FF03002370FB685A1CFF
:1016A000FA601A007B689B187A1912781A703B68E6
:1016B000013BFA689A4204DA0B23FB181B780A2BC9
:1016C000DDD1FB68002B04DDFB687A68D3180022AB
:1016D0001A70FB681800BD4604B0B0BD6C03002052
:1016E000B402002080B500AF034B1800FFF770FF75
:1016F00003001800BD4680BDB402002090B583B041
:1017000000AFFC1DFFF79BFF03002370FB1D1B7840
:101710001800FFF785FFFB1D1B781800BD4603B0BE
:1017200090BDB0B584B000AF78603960214B1B68C4
:10173000002B02D101235B4237E00023FB600B2327
:10174000FB1800221A701DE0C0461B4B1800FFF763
:101750003FFF031EF9D00B257C19174B1800FFF72C
:101760000CFF030023702C003B191B781800FFF7B7
:1017700057FFFB685A1CFA601A007B689B183A19DD
:1017800012781A703B68013BFA689A4204DA0B231C
:10179000FB181B780D2BD7D1FB68002B04DDFB68F1
:1017A0007A68D31800221A70FB681800BD4604B08E
:1017B000B0BDC0466C030020B402002080B582B0EA
:1017C00000AF0200FB1D1A70FB1D1B781A001F23BF
:1017D000134001229A40034B1A60C046BD4602B036
:1017E00080BDC04600E100E080B500AF114B5A6BF0
:1017F000104B04210A435A630F4B104ADA6214203B
:10180000FFF7DCFF0C4B1A680B4B10210A431A60E0
:10181000094B1A68084B01210A431A60064BDA6823
:10182000054B01210A43DA6062B6C046C046BD4698
:1018300080BDC0460010024000080140FF7C00004F
:1018400080B582B000AF0200FB1D1A70FB1D1B7833
:101850001900104801F058F8030019000E4801F073
:1018600053F803005A1E0D4B5A600C4B00229A602D
:101870000A4B05221A60C046084B1A6880235B0297
:101880001340F9D0054B00221A60C046BD4602B095
:1018900080BDC04640420F000048E80110E000E073
:1018A00080B584B000AF78600023FB6015E00B23A7
:1018B000FB1800221A7008E0FA20FFF7C1FF0B2185
:1018C0007B181A787B1801321A700B23FB181B78CF
:1018D000032BF1D9FB680133FB60FA687B689A42FD
:1018E000E5D3C046C046BD4604B080BD80B582B0D9
:1018F00000AF78607A68174B1100180004F066FAA0
:10190000A023DB055A69A023DB0513490A405A616D
:101910000A20FFF7C5FF7B681800FFF763FE0F4B37
:101920004F211800FFF798FEA023DB055A69A0237A
:10193000DB05802189010A435A610A20FFF7B0FFC5
:10194000064A074B1100180004F040FAC046BD4695
:1019500002B080BD908B0008FFDFFFFF78030020FE
:101960009C8B000880B582B000AF786039603B681E
:101970007A680749074804F0EDFA064B1800FFF7AC
:1019800031FEC820FFF78CFFC046BD4602B080BDC7
:10199000AC8B00087803002080B500AFFFF7A2FEF3
:1019A000031E04DD034B4F211800FFF755FEC04610
:1019B000BD4680BDC803002080B500AF034B1800B2
:1019C000FFF710FEC046BD4680BDC046780300202C
:1019D00080B500AFFFF786FE031E05DD044B4F21E7
:1019E0001800FFF739FEC046C046BD4680BDC04660
:1019F000C803002080B500AF134B1800FFF776FF37
:101A0000124B1800FFF772FF114B1800FFF76EFF23
:101A1000104B1800FFF76AFF0F4B1800FFF766FF27
:101A20000E4B1800FFF762FF0D4B1800FFF75EFF2B
:101A30000C4B1800FFF75AFF0B4B1800FFF756FF2F
:101A4000C046BD4680BDC046B48B0008C48B0008AC
:101A5000D48B0008E08B0008EC8B0008F88B0008A2
:101A6000048C0008108C00081C8C000880B582B023
:101A700000AF786039603B687A680449044804F034
:101A800069FAC046BD4602B080BDC046288C000839
:101A90007803002080B584B000AF7860124B180046
:101AA00004F0C6FA0300032B01D87B6818E00E4B44
:101AB000180003F0CBF90300FB60FB68002B0ED08D
:101AC000F86803F01BF80022084B01F0E1FD02006A
:101AD0000B001000190003F089F8031C00E07B687C
:101AE000181CBD4604B080BDC803002000408F40D4
:101AF00080B500AF0A4A0B4B1100180004F066F9DC
:101B0000094B180004F094FA0300032B05D9064A88
:101B1000064B1100180004F059F9C046BD4680BDBF
:101B200078030020388C0008C8030020488C000887
:101B300080B500AFA023DB055A69A023DB05022195
:101B40000A435A612820FFF7F0FAA023DB055A69FF
:101B5000A023DB0502218A435A61C046BD4680BDF1
:101B600080B582B000AF0200FB1D1A70FB1D1B7810
:101B70005BB2002B08DAA023DB055A69A023DB0542
:101B800020210A435A6107E0A023DB055A69A023FC
:101B9000DB0520218A435A61FB1D1B78402213403C
:101BA00008D0A023DB055A69A023DB0510210A43D6
:101BB0005A6107E0A023DB055A69A023DB05102149
:101BC0008A435A61FB1D1B782022134008D0A023B2
:101BD000DB055A69A023DB0508210A435A6107E0A7
:101BE000A023DB055A69A023DB0508218A435A613B
:101BF000FB1D1B781022134008D0A023DB055A6977
:101C0000A023DB0504210A435A6107E0A023DB057A
:101C10005A69A023DB0504218A435A61FFF788FF34
:101C20002820FFF782FAFB1D1B780822134008D0FA
:101C3000A023DB055A69A023DB0520210A435A6152
:101C400007E0A023DB055A69A023DB0520218A4396
:101C50005A61FB1D1B780422134008D0A023DB052A
:101C60005A69A023DB0510210A435A6107E0A0232B
:101C7000DB055A69A023DB0510218A435A61FB1D4D
:101C80001B780222134008D0A023DB055A69A02349
:101C9000DB0508210A435A6107E0A023DB055A69E6
:101CA000A023DB0508218A435A61FB1D1B78012212
:101CB000134008D0A023DB055A69A023DB050421CB
:101CC0000A435A6107E0A023DB055A69A023DB051C
:101CD00004218A435A61FFF72BFFC046BD4602B07C
:101CE00080BD80B582B000AF0200FB1D1A70A0233A
:101CF000DB055A69A023DB0501210A435A61FB1D5C
:101D00001B781800FFF72CFF0220FFF7F9F9C046F7
:101D1000BD4602B080BD80B582B000AF0200FB1DA1
:101D20001A70A023DB055A69A023DB0501218A4331
:101D30005A61FB1D1B781800FFF712FF0520FFF703
:101D4000DFF9C046BD4602B080BD80B500AFA0231C
:101D5000DB055A69A023DB0502218A435A6114205E
:101D6000FFF7CEF93320FFF7D6FF3320FFF7D3FF7D
:101D70003220FFF7D0FF2820FFF7CDFF0C20FFF720
:101D8000CAFF0120FFF7C7FF1420FFF7B9F9C046CB
:101D9000BD4680BD80B584B000AF786008001100FA
:101DA000FB1C021C1A70BB1C0A1C1A70FB1C1B7843
:101DB000022B01D1C02300E080231800FFF7ABFF06
:101DC0000520FFF79DF90023FB6009E0FB687A68B6
:101DD000D3181B781800FFF784FFFB680133FB6002
:101DE000FB687A68D3181B78002BEFD1BB1C1B78DB
:101DF000002B09D005E02020FFF773FFFB680133BB
:101E0000FB60FB680F2BF6DDC046BD4604B080BD0D
:101E100080B500AF214B5A6B204B802189000A43CB
:101E20005A631F4B1A691E4BC02109060A431A61E7
:101E30001B4B1A681A4B01210A431A60184B9A6807
:101E4000174B01210A439A60154BDA6880231B0265
:101E5000134005D1C046124B1B6801221340FAD033
:101E60000F4B9B680122134005D00D4B9A680C4B19
:101E700002210A439A600A4B9A68094B802109069D
:101E80000A439A60C046064B1A6880231B01134020
:101E9000F9D0C046C046BD4680BDC04600100240D5
:101EA0000024014080B582B000AF7860164BDA683C
:101EB000154B802109020A43DA60134B7A689A6253
:101EC000114B5A69104B07210A435A617A688023E3
:101ED0009B029A4206D10D4B1A680C4B8021C90314
:101EE0000A431A60084B9A68074B04210A439A6018
:101EF000C046054B1B6804221340FAD0024B1B6CF2
:101F00001800BD4602B080BD0024014008270140F2
:101F100080B582B000AF0200FB1D1A70FB1D1B785C
:101F20001A001F23134001229A40034B1A60C04637
:101F3000BD4602B080BDC04600E100E080B500AF04
:101F4000184B9A6B174B01210A439A638023DB05D8
:101F5000154ADA620F20FFF7DBFF8023DB051A68E2
:101F60008023DB0510210A431A608023DB051A68F1
:101F70008023DB0580210A431A608023DB05DA68B1
:101F80008023DB0501210A43DA608023DB051A6820
:101F90008023DB0501210A431A6062B6C046C046B1
:101FA000BD4680BD00100240410F000080B500AF6B
:101FB000A023DB055A69A023DB05802149004A40A4
:101FC0005A61C046BD4680BD80B584B000AF786020
:101FD0003960786802F0C2FD1A4A1B4B00F096FD8A
:101FE000031E02D0194BFB6026E0FD2189057868AD
:101FF00000F0C6FD031E03D08123DB05FB601BE060
:10200000786802F0ABFD124A124B00F07FFD031E10
:1020100002D0114BFB600FE0786802F09FFD0F4A81
:102020000F4B00F073FD031E03D08023DB05FB6024
:1020300002E0FE239B05FB60FB68181CBD4604B054
:1020400080BDC046333333333333EB3F0000A04011
:10205000CDCCCCCCCCCCE43F000040409A999999AF
:102060009999E13F80B582B000AF7860002178682F
:1020700000F080FD031E07D08023DB051B68802352
:10208000DB0500221A6007E08023DB051A68802345
:10209000DB0501210A431A60C046BD4602B080BD7F
:1020A00080B500AF00231800BD4680BDB0B584B038
:1020B00000AF7860FFF7F4FF0300FB60786802F080
:1020C0001DFD1F4A1F4B01F0E5FE02000B00100032
:1020D000190002000B0000F09FFF02000B0010002F
:1020E0001900174A184B01F0D5FE02000B0014002E
:1020F0001D00786802F002FD02000B00200029009C
:1021000001F0C8FE02000B000020104901F0C0FAE7
:1021100002000B0014001D00F86802F0EFFC020042
:102120000B002000290001F0B3FA02000B001000A0
:10213000190002F05BFD031C181CBD4604B0B0BDC5
:10214000182D4454FB211940FB2109400000F03FA9
:1021500080B582B000AF7860054B1B697A68134088
:102160005A425341DBB21800BD4602B080BDC046A2
:102170000004005080B582B000AF174B00221A70E7
:10218000164B01221A60164B180003F01FFE154B68
:10219000180003F0A7FE144B012201211800FFF7DD
:1021A000F9FD00237B6007E0104A7B68D3182022EA
:1021B0001A707B6801337B607B68032BF4DD0B4B6B
:1021C00000221A71094B012202211800FFF7E2FDDB
:1021D000C046BD4602B080BD180400201C0400208B
:1021E000588C0008648C0008788C000820040020BB
:1021F00080B582B000AF01235B427B608020FFF797
:10220000A7FF031E0FD14020FFF7A2FF031E0AD134
:102210002020FFF79DFF031E05D10820FFF798FF40
:10222000031E00D18BE01E20FEF76AFF8020FFF71F
:102230008FFF031E02D000237B601AE04020FFF7CF
:1022400087FF031E02D001237B6012E02020FFF7EE
:102250007FFF031E02D002237B600AE00820FFF705
:1022600077FF031E02D003237B6002E001235B4261
:102270007B607B68002B10D1A023DB055A69A0236B
:10228000DB0540218A435A61A023DB055A69A0235C
:10229000DB0580218A435A613AE07B68012B10D12B
:1022A000A023DB055A69A023DB0540218A435A613C
:1022B000A023DB055A69A023DB0580210A435A616C
:1022C00026E07B68022B10D1A023DB055A69A023EE
:1022D000DB0540210A435A61A023DB055A69A0238C
:1022E000DB0580218A435A6112E07B68032B0FD102
:1022F000A023DB055A69A023DB0540210A435A616C
:10230000A023DB055A69A023DB0580210A435A611B
:10231000C0468020FFF71CFF031EFAD14020FFF7C4
:1023200017FF031EF5D12020FFF712FF031EF0D187
:102330000820FFF70DFF031EEBD17B6801E00123AE
:102340005B421800BD4602B080BD80B582B000AFD0
:10235000FFF74EFF03007B607B6801331AD00F4B01
:102360001B781A007B68934202D00D4B00221A6042
:102370000A4B1B781A000B4B2A219954094B012256
:1023800002211800FFF706FD044B1B780133DAB277
:10239000024B1A70C046BD4602B080BD1804002032
:1023A0001C0400202004002080B500AFFFF7E2FEEF
:1023B00029E0184B1B78042B02D0FFF7C6FF22E060
:1023C000154B1B68012B0DD1124B05221A70134BB4
:1023D000180003F087FD124B012201211800FFF7BE
:1023E000D9FC10E00F4B180003F07CFD0E4B0122CE
:1023F00001211800FFF7CEFCFA239B001800FEF71E
:102400007FFEFFF7B7FE034B1B78052BD1D1C046EB
:10241000BD4680BD180400201C040020888C0008E4
:102420009C8C0008AC8C0008C08C000880B582B081
:1024300000AF786039607B681B68181C02F08EFB67
:102440000022144B01F092FF02000B001000190053
:1024500002F0CCFB021C80231B065A407B681A60EA
:102460003B681B68181C02F079FB00220A4B01F044
:102470007DFF02000B001000190002F0B7FB021CE8
:1024800080231B065A403B681A60C046BD4602B016
:1024900080BDC04600B0A04000F09F4080B584B031
:1024A00000AF786039600023FB60786802F056FB6B
:1024B0002D4A2E4B00F03EFB031E08D1786802F037
:1024C0004DFB2B4A2B4B00F021FB031E47D0002174
:1024D000786800F073FB031E14D02749786800F079
:1024E00027FC031C181C02F039FB0022234B01F0CF
:1024F000CFF802000B001000190002F0C9FA030027
:10250000FB6019E00021786800F03AFB031E13D04D
:102510001949786800F00CFC031C181C02F01EFB23
:102520000022174B01F0B4F802000B001000190054
:1025300002F0AEFA0300FB603B68012B06D1FB689A
:10254000002B00DA01335B10FB6008E03B68022BD4
:1025500005D1FB68002B00DA03339B10FB60FB689E
:102560001800BD4604B080BD3433333333A3594023
:10257000CDCCCCCCCC8C59C00000C8420006A040C9
:1025800000F09F4080B584B000AF786039600023D0
:10259000FB60786802F0E2FA2D4A2E4B00F0CAFA8E
:1025A000031E08D1786802F0D9FA2B4A2B4B00F0B1
:1025B000ADFA031E47D00021786800F0FFFA031E31
:1025C00014D02749786800F0B3FB031C181C02F0F4
:1025D000C5FA0022234B01F05BF802000B0010004B
:1025E000190002F055FA0300FB6019E00021786839
:1025F00000F0C6FA031E13D01949786800F098FB62
:10260000031C181C02F0AAFA0022174B01F040F834
:1026100002000B001000190002F03AFA0300FB6000
:102620003B68012B06D1FB68002B00DA01335B10FD
:10263000FB6008E03B68022B05D1FB68002B00DA49
:1026400003339B10FB60FB681800BD4604B080BDDF
:10265000CDCCCCCCCC7C58403433333333B35AC09C
:102660000000C84200B0A040009C9E4080B582B0EF
:1026700000AF7860FEE780B582B000AF78600123DC
:102680005B421800BD4602B080BD80B584B000AF8B
:10269000F860B9607A60044B0C221A6001235B4237
:1026A0001800BD4604B080BD3804002080B500AFDE
:1026B000034B0B221A6001235B421800BD4680BD0C
:1026C0003804002080B582B000AF786039603B6884
:1026D000802292015A6000231800BD4602B080BDDE
:1026E00080B500AF01231800BD4680BD80B582B023
:1026F00000AF78603960044B16221A6001235B42F8
:102700001800BD4602B080BD3804002080B582B0FC
:1027100000AF78603960044B1F221A6001235B42CE
:102720001800BD4602B080BD3804002080B584B0DA
:1027300000AFF860B9607A6000231800BD4604B0AD
:1027400080BD80B582B000AF786039603B68802280
:1027500092015A6000231800BD4602B080BD80B5CA
:1027600082B000AF786001235B421800BD4602B022
:1027700080BD80B582B000AF7860044B02221A6041
:1027800001235B421800BD4602B080BD3804002022
:1027900080B582B000AF7860044B0A221A60012332
:1027A0005B421800BD4602B080BDC0463804002020
:1027B00080B582B000AF78607B68022B01D801231E
:1027C00003E0044B09221A6000231800BD4602B042
:1027D00080BDC0463804002080B586B000AF786068
:1027E000124B7B61124B3B61124B1B68002B02D1D9
:1027F000104B7A691A600F4B1B68FB600D4B1A680F
:102800007B68D3183A699A4205D20B4B0C221A60A6
:1028100001235B4206E0074B1A687B68D218054B20
:102820001A60FB681800BD4606B080BD5404002045
:1028300000100020340400203804002080B588B047
:1028400000AFF860B9607A600023BB61FB68002BC1
:1028500022D10023FB611AE0FEF783FB03001A007C
:1028600017217B181A70BB685A1CBA607A18127844
:10287000D2B21A70BB690133BB617B181B78DBB223
:102880000A2B01D1BB690EE0FB690133FB61FA69D8
:102890007B689A42E0DB05E0054B09221A600123C0
:1028A0005B4200E0BB691800BD4608B080BDC04671
:1028B0003804002080B586B000AFF860B9607A6057
:1028C000FB68013B012B11D800237B6109E0BB6849
:1028D0005A1CBA601B781800FEF734FB7B69013381
:1028E0007B617A697B689A42F1DB05E0054B09223E
:1028F0001A6001235B4200E07B681800BD4606B009
:1029000080BDC0463804002003460B437FD400221C
:1029100043088B4274D303098B425FD3030A8B4273
:1029200044D3030B8B4228D3030C8B420DD3FF22DD
:10293000090212BA030C8B4202D31212090265D0AB
:10294000030B8B4219D300E0090AC30B8B4201D35E
:10295000CB03C01A5241830B8B4201D38B03C01AA5
:102960005241430B8B4201D34B03C01A5241030B1C
:102970008B4201D30B03C01A5241C30A8B4201D3CD
:10298000CB02C01A5241830A8B4201D38B02C01A78
:102990005241430A8B4201D34B02C01A5241030AEF
:1029A0008B4201D30B02C01A5241CDD2C3098B42D4
:1029B00001D3CB01C01A524183098B4201D38B0151
:1029C000C01A524143098B4201D34B01C01A5241F4
:1029D00003098B4201D30B01C01A5241C3088B4239
:1029E00001D3CB00C01A524183088B4201D38B0024
:1029F000C01A524143088B4201D34B00C01A5241C6
:102A0000411A00D201465241104670475DE0CA0F9C
:102A100000D04942031000D34042534000229C465C
:102A200003098B422DD3030A8B4212D3FC22890166
:102A300012BA030A8B420CD3890192118B4208D33C
:102A4000890192118B4204D389013AD0921100E09E
:102A50008909C3098B4201D3CB01C01A52418309B2
:102A60008B4201D38B01C01A524143098B4201D3DF
:102A70004B01C01A524103098B4201D30B01C01A0A
:102A80005241C3088B4201D3CB00C01A5241830884
:102A90008B4201D38B00C01A5241D9D243088B42DA
:102AA00001D34B00C01A5241411A00D2014663467D
:102AB00052415B10104601D34042002B00D54942E1
:102AC000704763465B1000D3404201B5002000F020
:102AD00005F802BD0029F8D016E770477047C046D8
:102AE0008446100062468C461900634600E0C046EA
:102AF0001FB501F06BF9002801D40021C8421FBDA9
:102B000010B501F0BBF84042013010BD10B501F026
:102B10005DF9002801DB002010BD012010BDC0467A
:102B200010B501F053F9002801DD002010BD01208F
:102B300010BDC04610B501F0E3F8002801DC00200C
:102B400010BD012010BDC04610B501F0D9F8002815
:102B500001DA002010BD012010BDC04684460800E7
:102B60006146FFE71FB500F09FF8002801D400215F
:102B7000C8421FBD10B500F02BF84042013010BD17
:102B800010B500F091F8002801DB002010BD0120F5
:102B900010BDC04610B500F087F8002801DD002008
:102BA00010BD012010BDC04610B500F037F8002858
:102BB00001DC002010BD012010BDC04610B500F0A2
:102BC0002DF8002801DA002010BD012010BDC046FC
:102BD00070B5420045024E024C00C30F6D0A012041
:102BE000120E760A240EC90FFF2A06D0FF2C03D03E
:102BF000A24201D1B54206D070BD002DFCD1FF2C00
:102C0000FAD1002EF8D18B4206D00120002AF3D150
:102C10002800431E9841EFE70020EDE770B5420021
:102C200045024E024C00C30F6D0A120E760A240EA6
:102C3000C80FFF2A1BD0FF2C0ED0002A1BD1002C5E
:102C400001D1002E1CD0002D0CD083421CD00221BB
:102C5000581E0840013870BD002E22D1002AF4D140
:102C6000002DF2D10028F6D101204042F3E7002DDB
:102C700017D1FF2CF0D0002CE7D1002EE5D1E6E7EC
:102C80000020002DE7D0E2E7A24205DCEADBB542F6
:102C900002D8E7D30020DEE7434258414000013824
:102CA000D9E702204042D6E770B5420045024E0205
:102CB0004C00C30F6D0A120E760A240EC80FFF2AAD
:102CC0000BD0FF2C0DD0002A1FD1002C16D1002EC6
:102CD00014D10020002D10D009E0002D0CD1FF2CC4
:102CE00013D1002E08D1002A08D0834212D002212D
:102CF000581E0840013800E0022070BD002DF4D1BC
:102D00000028FAD101204042F7E7002CEDD1002E37
:102D1000EBD1ECE7A24205DCF2DBB54202D8EFD3FF
:102D20000020EAE74342584140000138E5E7C04649
:102D3000F0B54F464646D64644024500C0B5640A43
:102D40000F1C2D0EC60F002D00D18DE0FF2D00D1E0
:102D500092E00023802099469A46E400C004044390
:102D60007F3D7802430A98467B001B0EFF0F002B25
:102D700000D170E0FF2B00D186E04246D0008022D7
:102D80007F3BED180023D204024390469C4631005D
:102D90004B467940681C0F2B1CD8764A9B00D358B1
:102DA0009F4639004446E2465346022B0FD0032B80
:102DB00000D1D7E0012B37D100200024C0052043EB
:102DC000C9070843E0BCBA46B146A846F0BDFF209B
:102DD0000024F3E7260C2404220C44462404240C8B
:102DE000434627001B0C574374435A435E43121952
:102DF0003B0C9B189C4203D98022520294466644A5
:102E00003F041A043F0CD2199401671EBC411B0CED
:102E1000920E9B1914439B011C431B0100D49BE0A1
:102E2000012362081C40144302007F32002A64DD43
:102E3000630704D00F232340042B00D00434230164
:102E400003D502004C4B80321C40FE2ABFDCA4019B
:102E5000640AD0B2B2E74346002B3DD14A46013363
:102E60001A4391469C4692E7002C29D104239946A7
:102E7000033B00259A4674E7002C1BD10823994692
:102E8000063BFF259A466CE74346FF35002B0BD1E6
:102E900002234A461A4391469C4678E7534631003E
:102EA000022B00D083E792E703234A461A43914658
:102EB0009C466CE70C239946093BFF259A4650E750
:102EC000200001F0A5FF7625431F9C4000236D42A2
:102ED00099469A462D1A44E7404601F099FF42462A
:102EE000431F9A4000232D1A90469C46763D4EE79C
:102EF00080240021FF20E40360E701239B1A1B2BA1
:102F000000DD59E722009E30DA4084401300621E43
:102F100094411C43630704D00F232340042B00D0AB
:102F2000043463011AD50120002447E78020C00340
:102F3000044209D04346034206D144460443640296
:102F40003900FF20640A39E78020C003044364028B
:102F50003100FF20640A31E7280065E7A401002062
:102F6000640A2BE78020C00304436402FF20640A44
:102F700024E7C046D48C0008FFFFFFF7F8B500280F
:102F800013D0C317C6185E40C40F300001F040FFD5
:102F90009E2305001B1A962B0FDC082801DD083D37
:102FA000AE407602760AD8B202E000240020002665
:102FB000C0053043E4072043F8BD992B0CDD052202
:102FC0003100121AD1400A00010030001B31884044
:102FD000411E884102431600052D12DC31000D4FC1
:102FE0003940720709D00F203040042805D0043141
:102FF0004A0102D59F2339405B1B89014E0AD8B292
:10300000D6E76A1F96403100024F39407207F4D06C
:10301000E9E7C046FFFFFFFBF0B54F464646D64600
:103020000D000400C0B51F0011002803620F400A04
:1030300010437A00520DE3003C039146640AFA0FF4
:103040004F0F6E0027439246B846760DED0FC9002C
:10305000954200D199E04C46341BA446002C00DC7C
:103060007CE04A46002A00D1B8E0C54A964200D129
:103070001CE180223C0012041443A0466246382A18
:1030800000DD61E11F2A00DDCCE164462022121B35
:10309000444694400F00A14664469140E7404C46A8
:1030A0004A1E91413C43424621436446E240801A15
:1030B0005C1AA3429B415F42C71B3B0200D4D0E095
:1030C0007F027F0A002F00D1FFE0380001F0A0FE50
:1030D00001000839202322005B1A8F40DA408C401F
:1030E0001743B14200DAFFE0891B4B1C1F2B00DDA8
:1030F000A8E020223900D21A200094409140D84004
:10310000621E9441DF40002601430C43630709D04F
:103110000F232340042B05D0231DA342A441644266
:103120003F191C003B0200D49EE0954B01369E42A5
:1031300000D1B7E0934AE40817407B0771057F028E
:1031400023433F0B4A0D12053A43ED072A4318006B
:103150001100E0BCBA46B146A846F0BD002C4BD0E9
:103160004C46A41BA446002E00D023E104001C43BF
:1031700000D1AFE16246541E012A00D115E2804D14
:10318000AC4500D1C8E1A4461BE14A46B21A9446B8
:10319000002A00DCACE04A46002A43D0784A964236
:1031A00000D1AFE180223C0012041443A0466246E5
:1031B000382A67DC1F2A00DC5FE14746203AD74007
:1031C0006246202A05D064464022121B44469440A1
:1031D00021434A1E91410C003C4357E03A000A4308
:1031E00000D105E12200013A012C00D182E1644CBA
:1031F000A4455BD0944641E7634C771C274200D03E
:10320000C4E004001C43002E00D069E1002C00D172
:10321000BFE144460C4300D0D0E14207DB08134332
:10322000C00829E03A000A4300D170E162466446D2
:10323000013A012C00D1E0E0514CA44500D161E1FC
:103240009446B4E73A001F39CA401100202B03D03E
:103250004022D31A9F403C43631E9C410027002616
:103260000C43630700D053E7B446E4087B072343CD
:10327000F808434A94451DD06246070352053F0BA8
:10328000520D60E744460C43621E9441E4189C4290
:103290009B415F423F183B02E3D5394B01369E42CA
:1032A00000D0B5E03200002700234CE74207DB08DE
:1032B0001343C0081A00024300D1E1E180273F0315
:1032C00007433F032E4A3F0B3DE7200001F0A0FDDE
:1032D000010018311F2900DCFCE608388440270073
:1032E0000024B14200DBFFE6264A761A17400DE7BC
:1032F000002A2FD04A46921B9446002E00D1ADE002
:103300001F4A914500D10FE180221204104362460A
:10331000382A00DD0FE11F2A00DD80E1644620220B
:103320001E00121B6746040093409440FE405A1E44
:103330009341F84034431C43804464188C42BF419D
:103340007F424E464744A6E742460A4311004A1EC2
:103350009141ADE60C4C721C224200D0A1E002006B
:103360001A43002E00D0FAE0002A00D145E13A00CD
:103370000A4300D046E14207DB081343C0087BE75D
:10338000FF070000FFFF7FFFFE07000047465C1AB3
:10339000C21BA342BF417F42B94617004A46BF1A2B
:1033A0003A0200D58DE023003B4300D08AE600209E
:1033B000002561E7B44CA14500D1ADE08024240490
:1033C00020436446382C3DDC62461F2C00DDB7E00C
:1033D00020251E002D1B0400AB40AC40D640D04041
:1033E00042465D1EAB413443121A904623432CE003
:1033F0004207DB081343C0083BE75C189C429B4133
:1034000040445B42C71801263B0200D429E702264C
:103410009E4A63081740012214401C43FB071C43CB
:103420007F0873E64446203AD4406246202A05D0FD
:1034300067464022D21B4746974039434A1E914176
:10344000214335E60343581E8341CC1AA142BF41B4
:1034500043467F4255464E46DF1B2EE602001A4386
:1034600000D1BDE062466446013A012C00D1E5E09E
:10347000854CA44558D0944649E764462022121B47
:10348000444694400F00A14664469140E7404C46B4
:103490004A1E91413C4342460C436146CA40801853
:1034A000F4E6794CA24200D1FDE6591899429B41BD
:1034B00040445F42C719FC07490816000C437F08C7
:1034C000CFE6CC1AA142BF4143467F42181A554667
:1034D000C71BF7E5C9087B0755460B43F808C8E644
:1034E000002C00D081E043460B4315D180200025FD
:1034F0000003E3E65C1AA3429B41C71B5B42012623
:10350000FF1ADAE54207DB081343C008D2E6420798
:10351000DB081343C008ACE643464246C9085B07D4
:1035200055460B43D008C5E6434642465B07C908EB
:103530000B43D008BEE603431C00631E9C41FCE61F
:103540000200203CE24014006246202A03D04025BD
:10355000AD1AA8400343581E8341234375E7002A50
:10356000E2D03A000A43CDD04207DB081343802261
:10357000C0081203104206D0FC08144203D12000F8
:10358000CB087A0713435A0FDB005207DB081343BB
:1035900090E643460B4300D109E743464246C9083B
:1035A0005B0755460B43D00866E6CC1AA142894119
:1035B0003F1A4942554601267F1A7EE542465C1A6B
:1035C000871AA34292415242BF1A3A023DD5CC1A01
:1035D000A1428941434649421F1A55467F1A95E543
:1035E0007B07C9080B43F80843E64446DB080C4355
:1035F00030D142071343C0085CE67B07C9080B4380
:10360000F80839E65C189C429B4140445B42C7186D
:103610003B0200D425E61D4B01261F4021E6040095
:10362000203AD4406246202A04D040226646921BAB
:10363000904003435A1E93411C437EE65C188C4223
:103640008941404449424718DDE623003B4300D10D
:10365000ADE606E6440723438024C0082403204245
:1036600008D04246D608264204D155463000CB0841
:1036700051070B435A0FDB00DB085207134319E6CF
:103680000023014A1F005EE5FF070000FFFF7FFFE8
:10369000F0B557464E464546DE46E0B58146050044
:1036A0000C03480092461F0085B0240B400DCE0F3E
:1036B000002800D156E1D44B984200D172E16B0F43
:1036C000E4001C4380231B0423439846CF4BED00AA
:1036D0009B4600239946834400933C037B0050465D
:1036E000240B5B0DFF0F002B00D11FE1C64A934254
:1036F00000D162E1C549420F8C46E40059461443AB
:10370000802263441204CB1A14439B46C20000205B
:1037100033007B409A464B460F2B27D8BC499B0071
:10372000CB589F46B246009B022B16D0032B00D1EC
:103730008EE2012B00D0D9E0002300240025524660
:103740001B052343D20713432800190005B0F0BC22
:10375000BB46B246A946A046F0BD00240025AA4BB0
:10376000EDE7BA46A04615000090DCE7444500D2DC
:10377000C7E100D1C2E101235B429C462E004046D6
:103780000025E3442302140E1C431B0C994623041A
:103790001F0C120249460092019701F035FB02000E
:1037A0007A430B04310C804619438A4207D901231E
:1037B0005B429C460919E0448C4200D807E2881A13
:1037C000494601F021FB09048C4631046646019A02
:1037D000090C4243030031438A4204D90919013BD1
:1037E0008C4200D8EDE1881A424612041A439046F2
:1037F0004146009B0E041B0C1F000293009B360CDD
:103800001B04190C0B007343120C7E4303915143AC
:103810007A431F0CBC4676186644B14203D9802116
:1038200049028C466244310C8A1831041E04360C5D
:103830008E19904202D312D1B54210D24346591E7E
:10384000009B9C4665441F009D429B415B421B19A7
:10385000C018844200D2A0E100D19BE18846AE1B93
:10386000B542AD41801A6D42401B844200D1D5E182
:10387000494601F0C9FA019A0B044243310C050094
:1038800019438A4200D96CE1881A494601F0BCFA12
:10389000019A360442430904360C03000E43B24237
:1038A00000D953E10398B61A02002D041D43029F6C
:1038B0002B041B0C5A437B439C46290C4843130C96
:1038C000844463447943984203D98020400284466B
:1038D0006144180C12041B04120C41189B188E42F0
:1038E00000D2FFE000D1FAE001231D43494A5A44C7
:1038F000002A00DCAAE06B0700D03DE1ED0843465A
:10390000DB0106D54246444B1A4090468022D20045
:103910005A44424B9A4200DD1FE743465B071D4372
:10392000434652055C02240B530D08E752462243DE
:1039300000D17BE0002C00D1FAE0200001F068FA11
:1039400002000B3A1D2301009B1A52460839DA4047
:103950008C40144352468A40314B58449B46834422
:103960000020D5E64B462343984644D0002C00D196
:10397000CEE0200001F04CFA010002000B391D23BB
:103980005B1A49461000D940083884400B004D4668
:103990002343984685402348831A9B460023994633
:1039A00000939AE64B46234398461DD10823994637
:1039B000063B0025834600938FE65246224309D1F9
:1039C000022349461943184B89469C46002402208D
:1039D000E3449DE603234A461A43134B91469C4613
:1039E00052460320E34493E60C239946093BA04644
:1039F0008346009371E60423994600239B460133D6
:103A00000025009369E6C046FF07000001FCFFFFA8
:103A1000148D0008FF030000FFFFFFFEFE070000FB
:103A2000F30300000DFCFFFF01F8FFFF49460123EF
:103A300019438946002401206AE6002380249A461F
:103A400000258A4B24037AE601256D4201239B1A47
:103A5000382B00DD70E61F2B00DCBFE01F21494240
:103A60008A1A4146D1400A00202B04D04146804B9F
:103A70005B4499400D436B1E9D4107232A431D0063
:103A800000241540134200D1D4E00F21002311403F
:103A9000042900D1CBE0111D9142924152429B1862
:103AA0000A00190200D4C2E001230024002546E6E2
:103AB000802341461B03194208D01C4206D11C43F7
:103AC0002403BA461500694B240B38E6802443468C
:103AD00024031C432403B246644B240B2FE6002B23
:103AE00000D103E7A619681EA64200D28DE08E42DF
:103AF00000D2A3E000D1B3E00500F5E6AA4200D968
:103B000039E64346DE0758086B081E43ED0739E6E1
:103B1000484601F07DF901000200153120321C29D0
:103B200000DC2CE74B46083883400025984632E7F6
:103B300001F06EF903001A00153220301C2A00DC57
:103B400000E75446083B00229C4005E73619013B3C
:103B5000B44200D9A6E6B24200D8A3E6831E3619C5
:103B6000A0E60919013D8C4200D98DE68A4200D8B1
:103B70008AE6851E091987E60F232B40042B00D106
:103B8000BCE605235B42AB429B4104355B42ED083A
:103B90009844B4E6AF4200D960E6824204D800D02F
:103BA0005CE6AE4200D859E602235B429C46009B8D
:103BB000E0449C4665449D429B415B421B19C018F2
:103BC0004DE68A4200D80EE6831E09190BE68A42AA
:103BD00000D8F4E5831E98460919F0E52549280028
:103BE00059448D4042468A40691E8D414146D84025
:103BF000D94002432A430B00510700D151E70F215E
:103C00001140042900D046E74BE705008E4200D062
:103C10006AE6009A934200D066E667E6164A5A447E
:103C2000002A00DC10E701230025984467E65D07C1
:103C30005B021C0BD2080023154380E50098023D6F
:103C400042008242BF417F423C1936190092DDE7B3
:103C50008024434624031C432403044B240B6EE5B9
:103C6000009A9A42EAD30500D3E7C046FF07000056
:103C70003E0400001E040000FF030000F0B54E46A5
:103C80004546DE4657469046E0B517001A03120B2C
:103C90000500844619480E034C0091465A00DB0F7C
:103CA0009B46360B640DC90F520D844219D08242D7
:103CB00010D0012094420ED14E450CD10120C445B4
:103CC00009D1594517D0002C05D130002843431E97
:103CD000984100E00120F0BCBB46B246A946A04690
:103CE000F0BD330001202B43F5D1A242F3D14B4666
:103CF0003B43F0D1E2E70020EDE7C046FF070000BC
:103D0000F0B54746CE460400180016001B031B0BF7
:103D10002D4D4A00994680B543000F03A446B04696
:103D20003F0B520DC90F5B0DC00FAA4221D0AB4211
:103D300013D0002A22D13C43002B02D14D462E4302
:103D400022D0002C10D0814222D00220013908401C
:103D50000138C0BCB946B046F0BD4D462E4329D10E
:103D6000002AF0D13C43EED10028F2D1012040429C
:103D7000EFE73D0025431DD19342EED0002BE2D169
:103D80004C462643DFD1E0E70020002CE1D0DCE701
:103D90009A420ADCE8DB4F45D7D80ED000204F45C9
:103DA000D7D20029E2D00800D3E74342584140006F
:103DB0000138CEE702204042CBE7C445C5D80020F9
:103DC000C445C6D2EDE7C046FF070000F0B5474640
:103DD000CE460400180016001B031B0B2C4D4A0096
:103DE000994680B543000F03A446B0463F0B520DE1
:103DF000C90F5B0DC00FAA420DD0AB4210D0002AF4
:103E000027D13C43002B11D14D462E430ED100202B
:103E1000002C15D00EE03D00254310D1934218D15F
:103E20004D462E430BD1002A02D13C43002C0BD02F
:103E3000814214D0022001390840013800E00220FC
:103E4000C0BCB946B046F0BD0028F9D101204042BF
:103E5000F6E7002BECD14C462643E9D1EAE79A423B
:103E600004DD4342584140000138E9E79A42EBDB68
:103E70004F45DFD806D000204F45E1D20029E5D0DC
:103E80000800DDE7C445D5D80020C445D8D2F5E701
:103E9000FF070000F0B557464E464546DE46E0B502
:103EA00098460C034B000600924687B0240B5B0D2E
:103EB000CF0F002B00D15CE1D94A934200D175E1CC
:103EC000420FE4001443802212041443D54AC50073
:103ED000944663440093002399469B4643464246DA
:103EE0001E03D20F5B0050469046360B5B0D00D18F
:103EF00020E1CB4A934200D162E1CA49420F8C468D
:103F000000996344F6008C46164380229C441204B8
:103F100063461643C20000200093009943460131D6
:103F20008C4649467B4001930F2926D8BE4B890019
:103F300059588F46434601933400150083465B462B
:103F4000022B16D0032B00D103E2012B00D0CDE0D1
:103F5000002200240025019B12052243DB071A439F
:103F60002800110007B0F0BCBB46B246A946A046E7
:103F7000F0BD00240025AA4AEDE7280C2D042D0CE5
:103F80002B00110C1204120C5343984613002F00FF
:103F9000434399464F434F44BB4647460B003F0CB3
:103FA000BA464343DA440293D14504D980277F02BD
:103FB000B9464B44029353461B0C9B4653461F0481
:103FC00043461B041B0C98463B0043440493330CAC
:103FD0003604360C984633004343994643464343E0
:103FE0002F009A46434677435D43380C4D444519AC
:103FF000A94503D980235B029946CA443F04280C93
:104000003F0C2D04ED19270C2404240C0300200080
:1040100050437A4391463A0053440593030C9A4621
:104020004A43614349445144AB44894503D9802301
:104030005B0299464A4400040B0C000C0904091861
:1040400020009946434670435C437E435F43030C24
:104050009846A41944444A440397A64204D98023AD
:104060005B029846474403972304029E9A46059BA9
:104070005E449846AE42AD4176188E4289410004B6
:10408000000C504440446D424719B846934649429B
:104090008946C344D94498428041A845AD419345DF
:1040A0009241894589416D4240422843240C524245
:1040B00049420A43039B00198018C7184B46DC0D80
:1040C000049B75021D436A1E95414B46F60D7F0207
:1040D00035435A023C431543FB0100D41CE1012146
:1040E0006A080D401543E207154364084F496144CF
:1040F000002900DCB0E06B0709D00F222A40042A17
:1041000005D02A1DAA42AD416D4264191500E30194
:1041100004D58021464AC90014406144454A914271
:1041200000DD26E76207ED08640249051543240B0C
:104130004A0D10E75246324300D17FE0002E00D1F5
:10414000DCE0300000F064FE02000B3A1D230100A9
:104150009B1A52460839DA408E40164352468A402E
:10416000009B3549181A03008C46634400200093D5
:10417000D3E6250005434AD0002C00D1B0E0200052
:1041800000F046FE010002000B391D2310005B1AEF
:104190003100350008388440D94085400C4326481A
:1041A000831A0093002399469B4697E60500254312
:1041B00026D1082200930223002491469B468DE6D7
:1041C0005246009B324310D1154900268C46634469
:1041D0004946009302231943894602209DE65B4627
:1041E0000197022B00D0ADE6C3E60D4A03209446AA
:1041F00063444A46009303231A43914652468CE691
:104200000C2200930323050091469B4666E6042397
:10421000994600230093013300249B465EE6C04686
:10422000FF07000001FCFFFF548D0008FF030000A2
:10423000FFFFFFFEFE0700000DFCFFFF49460123C4
:10424000194389460026012067E6002380240025C3
:10425000434A019324037EE60120401A382800DDFA
:1042600076E61F285BDD1F2223005242511ACB4005
:104270001900202803D03B4A6244944025436A1E1B
:1042800095412A000A4307210D00002415401142E0
:104290005BD00F2100241140042953D0111D9142FD
:1042A00092415242A4180A0023024BD50122002455
:1042B000002550E680231B031C4209D01E4207D173
:1042C00033431C0343461500240B254A019342E661
:1042D0008022120314432403214A240B01973AE657
:1042E00000F096FD01000200153120321C2900DC8F
:1042F0004BE7340008380025844050E700F088FD83
:1043000003001A00153220301C2A00DC1EE7564636
:10431000083B00229E4023E7009B9C46E6E61249AC
:10432000220061442E008D408A40C640691E8D41A6
:1043300032432A43C4405307B6D00F211140042909
:10434000ACD1B1E765076402240BD2081543002203
:1043500001E68022120314432403014A240BFAE5E8
:10436000FF0700003E0400001E040000F8B5574699
:104370004E464546DE46E0B51E0017004A000B03D8
:10438000520D5B0A9046420F1A43CD0FCD4C3103BC
:10439000C300944670007A0F490AFF009A46B94656
:1043A000400DF60F1143A04200D1B1E0012256406A
:1043B000B346B54200D188E04246121A002A00DC1A
:1043C000AEE0002800D1C1E0BE48804500D151E1F7
:1043D000802000040143382A00DD7BE11F2A00DD34
:1043E000EEE120203E00801A0C00D640D1408740EC
:1043F00062468440521A781E8741944634432743CC
:10440000DC1BA3429B4162465B42D31A99464B4652
:104410001B0200D418E14B465802430A99464B460A
:10442000002B00D137E1484600F0F2FC01000839CA
:104430002023220048465B1ADA4088408C404346DD
:104440001043884500DD36E1C91A4B1C1F2B00DDE7
:10445000EAE020222600D21A01009440DE40D84033
:1044600000239140621E94418146984631430C439B
:10447000630709D00F232340042B05D0231DA3423B
:10448000A4416442A1441C004B461B0200D4DEE060
:1044900041468C4B0131994200D1E7E04B468A48B6
:1044A000E4080340180049055B07400223434A0D16
:1044B000040B1205ED0722432A4318001100F0BC3B
:1044C000BB46B246A946A046F8BD4246121A002A8B
:1044D00052DD002800D19CE0A04500D1CAE0802038
:1044E00000040143382A00DD49E11F2A00DC97E17E
:1044F00010000E002038C640202A04D04020821A26
:1045000091400F43B9464C46621E944134433AE110
:104510000A003A4328D0B346B5422BD06B4A4244F6
:10452000002A5DD042464446821A002C00D0F5E0B5
:1045300065461D4300D19CE1551E012A00D1FBE1D7
:10454000604CA24200D1BDE12A00F0E008003843EF
:1045500000D1C3E0501E012A00D1A8E1594CA2426B
:1045600000D187E0020036E701225640B346B5424B
:1045700000D021E7554A4244002A00D1B5E0424626
:104580004446821A002C00D138E14E4EB04200D190
:10459000DEE18026644636043443A446382A00DD32
:1045A00096E11F2A00DD24E22026B41AA2466446C2
:1045B0005646B440A1461C004E46D4402643340023
:1045C0005646B3405E1EB3411C436346D340C918F0
:1045D000E419BC42BF417F42B94680468944D8E0D5
:1045E00040463B4C0130204200D0B4E04046002819
:1045F00000D044E16046184300D190E10800384300
:1046000000D0AAE16146DB0849070B436146CC08AC
:1046100027E00800384361D0501E012A00D139E15B
:10462000A24227D002005DE702001F39CA401100F4
:10463000202B03D04022D31A98400443631E9C4190
:104640000023994698460C43630700D012E74B4677
:104650004A46E4085B072343D408424619498A4284
:104660000ED024035205240B520D22E70A00002429
:1046700000231EE7DB086246520713436246D40854
:104680001A00224300D1FCE18022120314432403C8
:104690000C4A240B0DE7200000F0BAFB0100183192
:1046A0001F2900DCC4E6083884404346200000246B
:1046B000884500DCC8E6044A5B1A104098468146EB
:1046C000D6E6C046FF070000FFFF7FFF01F8FFFFAF
:1046D000FE0700000F437A1E974191E66146DB0812
:1046E00049070B436146CC08B8E74046D34C01303C
:1046F000204200D0A2E04046002800D001E1604600
:10470000184300D15EE10800384300D05FE1614604
:10471000DB0849070B436146CC08A2E7C84DA84215
:1047200000D1CFE0802564462D042C43A446382ACE
:1047300056DC1F2A00DDD1E020251E00AD1A64469C
:10474000AB40AC40D6405D1EAB413443234364468E
:10475000D440091B49E06046DC1B461AA342804155
:104760004042814630004E46801B8146000276D48E
:104770004B46234300D052E60024002571E739431D
:104780000C00621E9441E4189C429B415B426344CE
:1047900099464B461B0200D456E701239C46A84B82
:1047A000E044984538D04B46A64801220340180003
:1047B000630814401C43C3071C434308994657E64B
:1047C00010000E002038C640202A04D04020821A53
:1047D00091400F43B9464F467A1E974137430FE643
:1047E00062461A4313005A1E9341FC1AA742BF4166
:1047F0007F42CB1B99465D46804608E666461E43CF
:1048000000D1BEE0561E012A00D109E18C4CA24223
:1048100000D119E13200C1E642460024002348E6F7
:1048200020200C00801A3E0087408440D640781E2D
:104830008741D14034433C438C44A4E7804A9042B2
:1048400000D1E9E0DF199F429B4161445B42C918F6
:10485000CC077F084B08994680463C43F4E6FC1A97
:10486000A742BF4163467F42C91ACB1B99465D46AA
:10487000D5E5FF084B075D463B43CC08EEE66246B4
:104880001A4300D082E00B003B431BD1802400255B
:104890002403F9E6DC199C429B41614489465B4252
:1048A00099444B461B0244D401239846CCE6DC1BBA
:1048B0006246A3429B41511A5B42CB1A994601239F
:1048C0009846A4E5FF084B075D463B43CC08D7E676
:1048D00062461A431400631E9C4179E61500644643
:1048E000203DEC40A046202A05D040256446AA1A67
:1048F000944023439A465446631E9C4143462343B7
:1049000073E762461A4323D00A003A4300D0A0E07E
:104910006246DB08520713436246D408B0E60B0038
:104920003B4300D128E7FF084B075D463B43CC08DB
:1049300097E60223984636E7FC1AA742BF41634632
:104940007F42C91ACB1B994601235D4698465EE516
:104950004B07FF083B43CC0892E6DC1B6046A342B2
:10496000B641401A7642801B8146000260D5FC1A8F
:10497000A742BF4163467F42C91ACB1B99465D4699
:1049800076E5FF084B073B43CC0867E60A00DB08E7
:104990003A4300D16FE66246520713436246D40899
:1049A00080221203144207D0C808104204D15D4689
:1049B0000400FB0849070B435A0FDB00DB085207D2
:1049C00013435DE64B07FF083B43CC0849E6DC197F
:1049D0009C429B41614489465B4299444B461B0281
:1049E00000D431E64A46174B1A40012391469846B7
:1049F0002AE616006446203EF440A046202A05D050
:104A000040266446B21A944023439A465446631E95
:104A10009C4143461C43DBE502000024002348E59B
:104A2000DC19BC42BF41614489467F42B94438E742
:104A30004B46234300D19FE606E6C046FE07000032
:104A4000FF070000FFFF7FFFFF084B073B43CC0839
:104A500016E66246DB08520713436246D4088022FA
:104A60001203144207D0C808104204D15D46040066
:104A7000FB0849070B435A0FDB005207DB081343BF
:104A8000FEE50023014A1C0013E5C046FF070000B5
:104A90000A0030B5134C530009030500090B002030
:104AA0005B0DD20FA34204DD0F48834202DD0F4BA2
:104AB000D01830BD8020400301430D48C01A1F2884
:104AC00008DD0C48C31AD9400B005842002AF0D127
:104AD0001800EEE7084CC540A446634499400B001B
:104AE0002B43F2E7FE0300001D040000FFFFFF7FE1
:104AF0003304000013040000EDFBFFFF70B5002835
:104B000016D0C317C5185D40C40F280000F080F907
:104B1000114A121A0A2816DC03002E0015339E4093
:104B20000B23181AC54052052D032D0B530D03E01E
:104B300000240023002500261B052B43E407234304
:104B40003000190070BD0B38854052052D0300263A
:104B50002D0B530DF0E7C0461E04000070B5430056
:104B60004602C40FFE201B0E591C750A08420CD0C9
:104B7000E022920094466D07360B63441B053343D5
:104B8000E40723432800190070BD002B14D1002D29
:104B90001BD0280000F03CF90A281CDC0B232E0057
:104BA0001B1ADE40030015339D400E4A3603121ACD
:104BB0005205360B530DE1E7002D09D08022360B4C
:104BC0001203094B6D071643D8E700230026D5E7EB
:104BD0000026054BD2E703000B3B9D402E0000252D
:104BE000E3E7C04689030000FF07000002004B0016
:104BF000F0B55B0D0C033D4E640A400F5F1CC90FFE
:104C00000443D50037420AD039481E18FE2E16DD5F
:104C1000FF200024C0052043C9070843F0BD002B36
:104C200006D12C4326D005229201540AD8B2F1E7CE
:104C30002543EDD08020C0030443FF20EAE7002E87
:104C40001BDD9201531E9A41E4006D0F22432A435B
:104C5000530748D00F231340042B00D00432802385
:104C6000DB0413403FD0701CFE2ED1D09201540AB9
:104C7000C0B2CFE700200024CCE73200173222DB9D
:104C80008020000420431E24A41B1F2C1DDD0222B3
:104C90005242961B0200F2401600202C04D0154A06
:104CA00094466344984005432A00531E9A41324378
:104CB00000265307CED180241300E40401202340B2
:104CC0002242D3D1B0E70023ADE70B4A94462A0035
:104CD000E24014002A0063449A409840551EAA41BD
:104CE00002432243E4E733009EE7C046FE0700008C
:104CF00080FCFFFFA2FCFFFF82FCFFFF00224308B5
:104D00008B4274D303098B425FD3030A8B4244D393
:104D1000030B8B4228D3030C8B420DD3FF220902D5
:104D200012BA030C8B4202D31212090265D0030B94
:104D30008B4219D300E0090AC30B8B4201D3CB038A
:104D4000C01A5241830B8B4201D38B03C01A5241CC
:104D5000430B8B4201D34B03C01A5241030B8B42CE
:104D600001D30B03C01A5241C30A8B4201D3CB02B9
:104D7000C01A5241830A8B4201D38B02C01A52419E
:104D8000430A8B4201D34B02C01A5241030A8B42A1
:104D900001D30B02C01A5241CDD2C3098B4201D3B9
:104DA000CB01C01A524183098B4201D38B01C01A37
:104DB000524143098B4201D34B01C01A52410309AE
:104DC0008B4201D30B01C01A5241C3088B4201D35D
:104DD000CB00C01A524183088B4201D38B00C01A0A
:104DE000524143088B4201D34B00C01A5241411A31
:104DF00000D20146524110467047FFE701B500203E
:104E0000FDF76CFE02BDC0460029F7D076E770477B
:104E10001C2101231B04984201D3000C10391B0AEA
:104E2000984201D3000A08391B09984201D30009AE
:104E3000043902A2105C40187047C0460403020205
:104E400001010101000000000000000010B50A226D
:104E5000002101F093F910BD10B50A23002201F0E2
:104E60007DF910BDF7B58B8905000C001A075FD4DA
:104E70004A68002A04DC0A6C002A01DC0020FEBD1E
:104E8000E76A002FFAD0002280212E682A601A00DB
:104E900049010A400B4234D0606DA3895B0706D5F7
:104EA0006368C01A636B002B01D0236CC01A020028
:104EB000216A00232800E76AB847A189431C06D16C
:104EC0002B681D2B31D82C4ADA40D3072DD500236F
:104ED000636023692360CB0405D5431C02D12B6892
:104EE000002B00D16065616B2E600029C6D02300C5
:104EF0004433994202D0280000F004FA0020606395
:104F0000BDE701232800216AB847431CC5D12B689F
:104F1000002BC2D01D2B01D0162B01D12E60ADE786
:104F20004023A2891343A381A9E740230B43FAE757
:104F30000F69002FA2D00A680F60D21B01920022D5
:104F40009B0700D14A69A260019B002B00DC95E71A
:104F50003A002800019B216AA66AB047002806DCB7
:104F600040230120A28940421343A38187E7019B8C
:104F70003F181B1A0193E7E7010040200B6970B549
:104F800005000C00002B02D10025280070BD002870
:104F900004D08369002B01D100F0C8F8144B9C4267
:104FA0001BD16C680C22A35E002BEDD0626ED20781
:104FB00004D49B0502D4A06D00F094F928002100D0
:104FC000FFF750FF636E0500DB07DED4A3899B0566
:104FD000DBD4A06D00F08CF9D7E7064B9C4201D1E1
:104FE000AC68DFE7044B9C42DCD1EC68DAE7C046F2
:104FF000B48D0008D48D0008948D0008010010B510
:10500000002805D1054B0649186800F046F910BD87
:10501000044B1868FFF7B2FFF9E7C046F48D0008AB
:105020007D4F000808000020002310B50400036035
:1050300043608360818143661900C28103614361DB
:10504000836108225C3000F054F9054B24626362EE
:10505000044BA362044BE362044B236310BDC046C0
:10506000955F0008C15F0008F95F0008256000082F
:1050700010B5024900F011F910BDC0467D4F00087F
:10508000436E10B5DB0705D483899B0502D4806D80
:1050900000F028F9002010BD436E10B5DB0705D4E1
:1050A00083899B0502D4806D00F022F9002010BD99
:1050B00070B568254A1E55430E002900743100F072
:1050C0008DF9041E08D000212A00016046600C30D2
:1050D000A060683200F00DF9200070BD10B5024BE1
:1050E0001868FFF7C5FF10BDF48D000810B5024821
:1050F00000F0F8F810BDC0464204002010B5024888
:1051000000F0F6F810BDC0464204002010B5024879
:1051100000F0E8F810BDC0464304002010B5024876
:1051200000F0E6F810BDC0464304002013B50400AB
:10513000FFF7ECFFA369002B02D0FFF7EFFF13BDD1
:10514000A364E3642365134B134A1B68A2620193B3
:10515000A34201D10123A361200000F01FF8606089
:10516000200000F01BF8A060200000F017F80022DB
:105170000421E0606068FFF757FF01220921A06861
:10518000FFF752FF02221221E068FFF74DFF0123D3
:10519000A361D2E7F48D000871500008F8B507004C
:1051A000FFF7A4FF1F4B1E68B369002B02D130002C
:1051B000FFF7BCFF4836B4687368013B04D5336819
:1051C000002B22D03668F6E70C22A55E002D1AD1FE
:1051D0002000154B5830E360656600F07FF8FFF75C
:1051E0008DFF2000082229002560A56065602561EB
:1051F0006561A5615C3000F07CF86563A563A5641A
:10520000E5642000F8BD6834D7E704213800FFF7D3
:105210004FFF041E3060D5D1FFF770FF0C233B60B9
:10522000EFE7C046F48D00080100FFFF10B5FFF75F
:105230005DFF034B0349186800F014F810BDC04629
:10524000080000208150000810B5044B044918687C
:1052500000F008F8FFF752FF10BDC046080000201C
:1052600099500008F7B54830040000260191A56860
:105270006768013F04D52468002CF8D13000FEBDDA
:10528000AB89012B07D90E22AB5E013303D0280076
:10529000019B984706436835EBE7F7B50400060025
:1052A0000027019148346368A5680093009B013B87
:1052B000009304D52468002CF5D13800FEBDAB89DD
:1052C000012B08D90E22AB5E013304D02900300037
:1052D000019B984707436835E8E770477047704778
:1052E0007047704770470120704701207047704732
:1052F000704703008218934200D170471970013340
:10530000F9E7000070B50500002910D00C1F2368D4
:10531000002B00DAE418280001F098FF1D4A1368FA
:10532000002B05D163601460280001F097FF70BD69
:10533000A34208D9216860188342F3D118685B68DA
:1053400041182160EEE71A005B68002B01D0A342F0
:10535000F9D911685018A0420BD1206809185018CB
:1053600011608342E0D118685B6841181160536096
:10537000DAE7A04202D90C232B60D5E72168601838
:10538000834203D118685B684118216063605460F0
:10539000CAE7C0464804002070B50F4E0D003168C2
:1053A0000400002902D100F0A7FD30602900200090
:1053B00000F0A2FD431C0AD00323C51C9D43A84254
:1053C00007D0291A200000F097FD431C01D10125C8
:1053D0006D42280070BDC0464C040020F7B5032282
:1053E000CB1C9343083306001F000C2B32D20C2732
:1053F000B94231D8300001F029FF324D2B681C0032
:10540000002C2ED139003000FFF7C6FF0400431CEA
:105410001ED12C682500002D4AD123682900E318ED
:105420003000019300F068FD019B834243D1236863
:105430000337FF1A03239F4308370C2F00D20C2792
:1054400039003000FFF7A8FF431C34D02368DF1970
:10545000276013E0002BCBDA0C23002533602800F3
:10546000FEBD2268D11B20D40B2917D9E219276071
:10547000A34211D12A606368116053603000250097
:1054800001F0ECFE07220B35231D9543EA1A9D42DD
:10549000E5D05B1BA350E2E75A60ECE76268A342E9
:1054A00001D12A60EAE75A60E8E723006468A7E7C9
:1054B0002C006D68AFE70C233000336001F0CEFEA6
:1054C000CDE7C04648040020F0B51E0000231400BC
:1054D0008BB09E4204DA8021090673181E002D232A
:1054E000129A149F1370202303229F43462F07D044
:1054F0003B00453B59424B411099013ACB18109360
:1055000009AB049308AB0393139B00920293109B87
:1055100022000193330000F0C7FF0500472F02D19E
:10552000119BDB0728D5109BEB180793462F14D14E
:105530002B78302B0CD10022002320003100FDF706
:10554000DFFA002804D10123109A9B1A139A1360E2
:10555000139B079A1B68D31807930022002320008F
:105560003100FDF7CDFA002801D0079B09933022C6
:10557000099B07998B4206D32800099B159A5B1B50
:1055800013600BB0F0BD591C09911A70F0E7F0B52B
:10559000831C87B0039305000C002B2302700029A5
:1055A00001DA4C4202336B70092C31DD0A2704AB5F
:1055B000DE1D200039000196FDF78CFA013E3031E6
:1055C0002000317039000294FDF79EF9029B04001F
:1055D000632BEEDC019B30349A1E13000399147088
:1055E00004A8073098420ED804AB073300209A4233
:1055F00004D804AB0930C018019BC01A039B1818CB
:10560000401B07B0F0BD1878013308700131E7E79F
:105610003023E418AB70281DEC70F1E7F0B595B0BD
:105620000C0009921E001A9D070001F05FFD03683F
:1056300018000C9300F0FCFC00231293237E072239
:105640000A9323680E900D930D992B68C90547D5D1
:105650009B1893431A0008322A601A685B68A26498
:10566000E3640122A36CE56C0B936B005B080F9362
:105670000B98A74B0F99524203F0CEF9002831D175
:105680000122A34B0B980F995242FDF749FA0028CB
:1056900028D10022002329000B98FDF737FA0028B3
:1056A00003D023002D2243331A700A9B994D472BB8
:1056B00000D9994D03230D9A236101339A430023A6
:1056C00022600B93099B21003800009613AA00F07A
:1056D000E7F9431C00D0A2E00120404215B0F0BD24
:1056E0000733B6E70B9A2B001000290003F094F95A
:1056F00000280BD0002D03DA23002D2243331A702B
:105700000A9B864D472BD5D9854DD3E720220A9990
:10571000636891430F915A1C49D10733636080231A
:105720000D9ADB0013430022069212AA05920A9AF0
:1057300008A9049211AA03922322236001936368AB
:1057400052180292009338002B000B9AFFF7BCFE10
:105750000F9B05001199472B08D1CB1C02DB636816
:10576000994248DD0A9B023BDBB20A930A9B652BF8
:1057700024D820001A00013950301191FFF707FF9B
:10578000129A0B9013182361012A02DC2268D207B7
:1057900001D501332361232308AA9B181B78002B12
:1057A00000D18FE723002D2243331A708AE70F9A26
:1057B000472AB4D1002BB2D10133AFE70A9B662B45
:1057C0001BD1636800290DDD2161002B02D1226805
:1057D000D20702D5013359182161119BA36500231B
:1057E0000B93D8E7002B03D101222168114200D08E
:1057F0009A1C2261F1E767230A93119B129A934244
:1058000006DB22682361D207E7D501332361E4E791
:105810000121002B01DC4918C91A5218E9E7226856
:10582000530507D423692A0038000999B047431C5F
:1058300028D151E70A9B652B00D8E1E0A06CE16C10
:1058400000220023FDF75CF9002831D00123380045
:10585000344A0999B047431C00D13DE7119B129A85
:10586000934202DB2368DB070CD538000E9B0C9AB1
:105870000999B0470025431C00D12DE7129B013B3D
:10588000AB420ADC23689B0700D506E1139BE06866
:10589000984200DB22E7180020E7220001233800AD
:1058A00009991A32B047431C00D115E70135E5E7E5
:1058B000119B002B38DC012338001A4A0999B047A4
:1058C000431C00D108E7119B129A134302D12368AD
:1058D000DB07D7D50E9B38000C9A0999B047431CBB
:1058E00000D1F9E600230A93119B0A9A5B42934286
:1058F00001DC129B97E722000123380009991A3234
:10590000B047431C00D1E7E60A9B0133EBE7C046F2
:10591000FFFFEF7FF88D0008FC8D0008008E000867
:10592000048E0008088E0008129AA36D0A929A420B
:1059300000DD0A930A9B002B3CDC00230D930A9B9D
:10594000DB43DB170F93A36D0F9A0B930A9B134056
:105950000B9AD31A0D9A934234DC119B129A9342FC
:105960003DDB2368DB073AD4129A0B9B1199D31ABB
:10597000521A0A929A4200DD0A930A9B002B36DCE7
:105980000A9B0025DB43DB170B93119A129B0B99A3
:105990009B1A0A9A0A409B1AAB4200DC72E722006B
:1059A0000123380009991A32B047431C00D193E60D
:1059B0000135EAE70A9B2A0038000999B047431CE1
:1059C000BBD189E622000123380009991A32B04779
:1059D000431C00D180E60D9B01330D93B3E70E9B72
:1059E00038000C9A0999B047431CBDD174E60B9B53
:1059F0003800EA1809990A9BB047431CC0D16BE6EE
:105A0000129B012B02DC01231A4234D001232A000D
:105A100038000999B047431C00D15DE60E9B380061
:105A20000C9A0999B047431C00D155E6A06CE16C73
:105A300000220023FDF764F800281AD1129B6A1C8B
:105A4000013B38000999B047431C0ED144E62200BF
:105A50000123380009991A32B047431C00D13BE6B4
:105A60000135129B013BAB42F1DC22000B9B503213
:105A7000DAE60025F5E72A00E3E7220001233800F3
:105A800009991932B047431C00D125E60135E36876
:105A9000139A9B1AAB42F0DCF8E60025F7E7C04604
:105AA000F7B5150001938A680B690C0000909342CA
:105AB00000DA130022002B6043321278002A01D052
:105AC00001332B6023689B0602D52B6802332B60C1
:105AD0002268062317001F401A4227D023004333B1
