:020000040800F2
:1000000000200020B9000008090700081D070008AB
:1000100000000000000000000000000000000000E0
:1000200000000000000000000000000009070008B8
:100030000000000000000000090700080907000890
:100040000907000809070008090700080907000850
:100050000907000809070008090700080907000840
:100060000000000009070008090700080907000848
:10007000090700080907000800000000AB19000884
:100080000000000009070008000000000000000058
:100090000907000800000000090700080907000818
:1000A0000907000809070008090700089509000862
:1000B000450F00080907000800F0A2FA00F064FAF2
:1000C000E1235B02180000F0BDFB62B6C04600F001
:1000D000C5F9024B180000F025FDFEE7B8810008C5
:1000E00080B582B000AF7860C0467B685A1E7A60E7
:1000F000002BFAD1C046C046BD4602B080BD80B5D7
:1001000000AF3D4BDA6A3C4B01210A43DA62A0237F
:10011000DB051B68032293431A00A023DB050121A2
:100120000A431A60A023DB055A68A023DB050121DE
:100130008A435A60A023DB051B680C2293431A00F4
:10014000A023DB0504210A431A60A023DB055A68BB
:10015000A023DB0502218A435A60A023DB051B682C
:10016000302293431A00A023DB0510210A431A60B2
:10017000A023DB055A68A023DB0504218A435A60CB
:10018000A023DB051B68C02293431A00A023DB05D4
:1001900040210A431A60A023DB055A68A023DB052F
:1001A00008218A435A60A023DB051B68134A1A40C2
:1001B000A023DB05802149000A431A60A023DB0548
:1001C0005A68A023DB0510218A435A60A023DB056F
:1001D0001B680B4A1A40A023DB058021C9000A4393
:1001E0001A60A023DB055A68A023DB0520218A437F
:1001F0005A60C046BD4680BD00100240FFFCFFFFB4
:10020000FFF3FFFF80B500AF104BDA6A0F4B0121FF
:100210000A43DA62A023DB051A68A023DB050C4938
:100220000A401A60A023DB05DA68A023DB058021E1
:1002300049040A43DA60A023DB05DA68A023DB0562
:1002400004490A40DA60C046BD4680BD0010024045
:10025000FFFFFFFCFFFFFFFD80B500AF0D4BDA6A2B
:100260000C4B02210A43DA620B4B1A680A4B03213A
:100270000A431A60074BDA6A064B02210A43DA6224
:10028000054B1A68044B0C210A431A60C046BD4650
:1002900080BDC046001002400004005080B500AF91
:1002A000A023DB05012252429A601B4BDA6A1A4BEB
:1002B00001210A43DA62A023DB051B68174A1A40B2
:1002C000A023DB058021C9040A431A60A023DB05B3
:1002D0005A69A023DB05802189010A435A61A023C2
:1002E000DB051A68A023DB050D490A401A60A0232C
:1002F000DB05DA68A023DB058021C9030A43DA6045
:10030000A023DB05DA68A023DB0506490A40DA6092
:10031000C046BD4680BDC04600100240FFFFFFF34F
:10032000FFFF3FFFFFFF7FFF80B500AF094BDA6A99
:10033000084B01210A43DA62A023DB051B68064A49
:100340001A40A023DB05802149020A431A60C046F7
:10035000BD4680BD00100240FFFFFCFF80B582B0AB
:1003600000AF214B180003F019FC204B1B689B6861
:10037000180002F02BFD1E4B1121180000F065FC47
:100380001C4B180003F096FC00237B6018E0184A11
:100390007B68D3181B780A2B04D1154A7B68D318C5
:1003A00000221A70124A7B68D3181B780D2B04D1D7
:1003B0000F4A7B68D31800221A707B6801337B6078
:1003C0007B68102BE3D90A4A0B490C4B180003F049
:1003D000A9FC0A4B01220221180001F0F9F9C046DC
:1003E000BD4602B080BDC046508100080800002014
:1003F000FC0100206C81000870810008D8010020F9
:1004000080B582B000AF78603960786802F032FA67
:1004100002000F490F4B180003F084FC0D4B012222
:100420000121180001F0D4F9386802F023FA020023
:100430000949084B180003F075FC064B0122022104
:10044000180001F0C5F9C046BD4602B080BDC046E7
:1004500074810008D80100208081000880B582B036
:1004600000AFFFF74CFE01F08EF9FFF7CBFEFFF770
:10047000F3FEFFF713FFFFF757FF96239B011800CA
:1004800000F0BAFC01F0C6FA00F0D4FF01F0DEF98A
:10049000FA235B00180001F025F8374B180003F031
:1004A0007DFB80235B00180001F020FA0300180098
:1004B00002F000FA031C7B6080239B00180001F00F
:1004C00015FA0300180002F0F5F9031C3B603A002E
:1004D0003B1D1100180001F029FB06E08023DB051D
:1004E0001B688023DB0500221A60A023DB051A6944
:1004F00080235B011340F1D08023DB051A68802341
:10050000DB0501210A431A6009E03B68181C02F070
:100510002BFB02000B001000190001F06FFBA02361
:10052000DB051A6980231B011340EED000F06AFF3F
:100530007B683A68111C181CFFF762FF7B68181C67
:1005400002F098F902000D4B1100180003F026FB91
:100550003B68181C02F08EF90200094B11001800CC
:1005600003F01CFB074B1B689B68180002F02EFC75
:10057000C82000F0B7FF94E78C810008988100083C
:10058000A88100080800002080B582B000AF164B9B
:100590007B60164B3B6007E07A68131D7B603B680D
:1005A000191D396012681A603A68114B9A42F3D3E8
:1005B00004E03B681A1D3A6000221A603A680D4B4D
:1005C0009A42F6D30C4B3B6004E03B681A1D3A603C
:1005D0001B6898473A68094B9A42F6D3C046C04612
:1005E000BD4602B080BDC0462C8800080000002037
:1005F000D8010020800300202C8800082C880008E7
:1006000080B500AF3B4B1A683A4B01210A431A6090
:10061000C046384B1B6804221340FAD0354B0122E8
:10062000DA60C046334BDB680C221340042BF9D14F
:10063000314B1A68304B02210A431A602E4B1A685C
:100640002D4B01210A431A602A4B9A6B294B8021BA
:1006500049050A439A63294B802212011A60C04659
:10066000264B5B6810221340FAD1224BDA68214BEB
:1006700023490A40DA601F4BDA681E4B8821C90300
:100680000A43DA601B4A1B4BD268DA60194A194BDD
:10069000D268DA60174A174BD268DA60154B1A68CD
:1006A000144B18490A401A60124B1A68114B8021EA
:1006B00049040A431A60C0460E4B1A6880239B0403
:1006C0001340F9D00B4BDA680A4B03218A43DA60F6
:1006D000084BDA68074B03210A43DA60C046054B32
:1006E000DB680C2213400C2BF9D1C046C046BD4636
:1006F00080BDC04600100240002002400070004053
:10070000FFFF02FFFFFFFFFE80B500AF024B1800A6
:1007100000F008FAFEE7C046E081000880B500AFAF
:10072000024B180000F0FEF9FEE7C04610820008F8
:1007300090B585B000AF78603960184B1B68002B0E
:1007400002D101235B4224E00023FB600AE0FB6846
:100750005A1CFA603A68D418114B180000F0ADF931
:10076000030023707B68013B1A00FB68934205D2AB
:100770000B4B180000F0CCF9031EE8D1FB68002BEE
:1007800006D03A68FB68D31800221A70FB6800E0B4
:1007900000231800BD4605B090BDC046A802002049
:1007A0001002002080B584B000AF78603960224B21
:1007B0001B68002B02D101235B4238E07B683F2B92
:1007C0000BDCC0461D4B180000F0A2F903004022CC
:1007D000D21A7B689A42F5D302E002235B4226E0FC
:1007E0000023FB600BE03A68FB68D3181A78134BC0
:1007F0001100180000F030F9FB680133FB607B68E2
:10080000FA689A42EFD30E4B1B68082213400DD1B1
:100810000B4B1A680A4B08210A431A60074B180051
:1008200000F04BF903001A00054B9A6200231800F0
:10083000BD4604B080BDC046A80200205C02002076
:100840000038014080B584B000AF786072B6C04611
:10085000454B00229A64444B9A6C434B5A64424B7A
:100860005A6C414B1A64414B00229A643F4B9A6C7C
:100870003E4B5A643D4B5A6C3C4B1A643C4B012234
:100880001A603C4B00221A603B4BDA6A3A4B01215A
:100890000A43DA62394BFB607968F86801F010FBB3
:1008A0000300FB60A023DB059A68A023DB05802101
:1008B000C9020A439A60A023DB055A68A023DB051E
:1008C0002F490A405A60A023DB051B682D4A1A40B5
:1008D000A023DB05802109030A431A60A023DB055E
:1008E0005A6AA023DB0540210A435A62A023DB0594
:1008F0001B68254A1A40A023DB05802189030A438F
:100900001A60A023DB055A6AA023DB058021C900F9
:100910000A435A62184B5A6B174B8021C9010A438C
:100920005A631A4B1A68194B6C210A431A60174B09
:1009300000225A60154B00229A60144BFA68DA6064
:10094000124B1A68114B01210A431A60104B1A68A6
:100950000F4B802109050A431A6062B6C046C046A3
:10096000BD4604B080BDC046100200205C020020DD
:10097000A8020020AC020020001002400048E8015C
:10098000FFFDFFFFFFFFF3FFFFFFCFFF0038014038
:1009900000E100E080B500AF084BDB698022134026
:1009A00001D000F025F8054BDB692022134001D06F
:1009B00000F006F8C046BD4680BDC0460038014084
:1009C00080B500AF074B5B6ADAB2074B1100180025
:1009D00000F042F8031E02D0044B01221A60C04608
:1009E000BD4680BD0038014010020020AC0200204E
:1009F00080B500AF164B180000F08AF8031E08D02F
:100A0000134B180000F059F803001A00114B9A62BA
:100A10001BE0104B1A680F4B08218A431A600D4BDC
:100A2000DB694022134005D00A4B1A6A094B40216A
:100A30000A431A62074BDB698022134005D0054B3D
:100A40009A69044B10210A439A61C046BD4680BD95
:100A50005C0200200038014080B582B000AF7860B1
:100A60000A00FB1C1A707B681A6C7B685B6C9A42EC
:100A700005D17B689B6C002B01D0012319E072B675
:100A8000C0467B681B6C591C7A6811647A68F91C33
:100A90000978D1547B689B6C5A1C7B689A647B688C
:100AA0001B6C402B02D17B6800221A6462B6C046E0
:100AB00000231800BD4602B080BD80B584B000AFF1
:100AC00078607B689B6C002B01D100231CE072B620
:100AD000C0467B685B6C591C7A6851640F22BA1857
:100AE0007968CB5C13707B685B6C402B02D17B68B0
:100AF00000225A647B689B6C5A1E7B689A6462B6BB
:100B0000C0460F23FB181B781800BD4604B080BDFB
:100B100080B582B000AF78607B689B6C1800BD46E2
:100B200002B080BD80B582B000AF78600B4B1B680F
:100B3000002B09D101235B420BE07B685A1C7A60D1
:100B400019000120FFF72EFE7B681B78002BF4D1E3
:100B500000231800BD4602B080BDC046A802002098
:100B600080B582B000AF0200FB1D1A70FB1D19009A
:100B70000120FFF717FEC046BD4602B080BD80B51C
:100B800000AF044B1800FFF798FF03001800BD46A4
:100B900080BDC04610020020B0B584B000AF7860C0
:100BA00039601E4B1B68002B02D101235B4231E0F0
:100BB0000023FB600B23FB1800221A7017E0C046CD
:100BC000174B1800FFF7A4FF031EF9D00B257C1963
:100BD000134B1800FFF771FF03002370FB685A1CCA
:100BE000FA601A007B689B187A1912781A703B68B1
:100BF000013BFA689A4204DA0B23FB181B780D2B91
:100C0000DDD1FB68002B04DDFB687A68D318002275
:100C10001A70FB681800BD4604B0B0BDA8020020E1
:100C20001002002090B583B000AFFC1DFFF7A7FFB6
:100C300003002370FB1D1B781800FFF791FFFB1DBD
:100C40001B781800BD4603B090BDB0B584B000AFAE
:100C500078603960214B1B68002B02D101235B4275
:100C600037E00023FB600B23FB1800221A701DE005
:100C7000C0461B4B1800FFF74BFF031EF9D00B2596
:100C80007C19174B1800FFF718FF030023702C0086
:100C90003B191B781800FFF763FFFB685A1CFA60CA
:100CA0001A007B689B183A1912781A703B68013B4E
:100CB000FA689A4204DA0B23FB181B780D2BD7D164
:100CC000FB68002B04DDFB687A68D31800221A70D9
:100CD000FB681800BD4604B0B0BDC046A8020020A5
:100CE0001002002090B585B000AF78603960184BD5
:100CF0001B68002B02D101235B4224E00023FB6030
:100D00000AE0FB685A1CFA603A68D418114B1800C4
:100D100000F0ABF9030023707B68013B1A00FB680D
:100D2000934205D20B4B180000F0CAF9031EE8D11C
:100D3000FB68002B06D03A68FB68D31800221A70B3
:100D4000FB6800E000231800BD4605B090BDC0461A
:100D50004C030020B402002080B584B000AF78605E
:100D60003960224B1B68002B02D101235B4238E023
:100D70007B683F2B0BDCC0461D4B180000F0A0F930
:100D800003004022D21A7B689A42F5D302E0022384
:100D90005B4226E00023FB600BE03A68FB68D31857
:100DA0001A78134B1100180000F02EF9FB6801337C
:100DB000FB607B68FA689A42EFD30E4B1B680822EF
:100DC00013400DD10B4B1A680A4B08210A431A60D5
:100DD000074B180000F049F903001A00054B9A620E
:100DE00000231800BD4604B080BDC0464C0300205F
:100DF000000300200044004080B584B000AF78605C
:100E000072B6C046454B00229A64444B9A6C434BE1
:100E10005A64424B5A6C414B1A64414B00229A640B
:100E20003F4B9A6C3E4B5A643D4B5A6C3C4B1A6498
:100E30003C4B01221A603C4B00221A603B4BDA6AA1
:100E40003A4B01210A43DA62394BFB607968F86852
:100E500001F036F80300FB60A023DB059A68A023AD
:100E6000DB05802149050A439A60A023DB055A6807
:100E7000A023DB052F490A405A60A023DB051B682D
:100E80002D4A1A40A023DB05802189050A431A60F8
:100E9000A023DB055A6AA023DB058021C9040A438D
:100EA0005A62A023DB051B689B009A08A023DB0580
:100EB000802109060A431A60A023DB055A6AA02391
:100EC000DB058021C9050A435A62184B9A6B174B00
:100ED000802189020A439A63184B1A68174B6C21C8
:100EE0000A431A60154B00225A60144B00229A6084
:100EF000124BFA68DA60114B1A68104B01210A4351
:100F00001A600F4B1A680E4B802149050A431A607C
:100F100062B6C046C046BD4604B080BDB4020020E3
:100F2000000300204C03002050030020001002406A
:100F30000048E801FFBFFFFFFFFFFFCF0044004074
:100F400000E100E080B500AF084BDB698022134070
:100F500001D000F025F8054BDB692022134001D0B9
:100F600000F006F8C046BD4680BDC04600440040C3
:100F700080B500AF074B5B6ADAB2074B110018006F
:100F800000F042F8031E02D0044B01221A60C04652
:100F9000BD4680BD00440040B40200205003002044
:100FA00080B500AF164B180000F08AF8031E08D079
:100FB000134B180000F059F803001A00114B9A6205
:100FC0001BE0104B1A680F4B08218A431A600D4B27
:100FD000DB694022134005D00A4B1A6A094B4021B5
:100FE0000A431A62074BDB698022134005D0054B88
:100FF0009A69044B10210A439A61C046BD4680BDE0
:10100000000300200044004080B582B000AF78604B
:101010000A00FB1C1A707B681A6C7B685B6C9A4236
:1010200005D17B689B6C002B01D0012319E072B6BF
:10103000C0467B681B6C591C7A6811647A68F91C7D
:101040000978D1547B689B6C5A1C7B689A647B68D6
:101050001B6C402B02D17B6800221A6462B6C0462A
:1010600000231800BD4602B080BD80B584B000AF3B
:1010700078607B689B6C002B01D100231CE072B66A
:10108000C0467B685B6C591C7A6851640F22BA18A1
:101090007968CB5C13707B685B6C402B02D17B68FA
:1010A00000225A647B689B6C5A1E7B689A6462B605
:1010B000C0460F23FB181B781800BD4604B080BD46
:1010C00080B582B000AF78607B689B6C1800BD462D
:1010D00002B080BD80B582B000AF78600B4B1B685A
:1010E000002B09D101235B420BE07B685A1C7A601C
:1010F00019000120FFF730FE7B681B78002BF4D12C
:1011000000231800BD4602B080BDC0464C0300203D
:1011100080B582B000AF0200FB1D1A70FB1D1900E4
:101120000120FFF719FEC046BD4602B080BD80B564
:1011300000AF044B1800FFF798FF03001800BD46EE
:1011400080BDC046B4020020B0B584B000AF786066
:1011500039601E4B1B68002B02D101235B4231E03A
:101160000023FB600B23FB1800221A7017E0C04617
:10117000174B1800FFF7A4FF031EF9D00B257C19AD
:10118000134B1800FFF771FF03002370FB685A1C14
:10119000FA601A007B689B187A1912781A703B68FB
:1011A000013BFA689A4204DA0B23FB181B780A2BDE
:1011B000DDD1FB68002B04DDFB687A68D3180022C0
:1011C0001A70FB681800BD4604B0B0BD4C03002087
:1011D000B402002080B500AF034B1800FFF770FF8A
:1011E00003001800BD4680BDB402002090B583B056
:1011F00000AFFC1DFFF79BFF03002370FB1D1B7856
:101200001800FFF785FFFB1D1B781800BD4603B0D3
:1012100090BDB0B584B000AF78603960214B1B68D9
:10122000002B02D101235B4237E00023FB600B233C
:10123000FB1800221A701DE0C0461B4B1800FFF778
:101240003FFF031EF9D00B257C19174B1800FFF741
:101250000CFF030023702C003B191B781800FFF7CC
:1012600057FFFB685A1CFA601A007B689B183A19F2
:1012700012781A703B68013BFA689A4204DA0B2331
:10128000FB181B780D2BD7D1FB68002B04DDFB6806
:101290007A68D31800221A70FB681800BD4604B0A3
:1012A000B0BDC0464C030020B402002080B582B01F
:1012B00000AF0200FB1D1A70FB1D1B7819001048BF
:1012C00000F0FEFD030019000E4800F0F9FD0300D8
:1012D0005A1E0D4B5A600C4B00229A600A4B052295
:1012E0001A60C046084B1A6880235B021340F9D08D
:1012F000054B00221A60C046BD4602B080BDC04604
:1013000040420F000048E80110E000E080B584B0E2
:1013100000AF78600023FB6015E00B23FB18002270
:101320001A7008E0FA20FFF7C1FF0B217B181A782A
:101330007B1801321A700B23FB181B78032BF1D991
:10134000FB680133FB60FA687B689A42E5D3C046CC
:10135000C046BD4604B080BD90B58DB000AF78608A
:101360007A68184B1100180002F018FCA023DB0566
:101370005A69A023DB0514490A405A610A20FFF785
:10138000C5FF7B681800FFF7A5FE08243B1927213D
:101390001800FFF7D9FEA023DB055A69A023DB055F
:1013A000802189010A435A610A20FFF7AFFF3A19E9
:1013B000064B1100180002F0F1FBC046BD460DB00F
:1013C00090BDC04634820008FFDFFFFF4082000866
:1013D00090B597B000AF786039603B687A6808498B
:1013E0000824381902F09EFC3B191800FFF772FE22
:1013F000C820FFF78BFFC046BD4617B090BDC04662
:101400005082000880B594B000AFFFF7E3FE031EE2
:101410000ADD3B004F211800FFF796FE3A00044B0F
:101420001100180002F0BAFBC046BD4614B080BDE2
:101430005882000880B500AF134B1800FFF78CFFEF
:10144000124B1800FFF788FF114B1800FFF784FFBD
:10145000104B1800FFF780FF0F4B1800FFF77CFFC1
:101460000E4B1800FFF778FF0D4B1800FFF774FFC5
:101470000C4B1800FFF770FF0B4B1800FFF76CFFC9
:10148000C046BD4680BDC04660820008708200082C
:10149000808200088C82000898820008A4820008DC
:1014A000B0820008BC820008C882000880B500AF86
:1014B0000A4B0B4A5A60094B00229A60074B0522DF
:1014C0001A60C046054B1A6880235B021340F9D0AE
:1014D000024B00221A60C046BD4680BD10E000E00D
:1014E000FF7C000080B584B000AF78600023FB6013
:1014F00004E0FFF7DBFFFB680133FB60FA687B6801
:101500009A42F6D3C046C046BD4604B080BD80B501
:1015100082B000AF0200FB1D1A70FB1D1B78190082
:101520000F4800F0CDFC030019000E4800F0C8FC85
:1015300003005A1E0C4B5A600B4B00229A600A4B58
:1015400005221A60C046084B1A6880235B021340CC
:10155000F9D0054B00221A60C046BD4602B080BDDE
:1015600040420F000048E80110E000E080B500AF05
:10157000A023DB055A69A023DB0502210A435A6137
:101580002820FFF7C4FFA023DB055A69A023DB0551
:1015900002218A435A61C046BD4680BD80B582B0F3
:1015A00000AF0200FB1D1A70FB1D1B785BB2002B05
:1015B00008DAA023DB055A69A023DB0520210A43B2
:1015C0005A6107E0A023DB055A69A023DB0520212F
:1015D0008A435A61FB1D1B784022134008D0A02388
:1015E000DB055A69A023DB0510210A435A6107E095
:1015F000A023DB055A69A023DB0510218A435A6129
:10160000FB1D1B782022134008D0A023DB055A695C
:10161000A023DB0508210A435A6107E0A023DB056C
:101620005A69A023DB0508218A435A61FB1D1B78F8
:101630001022134008D0A023DB055A69A023DB0544
:1016400004210A435A6107E0A023DB055A69A0235D
:10165000DB0504218A435A61FFF788FF2820FFF742
:1016600056FFFB1D1B780822134008D0A023DB0582
:101670005A69A023DB0520210A435A6107E0A02311
:10168000DB055A69A023DB0520218A435A61FB1D33
:101690001B780422134008D0A023DB055A69A0233D
:1016A000DB0510210A435A6107E0A023DB055A69D4
:1016B000A023DB0510218A435A61FB1D1B780222FF
:1016C000134008D0A023DB055A69A023DB050821BD
:1016D0000A435A6107E0A023DB055A69A023DB0512
:1016E00008218A435A61FB1D1B780122134008D050
:1016F000A023DB055A69A023DB0504210A435A61B4
:1017000007E0A023DB055A69A023DB0504218A43F7
:101710005A61FFF72BFFC046BD4602B080BD80B5C1
:1017200082B000AF0200FB1D1A70A023DB055A69CE
:10173000A023DB0501210A435A61FB1D1B78180019
:10174000FFF72CFF0220FFF7CDFEC046BD4602B0DA
:1017500080BD80B582B000AF0200FB1D1A70A023CF
:10176000DB055A69A023DB0501218A435A61FB1D71
:101770001B781800FFF712FF0520FFF7B3FEC046E5
:10178000BD4602B080BD80B500AFA023DB055A691D
:10179000A023DB0502218A435A611420FFF7A2FE31
:1017A0003320FFF7D6FF3320FFF7D3FF3220FFF7B8
:1017B000D0FF2820FFF7CDFF0C20FFF7CAFF012044
:1017C000FFF7C7FF1420FFF78DFEC046BD4680BD62
:1017D00080B584B000AF786008001100FB1C021CCB
:1017E0001A70BB1C0A1C1A70FB1C1B78022B01D13F
:1017F000C02300E080231800FFF7ABFF0520FFF7B0
:1018000071FE0023FB6009E0FB687A68D3181B783F
:101810001800FFF784FFFB680133FB60FB687A6800
:10182000D3181B78002BEFD1BB1C1B78002B09D0E1
:1018300005E02020FFF773FFFB680133FB60FB68C6
:101840000F2BF6DDC046BD4604B080BD80B500AFAD
:10185000244B5A6B234B802189000A435A63224B45
:101860001A69214BC02109060A431A611E4B1A68E6
:101870001D4B01210A431A601B4B9A681A4B012128
:101880000A439A60184BDA6880231B02134005D183
:10189000C046154B1B6801221340FAD0124B9B68BF
:1018A0000122134005D0104B9A680F4B02210A43C6
:1018B0009A600D4B9A680C4B802109060A439A6086
:1018C000C046094B1A6880231B011340F9D0064B10
:1018D0001A68054B802109010A431A60C046BD46BB
:1018E00080BDC046001002400024014080B582B097
:1018F00000AF7860164BDA68154B802109020A4365
:10190000DA60134B7A689A62114B5A69104B0721BF
:101910000A435A617A6880239B029A4206D10D4B92
:101920001A680C4B8021C9030A431A60084B9A6855
:10193000074B04210A439A60C046054B1B680422EA
:101940001340FAD0024B1B6C1800BD4602B080BD9C
:10195000002401400827014080B500AFA023DB052B
:101960005A69A023DB05802149004A405A61C046DC
:10197000BD4680BD80B582B000AF7860034B7A6809
:101980001A60C046BD4602B080BDC04600000020BF
:1019900080B500AF8023DB051A688023DB050121B9
:1019A0004A401A60C046BD4680BD80B500AF802366
:1019B000DB051A698023DB0501218A431A61134B79
:1019C0001B685A1C114B1A60104B1B68180000F062
:1019D00071FF021C0E4B1B68191C101C00F0CAFB87
:1019E000031E00D10EE08023DB055B6B10331A0071
:1019F0008023DB05FF210A405A63044B00221A6052
:101A0000FFF7AAFFC046BD4680BDC0465803002070
:101A10000000002080B500AFA023DB059A68A0235A
:101A2000DB058021C9050A439A60A023DB055A68BB
:101A3000A023DB0538490A405A60A023DB051B6858
:101A40009B009A08A023DB05802109060A431A603F
:101A5000A023DB055A6AA023DB05A021C9050A43A0
:101A60005A622E4B9A6B2D4B01210A439A638023B5
:101A7000DB052B4ADA622B4B1A682A4B80210902BC
:101A80000A431A608023DB051A688023DB051021D6
:101A90000A431A608023DB051A688023DB05802156
:101AA0000A431A608023DB05DA688023DB05012105
:101AB0000A43DA608023DB051A688023DB050121F5
:101AC0000A431A608023DB059A698023DB056021C5
:101AD0000A439A618023DB059A698023DB0508218C
:101AE0000A439A618023DB051A6A8023DB05012102
:101AF0000A431A628023DB050B4A5A638023DB0505
:101B00005A698023DB0501210A435A6162B6C04647
:101B1000C046BD4680BDC046FF7FFFFF00100240AB
:101B2000841E000000E100E0420F000080B582B09A
:101B300000AF786039607B681B680E49181C00F0A4
:101B4000EBFC031C1A1C80231B065A407B681A609E
:101B50003B681B680849181C00F0DEFC031C1A1CBB
:101B600080231B065A403B681A60C046BD4602B03F
:101B700080BDC046008005450080FF4480B582B02E
:101B800000AF7860786800F0EFFF164A164B00F05F
:101B9000ADFA031E08D1786800F0E6FF134A144B33
:101BA00000F090FA031E17D01249786800F0D8FAB6
:101BB000031E05D01049786800F0E6FA031C0CE01B
:101BC0000C49786800F0B8FA031E05D00949786816
:101BD00000F0DAFA031C00E00023181CBD4602B036
:101BE00080BDC046CDCCCCCCCC90A14066666666AC
:101BF00066BE9C400080FF440030004580B582B046
:101C000000AF7860786800F035FE0200044B1100E8
:101C10001800FFF7DDFBC046BD4602B080BDC046E0
:101C2000D482000880B582B000AF7860FEE780B54E
:101C300082B000AF786001235B421800BD4602B05D
:101C400080BD80B584B000AFF860B9607A60044BA5
:101C50000C221A6001235B421800BD4604B080BD0F
:101C60006403002080B500AF034B0B221A600123F0
:101C70005B421800BD4680BD6403002080B582B081
:101C800000AF786039603B68802292015A6000237F
:101C90001800BD4602B080BD80B500AF012318001A
:101CA000BD4680BD80B582B000AF78603960044B1E
:101CB00016221A6001235B421800BD4602B080BDA7
:101CC0006403002080B582B000AF78603960044BB7
:101CD0001F221A6001235B421800BD4602B080BD7E
:101CE0006403002080B584B000AFF860B9607A600A
:101CF00000231800BD4604B080BD80B582B000AF9F
:101D0000786039603B68802292015A600023180095
:101D1000BD4602B080BD80B582B000AF78600123BF
:101D20005B421800BD4602B080BD80B582B000AFF6
:101D30007860044B02221A6001235B421800BD4602
:101D400002B080BD6403002080B582B000AF78602F
:101D5000044B0A221A6001235B421800BD4602B000
:101D600080BDC0466403002080B582B000AF7860BB
:101D70007B68022B01D8012303E0044B09221A607F
:101D800000231800BD4602B080BDC0466403002099
:101D900080B586B000AF7860124B7B61124B3B611F
:101DA000124B1B68002B02D1104B7A691A600F4B43
:101DB0001B68FB600D4B1A687B68D3183A699A421E
:101DC00005D20B4B0C221A6001235B4206E0074B45
:101DD0001A687B68D218054B1A60FB681800BD466C
:101DE00006B080BD800300200010002060030020AA
:101DF0006403002080B588B000AFF860B9607A60F5
:101E00000023BB61FB68002B22D10023FB611AE099
:101E1000FEF7B5FE03001A0017217B181A70BB6885
:101E20005A1CBA607A181278D2B21A70BB690133A0
:101E3000BB617B181B78DBB20A2B01D1BB690EE0BA
:101E4000FB690133FB61FA697B689A42E0DB05E0DC
:101E5000054B09221A6001235B4200E0BB691800B0
:101E6000BD4608B080BDC0466403002080B586B082
:101E700000AFF860B9607A60FB68013B012B11D8B4
:101E800000237B6109E0BB685A1CBA601B7818000C
:101E9000FEF766FE7B6901337B617A697B689A4253
:101EA000F1DB05E0054B09221A6001235B4200E0EB
:101EB0007B681800BD4606B080BDC04664030020A4
:101EC00003460B437FD4002243088B4274D303099B
:101ED0008B425FD3030A8B4244D3030B8B4228D33C
:101EE000030C8B420DD3FF22090212BA030C8B4262
:101EF00002D31212090265D0030B8B4219D300E002
:101F0000090AC30B8B4201D3CB03C01A5241830B86
:101F10008B4201D38B03C01A5241430B8B4201D336
:101F20004B03C01A5241030B8B4201D30B03C01A5F
:101F30005241C30A8B4201D3CB02C01A5241830AD9
:101F40008B4201D38B02C01A5241430A8B4201D308
:101F50004B02C01A5241030A8B4201D30B02C01A32
:101F60005241CDD2C3098B4201D3CB01C01A524199
:101F700083098B4201D38B01C01A524143098B4222
:101F800001D34B01C01A524103098B4201D30B010B
:101F9000C01A5241C3088B4201D3CB00C01A524130
:101FA00083088B4201D38B00C01A524143088B42F5
:101FB00001D34B00C01A5241411A00D2014652418E
:101FC000104670475DE0CA0F00D04942031000D3AD
:101FD0004042534000229C4603098B422DD3030A02
:101FE0008B4212D3FC22890112BA030A8B420CD312
:101FF000890192118B4208D3890192118B4204D33B
:1020000089013AD0921100E08909C3098B4201D3BA
:10201000CB01C01A524183098B4201D38B01C01AF4
:10202000524143098B4201D34B01C01A524103096B
:102030008B4201D30B01C01A5241C3088B4201D31A
:10204000CB00C01A524183088B4201D38B00C01AC7
:102050005241D9D243088B4201D34B00C01A52419E
:10206000411A00D20146634652415B10104601D32B
:102070004042002B00D54942704763465B1000D3B5
:10208000404201B5002000F005F802BD0029F8D05B
:1020900016E770477047C0468446100062468C467B
:1020A0001900634600E0C0461FB500F0F9FC0028A7
:1020B00001D40021C8421FBD10B500F049FC4042C8
:1020C000013010BD10B500F0EBFC002801DB002052
:1020D00010BD012010BDC04610B500F0E1FC002885
:1020E00001DD002010BD012010BDC04610B500F07C
:1020F00071FC002801DC002010BD012010BDC0468D
:1021000010B500F067FC002801DA002010BD0120A6
:1021100010BDC046844608006146FFE71FB500F0C9
:10212000B7F9002801D40021C8421FBD10B500F046
:1021300043F94042013010BD10B500F0A9F9002864
:1021400001DB002010BD012010BDC04610B500F01D
:102150009FF9002801DD002010BD012010BDC04600
:1021600010B500F04FF9002801DC002010BD01205F
:1021700010BDC04610B500F045F9002801DA002076
:1021800010BD012010BDC046F0B54F464646D646AC
:102190004502C0B547000C1C6D0A3F0EC60F002F4C
:1021A00000D170E0FF2F00D175E0EB008025ED0439
:1021B0001D43002399469A467F3F6002430A984692
:1021C00063001B0EE40F002B4ED0FF2B46D042467F
:1021D000D0008022D2040243904600227F3B31008F
:1021E000FF1A4B466140C9B213430F2B00D9B5E02B
:1021F0006E489B00C3589F460023984626004546DC
:1022000092465346022B00D189E0032B00D19EE079
:10221000012B18D03B007F33002B69DD6A0704D007
:102220000F222A40042A00D004352A0103D5604B2E
:102230001D403B008033FE2B00DD70E0AD016D0AD8
:10224000D8B202E00E0000200025C0052843F607A2
:102250003043E0BCBA46B146A846F0BD4346002B29
:102260003FD10222FF3F03E04346002B2DD1012244
:1022700031004B466140C9B213430F2B34D84D484F
:102280009B00C3589F46002D13D104239946033B5E
:1022900000279A4691E7002D05D108239946063B71
:1022A000FF279A4689E70C239946093BFF279A4660
:1022B00083E7280000F0A0FC7627431F9D40002301
:1022C0007F4299469A463F1A77E7404600F094FCD1
:1022D0004246431F9A4076235B4290461B1A0022D7
:1022E0007DE7FF2303227AE70E00FF200025ACE7FD
:1022F0000120C01A1B28A6DC9E372A00BD40C24020
:102300006B1E9D4115436B0704D00F232B40042BFC
:1023100000D004356B0144D50120002595E7FF204E
:10232000002592E780250026FF20ED038DE700239E
:1023300098468020C003054209D04346034206D197
:10234000454605436D022600FF206D0A7DE780208B
:10235000C00305436D02FF206D0A76E742466B011C
:102360005001834219D21B220025013F01261C0087
:102370006D005B00002C01DB984201D81B1A35432D
:10238000013A002AF3D15A1E93411D433B007F338B
:102390000E00002B00DD41E7AAE71A2201251B1AD7
:1023A000E4E7AD0100206D0A4FE7C046E482000873
:1023B000FFFFFFF72483000870B5420045024E027C
:1023C0004C00C30F6D0A0120120E760A240EC90FAD
:1023D000FF2A06D0FF2C03D0A24201D1B54206D07D
:1023E00070BD002DFCD1FF2CFAD1002EF8D18B420C
:1023F00006D00120002AF3D12800431E9841EFE7C0
:102400000020EDE770B5420045024E024C00C30FBC
:102410006D0A120E760A240EC80FFF2A1BD0FF2C5D
:102420000ED0002A1BD1002C01D1002E1CD0002D73
:102430000CD083421CD00221581E0840013870BDC8
:10244000002E22D1002AF4D1002DF2D10028F6D19D
:1024500001204042F3E7002D17D1FF2CF0D0002CD3
:10246000E7D1002EE5D1E6E70020002DE7D0E2E736
:10247000A24205DCEADBB54202D8E7D30020DEE762
:102480004342584140000138D9E702204042D6E794
:1024900070B5420045024E024C00C30F6D0A120E89
:1024A000760A240EC80FFF2A0BD0FF2C0DD0002A6D
:1024B0001FD1002C16D1002E14D10020002D10D0D9
:1024C00009E0002D0CD1FF2C13D1002E08D1002AD9
:1024D00008D0834212D00221581E0840013800E083
:1024E000022070BD002DF4D10028FAD10120404215
:1024F000F7E7002CEDD1002EEBD1ECE7A24205DC92
:10250000F2DBB54202D8EFD30020EAE7434258415C
:1025100040000138E5E7C046F8B5CE4647464302DD
:102520005B0A4E02DA009446720A914645004A0060
:1025300080B52D0E1F00C40F120EC90FB609FF2A59
:102540005BD0012041408C4239D0A81A00285ADDC6
:10255000002A6AD0FF2D00D1D9E08022D204164390
:102560001B2800DCE9E001206346181A430100D46F
:10257000B4E080018709380000F03EFB0538874051
:10258000854200DCCCE02D1AB5483840430704D022
:102590000F230340042B00D00430430100D4A0E0FB
:1025A0006A1CFE2D00D18DE08001470AD2B2D00511
:1025B0003843E4072043C0BCB946B046F8BDA81A6A
:1025C0008046002845DD002A70D0FF2D00D19EE016
:1025D0008023DB041E4343461B2B00DCD2E001209A
:1025E000604443017AD50135FF2D6BD001239D4A0C
:1025F0000340400810401843C8E7002E20D08C420A
:1026000023D02800FF38002839D0571B002D00D0D8
:102610009DE06346002B00D1DBE07B1E012F00D143
:102620000DE1FF2F71D01F0098E0002E00D1A7E030
:10263000421E012800D1E6E0FF2868D010008FE795
:1026400001204140A14200D07FE7FF204042804668
:10265000A8444046002838D0511B002D00D1AEE0E0
:10266000FF2A00D1DFE080236046DB041843844664
:102670001B2900DCD9E0012015008019B1E7FE20FC
:102680006A1C104271D1002D00D0A6E06346002BD9
:1026900000D1D9E00022002E00D188E7981B430129
:1026A00000D4E1E063460C00F01A6FE7002E00D181
:1026B000B7E00200013A012800D19CE0FF2826D0B3
:1026C000904688E7FF22002771E7FE206A1C10422F
:1026D00064D0FF2AF6D0150066447008430700D086
:1026E00056E7C308FF2D12D05B025F0AEAB25EE72D
:1026F0006246002A00D196E0002E08D08022D20344
:10270000134204D04846104201D10C004B46002B26
:10271000D8D08027FF031F437F02FF227F0A46E7AE
:1027200020233A00451B38000135EA405D1BA840D4
:10273000431E98410025104328E720231B1A32002E
:102740009E40C2403000431E984110430CE7FF2AD0
:10275000DBD080236046DB04184384461B2F56DD04
:1027600001200C001500301A00E763469F1B7B0117
:102770003DD4002F00D0FEE600240022002716E7FB
:102780000500AFE7320043464146DA4020235B1A9A
:102790009E403000431E9841104321E7002DA7D1F1
:1027A0006346002B59D00022002E00D1FFE63000F6
:1027B0006044430192D52A4B013518408EE76346A9
:1027C000002B47D04B1E012915D0FF292BD0190013
:1027D0004EE70C004B463D0084E76246002A8BD151
:1027E000002E92D180270024FF22FF03DFE66346FC
:1027F0000C00F71ABFE6300060440125430100D405
:102800006CE70225F2E663460125981BAEE620231D
:1028100064466046FC40DF1BB840431E984120439D
:102820009FE705005EE74B4671E72023654660465B
:10283000CD40591A8840431E984128431CE76346FF
:102840000C000125F01A91E6002E95D00C004F46A1
:102850000022ACE64B460D0044E74F460022A6E6B8
:10286000FFFFFFFBFFFFFF7D002800D036E70024BD
:1028700000279CE641024200C30F490A0020120EC5
:102880007E2A03DD9D2A02DD094A981870478020C0
:1028900000040143952A07DC9620821AD140484261
:1028A000002BF3D10800F1E7963A9140F7E7C046D4
:1028B000FFFFFF7FF8B5002813D0C317C6185E408E
:1028C000C40F300000F098F99E2305001B1A962BC8
:1028D0000FDC082801DD083DAE407602760AD8B24A
:1028E00002E0002400200026C0053043E407204316
:1028F000F8BD992B0CDD05223100121AD1400A00D7
:10290000010030001B318840411E884102431600FF
:10291000052D12DC31000D4F3940720709D00F2010
:102920003040042805D004314A0102D59F233940A4
:102930005B1B89014E0AD8B2D6E76A1F9640310068
:10294000024F39407207F4D0E9E7C046FFFFFFFBB2
:10295000F0B54E464546DE4657469046E0B5170070
:102960001A03120B0500844619480E034C009146C9
:102970005A00DB0F9B46360B640DC90F520D844283
:1029800019D0824210D0012094420ED14E450CD174
:102990000120C44509D1594517D0002C05D130007C
:1029A0002843431E984100E00120F0BCBB46B246DC
:1029B000A946A046F0BD330001202B43F5D1A24229
:1029C000F3D14B463B43F0D1E2E70020EDE7C046B0
:1029D000FF070000F0B54746CE4604001800160079
:1029E0001B031B0B2D4D4A00994680B543000F0376
:1029F000A446B0463F0B520DC90F5B0DC00FAA4253
:102A000021D0AB4213D0002A22D13C43002B02D16B
:102A10004D462E4322D0002C10D0814222D00220DD
:102A2000013908400138C0BCB946B046F0BD4D463A
:102A30002E4329D1002AF0D13C43EED10028F2D117
:102A400001204042EFE73D0025431DD19342EED0E7
:102A5000002BE2D14C462643DFD1E0E70020002CDA
:102A6000E1D0DCE79A420ADCE8DB4F45D7D80ED04C
:102A700000204F45D7D20029E2D00800D3E74342D7
:102A8000584140000138CEE702204042CBE7C44520
:102A9000C5D80020C445C6D2EDE7C046FF070000F8
:102AA000F0B54746CE460400180016001B031B0B6A
:102AB0002C4D4A00994680B543000F03A446B0460A
:102AC0003F0B520DC90F5B0DC00FAA420DD0AB4298
:102AD00010D0002A27D13C43002B11D14D462E4364
:102AE0000ED10020002C15D00EE03D00254310D162
:102AF000934218D14D462E430BD1002A02D13C43BC
:102B0000002C0BD0814214D002200139084001383A
:102B100000E00220C0BCB946B046F0BD0028F9D1A3
:102B200001204042F6E7002BECD14C462643E9D188
:102B3000EAE79A4204DD4342584140000138E9E7A0
:102B40009A42EBDB4F45DFD806D000204F45E1D25B
:102B50000029E5D00800DDE7C445D5D80020C445EC
:102B6000D8D2F5E7FF07000070B543004602C40F56
:102B7000FE201B0E591C750A08420CD0E022920060
:102B800094466D07360B63441B053343E407234328
:102B90002800190070BD002B14D1002D1BD0280077
:102BA00000F02AF80A281CDC0B232E001B1ADE403A
:102BB000030015339D400E4A3603121A5205360B98
:102BC000530DE1E7002D09D08022360B1203094B8B
:102BD0006D071643D8E700230026D5E70026054BEE
:102BE000D2E703000B3B9D402E000025E3E7C046E3
:102BF00089030000FF0700001C2101231B049842E9
:102C000001D3000C10391B0A984201D3000A08397D
:102C10001B09984201D30009043902A2105C401834
:102C20007047C046040302020101010100000000D8
:102C300000000000F7B58B8905000C001A075FD46F
:102C40004A68002A04DC0A6C002A01DC0020FEBD70
:102C5000E76A002FFAD0002280212E682A601A002D
:102C600049010A400B4234D0606DA3895B0706D549
:102C70006368C01A636B002B01D0236CC01A02007A
:102C8000216A00232800E76AB847A189431C06D1BE
:102C90002B681D2B31D82C4ADA40D3072DD50023C1
:102CA000636023692360CB0405D5431C02D12B68E4
:102CB000002B00D16065616B2E600029C6D0230017
:102CC0004433994202D0280000F004FA00206063E7
:102CD000BDE701232800216AB847431CC5D12B68F2
:102CE000002BC2D01D2B01D0162B01D12E60ADE7D9
:102CF0004023A2891343A381A9E740230B43FAE7AA
:102D00000F69002FA2D00A680F60D21B0192002227
:102D10009B0700D14A69A260019B002B00DC95E76C
:102D20003A002800019B216AA66AB047002806DC09
:102D300040230120A28940421343A38187E7019BDE
:102D40003F181B1A0193E7E7010040200B6970B59B
:102D500005000C00002B02D10025280070BD0028C2
:102D600004D08369002B01D100F0C8F8144B9C42B9
:102D70001BD16C680C22A35E002BEDD0626ED207D3
:102D800004D49B0502D4A06D00F094F92800210022
:102D9000FFF750FF636E0500DB07DED4A3899B05B8
:102DA000DBD4A06D00F08CF9D7E7064B9C4201D133
:102DB000AC68DFE7044B9C42DCD1EC68DAE7C04644
:102DC00084830008A483000864830008010010B510
:102DD000002805D1054B0649186800F046F910BDDA
:102DE000044B1868FFF7B2FFF9E7C046C483000838
:102DF0004D2D000808000020002310B504000360DA
:102E000043608360818143661900C281036143612D
:102E1000836108225C3000F054F9054B2462636240
:102E2000044BA362044BE362044B236310BDC04612
:102E3000653D0008913D0008C93D0008F53D0008CA
:102E400010B5024900F011F910BDC0464D2D000823
:102E5000436E10B5DB0705D483899B0502D4806DD2
:102E600000F028F9002010BD436E10B5DB0705D433
:102E700083899B0502D4806D00F022F9002010BDEB
:102E800070B568254A1E55430E002900743100F0C4
:102E90008DF9041E08D000212A00016046600C3024
:102EA000A060683200F00DF9200070BD10B5024B33
:102EB0001868FFF7C5FF10BDC483000810B50248AD
:102EC00000F0F8F810BDC0466E03002010B50248AF
:102ED00000F0F6F810BDC0466E03002010B50248A1
:102EE00000F0E8F810BDC0466F03002010B502489E
:102EF00000F0E6F810BDC0466F03002013B50400D3
:102F0000FFF7ECFFA369002B02D0FFF7EFFF13BD23
:102F1000A364E3642365134B134A1B68A262019305
:102F2000A34201D10123A361200000F01FF86060DB
:102F3000200000F01BF8A060200000F017F800222D
:102F40000421E0606068FFF757FF01220921A068B3
:102F5000FFF752FF02221221E068FFF74DFF012325
:102F6000A361D2E7C4830008412E0008F8B507002A
:102F7000FFF7A4FF1F4B1E68B369002B02D130007E
:102F8000FFF7BCFF4836B4687368013B04D533686B
:102F9000002B22D03668F6E70C22A55E002D1AD150
:102FA0002000154B5830E360656600F07FF8FFF7AE
:102FB0008DFF2000082229002560A560656025613D
:102FC0006561A5615C3000F07CF86563A563A5646C
:102FD000E5642000F8BD6834D7E704213800FFF726
:102FE0004FFF041E3060D5D1FFF770FF0C233B600C
:102FF000EFE7C046C48300080100FFFF10B5FFF7EC
:103000005DFF034B0349186800F014F810BDC0467B
:1030100008000020512E000810B5044B0449186820
:1030200000F008F8FFF752FF10BDC046080000206E
:10303000692E0008F7B54830040000260191A56804
:103040006768013F04D52468002CF8D13000FEBD2C
:10305000AB89012B07D90E22AB5E013303D02800C8
:10306000019B984706436835EBE7F7B50400060077
:103070000027019148346368A5680093009B013BD9
:10308000009304D52468002CF5D13800FEBDAB892F
:10309000012B08D90E22AB5E013304D02900300089
:1030A000019B984707436835E8E7704770477047CA
:1030B0007047704770470120704701207047704784
:1030C000704703008218934200D170471970013392
:1030D000F9E7000070B50500002910D00C1F236827
:1030E000002B00DAE418280001F0E8FE1D4A1368FE
:1030F000002B05D163601460280001F0E7FE70BD6D
:10310000A34208D9216860188342F3D118685B682C
:1031100041182160EEE71A005B68002B01D0A34242
:10312000F9D911685018A0420BD12068091850181D
:1031300011608342E0D118685B68411811605360E8
:10314000DAE7A04202D90C232B60D5E7216860188A
:10315000834203D118685B68411821606360546042
:10316000CAE7C0467403002070B50F4E0D003168E9
:103170000400002902D100F0A7FD306029002000E2
:1031800000F0A2FD431C0AD00323C51C9D43A842A6
:1031900007D0291A200000F097FD431C01D101251A
:1031A0006D42280070BDC04678030020F7B50322A9
:1031B000CB1C9343083306001F000C2B32D20C2784
:1031C000B94231D8300001F079FE324D2B681C0035
:1031D000002C2ED139003000FFF7C6FF0400431C3D
:1031E0001ED12C682500002D4AD123682900E31840
:1031F0003000019300F068FD019B834243D12368B6
:103200000337FF1A03239F4308370C2F00D20C27E4
:1032100039003000FFF7A8FF431C34D02368DF19C2
:10322000276013E0002BCBDA0C2300253360280045
:10323000FEBD2268D11B20D40B2917D9E2192760C3
:10324000A34211D12A6063681160536030002500E9
:1032500001F03CFE07220B35231D9543EA1A9D42DF
:10326000E5D05B1BA350E2E75A60ECE76268A3423B
:1032700001D12A60EAE75A60E8E723006468A7E71B
:103280002C006D68AFE70C233000336001F01EFEA8
:10329000CDE7C04674030020F0B51E0000231400E3
:1032A0008BB09E4204DA8021090673181E002D237C
:1032B000129A149F1370202303229F43462F07D096
:1032C0003B00453B59424B411099013ACB181093B2
:1032D00009AB049308AB0393139B00920293109BDA
:1032E00022000193330000F01DFF0500472F02D19B
:1032F000119BDB0728D5109BEB180793462F14D1A1
:103300002B78302B0CD10022002320003100FEF757
:10331000D3FE002804D10123109A9B1A139A13603C
:10332000139B079A1B68D3180793002200232000E1
:103330003100FEF7C1FE002801D0079B099330221F
:10334000099B07998B4206D32800099B159A5B1BA2
:1033500013600BB0F0BD591C09911A70F0E7F0B57D
:10336000831C87B0039305000C002B2302700029F7
:1033700001DA4C4202336B70092C31DD0A2704ABB1
:10338000DE1D200039000196FEF780FE013E30313F
:103390002000317039000294FEF792FD029B040078
:1033A000632BEEDC019B30349A1E130003991470DA
:1033B00004A8073098420ED804AB073300209A4285
:1033C00004D804AB0930C018019BC01A039B18181D
:1033D000401B07B0F0BD1878013308700131E7E7F2
:1033E0003023E418AB70281DEC70F1E7F0B595B010
:1033F0000C0009921E001A9D070001F0AFFC036843
:1034000018000C9300F0FCFC00231293237E07228B
:103410000A9323680E900D930D992B68C90547D523
:103420009B1893431A0008322A601A685B68A264EA
:10343000E3640122A36CE56C0B936B005B080F93B4
:103440000B98A74B0F99524204F0D8FD002831D1B8
:103450000122A34B0B980F995242FEF73DFE002824
:1034600028D10022002329000B98FEF72BFE00280C
:1034700003D023002D2243331A700A9B994D472B0A
:1034800000D9994D03230D9A236101339A430023F8
:1034900022600B93099B21003800009613AA00F0CC
:1034A000E7F9431C00D0A2E00120404215B0F0BD76
:1034B0000733B6E70B9A2B001000290004F09EFD9D
:1034C00000280BD0002D03DA23002D2243331A707D
:1034D0000A9B864D472BD5D9854DD3E720220A99E3
:1034E000636891430F915A1C49D10733636080236D
:1034F0000D9ADB0013430022069212AA05920A9A43
:1035000008A9049211AA03922322236001936368FD
:1035100052180292009338002B000B9AFFF7BCFE62
:103520000F9B05001199472B08D1CB1C02DB636868
:10353000994248DD0A9B023BDBB20A930A9B652B4A
:1035400024D820001A00013950301191FFF707FFED
:10355000129A0B9013182361012A02DC2268D20709
:1035600001D501332361232308AA9B181B78002B64
:1035700000D18FE723002D2243331A708AE70F9A78
:10358000472AB4D1002BB2D10133AFE70A9B662B97
:103590001BD1636800290DDD2161002B02D1226857
:1035A000D20702D5013359182161119BA36500236D
:1035B0000B93D8E7002B03D101222168114200D0E0
:1035C0009A1C2261F1E767230A93119B129A934296
:1035D00006DB22682361D207E7D501332361E4E7E4
:1035E0000121002B01DC4918C91A5218E9E72268A9
:1035F000530507D423692A0038000999B047431CB2
:1036000028D151E70A9B652B00D8E1E0A06CE16C62
:1036100000220023FEF750FD002831D0012338009E
:10362000344A0999B047431C00D13DE7119B129AD7
:10363000934202DB2368DB070CD538000E9B0C9A03
:103640000999B0470025431C00D12DE7129B013B8F
:10365000AB420ADC23689B0700D506E1139BE068B8
:10366000984200DB22E7180020E7220001233800FF
:1036700009991A32B047431C00D115E70135E5E737
:10368000119B002B38DC012338001A4A0999B047F6
:10369000431C00D108E7119B129A134302D12368FF
:1036A000DB07D7D50E9B38000C9A0999B047431C0D
:1036B00000D1F9E600230A93119B0A9A5B429342D8
:1036C00001DC129B97E722000123380009991A3286
:1036D000B047431C00D1E7E60A9B0133EBE7C04645
:1036E000FFFFEF7FC8830008CC830008D083000869
:1036F000D4830008D8830008129AA36D0A929A42D4
:1037000000DD0A930A9B002B3CDC00230D930A9BEF
:10371000DB43DB170F93A36D0F9A0B930A9B1340A8
:103720000B9AD31A0D9A934234DC119B129A93424E
:103730003DDB2368DB073AD4129A0B9B1199D31A0D
:10374000521A0A929A4200DD0A930A9B002B36DC39
:103750000A9B0025DB43DB170B93119A129B0B99F5
:103760009B1A0A9A0A409B1AAB4200DC72E72200BD
:103770000123380009991A32B047431C00D193E65F
:103780000135EAE70A9B2A0038000999B047431C33
:10379000BBD189E622000123380009991A32B047CB
:1037A000431C00D180E60D9B01330D93B3E70E9BC4
:1037B00038000C9A0999B047431CBDD174E60B9BA5
:1037C0003800EA1809990A9BB047431CC0D16BE640
:1037D000129B012B02DC01231A4234D001232A0060
:1037E00038000999B047431C00D15DE60E9B3800B4
:1037F0000C9A0999B047431C00D155E6A06CE16CC6
:1038000000220023FEF758FC00281AD1129B6A1CE4
:10381000013B38000999B047431C0ED144E6220011
:103820000123380009991A32B047431C00D13BE606
:103830000135129B013BAB42F1DC22000B9B503265
:10384000DAE60025F5E72A00E3E722000123380045
:1038500009991932B047431C00D125E60135E368C8
:10386000139A9B1AAB42F0DCF8E60025F7E7C04656
:10387000F7B5150001938A680B690C00009093421C
:1038800000DA130022002B6043321278002A01D0A4
:1038900001332B6023689B0602D52B6802332B6013
:1038A0002268062317001F401A4227D02300433303
:1038B0001B785A1E93412268920630D42200019947
:1038C0000098089E4332B047431C25D00623206849
:1038D0002A68E16800250340042B03D18D1AEB43CD
:1038E000DB171D40A3682269934201DD9B1AED1886
:1038F0000027BD4220D1002010E00137E3682A688C
:103900009B1ABB42D2DD2200012301990098089E38
:103910001932B047431CF0D101204042FEBD302097
:10392000E1184331087021005A1C45310978A2186A
:10393000433202331170C1E722000123019900983C
:10394000089E1A32B047431CE6D00137D1E7000089
:10395000F0B58BB006920A004332079305900492AB
:103960000A7E0C00109B782A07D8622A09D8002A00
:1039700000D1C1E0582A00D18CE0260042363270D6
:1039800022E0100063381528F7D802F073FE160005
:103990001F00F6FFF6FFF6FFF6FF1F00F6FFF6FF2B
:1039A000F6FFF6FFA80036009A00F6FFF6FFB90012
:1039B000F6FF3600F6FFF6FF9E0026001A68423634
:1039C000111D1960136833700123A7E00868196896
:1039D0000A1D05060BD50D681A60002D03DA2D238C
:1039E000049A6D421370614B0A2703931BE00D6824
:1039F0001A604106F1D52DB2EFE70D681968081D70
:103A000018602E0601D50D6803E06D06FBD50D6824
:103A1000ADB2564B082703936F2A00D0023723001C
:103A2000002243331A706368A360002B03DB042277
:103A3000216891432160002D02D1049E002B0CD0FF
:103A4000049E2800390002F0A5FE039B013E5B5C4A
:103A500033702B0005009F42F3D9082F09D123684A
:103A6000DB0706D563682269934202DC3023013EFE
:103A70003370049B9B1B2361079B210000930598D7
:103A8000069B09AAFFF7F4FE431C4CD101204042DB
:103A90000BB0F0BD45310A70344A03921A682168B0
:103AA00020CA1A60080616D5CB0702D52023194371
:103AB00021601027002DB2D1202322689A43226072
:103AC000ADE7202209680A432260220078214532AE
:103AD0001170274AE1E74806E6D5ADB2E4E71A6877
:103AE0000D68101D4969186013682E0601D519600C
:103AF00002E06D06FBD519800023049E2361BBE71D
:103B00001A68111D1960166800213000626801F002
:103B1000C1F9002801D0801B606063682361002325
:103B2000049A1370A8E72369320006990598079D47
:103B3000A847431CAAD023689B0715D4099BE068BB
:103B40009842A5DA1800A3E72200012306990598F8
:103B5000079E1932B047431C98D00135E368099A93
:103B60009B1AAB42F0DCE9E70025F7E7DA830008AF
:103B7000EB8300080EB417B5041E04D08369002B34
:103B800001D1FFF7BBF906AB2000059AA1680193AC
:103B900002F0CCF81EBC08BC03B018470FB40B4BA6
:103BA00013B51C68002C05D0A369002B02D120009E
:103BB000FFF7A4F905AB2000049AA168019302F075
:103BC000B5F816BC08BC04B01847C0460800002071
:103BD00070B505000E00002804D08369002B01D1C8
:103BE000FFF78CF9AB69AC68002B02D12800FFF716
:103BF00085F92D4B9C4222D16C68636EDB0705D49E
:103C0000A3899B0502D4A06DFFF754FAA3891B0773
:103C100002D52369002B29D12100280000F06CF97E
:103C2000002823D001256D42636EDB0705D4A389EC
:103C30009B0502D4A06DFFF743FA280070BD1B4B13
:103C40009C4201D1AC68D8E7194B9C42D5D1EC68B5
:103C5000D3E70136A360002B04DAA2699A4216DC8E
:103C60000A2914D023685A1C22601970A36831787D
:103C7000013B0029EDD1A360002B0FDA28002200C0
:103C80000A3100F0C5F80A25431CCDD1CAE722004D
:103C9000280000F0BDF8431CE8D1C3E70A252368DB
:103CA0005A1C22601D70BFE784830008A4830008AB
:103CB0006483000810B5034B01001868FFF788FF04
:103CC00010BDC04608000020002370B5064D04005A
:103CD00008002B60FEF75CF8431C03D12B68002B17
:103CE00000D0236070BDC046640300200CB400B552
:103CF0009DB00291069109491EAB079104910849B4
:103D000004CB059102A9019301F0DAFE0023029A87
:103D100013701DB008BC02B01847C046FFFFFF7FFC
:103D20000802FFFF0EB400B50B499CB01DAB02901A
:103D30000690079104910948094904CB0591006850
:103D400002A9019301F0BCFE0023029A13701CB07B
:103D500008BC03B01847C046FFFFFF7F08000020E3
:103D60000802FFFF70B50C000E25495F02F024F930
:103D7000002803DB636D1B18636570BDA389024ACD
:103D80001340A381F9E7C046FFEFFFFF0020704713
:103D9000F8B51F008B8905000C001600DB0505D562
:103DA0000E23C95E0022022300F0E0FFA389054A2A
:103DB00028001340A38132000E23E15E3B0000F097
:103DC00087F8F8BDFFEFFFFF70B50C000E25495FC7
:103DD00000F0CCFFA389421C03D1054A1340A38104
:103DE00070BD802252011343A3816065F8E7C0468D
:103DF000FFEFFFFF10B50E23C95E00F0F5F810BD10
:103E00000023C25C0133002AFBD1581E704700001A
:103E1000F8B505000E001400002804D08369002BBB
:103E200001D1FFF76BF8224B9C422ED16C68A3693D
:103E3000A360A3891B0732D52369002B2FD02368E9
:103E40002269F7B2981A6369F6B2834205DC210051
:103E50002800FEF77BFF002827D1A3680130013B33
:103E6000A36023685A1C22601F706369834204D0D8
:103E7000A389DB0707D50A2E05D121002800FEF70C
:103E800065FF002811D13000F8BD0A4B9C4201D1DA
:103E9000AC68CCE7084B9C42C9D1EC68C7E721006D
:103EA000280000F029F80028C9D001267642EAE768
:103EB00084830008A48300086483000810B5034BC2
:103EC0000A0001001868FFF7A3FF10BD08000020DA
:103ED00070B50400080011001A000023054D2B6086
:103EE000FDF7C4FF431C03D12B68002B00D02360D7
:103EF00070BDC04664030020374B70B51D680600D6
:103F00000C00002D05D0AB69002B02D12800FEF774
:103F1000F5FF324B9C420FD16C680C23E25E93B2EA
:103F200011072DD4D90611D409230120336037336A
:103F30001343A381404270BD294B9C4201D1AC6820
:103F4000EBE7284B9C42E8D1EC68E6E75B0713D52A
:103F5000616B002908D023004433994202D030001D
:103F6000FFF7B8F8002363632422A3899343A38156
:103F700000236360236923600823A2891343A3817C
:103F80002369002B0BD1A0218022A38989009200F4
:103F90000B40934203D02100300000F023FF0C229D
:103FA000A35E01201A0099B2024003420FD0002202
:103FB000A26062695242A261002022698242BAD1A3
:103FC0000A06B8D540221343A3810138B3E7880716
:103FD00000D46269A260EFE7080000208483000833
:103FE000A483000864830008002370B5064D040014
:103FF00008002B60FDF71BFE431C03D12B68002B30
:1040000000D0236070BDC04664030020F0B50600F8
:104010000B69326987B0002003919A4265DB013B4E
:104020009C0000930B00143305931B190493330079
:10403000143302931C19049B27681B6838005D1C0D
:104040002900019302F020FB0190AF4224D3002508
:10405000AC460298059F08CF019A99B251431B0CB8
:10406000534349190A0C9B18026889B292B2624400
:10407000521A01681D0C090C9BB2CB1A11145B1863
:10408000191492B21B041A43049B8C4604C0BB4211
:10409000E1D22368002B30D03000039901F0EEF913
:1040A000002821DB30000024019B03990133019398
:1040B00014301431036820C99AB21419AAB2A21A92
:1040C0001B0C2D0C14145B1B1B191C1492B21B042B
:1040D000134308C0049B8B42ECD2009B029A9B00C6
:1040E000D3181A68002A15D0019807B0F0BD2368CC
:1040F000002B06D1009B013B0093029B043CA34292
:10410000F5D3009B3361C7E71A68002A06D1009AED
:10411000013A0092029A043B9A42F5D3009B336124
:10412000E2E70000F0B59DB002920393029B039C6E
:1041300008930994446A0700259D002C0ED1102095
:1041400000F094FE021E786204D1EA21C74BC848F1
:1041500001F046FF446084600460C4607B6A1968B3
:1041600000290AD05A68012393404A608B603800C6
:1041700000F0F8FE00227B6A1A60039B002B20DA15
:1041800001232B60039B5B005B080993099DB94BDE
:10419000B84A2B40934217D1B74B249A2803136097
:1041A000029B000B184301D100F0BFFDB348269BD2
:1041B0000690002B02D0B24B269A136006981DB0D1
:1041C000F0BD00232B60E1E7089B099C1293139438
:1041D0001298139900220023FDF76EFF041E09D0E8
:1041E0000123249A1360A74B0693269B002BE5D04E
:1041F000A54BE1E71AAB01931BAB00933800129A71
:10420000139B01F063FA6E000590760D00D17CE0FF
:1042100012981399139B9D4A1B031B0B1A43110001
:104220009B4B1894F61800229A4B03F055FB9A4AC0
:104230009A4B03F0E5F89A4A9A4B02F0AFFA040061
:1042400030000D0003F02EFF974A984B03F0D8F88A
:1042500002000B002000290002F0A0FA04000D006B
:1042600003F0EAFE00220290002320002900FDF75F
:1042700029FF00280BD0029803F014FF2B00220026
:10428000FDF71AFF43425841029B1B1A0293012378
:104290001693029B162B0FD812981399DA00844BB1
:1042A0009B181A685B68FDF70DFF002849D0029B38
:1042B000013B0293002316931A9B9E1B00230A9333
:1042C0003300013B0D9304D501239B1B0A9300236C
:1042D0000D93029B002B36DB029A0D9B94466344A0
:1042E0000D93002315920E93229B0124092B64D871
:1042F000052B02DD0024043B2293229B981E0328F9
:1043000064D802F0ADF9293836581A9B1B9A9E18CA
:10431000684BF218202A0FDD40239B1A9D40664B04
:104320000298F318D840284303F0ECFE0123634CB5
:10433000013E0919189376E7202302989B1A9840AA
:10434000F2E71690B8E70A9B029A9B1A0A93534227
:104350000E9300231593C7E700230F93239B0C9321
:104360000793002B13DC01231A000C93079323926D
:104370000DE00123F1E70023239A0F939446029B5B
:1043800063440C9301330793002B00DC01230022CC
:10439000786A426004321500143541689D4219D98B
:1043A000380000F09BFD0690002817D1D5210200AF
:1043B000434B4900CBE60123DEE700230F94229311
:1043C000013B0C93079300221333D0E701230F9393
:1043D000023BF6E7013141605200DCE77B6A069A56
:1043E0001A60079B0E2B00D9EBE0002C00D1E8E00F
:1043F000029B002B68DD1A000F212D4B0A40D200D2
:104400009B181D685E68029B1C1102231093029B7F
:10441000DB050BD52B4B0C401A6A5B6A129813997B
:1044200002F0F8FC0323089009911093254B149394
:10443000002C08D1089809992A00330002F0EAFC00
:10444000089009915CE001231C420BD0109B2800CE
:1044500001331093149B31001A685B6802F0D0FF9F
:1044600005000E00149B64100833E0E7098400087F
:10447000208400080000F07F0F270000058400085A
:1044800008840008D8830008D98300080000F03FA2
:1044900001FCFFFF0000F83F61436F63A787D23F35
:1044A000B3C8608B288AC63FFB799F501344D33F23
:1044B000588500083204000012040000000010FEBD
:1044C0009E8400083085000802231093029B002B75
:1044D00016D0129813995C420F23B64A2340DB0092
:1044E000D3181A685B6802F08BFF0126002308903E
:1044F0000991B14D2411002C00D094E0002B9FD1E4
:10450000169B002B00D19BE0089C099D00222000F7
:104510002900AA4BFDF7D6FD002800D190E0079BAB
:10452000002B00D18CE00C9B002B46DD029B00226F
:10453000200029005E1EA24B02F062FF109B089033
:104540000991013310930C9B1098089C099D1493BA
:1045500003F0A8FD22002B0002F052FF0022994B2D
:1045600002F01CF910901191109A119B0892099376
:10457000954A119B9446634417930993149B002B0F
:1045800061D1002220002900904B03F0A5F9089A80
:10459000179B04000D00FDF7A9FD002800D0AFE235
:1045A0008B481199844661440B0020002900089A29
:1045B000FDF788FD002800D09FE2129B139C089312
:1045C00009941B9B002B00DA72E1029A0E2A00DD8F
:1045D0006EE1784BD2009B185C681B680A930B94C1
:1045E000239B002B00DBF7E0079B002B00DDF3E0B3
:1045F00000D082E20A980B990022744B02F000FF6F
:10460000089A099BFDF77CFD079E3500002800D025
:1046100059E2069B069A0133089331231370029BDB
:104620000133029354E2344207D0109B01331093BC
:104630002A686B6802F0E4FE3300641008355AE71C
:10464000029E079B80E7149B0F995A1E594BD2007C
:104650009B181A685B68002951D000205D4902F060
:10466000D9FB089A099B03F037F9069A069B9446F2
:104670001793149B10901191634419932900200003
:1046800003F0DAFC149003F00DFD02000B00200093
:10469000290003F021F9179B179A01330893149B03
:1046A000040030331370109A119B0D00FDF70AFDC2
:1046B000002875D122002B000020404903F00CF99E
:1046C000109A119BFDF7FEFC002800D0D2E0199B48
:1046D000089A934200D170E7109811990022384B44
:1046E00002F08EFE364B109011910022200029001E
:1046F00002F086FE089B04000D001793BEE70898A1
:10470000099902F07DFE069A069B94460893149B35
:1047100010901191634419932900200003F08CFC40
:10472000179003F0BFFC02000B002000290003F0EB
:10473000D3F8179B089A303313701300199A01337A
:1047400004000D00089393422CD110981199069AF9
:10475000149B94466344002208931E4B02F01EF8FB
:1047600002000B0020002900FDF7C0FC002800D04B
:1047700080E0109A119B0020164903F0ADF802006A
:104780000B0020002900FDF79DFC002800D114E754
:10479000089B1A00013A08921278302AF8D0089340
:1047A000029655E00022064B02F02AFE04000D009E
:1047B000B2E7C04658850008308500080000F03F89
:1047C0000000244000001C400000C0FC0000144019
:1047D0000000C07C0000E03F079B069E013B9B1948
:1047E0000C93089C099D0A9A0B9B2000290002F05B
:1047F00011FB03F021FC079003F054FC0A9A0B9B79
:1048000002F0FEFD02000B002000290003F064F816
:104810003300079A013630321A700C9A08969A4281
:1048200039D102000B0001F0B9FF0A9A0B9B04007A
:104830000D00FDF75BFC00281BD10A9A0B9B2000A2
:104840002900FDF739FC002802D0079BDB0710D4B4
:104850003800059900F086FB0023089A029813702F
:10486000249B01301860269B002B00D1A6E41A601F
:10487000A4E4029E089B0893013B1A78392A06D1CA
:10488000069A9A42F7D13022069901360A701A78B0
:1048900001321A7084E70022AA4B02F0B1FD002217
:1048A000002304000D00FDF707FC00289BD0CFE794
:1048B0000F9D0E9E0A9C002D12D0229A012A66DCC2
:1048C000189A002A5DD0A04A9B180A9A0121D21892
:1048D0000A920D9A3800D3180D9300F03FFC0500A2
:1048E000002C0EDD0D9B002B0BDD0D9A2300944256
:1048F00000DD13000A9AE41AD21A0A920D9AD31A0A
:104900000D930E9B002B1FD00F9B002B54D0002E1D
:1049100011DD29003200380000F0E6FC059A0100A4
:104920000500380000F030FC05991490380000F0C4
:1049300019FB149B05930E9B9A1BB34204D03800BD
:10494000059900F0D1FC05900121380000F006FC2B
:10495000159B0600002B31DD1A000100380000F025
:10496000C3FC229B0600012B2DDD00230E9333692F
:1049700003339B00F318586800F0A8FB2023181A93
:1049800039E036231A9A0E9E0A9C9B1A9DE7079BD4
:104990005E1E0E9BB34207DB9E1B079B0A9C002BEF
:1049A00093DAE41A002390E70E9B159AF31AD318B2
:1049B0000E9615930026F0E70E9AC0E700230E939B
:1049C000229B012B13DC00230E93089B002B0ED19E
:1049D000099B1B030BD15D4B099A134207D00A9B1D
:1049E00001330A930D9B01330D9301230E93159B05
:1049F0000120002BBBD10D9B1F2218180300134070
:104A0000104246D00132D21A042A3FDD1C22D31AAA
:104A10000A9AE418D2180A920D9AD3180D930A9B99
:104A2000002B05DD1A003800059900F0B9FC05904F
:104A30000D9B002B05DD31001A00380000F0B0FCA2
:104A40000600169B002B26D03100059800F016FDBD
:104A5000002820DA029B0A22013B0293380000233F
:104A6000059900F0A3FA0F9B0590002B00D166E199
:104A7000002329000A22380000F098FA0C9B050058
:104A8000002B47DC229B022B0DDC43E0042AC6D01E
:104A900013001C33BCE7079B002B35DC229B022B49
:104AA00032DD079B0C930C9B002B0CD131000522AF
:104AB000380000F07BFA06000100059800F0DEFCEB
:104AC000002800DDA5E5239BDB430293069B0893AA
:104AD00000243100380000F045FA002D00D1B7E67F
:104AE000002C05D0AC4203D02100380000F03AFA87
:104AF0002900380000F036FAAAE600263500E2E781
:104B00000296149E350084E50F9B002B00D1CEE069
:104B1000079B0C93002C05DD29002200380000F0D3
:104B20003FFC05000E9B2800002B22D0380069684E
:104B300000F0D4F9041E0FD10200054B0549FFF720
:104B400006FBC04600002440330400000000F07F54
:104B50009E840008EA02000029002B690C319A1C8F
:104B600092000C3000F0A1F901222100380000F081
:104B700017FC069B0C9A0A93013B9B1801222C0000
:104B800005001493089B13400F9331000598FFF71D
:104B90003DFA0300210030330D900598079300F093
:104BA0006DFC2A000E903100380000F083FCC368D1
:104BB0000890109301230C93109B002B04D101004B
:104BC000059800F05BFC0C903800089900F0CAF9D9
:104BD0000A9B0C9A01330893229B13430F9A1343A9
:104BE0000CD1079B392B26D00E9B002B02DD0D9B91
:104BF000313307930A9B079A1A706AE70E9B002BC2
:104C000004DB229A13430F9A13431FD10C9B002BF2
:104C1000F0DD05990122380000F0C2FB310005905B
:104C200000F02CFC002803DCE4D1079BDB07E1D576
:104C3000079B392BDBD139230A9A1370089B089301
:104C4000013B1A78392A68D00132D5E70C9B002B3A
:104C500007DD079B392BEED0079B0A9A01331370AF
:104C600037E70A9B079A1A70149B0A9A93423ED020
:104C700000230A220599380000F098F900230590D6
:104C80000A2221003800AC4206D100F08FF904005E
:104C90000500089B0A9378E700F088F929000400D2
:104CA00000230A22380000F081F90500F1E7079B94
:104CB0000C93002431000598FFF7A8F9069B3030CB
:104CC00018550C9B01340790A34207DD00230A22EC
:104CD0003800059900F06AF90590EBE70C9B01207C
:104CE000002B00DD18000024069B1B180893059973
:104CF0000122380000F054FB3100059000F0BEFBAB
:104D000000289BDC02D1079BDB0797D4089B089304
:104D1000013B1A78302AFAD0DBE6069A9A428ED105
:104D2000029B01330293312399E7094B269A06939C
:104D3000084B002A01D0FFF73FFAFFF73FFA0C9B20
:104D4000002BB6DC229B022B00DDACE6B1E7C046AF
:104D5000FC83000804840008F03070470048704766
:104D60005C010020004870475C01002070B5040021
:104D7000080011001A000023054D2B60FCF7B2FF5C
:104D8000431C03D12B68002B00D0236070BDC046AC
:104D90006403002070B50E001D000E23C95E1400D0
:104DA00096B0002908DA0C22B35E00222A601B06A6
:104DB00011D48023DB000FE06A4601F04FF9002890
:104DC000F1DBF02301991B021940054BC9184B4236
:104DD00059412960EDE740230020236016B070BDE3
:104DE00000E0FFFFF7B502268B8905000C00334277
:104DF00006D0230047332360236101236361F7BD9D
:104E00006A4601ABFFF7C6FF009907002800FEF7CE
:104E1000CDF9002808D10C22A35E9A05EFD4032215
:104E200093431E43A681E4E70F4BAB628023A28924
:104E300020601343A381009B20616361019B002BD1
:104E40000DD028000E23E15E01F082FA002806D082
:104E50000322A38993431A0001231343A381A0894A
:104E60000743A781CBE7C046412E000810B5034B8E
:104E700001001868FEF79AF910BDC046080000202E
:104E800010B5034B01001868FEF724F910BDC046A9
:104E900008000020C9B28218904201D1002070475A
:104EA00003788B42FBD00130F6E7002310B59A421D
:104EB00000D110BDCC5CC4540133F8E710B50248F2
:104EC000FEF7F8F810BDC0466D03002010B502488B
:104ED000FEF7F6F810BDC0466D03002070B5456AB8
:104EE00006000C00002D0ED11020FFF7BFFF021EA0
:104EF000706204D16621194B194801F071F84560C0
:104F000085600560C560756AEB68002B13D0736A15
:104F1000A200DB689B181868002818D101210D0039
:104F2000A5406A1D3000920000F0BCFC00280CD0A7
:104F3000446085600DE021220421300000F0B2FCC5
:104F4000736AE860DB68002BE1D1002070BD026865
:104F50001A6000230361C360F8E7C04609840008B3
:104F6000AF84000870B5466A05000C00002E0ED113
:104F70001020FFF77BFF021E686204D18A21094BD3
:104F8000094801F02DF8466086600660C660002C76
:104F900007D06B6A6268DB6892009B181A6822600F
:104FA0001C6070BD09840008AF840008F7B50E00CE
:104FB00001900C001D0000200F6914363368013089
:104FC00099B251431B0C534349190D0C5B191D0C2D
:104FD00089B21B045B1808C68742EFDC002D22D083
:104FE000A368BB4219DC63680198591CFFF776FF80
:104FF000061E05D10200B5210C4B0D4800F0F0FF54
:10500000210023690C319A1C92000C30FFF74DFFF0
:1050100021000198FFF7A6FF34003B1D9B00E31819
:105020005D607B1C23612000FEBDC0469E8400089D
:10503000AF840008F7B5060018000C0008300921FD
:1050400001931500FCF73CFF0123002183420ADB9A
:105050003000FFF743FF011E08D10200194B1A4828
:10506000CE3100F0BDFF5B000131EFE7089B4361EB
:1050700001230361092D18DD230009331F0000936C
:1050800064193B780A223000303BFFF78FFF01376D
:105090000100A742F5D12C00009B083C1C192F00F1
:1050A000019B9F4204DB0800FEBD09250A34F6E798
:1050B000631BDB5D0A223000303BFFF777FF0137CF
:1050C0000100EDE79E840008AF8400080300020C95
:1050D0000020824201D11B0410301A0E01D1083089
:1050E0001B021A0F01D104301B019A0F01D10230AB
:1050F0009B00002B03DB01305B0000D420207047B5
:10510000036802000721180008400B420DD0063941
:1051100000200B4205D10230034203D0CB400800EF
:10512000136070479B081360FBE799B2002901D117
:1051300010201B0CD9B2002901D108301B0A190715
:1051400001D104301B09990701D102309B08D9070E
:10515000E9D401305B08E6D12020E2E710B50C006D
:105160000121FFF7BBFE002806D1A0210200044B5D
:105170000448490000F034FF01234461036110BD7D
:105180009E840008AF840008F0B50B691400126912
:105190000D0089B0934201DA25000C002F692669C1
:1051A0006968BB190293AB68BA19934200DA0131FE
:1051B000FFF794FE0190002806D15E210200484BC3
:1051C0004848FF3100F00CFF019B002214339C463D
:1051D000BB199B0063440393634603998B422CD312
:1051E0002B0022001433BF0014320693B600DB19E3
:1051F000049393190793042305932B000499153303
:105200000092994205D34B1B153B9B0801339B0031
:105210000593079B009A9A4211D3029B002B06DD4F
:10522000039B043B03931B680093002B53D0019B0B
:10523000029A18001A6109B0F0BD04C3CDE7009BC3
:105240001B6898B200281BD067460024069E02CE39
:105250003A688BB2434392B29B181B190C0C44431F
:105260003A68110C61181C0C09190C0C9BB209044A
:105270000B4308C7049BB342E9D86346059A9C5088
:10528000009B1B681E0C20D063462C006046002744
:105290001B68143422689BB291B271430268120CED
:1052A0008918CF1939040B43036002CC4368090CF9
:1052B00071439BB23F0CCB18049ADB191F0C0430CE
:1052C000A242E7D8624605995350009B04330093ED
:1052D00004239C449DE7029B013B02939DE7C0464B
:1052E0009E840008AF840008F7B50323150007006B
:1052F0000E001A401D4208D02549013A920052582A
:1053000000233100FFF752FE0600AD103DD07C6A4D
:10531000002C0FD11020FFF7A9FD021E786205D1E5
:10532000D7211C4B1C48490000F05AFE44608460A1
:105330000460C4607B6A9C680193002C08D138002B
:105340001649FFF70BFF019B0400986000230360E0
:1053500001231D420AD0310022003800FFF714FF5C
:10536000310001903800FFF7FDFD019E6D100CD05B
:105370002068002807D1220021003800FFF704FF31
:105380000023206003600400E2E73000FEBDC04659
:105390004886000809840008AF84000871020000F4
:1053A000F0B50C0017002369551187B0EB18029374
:1053B000013301934968A3680490019A934210DB7A
:1053C0000498FFF78BFD0023020006001900143239
:1053D00098420CD1DA210200264B2748FF3100F019
:1053E000FFFD01315B00E8E7980011500133AB424B
:1053F000FADBEB43DB171D401F2123003800AD0013
:105400005519226914339200084084469A180F42B5
:105410002AD00131091A05910021039567461868C1
:10542000B8400143039802C002CB03900598C140E5
:105430009A42F3D8200015300423824204D3131B70
:10544000153B9B0801339B00E950002902D0029BC9
:1054500002330193019B0498013B21003361FFF764
:1054600081FD300007B0F0BD02CB02C59A42FBD8E7
:10547000F0E7C0469E840008AF84000802690B690B
:1054800030B50400D01A9A420DD19B001434143167
:10549000E218C918043A043915680B689D4203D014
:1054A00001209D4203D330BD9442F3D3FBE7404239
:1054B000F9E70000F0B50E0007001100300087B0DA
:1054C0001400FFF7DBFF051E10D101003800FFF7C5
:1054D00005FD021E04D1404B4049414800F080FDCB
:1054E000012345610361100007B0F0BD0123019362
:1054F000002804DB230034001E0000230193380041
:105500006168FFF7EBFC021E03D19021324B89004A
:10551000E3E7019B0027C360206914340194019BD9
:1055200084001B1934000293336914349900631802
:105530000393130014339C460593019B0493049B2F
:1055400002CC20CB0493ABB2DF198BB2FB1A090C4F
:105550002D0C6D1A19146D1861462F149BB22D0471
:105560002B4308C1039B8C46A342E8D83100039C1F
:10557000153104238C4204D3A31B153B9B08013334
:105580009B000199CC1805992600CB189C460299DE
:105590008E4210D3029EE11E00258E4204D33100BC
:1055A00003310C1BA408A5005B19043B19680029F2
:1055B0000FD0106197E702CE8DB2ED190F0C2914B0
:1055C00079180F14ADB209040D43614620C18C4611
:1055D000DDE70138E9E7C0469E840008320200009A
:1055E000AF8400080F4B19400F4BC918002904DD88
:1055F00000220B00100019007047494200220023CE
:105600000915132904DC8020000308410300F1E799
:10561000143901201E2902DC80200006C840020047
:10562000E8E7C0460000F07F0000C0FCF7B50600C8
:10563000036914369B00F3181D1F2C680F0020000F
:105640000193FFF743FD20231B1A1F493B600A28E3
:1056500016DC0B2327001B1ADF4039439C460B0046
:105660000021AE4202D20199083909681530844000
:105670006046C1400C4322001000190003B0F0BD89
:105680000027AE4202D2019D083D2F680B235B42EA
:105690009C4684440B2813D0634620209C40C01AAB
:1056A0003B00C3401C4321430B000021B54201D9FC
:1056B000043D29686446C140A7400F433A00DBE738
:1056C00021430B00FAE7C0460000F03FF7B5012187
:1056D00014001E00089FFFF701FC051E05D1020003
:1056E000264B2749274800F07BFC330376001B0B31
:1056F000760D24D10193002C27D068460094FFF743
:10570000FFFC009C00281ED0019B20211A00091AD2
:105710008A40C34022436A610193019CAC61631ECD
:105720009C4101342C61002E18D0174BF6183523FC
:105730003618181A099B3E6018602800FEBD8022AA
:1057400052031343D6E76C61E7E701A8FFF7D8FCE3
:105750000124019B2C616B612030E4E70B4BC018E6
:105760000B4B3860E3189B00EB185869FFF7AEFC51
:105770006401099B241A1C60DFE7C0469E84000870
:105780000A030000AF840008CDFBFFFFCEFBFFFF44
:10579000FFFFFF3FF0B587B00F0004A90600FFF739
:1057A00045FF00900191009C019D380005A9FFF77D
:1057B0003DFF02900391029A039B31693869059E6F
:1057C000081A04994001891B41180805002907DDC2
:1057D000019945182000290001F01CFB07B0F0BD1D
:1057E00003990B1AF6E7000010B50400172805DC32
:1057F000074CC00024182068616810BD00200549CE
:105800000022054B013C01F0FBFD002CF8D1F4E730
:10581000588500080000F03F0000244070B51400D7
:1058200005000139136949110131890014349B00C5
:105830004118E318A3420DD81400113400259C42EE
:1058400003D89B1A113B9B089D00002340198142FD
:1058500003D870BD40CC40C5ECE708C0F7E70200B4
:10586000006910B514324B11984213DB0CDD1F2474
:1058700008002040214207D099008C582100C140E7
:10588000814001208C4204D19B00D318934203D85D
:10589000002010BD0300F7E7043B19680029F5D08C
:1058A0000120F6E770B5130C0D0C1ED1002B0CD1A6
:1058B00089B294B24C432100FDF778FC051E1BD041
:1058C00022000021FDF7FDFB16E01D1C0B1C92B20F
:1058D00089B29CB25143ABB263430C0C1C19220C2D
:1058E00007D1240489B20C43E5E7002B01D1131C36
:1058F000EDE70C2300250360280070BDF0B58E682D
:1059000085B007000C00039201939E423CD890237F
:105910008A89DB001A4234D00969236860695B1AFE
:10592000029303234343DD0FED18019B02980133DB
:105930001B186D10AB4200D91D00530532D529004C
:105940003800FDF733FC061E09D10C233B604023D1
:105950000120A28940421343A38105B0F0BD029A01
:105960002169FFF7A2FAA389144A1A40802313433E
:10597000A381029B2661F61826606561019EED1ADF
:10598000A560019B9E4200D9019E320003992068C8
:1059900000F03EFDA36800209B1BA36023689E19B6
:1059A0002660DAE72A00380000F045FD061EE0D147
:1059B00038002169FDF78EFBC7E7C0467FFBFFFF7C
:1059C000F0B5936887B00C0017000290002B65D0EB
:1059D00013680393002305930193019B002B2DD0A3
:1059E000A6689E4249D89023A289DB001A4241D082
:1059F0000320216923685B1A049363694343DD0F25
:105A0000ED18049B019801331B186D10AB4200D9AF
:105A10001D00530546D529000298FDF7C7FB061E59
:105A200016D10C23029A012013604023A289404220
:105A30001343A3810023BB607B6031E0039B1B68A1
:105A40000593039B5B680193039B08330393C4E7AF
:105A5000049A2169FFF729FAA389184A1A4080237A
:105A60001343A381049B2661F61826606561019E9D
:105A7000ED1AA560019B9E4200D9019E3200059956
:105A8000206800F0C5FCA368019A9B1BA3602368F3
:105A90009E19BB6826609B1ABB60CFD1002078603E
:105AA00007B0F0BD2A00029800F0C5FC061ED9D14F
:105AB00021690298FDF70EFBB3E7C0467FFBFFFFAD
:105AC000F0B5A1B003901D008B890F0016001B06D6
:105AD00011D50B69002B0ED14021FDF767FB386013
