:100000000200962200000000000000000000000036
:1000100000000000000000000000000064000A0072
:1000200000000000000000000000000219EF0000C6
:10008000000000000000000000000002042A000040
:10009000000000020FF175815C1201E8E582600347
:1000A000020102780479007AC67B057C1E7D00EC93
:1000B0004D601C88828983E493A3A882A9838A82E5
:1000C0008B83F0A3AA82AB831CBCFFE31D80E07589
:1000D00082007583007CC67D05EC4D600AE4F0A3C8
:1000E0001CBCFFF51D80F27582007583007C007DCD
:1000F00000EC4D600AE4F0A31CBCFFF51D80F21279
:10010000000312031780FE50574D20583A202566F1
:100110002C2050574D20593A2025660D0A00415495
:100120002B445649444B5944460D0A0041542B5226
:100130004649444644594B0D0A0041542B564552FA
:100140000D0A0041542B424155440D0A0041542BE5
:10015000524649440D0A0041542B445649440D0A65
:100160000041542B5246430D0A0041542B504F5727
:10017000450D0A0041542B434C53530D0A00436F65
:100180006D6D616E643A20257300526573706F6EF9
:1001900073653A2025730D0A007374723A20257333
:1001A0000A004572726F723A20496E70757420733E
:1001B0007472696E6720697320746F6F2073686F43
:1001C000727420746F2073706C69742E0A0025306D
:1001D00035640D0A00303132333435363738394121
:1001E000424344454600000475A7007597DE7597A5
:1001F000AD75FF8075EF0675A71075C12075A70056
:1002000075A90075A900E5A930E7FB75A90375A9D3
:1002100003E5A930E7FB43A41143A60175E101758D
:10022000E20075E341759810758DE6858D8B5389D5
:100230000F438920D28ED29943A50C43A61F758205
:100240000022AA82AB83ACF0FD900008EAF0A3EB99
:10025000F0A3ECF0A3EDF075A72075930C75C81012
:10026000759400900008E0FAA3E0FBA3E0FCA3E093
:10027000FD900143EAF0A3EBF0A3ECF0A3EDF090C6
:10028000A20075F04A7404121A13AA82AB83ACF070
:10029000FD9001437418F0E4A3F0A3F0A3F08A8268
:1002A0008B838CF0ED121A13AA82AB83ACF0FDE4C1
:1002B000C39AFAE49BFB74019CE49D8A958B96D2C9
:1002C000C943944075A70022AA82AB83ACF0FD908D
:1002D0000010EAF0A3EBF0A3ECF0A3EDF090000C1B
:1002E000E0C0E0A3E0C0E0A3E0C0E0A3E0C0E09095
:1002F0000010E0C0E0A3E0C0E0A3E0C0E0A3E0C0E5
:10030000E07407C0E07401C0E07480C0E0121B63B9
:10031000E58124F5F5812290001474E8F0A37403BC
:10032000F09001F4120F42902580E4F5F0120242A1
:100330001203BE1215B71219D812040F120FD6D21B
:10034000AF900014E0FAA3E0FB8A828B83120BF0DB
:10035000120C26120C4A121917E5828583F09000C0
:1003600014F0A3E5F0F0120D31AA82AB83ACF0FDDE
:10037000900000EAF0A3EBF0A3ECF0A3EDF0120D77
:1003800040AA82AB83ACF0FD900004EAF0A3EBF04E
:10039000A3ECF0A3EDF0900000E0FEA3E0FFA3E0EB
:1003A000F8A3E0F9900135EAF0A3EBF0A3ECF0A399
:1003B000EDF08E828F8388F0E91215BA8083900168
:1003C0001E75F08012065690012C75F080120656AC
:1003D00090013A75F08012065690014375F0801234
:1003E000065690014D75F08012065690015775F033
:1003F0008012065690016175F08012065690016ACF
:1004000075F08012065690017475F08002065675DC
:10041000A71075980043A60175A26075A37375A413
:10042000FF75A5FF43F304D29A22C0E0C082C083C7
:10043000C002C003C004C005C006C007C0D075D04C
:1004400000A28CE433FA7B00A2C2E433FC7D00C23C
:100450008CC2C275A710C29F9005C6E02401F0A30C
:10046000E03400F09005C6E0FEA3E0FFC3EE94FA8E
:10047000EF64809480400D9005C6E4F0A3F09005F1
:10048000C8E0A3E0BA0105BB0002D28CBC0105BDE7
:100490000002D2C2D0D0D007D006D005D004D003FD
:1004A000D002D083D082D0E032E5829000BCF075DB
:1004B000A72010C90280FB9000BCE0F59275A70050
:1004C00022AAF0AB83E5829000BDF0A3EBF0A3EA93
:1004D000F09000BDE0FAA3E0FBA3E0FC8A828B83EE
:1004E0008CF0121C4FFD60238D82C002C003C0043B
:1004F0001204A9D004D003D0020ABA00010B900064
:10050000BDEAF0A3EBF0A3ECF080D19000BDEAF0DF
:10051000A3EBF0A3ECF02275A72010C80280FB53D8
:10052000C83FAA9275A7008A822275A7207A007B0D
:100530000020C82675A700758214C002C003120FE0
:100540000FD003D00275A7200ABA00010BBAA8E1A8
:10055000BB61DE75A70075820A22C2C853C83FAAD4
:100560009275A7008A8222AAF0AB83E5829000C030
:10057000F0A3EBF0A3EAF09000C0E0FAA3E0FBA345
:10058000E0FCC002C003C00412052AAD82D004D032
:1005900003D002BD0A209000C0EAF0A3EBF0A3EC68
:1005A000F09000C0EAF0A3EBF0A3ECF08A828B831A
:1005B0008CF0E402209E8A828B838CF0ED12209EC8
:1005C000A3AA82AB839000C0EAF0A3EBF0A3ECF007
:1005D00080B075A720A2C8920875A70022AA83E55B
:1005E000829000C3F0A3EAF09000C3E0FAA3E0FB1E
:1005F0007C007D00C3EC9AED9B50477E00BE04005A
:100600005039C002C003C004C005C0061205D2E4C0
:1006100033D006D005D004D003D002600122758209
:10062000FAC002C003C004C005C006120F0FD006F6
:10063000D005D004D003D0020E80C20CBC00B50D92
:1006400080B222C2CC30C80B9000C5E592F0A3E482
:10065000F080F2D2CC22AAF0AB83E5829000C7F002
:10066000A3EBF0A3EAF09000C7E0C0E0A3E0C0E095
:10067000A3E0C0E0747EC0E07401C0E07480C0E01C
:10068000121B63E58124FAF581C2A0900005120FC8
:10069000429000C7E0FAA3E0FBA3E0FC8A828B83D0
:1006A0008CF01204C190001675F0001205679000DE
:1006B0000A120F42D2A07416C0E07400C0E0E4C079
:1006C000E0748AC0E07401C0E07480C0E0121B6373
:1006D000E58124FAF58122AAF0AB83E5829000CA75
:1006E000F0A3EBF0A3EAF09000CDE4F0A3F09000CB
:1006F000CF7401F0E4A3F09000D1E4F0A3F09000F7
:10070000CAE0FAA3E0FBA3E0FC8A828B838CF012A0
:100710001C4FFDBD2D119000CF74FFF0A3F0900091
:10072000D17401F0E4A3F09000D1E0FDA3E0FEED70
:100730002AFFEE3BF88C018F82888389F0121C4FD0
:10074000FFBF00030207BDC3EF648094B040627432
:10075000B98FF063F08095F04057C002C003C00429
:100760009000CDE0F8A3E0F990016FE8F0A3E9F084
:1007700090000AC002C003C004C005C006C0071232
:100780001E05A882A983D007D006D005D004D003C7
:10079000D002EF3395E0FAEF24D0FFEA34FFFA906D
:1007A00000CDEF28F0EA39A3F0D004D003D00280C6
:1007B00004900000220DBD00010E02072F9000CD15
:1007C000E0FAA3E0FB9000CFE0FCA3E0FD90016F16
:1007D000EAF0A3EBF08C828D83021E05AAF0AB83B6
:1007E000E5829000D9F0A3EBF0A3EAF09000D9E005
:1007F000FAA3E0FBA3E0FC8A828B838CF01221EF4A
:100800008582288583299000DCE4F0A3F09000DE47
:10081000E4F0A3F09000D9E0FCA3E0FDA3E0FEC06B
:1008200004C005C006C004C005C0067499C0E074C9
:1008300001C0E07480C0E0121B63E58124FAF581F9
:10084000D006D005D004AF28A829C3EF9406E864E9
:10085000809480501674A2C0E07401C0E07480C01F
:10086000E0121B63158115811581228C078D008E86
:10087000018F82888389F0121C4FF524602C742D1F
:10088000B52420EFB50413E8B5050FE9B5060B90C4
:1008900000DC7401F0E4A3F080099000DE7401F044
:1008A000E4A3F00FBF00CA0880C79000DCE0FFA3FC
:1008B000E0F84F606A9000D3E0F525A3E0F526A3A9
:1008C000E0F52774012525FAE43526FBAF279001D2
:1008D0005474012CF0E43DA3F0A3EEF090015774A2
:1008E00003F0E4A3F08A828B838FF0C004C005C0BC
:1008F00006121B8DD006D005D00474042525FAE419
:100900003526FBAF278A828B838FF0E412209E85E9
:1009100025828526838527F0742D12209E80509095
:1009200000D3E0FFA3E0F8A3E0F9900154ECF0A3BA
:10093000EDF0A3EEF09001577403F0E4A3F08F8282
:10094000888389F0C004C005C006121B8DD006D074
:1009500005D0049000D3E0FFA3E0F8A3E0F974030E
:100960002FFFE438F88F82888389F0E412209E906C
:1009700000DEE0FFA3E0F84F60719000D6E0F525BF
:10098000A3E0F526A3E0F52774012525F52AE43533
:1009900026F52B85272CE5282CF8E5293DF98E0234
:1009A000E824FDF8E934FFF9900154E8F0A3E9F0F8
:1009B000A3EAF09001577403F0E4A3F0852A82853E
:1009C0002B83852CF0121B8D74042525FAE4352623
:1009D000FBAF278A828B838FF0E412209E852582CD
:1009E0008526838527F0742D02209E9000D6E0FA9C
:1009F000A3E0FBA3E0FFE5282CFCE5293DFDEC246A
:100A0000FDFCED34FFFD900154ECF0A3EDF0A3EEFE
:100A1000F09001577403F0E4A3F08A828B838FF087
:100A2000121B8D9000D6E0FAA3E0FBA3E0FC740358
:100A30002AFAE43BFB8A828B838CF0E402209EAA94
:100A4000F0AB83E5829000E6F0A3EBF0A3EAF09030
:100A50000005121F6AAA82AB837C00900005C002C9
:100A6000C003C004121F6AAD82AE83D004D003D08D
:100A7000028D368E377538009000E6E0F52DA3E044
:100A8000F52EA3E0F52FE4F8F9F530F531E5302542
:100A90002DF532E531352EF533852F3485328285BB
:100AA00033838534F0121C4FF535E4B5350280717F
:100AB000853582C002C003C004C000C0011221D22B
:100AC000E582D001D000D004D003D002701085326E
:100AD000828533838534F0121C4FFDBD2D38880587
:100AE000890608B8000109ED252DF532EE352EF501
:100AF00033852F34E530252DFDE531352EFEAF2F22
:100B00008D828E838FF0121C4FFD85328285338358
:100B10008534F012209E0530E4B530020531020A1A
:100B20008DE8252DF8E9352EF9AD2F888289838D42
:100B3000F0E412209E9000D3EAF0A3EBF0A3ECF0D7
:100B40009000D6E536F0A3E537F0A3E538F0852D23
:100B500082852E83852FF0C002C003C0041207DCFB
:100B6000D004D003D0029000E0E0FDA3E0FEA3E0BB
:100B7000FF8A828B838CF0C002C003C004C005C012
:100B800006C0071206D7A882A983D007D006D005D1
:100B90008D828E838FF0E812209EA3E912209E9012
:100BA00000E3E0FDA3E0FEA3E0FF85368285378306
:100BB0008538F0C005C006C0071206D7A882A983F1
:100BC000D007D006D005D004D003D0028D828E830A
:100BD0008FF0E812209EA3E912209E8A828B838CDC
:100BE000F0121E9A8536828537838538F0021E9A68
:100BF000AA83E5829000E9F0A3EAF09000E9E0C062
:100C0000E0A3E0C0E074CEC0E07401C0E07480C036
:100C1000E07466C0E07400C0E0E4C0E012214EE57C
:100C20008124F8F581229005C8E0FAA3E0FB4A7020
:100C3000189005C8E0A3E090006675F0001204C1AA
:100C40001206439000C80205DD221205D2506290C0
:100C5000001675F00012056712064390001675F035
:100C6000001221EFAA82AB839000BAEAF0A3EBF066
:100C70008A048B05C3EC940AED648094804032743E
:100C80000C9AE464808BF063F08095F04023900030
:100C9000E074B6F0A37400F0A3E4F09000E374B83D
:100CA000F0A37400F0A3E4F090001675F000020ABF
:100CB0003F22AAF0AB83E5829000EBF0A3EBF0A318
:100CC000EAF09000EBE0FAA3E0FBA3E0FC7D007EFD
:100CD000007F007800C005C006EF2AF9E83BFD8CD4
:100CE0000689828D838EF0121C4FF539E4B53906E2
:100CF000D006D0058036D006D005853982C002C026
:100D000003C004C005C006C007C0001221D2E5829E
:100D1000D000D007D006D005D004D003D0026005A3
:100D20000DBD00010E0FBF00AC0880A98D828E831F
:100D3000229000B6E0FAA3E0FB8A828B830221A70F
:100D40009000B8E0FAA3E0FB8A828B830221A7AA75
:100D5000F0AB83E5829000EEF0A3EBF0A3EAF09015
:100D600000EEE0FAA3E0FBA3E0FC8A828B838CF028
:100D7000121C4FFD60238D82C002C003C0041221EB
:100D8000B4D004D003D0020ABA00010B9000EEEAFE
:100D9000F0A3EBF0A3ECF080D19000EEEAF0A3EB2F
:100DA000F0A3ECF022AA82AB83ACF0FD9000F5EA50
:100DB000F0A3EBF0A3ECF0A3EDF0900119E4F090B8
:100DC00000F5E0FAA3E0FBA3E0FCA3E0FD30E72997
:100DD00075822DC002C003C004C0051221B4D00525
:100DE000D004D003D0029000F5C3E49AF0E49BA3B2
:100DF000F0E49CA3F0E49DA3F09000F1E0F53EA3A5
:100E0000E0F53F7C1F7D009000F3E0FEA3E0FF9043
:100E100000F5E0F53AA3E0F53BA3E0F53CA3E0F5EF
:100E20003DC3E4953AE4953BE4953CE46480853D1C
:100E3000F063F08095F0E433F8C3E49EE464808FBF
:100E4000F063F08095F0E433F9487003020EFB8CF8
:100E5000008D011CBCFF011DE824F9F540E93400B8
:100E6000F541853E42E53FF5433395E0F544F545D0
:100E7000900167E542F0A3E543F0A3E544F0A3E564
:100E800045F0853A82853B83853CF0E53DC004C052
:100E900005C006C007121D3CAA82AB83EA24D5F523
:100EA00082EB3401F583E493854082854183F090A1
:100EB000015FE542F0A3E543F0A3E544F0A3E54577
:100EC000F0853A82853B83853CF0E53D121C6BAA98
:100ED00082AB83A8F0F9D007D006D005D0049000EB
:100EE000F5EAF0A3EBF0A3E8F0A3E9F0EE4F70030E
:100EF000020E0F1EBEFF011F020E0FEC0424F9FAB2
:100F0000E43400FB7C008A828B838CF0020D4FE579
:100F10008290011AF0438E407592B87593FF8592C6
:100F20009485939575910490011AE0FA7B00C3EBC8
:100F30009A500BE59130E7FB53917F0B80F0759150
:100F40000022AA83E58290011BF0A3EAF090011B26
:100F5000E0FAA3E0FB7C007D00C3EC9AED9B502BF4
:100F60007E00BE0400501D7582FAC002C003C0049A
:100F7000C005C006120F0FD006D005D004D003D094
:100F8000020E80DE0CBC00D10D80CE22AA82AB8383
:100F9000ACF0FD90011DEAF0A3EBF0A3ECF0A3EDA3
:100FA000F090011DE0FAA3E0FBA3E0FCA3E0FDC08C
:100FB00002C003C004C0058A828B838CF0ED12222C
:100FC00042AA82AB83ACF0FDE58124FCF5818A82E4
:100FD0008B838CF0ED2275A71075C00043A60475B5
:100FE000D2F075D3F175D4FF75D5FF43F308D2C2A3
:100FF00022C020C0E0C0F0C082C083C002C003C0D5
:1010000004C005C006C007C000C001C0D075D00034
:10101000A28CE433FA7B00A2C2E433FC7D00C28CD4
:10102000C2C275A710C2C7B2929005DCE0FEA3E071
:10103000FF4E60030211859005CAE0FEA3E0FFC3E6
:1010400074649EE464808FF063F08095F0500790A4
:1010500005CAE4F0A3F09005CCE0FEA3E0FF30E782
:10106000030210F99005CAE0FEA3E0FF8E828F8391
:10107000C002C003C004C0051221A7AE82AF83A87E
:10108000F0F99005D0E0C0E0A3E0C0E0A3E0C0E04C
:10109000A3E0C0E08E828F8388F0E91222E5E5812B
:1010A00024FCF581E58224FF9209B392A49005CA3D
:1010B000E0FEA3E0FF8E828F831221A7AE82AF8372
:1010C000A8F0F9900121E0C0E0A3E0C0E0A3E0C0F7
:1010D000E0A3E0C0E08E828F8388F0E91222E5E58C
:1010E0008124FCF581D005D004D003D002E5822410
:1010F000FF9209B392A20211859005CAE0FEA3E017
:10110000FF8E828F83C002C003C004C0051221A7D6
:10111000AE82AF83A8F0F99005D0E0C0E0A3E0C0B4
:10112000E0A3E0C0E0A3E0C0E08E828F8388F0E916
:101130001222E5E58224FF92A4E58124FCF581904A
:1011400005CAE0FEA3E0FF8E828F831221A7AE8244
:10115000AF83A8F0F9900121E0C0E0A3E0C0E0A3D4
:10116000E0C0E0A3E0C0E08E828F8388F0E9122225
:10117000E5E58224FF92A2E58124FCF581D005D02B
:1011800004D003D0029005CAE02401F0A3E03400AB
:10119000F0BA0105BB0002D28CBC0105BD0002D231
:1011A000C2D0D0D001D000D007D006D005D004D016
:1011B00003D002D083D082D0F0D0E0D02032C2A4BD
:1011C000C2A2C2A3C2A122C2A3C2A122D2A3D2A1FF
:1011D00022AA82AB83ACF0FD900129EAF0A3EBF0E8
:1011E000A3ECF0A3EDF0900129E0F513A3E0F514D2
:1011F000A3E0F515A3E0F516E4C0E0C0E0C0E0C050
:10120000E08513828514838515F0E51612235AAE06
:1012100082E58124FCF581EE60030212C89001256D
:10122000E0FFA3E0F8A3E0F9A3E08F82888389F0D0
:10123000122326AA82AB83C002C00312238A122182
:10124000A7AC82AD83AFF0F89005D0ECF0A3EDF041
:10125000A3EFF0A3E8F08513828514838515F0E5EC
:101260001612232612238AAC82AD83D003D00274D7
:1012700064C39CFCE49DFD8A828B83C004C005127C
:10128000238AAA82AB83D005D00490016FEAF0A331
:10129000EBF08C828D83121E05AA82AB83900195A0
:1012A0007464F0E4A3F08A828B831223991221A73D
:1012B000AA82AB83ACF0FD9005D4EAF0A3EBF0A3D7
:1012C000ECF0A3EDF002137EEE700302137E8513A3
:1012D000828514838515F0E51612232612238AAA27
:1012E00082AB837464C39AFAE49BFB900125E0FC13
:1012F000A3E0FDA3E0FEA3E08C828D838EF0C0020C
:10130000C003122326AC82AD83C004C00512238A19
:10131000AE82AF83D005D004D003D00290016FEE2F
:10132000F0A3EFF08A828B83C004C005121E05AAC9
:1013300082AB839001957464F0E4A3F08A828B837E
:101340001223991221A7AA82AB83AEF0FFD005D059
:10135000049005D0EAF0A3EBF0A3EEF0A3EFF08C3D
:10136000828D8312238A1221A7AA82AB83ACF0FD5F
:101370009005D4EAF0A3EBF0A3ECF0A3EDF090011C
:1013800025E0FAA3E0FBA3E0FCA3E08A828B838C38
:10139000F0122326AA82AB83C002C00312238AACB8
:1013A00082AD83D003D002C374199CE464808DF0B5
:1013B00063F08095F040399005D4E0C0E0A3E0C030
:1013C000E0A3E0C0E0A3E0C0E090666675F066745C
:1013D0003F122242AC82AD83AEF0FFE58124FCF5E2
:1013E00081900121ECF0A3EDF0A3EEF0A3EFF02249
:1013F0008A828B83C002C00312238AAC82AD83D061
:1014000003D002C374329CE464808DF063F0809555
:10141000F040399005D4E0C0E0A3E0C0E0A3E0C014
:10142000E0A3E0C0E090333375F073743F122242C2
:10143000AC82AD83AEF0FFE58124FCF58190012103
:10144000ECF0A3EDF0A3EEF0A3EFF0228A828B8301
:10145000C002C00312238AAC82AD83D003D002C382
:10146000744B9CE464808DF063F08095F04039907B
:1014700005D4E0C0E0A3E0C0E0A3E0C0E0A3E0C08A
:10148000E090333375F073743F122242AC82AD8327
:10149000AEF0FFE58124FCF581900121ECF0A3ED95
:1014A000F0A3EEF0A3EFF0228A828B8312238AAAA4
:1014B00082AB83C374649AE464808BF063F080959C
:1014C000F040399005D4E0C0E0A3E0C0E0A3E0C064
:1014D000E0A3E0C0E090333375F073743F12224212
:1014E000AA82AB83ACF0FDE58124FCF5819001215B
:1014F000EAF0A3EBF0A3ECF0A3EDF0229005D4E02A
:10150000C0E0A3E0C0E0A3E0C0E0A3E0C0E090330F
:101510003375F073743F122242AA82AB83ACF0FDA4
:10152000E58124FCF581900121EAF0A3EBF0A3EC26
:10153000F0A3EDF022AA82AB83ACF0FD900131EA7A
:10154000F0A3EBF0A3ECF0A3EDF090012DE0FAA3F3
:10155000E0FBA3E0FCA3E0FD900131E0FEA3E0FF8F
:10156000A3E0F8A3E0F9C006C007C000C001C006B0
:10157000C007C000C0018A828B838CF0ED12231556
:10158000AA82E58124FCF581D001D000D007D006E5
:10159000EA7023C0E0C0E0C0E0C0E08E828F8388A4
:1015A000F0E912235AAA82E58124FCF581EA70034E
:1015B0000211C70211CC220211BEAA82AB83ACF089
:1015C000FD900139EAF0A3EBF0A3ECF0A3EDF0906D
:1015D0000139E0FAA3E0FBA3E0FCA3E08A828B835D
:1015E0008CF0122326E5828583F09005CEF0A3E5EA
:1015F000F0F0900135E0FAA3E0FBA3E0FCA3E08A61
:10160000828B838CF0122326AA82AB839005CCEACE
:10161000F0A3EBF08A828B831221A7AA82AB83AC62
:10162000F0FD9005DAE0FEA3E0FF8E828F83C0021A
:10163000C003C004C0051221A7AE82AF83A8F0F991
:10164000D005D004D003D00290012DEEF0A3EFF02E
:10165000A3E8F0A3E9F08A828B838CF0ED121535B4
:101660009005CEE0FAA3E0FB8A828B831221A7AA21
:1016700082AB83ACF0FD9005CCE0FEA3E0FF8E8250
:101680008F83C002C003C004C0051221A7AE82AF81
:1016900083A8F0F9D005D004D003D002900125EE44
:1016A000F0A3EFF0A3E8F0A3E9F08A828B838CF03B
:1016B000ED1211D19005CEE0FAA3E0FB9005D8EA37
:1016C000F0A3EBF09005CCE0FAA3E0FB9005DAEA9A
:1016D000F0A3EBF022AA83E58290013DF0A3EAF0AB
:1016E000C2AFC28C5389F0438901C28C758A0075E0
:1016F0008C00C28DD28C7A007B00309019108D0244
:1017000080F80ABA00010BBA0AF0BB00EDC28C9057
:101710000000E4F5F022C28C758A00758C00C28D41
:10172000D28C7A007B00209019108D0280F80ABAC2
:1017300000010BBA0AF0BB00EDC28C900000E4F58A
:10174000F022C28C758A00758C00C28D90013FE436
:10175000F0A3F0D28C90013DE0FAA3E0FB7C008C7A
:10176000057E00C3ED9AEE64808BF063F08095F007
:10177000503190013FE0FDA3E0FE30900C108D024F
:1017800080F80DBD00F40E80F120900C108D0280C9
:10179000F80DBD00F40E80F190013FEDF0A3EEF0E6
:1017A0000C80BCC28CD2AF90013FE0FAA3E0FB8B6F
:1017B000058A047B007A00AF8C7E00EF3395E0F859
:1017C000F9EE2AFAEF3BFBE83CFCE93DFDAE8AE48A
:1017D000FF3395E0F8F9EE2AFAEF3BFBE83CFCE931
:1017E0003D8A828B838CF0229000051216D5AA8246
:1017F000AB83ACF0FD900199EAF0A3EBF0A3ECF021
:10180000A3EDF090000CE4F5F0C002C003C004C0EA
:101810000512240E1224D5AE82AF83A8F0F9C006BB
:10182000C007C000C00190A95075F0AB744D1225DF
:1018300002AE82AF83A8F0F9E58124FCF5818E82A7
:101840008F8388F0E912247AAE82AF83A8F0F9D0B2
:1018500005D004D003D002C3E49AE49BE49CE46482
:10186000808DF063F08095F050088E828F8388F031
:10187000E922900000E4F5F0229005E0E0FAA3E010
:10188000FB9005DEE0FCA3E0FD90016FEAF0A3EB26
:10189000F08C828D83C002C003C004C005121E05F7
:1018A000AE82AF83D005D004D003D002900195EA78
:1018B0002CF0EB3DA3F08E828F831223991221A787
:1018C000AA82AB83ACF0FDE4C0E0C0E0747AC0E073
:1018D0007444C0E08A828B838CF0ED122502AA82C8
:1018E000AB83ACF0FDE58124FCF581E4C0E0C0E011
:1018F000747AC0E07444C0E08A828B838CF0ED126D
:101900002502AA82AB83ACF0FDE58124FCF5818A37
:10191000828B838CF0ED221217E8AA82AB83ACF0A5
:10192000FDC002C003C004C005121879AE82AF83A7
:10193000A8F0F9D005D004D003D0028A828B838C22
:10194000F0EDC006C007C000C0011224D5AA82ABCA
:1019500083ACF0FDC002C003C004C005900FDB756E
:10196000F0C97440122242AA82AB83ACF0FDE5813B
:1019700024FCF5818A828B838CF0ED120F8C12226D
:1019800042AA82AB83ACF0FDE58124FCF581C00264
:10199000C003C004C00590000075F07A744412259D
:1019A00002AA82AB83ACF0FDE58124FCF581C00284
:1019B000C003C004C00590240075F074744912225D
:1019C00042AA82AB83ACF0FDE58124FCF5818A82DA
:1019D0008B838CF0ED02232675C800438E1075CAE8
:1019E000AB75CBDD75CEFF75CFFFD2ADD2CA2275F8
:1019F000A700C2CFB28632AA83E582900141F0A34C
:101A0000EAF0900141E0FAA3E0FB4A6003D2CA2267
:101A1000C2CA22AA82AB83ACF0FD900147EAF0A3D0
:101A2000EBF0A3ECF0A3EDF090014BE4F0A3F0A3F6
:101A3000F0A3F0900143E0FAA3E0FBA3E0FCA3E0F5
:101A4000FD754920900147E0FFA3E0F8A3E0F9A36A
:101A5000E0FE33920AEF2FFFE833F8E933F9EE3373
:101A6000FE900147EFF0A3E8F0A3E9F0A3EEF090B9
:101A7000014BE0FEA3E0FFA3E0F8A3E0F9EE2EFEA9
:101A8000EF33FFE833F8E933F990014BEEF0A3EFC1
:101A9000F0A3E8F0A3E9F0300A1E90014BE0FFA3A9
:101AA000E0F8A3E0F9A3E0FE90014B74014FF0A32E
:101AB000E8F0A3E9F0A3EEF090014BE0FEA3E0FF15
:101AC000A3E0F8A3E0F9C3EE9AEF9BE89CE99D4000
:101AD0003190014BEEC39AF0EF9BA3F0E89CA3F08A
:101AE000E99DA3F0900147E0FEA3E0FFA3E0F8A387
:101AF000E0F990014774014EF0A3EFF0A3E8F0A3E2
:101B0000E9F0D549028003021A44900147E0FAA3A4
:101B1000E0FBA3E0FCA3E08A828B838CF022E582C9
:101B200090014FF090014FE0F5820221B4AAF0AB92
:101B300083E582900151F0A3EBF0A3EAF09001510C
:101B4000E0FAA3E0FBA3E0FC900150E0FD9001AFC0
:101B5000EAF0A3EBF0A3ECF09001B2EDF0901B1EC5
:101B6000022B2DC008858108E50824FBFAE508242E
:101B7000FBF89001AFE6F008A3E6F008A3E6F090CA
:101B800001B2EAF0901B1E122B2DD00822AAF0AB56
:101B900083E582900159F0A3EBF0A3EAF09001599C
:101BA000E0FAA3E0FBA3E0FC90015CEAF0A3EBF019
:101BB000A3ECF0900157E0FDA3E0FE900154E0FF9C
:101BC000A3E0F8A3E0F9ED4E60348F82888389F0BA
:101BD000121C4FF54960271DBDFF011E0FBF0001FC
:101BE000088A828B838CF0E54912209EA3AA82ABDF
:101BF00083900159EAF0A3EBF0A3ECF080C89001C8
:101C000059EAF0A3EBF0A3ECF08D078E001DBDFFA9
:101C1000011EEF48601C8A828B838CF0E412209EA8
:101C2000A3AA82AB83900159EAF0A3EBF0A3ECF0F6
:101C300080D7900159EAF0A3EBF0A3ECF090015C9F
:101C4000E0FAA3E0FBA3E0FC8A828B838CF02220E5
:101C5000F71430F6148883A88220F507E6A8837568
:101C6000830022E280F7E49322E022AA82AB83ACD5
:101C7000F0FD900163EAF0A3EBF0A3ECF0A3EDF02C
:101C8000900163E0FAA3E0FBA3E0FCA3E0FD33E4F2
:101C900033FE6013C3E49AF517E49BF518E49CF552
:101CA00019E49DF51A80088A178B188C198D1AAAC9
:101CB00017AB18AC19AD1A90015FE0F517A3E0F56A
:101CC00018A3E0F519A3E0F51A33E433FF6017C356
:101CD000E49517F51BE49518F51CE49519F51DE43A
:101CE000951AF51E800C85171B85181C85191D85F6
:101CF0001A1E900143E51BF0A3E51CF0A3E51DF0BF
:101D0000A3E51EF08A828B838CF0EDC006C007121B
:101D10001A13AA82AB83ACF0FDD007D006EF6E6039
:101D200013C3E49AFEE49BFFE49CF8E49D8E828F4B
:101D30008388F0228A828B838CF0ED22AA82AB8387
:101D4000ACF0FD90016BEAF0A3EBF0A3ECF0A3ED97
:101D5000F090016BE0FAA3E0FBA3E0FCA3E0FD330D
:101D6000E433FE6013C3E49AF509E49BF50AE49CAE
:101D7000F50BE49DF50C80088A098B0A8C0B8D0C01
:101D8000AA09AB0AAC0BAD0C900167E0F509A3E022
:101D9000F50AA3E0F50BA3E0F50C30E717C3E495D3
:101DA00009F50DE4950AF50EE4950BF50FE4950C95
:101DB000F510800C85090D850A0E850B0F850C101A
:101DC0009001B7E50DF0A3E50EF0A3E50FF0A3E554
:101DD00010F08A828B838CF0EDC0061232EFAA825B
:101DE000AB83ACF0FDD006EE6013C3E49AFEE49B37
:101DF000FFE49CF8E49D8E828F8388F0228A828B98
:101E0000838CF0ED22AA83AB828BF090016FE0A46B
:101E1000F8A9F08AF0E0A429F98BF0A3E0A429F551
:101E20008388822222AA83E582900173F0A3EAF0DC
:101E3000900173E0FAA3E0FB4A700490000022EAEC
:101E400024FCFAEB34FFFB9005E2E0FCA3E0FD90FC
:101E50000175ECF0A3EDF0900171E4F0A3F09001B6
:101E600075E0FCA3E0FD4C6025EAB50406EBB50582
:101E700002801B900171ECF0A3EDF08C828D83E069
:101E8000FCA3E0FD900175ECF0A3EDF080D0900193
:101E900075E0FAA3E08A82F58322AAF0AB83E5829B
:101EA000900177F0A3EBF0A3EAF0900177E0FAA3BA
:101EB000E0FBA3E08A828B83121E25AA82AB83EA11
:101EC0004B6028900171E0FCA3E0FD4C700B8A820E
:101ED0008B83A3A3E4F0A3F0228A828B83E0FAA38E
:101EE000E0FB8C828D83EAF0A3EBF02290017A7400
:101EF000C0F0A37401F09001E6E493FA740193FB3F
:101F000090017CEAF0A3EBF074C04401701A9001D8
:101F10007A740124C0F0E43401A3F01ABAFF011B63
:101F200090017CEAF0A3EBF090017AE0FAA3E0FBE9
:101F30009005E2EAF0A3EBF090017CE0FCA3E0FD69
:101F4000EC2AFCED3BFDEC24FEFCED34FFFD8A8227
:101F50008B83ECF0A3EDF08C828D83E4F0A3F08A08
:101F6000828B83A3A3E4F0A3F022AA83E5829001ED
:101F70007EF0A3EAF090017EE0FAA3E0FBC374FBDD
:101F80009A74FF9B50049000002290017E74042AF2
:101F9000F0E43BA3F09005E2E0FAA3E0FB4A700313
:101FA000121EEC9005E2E0FAA3E0FB900180EAF05B
:101FB000A3EBF090017EE0FAA3E0FB900180E0FC4F
:101FC000A3E0FD8C828D83E0FEA3E0FF8E118F12D3
:101FD0008C008D01E511C398F511E51299F5128C6D
:101FE000828D83A3A3E0F8A3E0F9E511C398F8E597
:101FF0001299F9C3E89AE99B400D90018274042C70
:10200000F0E43DA3F08023900180EEF0A3EFF09088
:102010000180E0FCA3E0FD8C828D83E0FCA3E0FD69
:102020004C7098900182E4F0A3F0900182E0FCA350
:10203000E0FD4C605D900180E0FCA3E0FD74022CAB
:10204000FEE43DFF8E828F83E0F8A3E0F948700B39
:102050008E828F83EAF0A3EBF08037E82CF8E93D1D
:10206000F98C828D83E0FEA3E0FF88828983EEF005
:10207000A3EFF08C828D83E8F0A3E9F08882898356
:10208000A3A3EAF0A3EBF0900182740428F0E439F2
:10209000A3F0900182E0FAA3E08A82F5832220F780
:1020A0001030F6118883A88220F507F6A88375837F
:1020B0000022F280F7F022E582900188F0900185FD
:1020C000E0FAA3E0FBA3E0FC900188E08A828B8326
:1020D0008CF012209E90018574012AF0E43BA3F05D
:1020E000A3ECF022AAF0AB83E58290018DF0A3EB84
:1020F000F0A3EAF090018DE0FAA3E0FBA3E0FC90EE
:102100000185EAF0A3EBF0A3ECF0900189E0FAA3DB
:10211000E0FBA3E0FC90018CE0FD9001AFEAF0A3AE
:10212000EBF0A3ECF09001B2EDF09020B7122B2D64
:10213000AA82AB83900185E0FCA3E0FDA3E0FE8CC6
:10214000828D838EF0E412209E8A828B8322C008C7
:10215000858108E50824F8FAE50824FBF890018554
:10216000E6F008A3E6F008A3E6F0E50824F8F89006
:1021700001AFE6F008A3E6F008A3E6F09001B2EAAA
:10218000F09020B7122B2DAA82AB83900185E0FC42
:10219000A3E0FDA3E0FE8C828D838EF0E412209EEE
:1021A0008A828B83D00822AC83AB827A0079007458
:1021B0008E0224DEE582900190F0900190E0FABA60
:1021C0000A0810990280FB75990D10990280FB8A0C
:1021D0009922E582900191F0900191E0FABA3000E5
:1021E0004009EA24C640047582012275820022AAB1
:1021F000F0AB83E582900192F0A3EBF0A3EAF07AD2
:10220000007B00900192E0FCA3E0FDA3E0FE8C8245
:102210008D838EF0121C4FFFA3AC82AD8390019290
:10222000ECF0A3EDF0A3EEF0EF60070ABA00DF0BCD
:1022300080DC900192ECF0A3EDF0A3EEF08A828BAB
:1022400083221234B1BC0003023450EF60FA30D55F
:1022500002B2D1E583B4FF03023466E582B4FF0322
:10226000023466258340072482400B0234502483C5
:10227000145003023466F582EA8DF0A4A8F0EA8EC9
:10228000F0A428F8E435F0F9EB8DF0A428E935F056
:10229000F9E433CA8FF0A429F9EA35F0FAEBF88EA5
:1022A000F0A429F9EA35F0FAE433FBEC8DF0A42927
:1022B000F9EA35F0FAE43BFBE88FF0A42AFAEB35B3
:1022C000F0FBE433CCFD8EF0A42AFAEB35F0FBE40E
:1022D0003CFCED8FF0A42BFBEC35F0FC20E7031267
:1022E000347E02342FFFA88118181234FDD2D13366
:1022F000E6400730E70B7582012220E70675820071
:1023000022C2D11234DFE97003F5822230D101B349
:10231000E433F58222FFA88118181234FD1234DF4D
:10232000E96401F5822212247A700AE58245834528
:10233000F0700122E430D112F4700BE5F0F4700675
:10234000E58330E7012290800022700AE5F07006F4
:10235000E58320E70122907FFF22FFA88118181251
:1023600034FDD2D133E6400730E70B7582002220DE
:10237000E70675820122C2D11234DFE97003F582CB
:102380002220D101B3E433F58222E58330E709F45A
:10239000F583E582F4F582A322AA83E58290019772
:1023A000F0A3EAF0900197E0FAA3E0FB33E433FCFA
:1023B0006009C3E49AFDE49BFE80048A058B068DC8
:1023C000028E03900195E0FDA3E0FE33E433FF604D
:1023D00009C3E49DF8E49EF980048D008E01900508
:1023E000C0E8F0A3E9F08A828B83C004C0071235ED
:1023F00028AA82AB83D007D004EF6C600CC3E49AA8
:10240000FCE49BFD8C828D83228A828B8322A882AE
:10241000A983AAF0FB88F0900199E0A4FCADF089B3
:10242000F0E0A42DFDE435F0FE88F0A3E0A42DFD3E
:10243000E5F03EFEE433FF89F0E0A42EFEE5F03F38
:10244000FF88F0A3E0A42EFEE5F03FFF8AF09001A4
:1024500099E0A42EFEE5F03FFF8BF0E0A42FFF8A69
:10246000F0A3E0A42FFF89F0A3E0A42FFF88F0A33E
:10247000E0A42F8EF08D838C82221235C2C3749E0D
:102480009582403979001235D430D126E9F42401FF
:10249000F582EAF43400F583EBF43400F5F0ECF463
:1024A0003400700AE582458345F0700122E430E78C
:1024B0000F22EC20E71489828A838BF02230D10A24
:1024C000E4F582F583F5F074802274FFF582F583DC
:1024D000F5F0747F22FCABF0AA83A982749EF5828A
:1024E000C2D1EC30E716D2D1E9F42401F9EAF43490
:1024F00000FAEBF43400FBECF43400FC12347E02FE
:10250000342F1234B130D502B2D1BF0009BC000360
:10251000023473023466BC0003023450E583B4FF16
:102520000BE582B4FF03023473023450E582B4FF3A
:1025300003023466C395835007247F400B02345056
:102540002480145003023466C0E0E4CCCBCAF98D79
:10255000498E4A8F4BEF54F0C4F54C758306854C79
:10256000F0EB84F582E9C4F9EAC4FAEBC4FBEC545D
:102570000FC47803D6FC18EBD6FB18EAD6FA85828E
:10258000F0EDA4A8F0FD8582F0EEA428FEE435F07D
:10259000F88582F0EFA428FFE435F0F8E99DF9EA28
:1025A0009EFAEB9FFBEC98FCAD49AE4AAF4B30E78F
:1025B000101582E92DF9EA3EFAEB3FFBE43CFC8082
:1025C000EDC082D58398C3E933F9EA33FAEB33FBE4
:1025D000EC33FCC3E99DEA9EEB9FEC9400B3E4135B
:1025E000F9D002D0E0C44AFAD003D0E0C44BFBD00B
:1025F00004D0E0F5F0540FC44CFCD082158230F4C6
:102600000FD3EC13FCEB13FBEA13FAE913F9058281
:10261000E930E70A74012AFAE43BFBE43CFC0234AB
:1026200047E5829001ABF09001ABE0FA7441C0E065
:102630007426C0E090019DE0C0E0A3E0C0E08A8283
:10264000229001A4E02401F0A3E03400F022E5820E
:102650009001ACF09001ACE0FA74302AFA24C65034
:102660000A74072AFA300B034302208A82022621C9
:10267000E5829001ADF09001ADE0FAC4540FF5820F
:10268000C00212264ED00253020F8A8202264E90BA
:10269000019FE0FAA3E0FBA3E0FCA3E0FD9001A30F
:1026A000E0FE9001AA7420F0EE2EFEED23540142CC
:1026B00006EA2AFAEB33FBEC33FCED33FD9001A67E
:1026C000E0FFC3EE9F4007EEC39FFE43020190016F
:1026D000AAE0149001AAF09001AAE0FF70CA90014C
:1026E0009FEAF0A3EBF0A3ECF0A3EDF09001A3EED2
:1026F000F0227859E624D075F00AA4FA785AE62434
:10270000D02AFA9001AEF078588603BB2D079001CD
:10271000AEC3E49AF09001A67401F09001AEE0FA25
:10272000C3E464808AF063F08095F0503C9001AA85
:102730007403F09001AAE0FBBB0A0050279001A6A9
:10274000E02401F0EB14244DF8EB244DF98704A6A6
:1027500004772E1A9001AEEAF0EA60089001AAEB25
:1027600004F080CF9001AEEAF09001AEE0FA30E7DD
:1027700012784E8603784FA603784E762E9001AEDF
:10278000EA04F09001A8E0FA600E0A9001A6E0FBCE
:102790009001A6EA2BF0800A3016079001A6E024EB
:1027A00001F0784D8602E4BA2D0104FA700620117A
:1027B000033012079001A6E02401F0300F03022835
:1027C0006D301053EA600875822D12262180143076
:1027D000110875822B12262180093012067582207D
:1027E000122621784E8603BB2E0F758230122621C9
:1027F0009001A7E0149001A7F09001A7E0FB1490CE
:1028000001A7F09001A6E0FCC39B40030228BD7520
:10281000823012262180E29001A7E0FB149001A7EC
:10282000F09001A6E0FCC39B50087582201226217F
:1028300080E5784D8603BB2D0875822D12262180F8
:102840001430110875822B1226218009301206756A
:102850008220122621784E8603BB2E6175823012AB
:1028600026219001A7E0149001A7F08050EA6011A2
:1028700075822D1226219001A7E0149001A7F08007
:102880002630111175822B1226219001A7E0149099
:1028900001A7F0801230120F7582201226219001BC
:1028A000A7E0149001A7F0784E8602BA2E0F758229
:1028B000301226219001A7E0149001A7F09001AA00
:1028C0007401F0C2189001AAE0244DF88602BA45BE
:1028D000030229BBBA2E419001AEE0FAC3E4648042
:1028E0008AF063F08095F05012758230C002122693
:1028F00021D0021A9001AEEAF080E19001AEEAF038
:10290000D2189001A8E0FA704D2016030229BB7579
:10291000822E1226210229BB30183B9001AEE0FA2C
:10292000EA30E72D9001A8E0FBC3E464808BF063FC
:10293000F08095F05013758230C002122621D0022B
:102940009001A8E0149001A8F00A9001AEEAF0808E
:10295000CF9001AEEAF03018129001A8E0FAC3E47B
:1029600064808AF063F08095F050289001AAE024FA
:102970004DF886028A821226213018179001AAE0AB
:10298000244DF88602BA2E0280099001A8E0149026
:1029900001A8F09001A7E0149001A7F09001A8E031
:1029A000FAC3E464808AF063F08095F04003201855
:1029B0000A9001AAE02401F00228C59001A8E0FADB
:1029C000C3E464808AF063F08095F0501175823022
:1029D0001226219001A8E0149001A8F080DD300FAC
:1029E000159001A7E0FA149001A7F0EA600875823B
:1029F0002012262180EB229001A8E0FA7003301605
:102A00001174072AFA9001A7E0FB9001A7C39AF07E
:102A1000800B9001A7E0FA24FA9001A7F09001AA98
:102A2000E4F0784D8602BA2B17201114784D7620E9
:102A300020120D9001AA7401F09001A7E02401F08A
:102A4000200F239001A7E0FAC3E464808AF063F0CA
:102A50008095F050117582201226219001A7E01474
:102A60009001A7F080DDC2189001AAE0244DF886FD
:102A700002BA0003022B06BA452A300B0276659093
:102A800001A8E0FAC3E464808AF063F08095F05016
:102A9000117582301226219001A8E0149001A8F04F
:102AA00080DDD2189001AAE0FABA0200E433FA708D
:102AB00018EA70129001A8E0FAC3E464808AF06317
:102AC000F08095F040033018229001AAE0244DF8E0
:102AD00086028A821226219001AAE0FA24FD501C67
:102AE0009001A8E0149001A8F080119001AAE0FAEA
:102AF000BA020930160675822E1226219001AAE02C
:102B00002401F0022A68300F239001A7E0FAC3E401
:102B100064808AF063F08095F0501175822012264F
:102B2000219001A7E0149001A7F080DD22AA83E59F
:102B3000829001B3F0A3EAF09001B3E0FAA3E0FBC6
:102B400090019DEAF0A3EBF09001A4E4F0A3F090D3
:102B500001AFE0FAA3E0FBA3E0FC8A828B838CF058
:102B6000121C4FFD9001AF74012AF0E43BA3F0A3C7
:102B7000ECF0ED70030232E3BD250280030232DB8C
:102B8000C20FC210C211C212C213C214C215C216A1
:102B9000C20CC20DC20E9001A6E4F09001A7F09005
:102BA00001A874FFF09001AFE0FAA3E0FBA3E0FC02
:102BB0008A828B838CF0121C4FFEA3AA82AB839077
:102BC00001AFEAF0A3EBF0A3ECF09001B5EEF0BE9C
:102BD00025088E82122621022B4F8E07BF3000401F
:102BE000468E07EF24C6403F9001A8E0FFBFFF27B5
:102BF000C002C003C0049001A7E075F00AA4FAEE79
:102C000024D09001A72AF09001A7E0D004D003D0EF
:102C100002709DD2108099EF75F00AA4FFEE24D0C7
:102C20009001A82FF080899001B5E0FEBE2E15908E
:102C300001A8E0FFBFFF028003022BB09001A8E4CF
:102C4000F0022BB08E07BF610040128E07EF248583
:102C5000400B9001B574DF5EF0D20B8002C20B9086
:102C600001B5E0FEBE20028075BE2303022CEDBE3E
:102C70002A03022CF2BE2B02805FBE2D028055BEBD
:102C80004202805FBE4303022D70BE4403022F2127
:102C9000BE4503022F47BE4603022F43BE47030231
:102CA0002F4BBE4903022F21BE4C02803BBE4E0378
:102CB000022F4FBE4F03022F2BBE5003022E94BE95
:102CC0005303022DA7BE5503022F33BE5803022F14
:102CD0003B022F8ED20F022BB0D211022BB0D21298
:102CE000022BB0D214022BB0D215022BB0D2160296
:102CF0002BB09001A8E0FFBFFF3B3014139001B24E
:102D0000E0FF14F89001B2F09001A7E6F0022BB0BA
:102D1000C002C003C0049001B2E024FEF89001B2EA
:102D2000F08607088602189001A7EFF0D004D003C0
:102D3000D002022BB03014139001B2E0FF14F890CF
:102D400001B2F09001A8E6F0022BB0C002C003C0AF
:102D5000049001B2E024FEF89001B2F086070886E4
:102D600002189001A8EFF0D004D003D002022BB0DB
:102D70003014129001B2E0FA14F89001B2F0900110
:102D8000B5E6F080169001B2E024FEF89001B2F0B2
:102D90008602088603189001B5EAF09001B5E0F5C7
:102DA00082122621022F939001B2E024FDF89001B7
:102DB000B2F08602088603088604181890019FEA7C
:102DC000F0A3EBF0A3ECF08A828B838CF01221EF5E
:102DD000AA829001A9EAF09001A8E0FBBBFF059050
:102DE00001A8EAF0200F269001A7E0FBC3EA9B5060
:102DF0001C9001A7EBC39AF09001A7E0FA14900190
:102E0000A7F0EA600875822012262180EB90019FCE
:102E1000E0FAA3E0FBA3E0FC8A828B838CF0121C17
:102E20004FFA60399001A8E0FB149001A8F0C3E4C8
:102E300064808BF063F08095F050228A8212262104
:102E400090019FE0FAA3E0FBA3E0FC0ABA00010BAB
:102E500090019FEAF0A3EBF0A3ECF080B0200F0309
:102E6000022F939001A9E0FA9001A7E0FBC3EA9B2F
:102E70004003022F939001A7EBC39AF09001A7E0C3
:102E8000FA149001A7F0EA7003022F9375822012C2
:102E9000262180E89001B2E024FDF89001B2F0868E
:102EA00002088603088604181890019FEAF0A3EB35
:102EB000F0A3ECF09001A1E0FA30E7089001B574BE
:102EC00043F0801FEA546060089001B57450F080B0
:102ED00012EA30E6089001B57449F080069001B519
:102EE0007458F09001B5E0FAF582C00212262175FF
:102EF000823A122621758230122621758278122696
:102F000021D002BA4902800EBA500280099001A075
:102F1000E0F58212267090019FE0F5821226708003
:102F200072D2139001A6740AF080689001A674080A
:102F3000F080609001A6740AF080589001A6741089
:102F4000F08050D20C804CD20D8048D20E8044903C
:102F500001B2E024FDF89001B2F0864608864708E9
:102F60008648181890019FE546F0A3E547F0A3E5D1
:102F700048F09001A4E0FFA3E0FA854682854783EC
:102F80008548F0EF12209EA3EA12209E80058E82D3
:102F9000122621200C09200D06200E030230389045
:102FA00001B2E024FCF89001B2F086020886030822
:102FB000860408860618181890019FEAF0A3EBF023
:102FC000A3ECF0A3EEF090019FE0A3E0A3E0A3E068
:102FD0008A828B838CF0EE1236179001A8E0FABA41
:102FE000FF069001A87406F0300E3E9001A2E0FAB0
:102FF00053027F9001A3EAF0E0EA2A9001A3F09047
:1030000001A1E0FA30E70D9001A3E0FA430201903C
:1030100001A3EAF09001A3E0FA2468400A9001A31A
:10302000E0FABA67005002D20D300D061229F702FD
:103030002B4F1226F2022B4F9001A6E0FA700302EA
:103040002B4F9001B67452F03014479001B2E01447
:10305000F89001B2F0E6FA3395E0FBFCFE90019F98
:10306000EAF0A3EBF0A3ECF0A3EEF030130302318F
:103070000490019FE0FAA3E0A3E0A3E07B007C00C2
:103080007E0090019FEAF0A3EBF0A3ECF0A3EEF03A
:1030900080723015299001B2E024FCF89001B2F062
:1030A0008602088603088604088606181818900108
:1030B0009FEAF0A3EBF0A3ECF0A3EEF080469001C2
:1030C000B2E024FEF89001B2F0860208860318EB05
:1030D0003395E0FCFE90019FEAF0A3EBF0A3ECF047
:1030E000A3EEF020131E90019FE0FAA3E0FBA3E003
:1030F000A3E07C007E0090019FEAF0A3EBF0A3EC3C
:10310000F0A3EEF030163E90019FE0FAA3E0FBA39F
:10311000E0FCA3E0FEEA4B4C4E602A9001A6E0FAE8
:10312000BA0808758230122621801ABA10177582E3
:1031300030122621300B0875827812262180067500
:10314000825812262130133090019FE0FAA3E0FB51
:10315000A3E0FCA3E0FE30E71DC3E49AFAE49BFB86
:10316000E49CFCE49EFE90019FEAF0A3EBF0A3EC4C
:10317000F0A3EEF08002C2139001A9E4F0D2177818
:10318000529001A3E4F0C00012268FD00020171245
:103190009001A3E0C4FAE6FB4AF6189001B6E8F005
:1031A00080069001A3E0FAF69001A9E02401F0B2B4
:1031B0001790019FE0FAA3E0FBA3E0FCA3E0FEEA86
:1031C0004B4C4E70BC9001B6E8F09001A7E0FA704D
:1031D000069001A77401F0201024200F219001A96E
:1031E000E0FA0A9001A7E0FBC3EA9B501175822028
:1031F0001226219001A7E0149001A7F080DF301380
:103200001175822D1226219001A7E0149001A7F0DC
:10321000802D9001A9E0FA602630111175822B12E1
:1032200026219001A7E0149001A7F0801230120F20
:103230007582201226219001A7E0149001A7F020AA
:103240000F239001A7E0FA149001A7F09001A9E0E4
:10325000FBC39A502C3010047A3080027A208A8284
:1032600012262180DD9001A7E0FA9001A9E0FBC3BE
:103270009A50099001A7EAC39BF080059001A7E44A
:10328000F09001B6E0F89001A9E0FA149001A9F0DD
:10329000EA602AB21720170C08E6C4540FFA90010E
:1032A000A3F0800A860253020F9001A3EAF0900176
:1032B000A3E0F582C00012264ED00080C9200F0383
:1032C000022B4F9001A7E0FA149001A7F0EA7003D7
:1032D000022B4F75822012262180E88D8212262132
:1032E000022B4F9001A4E0FAA3E08A82F58322AA80
:1032F00082AB83ACF0FD9001BBEAF0A3EBF0A3EC52
:10330000F0A3EDF09001BFE4F09001BBE0FAA3E080
:10331000FBA3E0FCA3E0FD7E009001B7E0F549A32C
:10332000E0F54AA3E0F54BA3E0F54C235401FF7010
:1033300074C006E5492549FFE54A33F8E54B33F902
:10334000E54C33FE9001B7EFF0A3E8F0A3E9F0A35A
:10335000EEF09001B7E0F549A3E0F54AA3E0F54BA4
:10336000A3E0F54CC3EA9549EB954AEC954BED95F6
:103370004CD0065027E54CC313F54CE54B13F54BE9
:10338000E54A13F54AE54913F5499001B7F0A3E57D
:103390004AF0A3E54BF0A3E54CF080090E9001BF85
:1033A000EEF00233199001BFE0FA9001BBE0FBA3FD
:1033B000E0FCA3E0FDA3E0FE9001B7E0F549A3E047
:1033C000F54AA3E0F54BA3E0F54CC3EB9549EC952A
:1033D0004AED954BEE954C40179001BBEBC39549D8
:1033E000F0EC954AA3F0ED954BA3F0EE954CA3F0CD
:1033F0009001B7E0FBA3E0FCA3E0FDA3E0C313FE54
:10340000ED13FDEC13FCEB139001B7F0A3ECF0A36C
:10341000EDF0A3EEF08A031AEB708F9001BBE0FA97
:10342000A3E0FBA3E0FCA3E08A828B838CF022B9AB
:103430008003EA13B34010EA2401FAE43BFBE43CC6
:10344000FC50047C800582BC000EBB000BBA000857
:10345000E4F5F0F583F58222A2D1E582138CF09297
:10346000F78B838A8222E4F583F58275F080F4A2DB
:10347000D11322E4F583F58275F0C0747F227804BD
:10348000EC7011E58224F8500AF582E4C9CACBFC3D
:10349000D8EF22EC7820058220E713D5820122C3E1
:1034A000E933F9EA33FAEB33FBEC33FCD8EA158263
:1034B00022AA82AB83A2F73392D16002D2F7F582BF
:1034C000ACF0E58124F9F8E6FD08E6FE0886F00890
:1034D000E6A2F73392D56002D2F7F583AFF02279F6
:1034E00001AA82E68F82B5821318E6B5F00E18E6BF
:1034F000B5830918E68A82B58202790022B4800F6A
:10350000E5F0700AE5837006E58270027F00EFB691
:10351000801518B6001018B6000B18B6000608087B
:103520000876002208080822AA83E5829005C2F0E6
:10353000A3EAF09005C4E4F0A3F09005C0E0FAA37C
:10354000E0FB7C109005C2E0FDA3E0FE339219EE93
:10355000CD25E0CD33FE9005C2EDF0A3EEF0900551
:10356000C4E0FDA3E0CD25E0CD33FE9005C4EDF031
:10357000A3EEF03019129005C4E0FDA3E0FE900523
:10358000C474014DF0A3EEF09005C4E0FDA3E0FE8D
:10359000C3ED9AEE9B401D9005C4EDC39AF0EE9BDF
:1035A000A3F09005C2E0FDA3E0FE9005C274014DBA
:1035B000F0A3EEF0DC8E9005C2E0FAA3E08A82F57B
:1035C0008322AA82AB83A2F73392D16002D2F7F5AD
:1035D00082ACF0226040F82582500274FFF582E848
:1035E00024F8501ECCCBCAF9E4CC24F85014CBCA32
:1035F000F9E4CB24F8500BCAF9E4CA24F850037953
:10360000002224086010F8C3EC13FCEB13FBEA1350
:10361000FAE913F9D8F122C0E0F84582458345F074
:103620007009F5F0FBFCFDFE0236E5E823A2F792F7
:10363000E0F8A982AA83D2F7ABF07C007E07C374BE
:103640009798404074FF2EFE740A89F0A4F985F023
:1036500082740A8AF0A4FA85F083740A8BF0A4FBC2
:10366000740529F9EA3582FAEB3583FB740035F0ED
:10367000FCC3EC13FCEB13FBEA13FAE913F908ECB7
:1036800070EF80BAE8C3947FF88B838EF0E4FBFC84
:10369000FDFEFF08C3E933F9EA33FAE58333F58326
:1036A000EB3BD4FBEC3CD4FCED3DD4FDEE3ED4FE34
:1036B000EF3FD4FF602D05F074052BD4FBE43CD420
:1036C000FCE43DD4FDE43ED4FEE43FD4FF75820427
:1036D000C3EF13FFEE13FEED13FDEC13FCEB13FB36
:1036E000D582EDD8AF784DD0E020E704762B80026C
:1036F000762D087906E7C4540F4430F608B906035E
:10370000762E08E7540F4430F60819B902E77645DB
:1037100008E5F020E704762B8004762DF404087584
:10372000F00A844430F608E5F04430F608E4F690F8
:10373000004D75F040220000000000000000000075
:00000001FF
