:100000000200962200000000000000000000000036
:1000100000000000000000000000000000000000E0
:100020000000000064000A00000000021A2A00001C
:100080000000000000000000000000020467000003
:1000900000000002102E75815C1201E8E582600309
:1000A000020102780479007ABE7B057C267D00EC93
:1000B0004D601C88828983E493A3A882A9838A82E5
:1000C0008B83F0A3AA82AB831CBCFFE31D80E07589
:1000D00082007583007CBE7D05EC4D600AE4F0A3D0
:1000E0001CBCFFF51D80F27582007583007C007DCD
:1000F00000EC4D600AE4F0A31CBCFFF51D80F21279
:10010000000312031780FE50574D20583A202566F1
:100110002C2050574D20593A2025660D0A00415495
:100120002B445649444B5944460D0A0041542B5226
:100130004649444644594B0D0A0041542B564552FA
:100140000D0A0041542B424155440D0A0041542BE5
:10015000524649440D0A0041542B445649440D0A65
:100160000041542B5246430D0A0041542B504F5727
:10017000450D0A0041542B434C53530D0A00436F65
:100180006D6D616E643A20257300526573706F6EF9
:1001900073653A2025730D0A007374723A20257333
:1001A0000A004572726F723A20496E70757420733E
:1001B0007472696E6720697320746F6F2073686F43
:1001C000727420746F2073706C69742E0A0025306D
:1001D00035640D0A00303132333435363738394121
:1001E000424344454600000475A7007597DE7597A5
:1001F000AD75FF8075EF0675A71075C12075A70056
:1002000075A90075A900E5A930E7FB75A90375A9D3
:1002100003E5A930E7FB43A41143A60175E101758D
:10022000E20075E341759810758DE6858D8B5389D5
:100230000F438920D28ED29943A50E43A61F758203
:100240000022AA82AB83ACF0FD900000EAF0A3EBA1
:10025000F0A3ECF0A3EDF075A72075930C75C81012
:10026000759400900000E0FAA3E0FBA3E0FCA3E09B
:10027000FD90013BEAF0A3EBF0A3ECF0A3EDF090CE
:10028000A20075F04A7404121A4EAA82AB83ACF035
:10029000FD90013B7418F0E4A3F0A3F0A3F08A8270
:1002A0008B838CF0ED121A4EAA82AB83ACF0FDE486
:1002B000C39AFAE49BFB74019CE49D8A958B96D2C9
:1002C000C943944075A70022AA82AB83ACF0FD908D
:1002D0000008EAF0A3EBF0A3ECF0A3EDF09000042B
:1002E000E0C0E0A3E0C0E0A3E0C0E0A3E0C0E09095
:1002F0000008E0C0E0A3E0C0E0A3E0C0E0A3E0C0ED
:10030000E07407C0E07401C0E07480C0E0121B9E7E
:10031000E58124F5F5812290000C74E8F0A37403C4
:10032000F09001F4120F7F902580E4F5F012024264
:100330001203FB1215F2121A1312044C121013D2EC
:10034000AF90000CE0FAA3E0FB8A828B83120C2DA5
:10035000120C63120C87121952E5828583F090000B
:100360000CF0A3E5F0F0120D6EAA82AB83ACF0FDA9
:100370009005BEEAF0A3EBF0A3ECF0A3EDF0120DB4
:100380007DAA82AB83ACF0FD9005C2EAF0A3EBF04E
:10039000A3ECF0A3EDF09005BEE0FEA3E0FFA3E028
:1003A000F8A3E0F9EE4F4889F0C2F745F07011EA82
:1003B0004B4C8DF0C2F745F07006C291C29280049A
:1003C000D291D2929005BEE0FAA3E0FBA3E0FCA399
:1003D000E0FD9005C2E0FEA3E0FFA3E0F8A3E0F992
:1003E00090012DEEF0A3EFF0A3E8F0A3E9F08A82EC
:1003F0008B838CF0ED1215F502034190011E75F010
:100400008012069390012C75F08012069390013AA9
:1004100075F08012069390014375F0801206939058
:10042000014D75F08012069390015775F080120609
:100430009390016175F08012069390016A75F080C7
:1004400012069390017475F08002069375A71075DB
:10045000980043A60175A26075A37375A4FF75A5E6
:10046000FF43F304D29A22C0E0C082C083C002C01E
:1004700003C004C005C006C007C0D075D000A28C60
:10048000E433FA7B00A2C2E433FC7D00C28CC2C21A
:1004900075A710C29F9005C6E02401F0A3E03400C8
:1004A000F09005C6E0FEA3E0FFC3EE94FAEF64808F
:1004B0009480400D9005C6E4F0A3F09005C8E0A339
:1004C000E0BA0105BB0002D28CBC0105BD0002D21E
:1004D000C2D0D0D007D006D005D004D003D002D0EF
:1004E00083D082D0E032E5829000B4F075A720106E
:1004F000C90280FB9000B4E0F59275A70022AAF033
:10050000AB83E5829000B5F0A3EBF0A3EAF0900096
:10051000B5E0FAA3E0FBA3E0FC8A828B838CF012A7
:100520001C8AFD60238D82C002C003C0041204E651
:10053000D004D003D0020ABA00010B9000B5EAF053
:10054000A3EBF0A3ECF080D19000B5EAF0A3EBF0C0
:10055000A3ECF02275A72010C80280FB53C83FAA65
:100560009275A7008A822275A7207A007B0020C896
:100570002675A700758214C002C003120F4CD00369
:10058000D00275A7200ABA00010BBAA8E1BB61DE50
:1005900075A70075820A22C2C853C83FAA9275A7E0
:1005A000008A8222AAF0AB83E5829000B8F0A3EB28
:1005B000F0A3EAF09000B8E0FAA3E0FBA3E0FCC0EF
:1005C00002C003C004120567AD82D004D003D0027C
:1005D000BD0A209000B8EAF0A3EBF0A3ECF0900085
:1005E000B8EAF0A3EBF0A3ECF08A828B838CF0E402
:1005F0000220D98A828B838CF0ED1220D9A3AA82A3
:10060000AB839000B8EAF0A3EBF0A3ECF080B075F8
:10061000A720A2C8920875A70022AA83E5829000AD
:10062000BBF0A3EAF09000BBE0FAA3E0FB7C007D06
:1006300000C3EC9AED9B50477E00BE04005039C0C9
:1006400002C003C004C005C00612060FE433D00682
:10065000D005D004D003D0026001227582FAC00216
:10066000C003C004C005C006120F4CD006D005D090
:1006700004D003D0020E80C20CBC00B50D80B222A3
:10068000C2CC30C80B9000BDE592F0A3E4F080F23C
:10069000D2CC22AAF0AB83E5829000BFF0A3EBF0AE
:1006A000A3EAF09000BFE0C0E0A3E0C0E0A3E0C098
:1006B000E0747EC0E07401C0E07480C0E0121B9E54
:1006C000E58124FAF581C2A0900005120F7F900009
:1006D000BFE0FAA3E0FBA3E0FC8A828B838CF012DC
:1006E00004FE90000E75F0001205A490000A120F8F
:1006F0007FD2A0740EC0E07400C0E0E4C0E0748A51
:10070000C0E07401C0E07480C0E0121B9EE581244B
:10071000FAF58122AAF0AB83E5829000C2F0A3EB48
:10072000F0A3EAF09000C5E4F0A3F09000C77401D4
:10073000F0E4A3F09000C9E4F0A3F09000C2E0FA66
:10074000A3E0FBA3E0FC8A828B838CF0121C8AFD61
:10075000BD2D119000C774FFF0A3F09000C9740183
:10076000F0E4A3F09000C9E0FDA3E0FEED2AFFEE67
:100770003BF88C018F82888389F0121C8AFFBF00AE
:10078000030207FAC3EF648094B0406274B98FF03B
:1007900063F08095F04057C002C003C0049000C5CC
:1007A000E0F8A3E0F9900167E8F0A3E9F090000A0F
:1007B000C002C003C004C005C006C007121E40A886
:1007C00082A983D007D006D005D004D003D002EF91
:1007D0003395E0FAEF24D0FFEA34FFFA9000C5EF3A
:1007E00028F0EA39A3F0D004D003D00280049000AE
:1007F00000220DBD00010E02076C9000C5E0FAA3B7
:10080000E0FB9000C7E0FCA3E0FD900167EAF0A3E5
:10081000EBF08C828D83021E40AAF0AB83E58290C0
:1008200000D1F0A3EBF0A3EAF09000D1E0FAA3E04E
:10083000FBA3E0FC8A828B838CF012222A8582281B
:100840008583299000D4E4F0A3F09000D6E4F0A3CF
:10085000F09000D1E0FCA3E0FDA3E0FEC004C005E1
:10086000C006C004C005C0067499C0E07401C0E0B1
:100870007480C0E0121B9EE58124FAF581D006D079
:1008800005D004AF28A829C3EF9406E864809480BB
:10089000501674A2C0E07401C0E07480C0E0121B66
:1008A0009E158115811581228C078D008E018F8206
:1008B000888389F0121C8AF524602C742DB52420BD
:1008C000EFB50413E8B5050FE9B5060B9000D47435
:1008D00001F0E4A3F080099000D67401F0E4A3F0E5
:1008E0000FBF00CA0880C79000D4E0FFA3E0F84F14
:1008F000606A9000CBE0F525A3E0F526A3E0F5279C
:1009000074012525FAE43526FBAF2790014C7401CC
:100910002CF0E43DA3F0A3EEF090014F7403F0E45B
:10092000A3F08A828B838FF0C004C005C006121B1F
:10093000C8D006D005D00474042525FAE43526FB7A
:10094000AF278A828B838FF0E41220D98525828598
:1009500026838527F0742D1220D980509000CBE09B
:10096000FFA3E0F8A3E0F990014CECF0A3EDF0A3B5
:10097000EEF090014F7403F0E4A3F08F8288838936
:10098000F0C004C005C006121BC8D006D005D004B4
:100990009000CBE0FFA3E0F8A3E0F974032FFFE49D
:1009A00038F88F82888389F0E41220D99000D6E04D
:1009B000FFA3E0F84F60719000CEE0F525A3E0F5CD
:1009C00026A3E0F52774012525F52AE43526F52B25
:1009D00085272CE5282CF8E5293DF98E02E824FD31
:1009E000F8E934FFF990014CE8F0A3E9F0A3EAF04C
:1009F00090014F7403F0E4A3F0852A82852B838550
:100A00002CF0121BC874042525FAE43526FBAF2709
:100A10008A828B838FF0E41220D9852582852683F4
:100A20008527F0742D0220D99000CEE0FAA3E0FBD8
:100A3000A3E0FFE5282CFCE5293DFDEC24FDFCEDC1
:100A400034FFFD90014CECF0A3EDF0A3EEF090012B
:100A50004F7403F0E4A3F08A828B838FF0121BC8DB
:100A60009000CEE0FAA3E0FBA3E0FC74032AFAE4D2
:100A70003BFB8A828B838CF0E40220D9AAF0AB8303
:100A8000E5829000DEF0A3EBF0A3EAF090000512FF
:100A90001FA5AA82AB837C00900005C002C003C0E2
:100AA00004121FA5AD82AE83D004D003D0028D36D0
:100AB0008E377538009000DEE0F52DA3E0F52EA30B
:100AC000E0F52FE4F8F9F530F531E530252DF53274
:100AD000E531352EF533852F348532828533838594
:100AE00034F0121C8AF535E4B53502807185358203
:100AF000C002C003C004C000C00112220DE582D0B4
:100B000001D000D004D003D002701085328285332A
:100B1000838534F0121C8AFDBD2D388805890608AE
:100B2000B8000109ED252DF532EE352EF533852F70
:100B300034E530252DFDE531352EFEAF2F8D828E2B
:100B4000838FF0121C8AFD8532828533838534F0D1
:100B50001220D90530E4B530020531020ACAE82571
:100B60002DF8E9352EF9AD2F888289838DF0E412B6
:100B700020D99000CBEAF0A3EBF0A3ECF09000CEEC
:100B8000E536F0A3E537F0A3E538F0852D82852E14
:100B900083852FF0C002C003C004120819D004D00E
:100BA00003D0029000D8E0FDA3E0FEA3E0FF8A821C
:100BB0008B838CF0C002C003C004C005C006C00710
:100BC000120714A882A983D007D006D0058D828E83
:100BD000838FF0E81220D9A3E91220D99000DBE03E
:100BE000FDA3E0FEA3E0FF8536828537838538F0DC
:100BF000C005C006C007120714A882A983D007D079
:100C000006D005D004D003D0028D828E838FF0E809
:100C10001220D9A3E91220D98A828B838CF0121E6C
:100C2000D58536828537838538F0021ED5AA83E5BF
:100C3000829000E1F0A3EAF09000E1E0C0E0A3E0E0
:100C4000C0E074CEC0E07401C0E07480C0E0745EA7
:100C5000C0E07400C0E0E4C0E0122189E58124F81E
:100C6000F581229005C8E0FAA3E0FB4A70189005D0
:100C7000C8E0A3E090005E75F0001204FE1206804A
:100C80009000C802061A2212060F506290000E75DC
:100C9000F0001205A412068090000E75F0001222DA
:100CA0002AAA82AB839000B2EAF0A3EBF08A048B0D
:100CB00005C3EC940AED648094804032740C9AE48D
:100CC00064808BF063F08095F040239000D874AE80
:100CD000F0A37400F0A3E4F09000DB74B0F0A37410
:100CE00000F0A3E4F090000E75F000020A7C22AA46
:100CF000F0AB83E5829000E3F0A3EBF0A3EAF09081
:100D000000E3E0FAA3E0FBA3E0FC7D007E007F00AF
:100D10007800C005C006EF2AF9E83BFD8C06898201
:100D20008D838EF0121C8AF539E4B53906D006D0D1
:100D3000058036D006D005853982C002C003C004C4
:100D4000C005C006C007C00012220DE582D000D049
:100D500007D006D005D004D003D00260050DBD0039
:100D6000010E0FBF00AC0880A98D828E83229000F7
:100D7000AEE0FAA3E0FB8A828B830221E29000B00E
:100D8000E0FAA3E0FB8A828B830221E2AAF0AB8324
:100D9000E5829000E6F0A3EBF0A3EAF09000E6E035
:100DA000FAA3E0FBA3E0FC8A828B838CF0121C8AFE
:100DB000FD60238D82C002C003C0041221EFD00465
:100DC000D003D0020ABA00010B9000E6EAF0A3EBD0
:100DD000F0A3ECF080D19000E6EAF0A3EBF0A3ECF6
:100DE000F022AA82AB83ACF0FD9000EDEAF0A3EB19
:100DF000F0A3ECF0A3EDF0900111E4F09000EDE031
:100E0000FAA3E0FBA3E0FCA3E0FD30E72975822D07
:100E1000C002C003C004C0051221EFD005D004D029
:100E200003D0029000EDC3E49AF0E49BA3F0E49CAD
:100E3000A3F0E49DA3F09000E9E0F53EA3E0F53FC8
:100E40007C1F7D009000EBE0FEA3E0FF9000EDE052
:100E5000F53AA3E0F53BA3E0F53CA3E0F53DC3E4A0
:100E6000953AE4953BE4953CE46480853DF063F07D
:100E70008095F0E433F8C3E49EE464808FF063F07F
:100E80008095F0E433F9487003020F388C008D012F
:100E90001CBCFF011DE824F1F540E93400F5418553
:100EA0003E42E53FF5433395E0F544F54590015F5B
:100EB000E542F0A3E543F0A3E544F0A3E545F08562
:100EC0003A82853B83853CF0E53DC004C005C00601
:100ED000C007121D77AA82AB83EA24D5F582EB34D2
:100EE00001F583E493854082854183F0900157E5C5
:100EF00042F0A3E543F0A3E544F0A3E545F0853ACD
:100F000082853B83853CF0E53D121CA6AA82AB831B
:100F1000A8F0F9D007D006D005D0049000EDEAF093
:100F2000A3EBF0A3E8F0A3E9F0EE4F7003020E4C40
:100F30001EBEFF011F020E4CEC0424F1FAE4340043
:100F4000FB7C008A828B838CF0020D8CE582900101
:100F500012F0438E407592B87593FF8592948593F5
:100F600095759104900112E0FA7B00C3EB9A500B47
:100F7000E59130E7FB53917F0B80F075910022AA39
:100F800083E582900113F0A3EAF0900113E0FAA345
:100F9000E0FB7C007D00C3EC9AED9B502B7E00BEF5
:100FA0000400501D7582FAC002C003C004C005C011
:100FB00006120F4CD006D005D004D003D0020E800C
:100FC000DE0CBC00D10D80CE22AA82AB83ACF0FD3A
:100FD000900115EAF0A3EBF0A3ECF0A3EDF0900183
:100FE00015E0FAA3E0FBA3E0FCA3E0FDC002C00310
:100FF000C004C0058A828B838CF0ED12227DAA8208
:10100000AB83ACF0FDE58124FCF5818A828B838C77
:10101000F0ED2275A71075C00043A60475D2F075D7
:10102000D3F175D4FF75D5FF43F308D2C222C02097
:10103000C0E0C0F0C082C083C002C003C004C005CD
:10104000C006C007C000C001C0D075D000A28CE4AB
:1010500033FA7B00A2C2E433FC7D00C28CC2C275AD
:10106000A710C2C79005DCE0FEA3E0FF4E600302BC
:1010700011C09005CAE0FEA3E0FFC374649EE4645F
:10108000808FF063F08095F050079005CAE4F0A3DC
:10109000F09005CCE0FEA3E0FF30E70302113490AE
:1010A00005CAE0FEA3E0FF8E828F83C002C003C0AA
:1010B00004C0051221E2AE82AF83A8F0F99005D0FA
:1010C000E0C0E0A3E0C0E0A3E0C0E0A3E0C0E08EA9
:1010D000828F8388F0E9122320E58124FCF581E5E5
:1010E0008224FF9209B392A49005CAE0FEA3E0FF18
:1010F0008E828F831221E2AE82AF83A8F0F9900135
:1011000019E0C0E0A3E0C0E0A3E0C0E0A3E0C0E0DD
:101110008E828F8388F0E9122320E58124FCF581FB
:10112000D005D004D003D002E58224FF9209B39207
:10113000A20211C09005CAE0FEA3E0FF8E828F8359
:10114000C002C003C004C0051221E2AE82AF83A872
:10115000F0F99005D0E0C0E0A3E0C0E0A3E0C0E07B
:10116000A3E0C0E08E828F8388F0E9122320E5821D
:1011700024FF92A4E58124FCF5819005CAE0FEA33A
:10118000E0FF8E828F831221E2AE82AF83A8F0F956
:10119000900119E0C0E0A3E0C0E0A3E0C0E0A3E05C
:1011A000C0E08E828F8388F0E9122320E58224FF3D
:1011B00092A2E58124FCF581D005D004D003D002B1
:1011C0009005CAE02401F0A3E03400F0BA0105BBA9
:1011D0000002D28CBC0105BD0002D2C2D0D0D00129
:1011E000D000D007D006D005D004D003D002D083E1
:1011F000D082D0F0D0E0D02032C2A4C2A2C2A3C21A
:10120000A122C2A3C2A122D2A3D2A122AA82AB83CD
:10121000ACF0FD900121EAF0A3EBF0A3ECF0A3ED1C
:10122000F0900121E0F513A3E0F514A3E0F515A378
:10123000E0F516E4C0E0C0E0C0E0C0E085138285C0
:1012400014838515F0E516122395AE82E58124FC02
:10125000F581EE600302130390011DE0FFA3E0F8A7
:10126000A3E0F9A3E08F82888389F0122361AA8228
:10127000AB83C002C0031223C51221E2AC82AD834E
:10128000AFF0F89005D0ECF0A3EDF0A3EFF0A3E8F9
:10129000F08513828514838515F0E51612236112FB
:1012A00023C5AC82AD83D003D0027464C39CFCE43C
:1012B0009DFD8A828B83C004C0051223C5AA82AB20
:1012C00083D005D004900167EAF0A3EBF08C828D07
:1012D00083121E40AA82AB8390018D7464F0E4A354
:1012E000F08A828B831223D41221E2AA82AB83ACD0
:1012F000F0FD9005D4EAF0A3EBF0A3ECF0A3EDF041
:101300000213B9EE70030213B98513828514838525
:1013100015F0E5161223611223C5AA82AB8374640B
:10132000C39AFAE49BFB90011DE0FCA3E0FDA3E05F
:10133000FEA3E08C828D838EF0C002C00312236175
:10134000AC82AD83C004C0051223C5AE82AF83D08A
:1013500005D004D003D002900167EEF0A3EFF08A2D
:10136000828B83C004C005121E40AA82AB83900109
:101370008D7464F0E4A3F08A828B831223D412214B
:10138000E2AA82AB83AEF0FFD005D0049005D0EA8C
:10139000F0A3EBF0A3EEF0A3EFF08C828D83122389
:1013A000C51221E2AA82AB83ACF0FD9005D4EAF02D
:1013B000A3EBF0A3ECF0A3EDF090011DE0FAA3E0A5
:1013C000FBA3E0FCA3E08A828B838CF0122361AA4A
:1013D00082AB83C002C0031223C5AC82AD83D003AD
:1013E000D002C374199CE464808DF063F08095F0A2
:1013F00040399005D4E0C0E0A3E0C0E0A3E0C0E045
:10140000A3E0C0E090666675F066743F12227DAC82
:1014100082AD83AEF0FFE58124FCF581900119ECEB
:10142000F0A3EDF0A3EEF0A3EFF0228A828B83C04D
:1014300002C0031223C5AC82AD83D003D002C374B3
:10144000329CE464808DF063F08095F04039900523
:10145000D4E0C0E0A3E0C0E0A3E0C0E0A3E0C0E0CF
:1014600090333375F073743F12227DAC82AD83AE3E
:10147000F0FFE58124FCF581900119ECF0A3EDF07B
:10148000A3EEF0A3EFF0228A828B83C002C0031286
:1014900023C5AC82AD83D003D002C3744B9CE464FB
:1014A000808DF063F08095F040399005D4E0C0E085
:1014B000A3E0C0E0A3E0C0E0A3E0C0E09033337558
:1014C000F073743F12227DAC82AD83AEF0FFE581F4
:1014D00024FCF581900119ECF0A3EDF0A3EEF0A34C
:1014E000EFF0228A828B831223C5AA82AB83C37456
:1014F000649AE464808BF063F08095F04039900545
:10150000D4E0C0E0A3E0C0E0A3E0C0E0A3E0C0E01E
:1015100090333375F073743F12227DAA82AB83AC93
:10152000F0FDE58124FCF581900119EAF0A3EBF0D0
:10153000A3ECF0A3EDF0229005D4E0C0E0A3E0C05E
:10154000E0A3E0C0E0A3E0C0E090333375F0737433
:101550003F12227DAA82AB83ACF0FDE58124FCF52D
:1015600081900119EAF0A3EBF0A3ECF0A3EDF022D7
:10157000AA82AB83ACF0FD900129EAF0A3EBF0A3C3
:10158000ECF0A3EDF0900125E0FAA3E0FBA3E0FC72
:10159000A3E0FD900129E0FEA3E0FFA3E0F8A3E0B3
:1015A000F9C006C007C000C001C006C007C000C027
:1015B000018A828B838CF0ED122350AA82E581246C
:1015C000FCF581D001D000D007D006EA7023C0E03E
:1015D000C0E0C0E0C0E08E828F8388F0E9122395DE
:1015E000AA82E58124FCF581EA700302120202124C
:1015F00007220211F9AA82AB83ACF0FD900131EA17
:10160000F0A3EBF0A3ECF0A3EDF0900131E0FAA32E
:10161000E0FBA3E0FCA3E08A828B838CF0122361C1
:10162000E5828583F09005CEF0A3E5F0F090012DE2
:10163000E0FAA3E0FBA3E0FCA3E08A828B838CF0BA
:10164000122361AA82AB839005CCEAF0A3EBF08A67
:10165000828B831221E2AA82AB83ACF0FD9005DA83
:10166000E0FEA3E0FF8E828F83C002C003C004C0EF
:10167000051221E2AE82AF83A8F0F9D005D004D0E4
:1016800003D002900125EEF0A3EFF0A3E8F0A3E968
:10169000F08A828B838CF0ED1215709005CEE0FA03
:1016A000A3E0FB8A828B831221E2AA82AB83ACF097
:1016B000FD9005CCE0FEA3E0FF8E828F83C002C0C8
:1016C00003C004C0051221E2AE82AF83A8F0F9D0B6
:1016D00005D004D003D00290011DEEF0A3EFF0A3DB
:1016E000E8F0A3E9F08A828B838CF0ED12120C9063
:1016F00005CEE0FAA3E0FB9005D8EAF0A3EBF0906A
:1017000005CCE0FAA3E0FB9005DAEAF0A3EBF022C7
:10171000AA83E582900135F0A3EAF0C2AFC28C53F0
:1017200089F0438901C28C758A00758C00C28DD204
:101730008C7A007B00309019108D0280F80ABA0074
:10174000010BBA0AF0BB00EDC28C900000E4F5F08A
:1017500022C28C758A00758C00C28DD28C7A007B77
:1017600000209019108D0280F80ABA00010BBA0A05
:10177000F0BB00EDC28C900000E4F5F022C28C7545
:101780008A00758C00C28D900137E4F0A3F0D28CF2
:10179000900135E0FAA3E0FB7C008C057E00C3EDF0
:1017A0009AEE64808BF063F08095F05031900137B1
:1017B000E0FDA3E0FE30900C108D0280F80DBD001E
:1017C000F40E80F120900C108D0280F80DBD00F415
:1017D0000E80F1900137EDF0A3EEF00C80BCC28CCE
:1017E000D2AF900137E0FAA3E0FB8B058A047B00BF
:1017F0007A00AF8C7E00EF3395E0F8F9EE2AFAEF2D
:101800003BFBE83CFCE93DFDAE8AE4FF3395E0F8A4
:10181000F9EE2AFAEF3BFBE83CFCE93D8A828B8338
:101820008CF022900005121710AA82AB83ACF0FD59
:10183000900191EAF0A3EBF0A3ECF0A3EDF090009F
:101840000CE4F5F0C002C003C004C0051224491224
:101850002510AE82AF83A8F0F9C006C007C000C053
:101860000190A95075F0AB744D12253DAE82AF8347
:10187000A8F0F9E58124FCF5818E828F8388F0E958
:101880001224B5AE82AF83A8F0F9D005D004D003FE
:10189000D002C3E49AE49BE49CE464808DF063F09E
:1018A0008095F050088E828F8388F0E922900000A6
:1018B000E4F5F0229005E0E0FAA3E0FB9005DEE01D
:1018C000FCA3E0FD900167EAF0A3EBF08C828D832E
:1018D000C002C003C004C005121E40AE82AF83D058
:1018E00005D004D003D00290018DEA2CF0EB3DA38B
:1018F000F08E828F831223D41221E2AA82AB83ACB2
:10190000F0FDE4C0E0C0E0747AC0E07444C0E08A56
:10191000828B838CF0ED12253DAA82AB83ACF0FD67
:10192000E58124FCF581E4C0E0C0E0747AC0E07495
:1019300044C0E08A828B838CF0ED12253DAA82ABF5
:1019400083ACF0FDE58124FCF5818A828B838CF0E9
:10195000ED22121823AA82AB83ACF0FDC002C003B3
:10196000C004C0051218B4AE82AF83A8F0F9D00548
:10197000D004D003D0028A828B838CF0EDC006C0E5
:1019800007C000C001122510AA82AB83ACF0FDC0D5
:1019900002C003C004C005900FDB75F0C97440128B
:1019A000227DAA82AB83ACF0FDE58124FCF5818A1F
:1019B000828B838CF0ED120FC912227DAA82AB8339
:1019C000ACF0FDE58124FCF581C002C003C004C079
:1019D0000590000075F07A744412253DAA82AB830D
:1019E000ACF0FDE58124FCF581C002C003C004C059
:1019F0000590240075F074744912227DAA82AB838D
:101A0000ACF0FDE58124FCF5818A828B838CF0EDBE
:101A100002236175C800438E1075CAAB75CBDD75A6
:101A2000CEFF75CFFFD2ADD2CA2275A700C2CFB20A
:101A30008632AA83E582900139F0A3EAF090013959
:101A4000E0FAA3E0FB4A6003D2CA22C2CA22AA82F9
:101A5000AB83ACF0FD90013FEAF0A3EBF0A3ECF018
:101A6000A3EDF0900143E4F0A3F0A3F0A3F0900104
:101A70003BE0FAA3E0FBA3E0FCA3E0FD7549209066
:101A8000013FE0FFA3E0F8A3E0F9A3E0FE33920AF0
:101A9000EF2FFFE833F8E933F9EE33FE90013FEF23
:101AA000F0A3E8F0A3E9F0A3EEF0900143E0FEA379
:101AB000E0FFA3E0F8A3E0F9EE2EFEEF33FFE833FA
:101AC000F8E933F9900143EEF0A3EFF0A3E8F0A3B7
:101AD000E9F0300A1E900143E0FFA3E0F8A3E0F92B
:101AE000A3E0FE90014374014FF0A3E8F0A3E9F0F6
:101AF000A3EEF0900143E0FEA3E0FFA3E0F8A3E033
:101B0000F9C3EE9AEF9BE89CE99D4031900143EECA
:101B1000C39AF0EF9BA3F0E89CA3F0E99DA3F0909B
:101B2000013FE0FEA3E0FFA3E0F8A3E0F990013F4E
:101B300074014EF0A3EFF0A3E8F0A3E9F0D5490259
:101B40008003021A7F90013FE0FAA3E0FBA3E0FCD0
:101B5000A3E08A828B838CF022E582900147F0908B
:101B60000147E0F5820221EFAAF0AB83E582900104
:101B700049F0A3EBF0A3EAF0900149E0FAA3E0FBFF
:101B8000A3E0FC900148E0FD9001A7EAF0A3EBF090
:101B9000A3ECF09001AAEDF0901B59022B68C0084D
:101BA000858108E50824FBFAE50824FBF89001A7E5
:101BB000E6F008A3E6F008A3E6F09001AAEAF090A8
:101BC0001B59122B68D00822AAF0AB83E582900142
:101BD00051F0A3EBF0A3EAF0900151E0FAA3E0FB8F
:101BE000A3E0FC900154EAF0A3EBF0A3ECF0900129
:101BF0004FE0FDA3E0FE90014CE0FFA3E0F8A3E07E
:101C0000F9ED4E60348F82888389F0121C8AF54981
:101C100060271DBDFF011E0FBF0001088A828B8354
:101C20008CF0E5491220D9A3AA82AB83900151EA36
:101C3000F0A3EBF0A3ECF080C8900151EAF0A3EB25
:101C4000F0A3ECF08D078E001DBDFF011EEF486074
:101C50001C8A828B838CF0E41220D9A3AA82AB83E6
:101C6000900151EAF0A3EBF0A3ECF080D790015182
:101C7000EAF0A3EBF0A3ECF0900154E0FAA3E0FB50
:101C8000A3E0FC8A828B838CF02220F71430F614B8
:101C90008883A88220F507E6A88375830022E28066
:101CA000F7E49322E022AA82AB83ACF0FD90015BC3
:101CB000EAF0A3EBF0A3ECF0A3EDF090015BE0FA07
:101CC000A3E0FBA3E0FCA3E0FD33E433FE6013C319
:101CD000E49AF517E49BF518E49CF519E49DF51AD0
:101CE00080088A178B188C198D1AAA17AB18AC1993
:101CF000AD1A900157E0F517A3E0F518A3E0F51928
:101D0000A3E0F51A33E433FF6017C3E49517F51B1E
:101D1000E49518F51CE49519F51DE4951AF51E8057
:101D20000C85171B85181C85191D851A1E90013BF3
:101D3000E51BF0A3E51CF0A3E51DF0A3E51EF08A6A
:101D4000828B838CF0EDC006C007121A4EAA82ABBC
:101D500083ACF0FDD007D006EF6E6013C3E49AFEAB
:101D6000E49BFFE49CF8E49D8E828F8388F0228AB6
:101D7000828B838CF0ED22AA82AB83ACF0FD9001C4
:101D800063EAF0A3EBF0A3ECF0A3EDF0900163E0C5
:101D9000FAA3E0FBA3E0FCA3E0FD33E433FE601311
:101DA000C3E49AF509E49BF50AE49CF50BE49DF580
:101DB0000C80088A098B0A8C0B8D0CAA09AB0AAC23
:101DC0000BAD0C90015FE0F509A3E0F50AA3E0F587
:101DD0000BA3E0F50C30E717C3E49509F50DE49586
:101DE0000AF50EE4950BF50FE4950CF510800C85C3
:101DF000090D850A0E850B0F850C109001AFE50DBE
:101E0000F0A3E50EF0A3E50FF0A3E510F08A828BB6
:101E1000838CF0EDC00612332AAA82AB83ACF0FDAE
:101E2000D006EE6013C3E49AFEE49BFFE49CF8E462
:101E30009D8E828F8388F0228A828B838CF0ED22A4
:101E4000AA83AB828BF0900167E0A4F8A9F08AF036
:101E5000E0A429F98BF0A3E0A429F583888222224B
:101E6000AA83E58290016BF0A3EAF090016BE0FA9F
:101E7000A3E0FB4A700490000022EA24FCFAEB3451
:101E8000FFFB9005E2E0FCA3E0FD90016DECF0A308
:101E9000EDF0900169E4F0A3F090016DE0FCA3E0A7
:101EA000FD4C6025EAB50406EBB50502801B9001E8
:101EB00069ECF0A3EDF08C828D83E0FCA3E0FD9053
:101EC000016DECF0A3EDF080D090016DE0FAA3E09D
:101ED0008A82F58322AAF0AB83E58290016FF0A39A
:101EE000EBF0A3EAF090016FE0FAA3E0FBA3E08A35
:101EF000828B83121E60AA82AB83EA4B602890011A
:101F000069E0FCA3E0FD4C700B8A828B83A3A3E401
:101F1000F0A3F0228A828B83E0FAA3E0FB8C828D0F
:101F200083EAF0A3EBF02290017274B8F0A374017D
:101F3000F09001E6E493FA740193FB900174EAF0E7
:101F4000A3EBF074B84401701A900172740124B8C4
:101F5000F0E43401A3F01ABAFF011B900174EAF017
:101F6000A3EBF0900172E0FAA3E0FB9005E2EAF047
:101F7000A3EBF0900174E0FCA3E0FDEC2AFCED3B48
:101F8000FDEC24FEFCED34FFFD8A828B83ECF0A394
:101F9000EDF08C828D83E4F0A3F08A828B83A3A37F
:101FA000E4F0A3F022AA83E582900176F0A3EAF0A0
:101FB000900176E0FAA3E0FBC374FB9A74FF9B5098
:101FC000049000002290017674042AF0E43BA3F010
:101FD0009005E2E0FAA3E0FB4A7003121F27900588
:101FE000E2E0FAA3E0FB900178EAF0A3EBF09001C5
:101FF00076E0FAA3E0FB900178E0FCA3E0FD8C82A0
:102000008D83E0FEA3E0FF8E118F128C008D01E521
:1020100011C398F511E51299F5128C828D83A3A353
:10202000E0F8A3E0F9E511C398F8E51299F9C3E8DF
:102030009AE99B400D90017A74042CF0E43DA3F0E2
:102040008023900178EEF0A3EFF0900178E0FCA3FC
:10205000E0FD8C828D83E0FCA3E0FD4C7098900144
:102060007AE4F0A3F090017AE0FCA3E0FD4C605D1F
:10207000900178E0FCA3E0FD74022CFEE43DFF8EAD
:10208000828F83E0F8A3E0F948700B8E828F83EA99
:10209000F0A3EBF08037E82CF8E93DF98C828D83D2
:1020A000E0FEA3E0FF88828983EEF0A3EFF08C824C
:1020B0008D83E8F0A3E9F088828983A3A3EAF0A3E3
:1020C000EBF090017A740428F0E439A3F090017ADF
:1020D000E0FAA3E08A82F5832220F71030F6118817
:1020E00083A88220F507F6A88375830022F280F783
:1020F000F022E582900180F090017DE0FAA3E0FB00
:10210000A3E0FC900180E08A828B838CF01220D9BE
:1021100090017D74012AF0E43BA3F0A3ECF022AA25
:10212000F0AB83E582900185F0A3EBF0A3EAF09099
:102130000185E0FAA3E0FBA3E0FC90017DEAF0A3B7
:10214000EBF0A3ECF0900181E0FAA3E0FBA3E0FC4C
:10215000900184E0FD9001A7EAF0A3EBF0A3ECF07E
:102160009001AAEDF09020F2122B68AA82AB839026
:10217000017DE0FCA3E0FDA3E0FE8C828D838EF068
:10218000E41220D98A828B8322C008858108E50861
:1021900024F8FAE50824FBF890017DE6F008A3E6B0
:1021A000F008A3E6F0E50824F8F89001A7E6F008A7
:1021B000A3E6F008A3E6F09001AAEAF09020F2125C
:1021C0002B68AA82AB8390017DE0FCA3E0FDA3E035
:1021D000FE8C828D838EF0E41220D98A828B83D08C
:1021E0000822AC83AB827A007900748E022519E54F
:1021F00082900188F0900188E0FABA0A08109902EA
:1022000080FB75990D10990280FB8A9922E58290D6
:102210000189F0900189E0FABA30004009EA24C649
:1022200040047582012275820022AAF0AB83E58208
:1022300090018AF0A3EBF0A3EAF07A007B00900112
:102240008AE0FCA3E0FDA3E0FE8C828D838EF01279
:102250001C8AFFA3AC82AD8390018AECF0A3EDF061
:10226000A3EEF0EF60070ABA00DF0B80DC90018A72
:10227000ECF0A3EDF0A3EEF08A828B83221234EC13
:10228000BC000302348BEF60FA30D502B2D1E58393
:10229000B4FF030234A1E582B4FF030234A1258315
:1022A00040072482400B02348B24831450030234F1
:1022B000A1F582EA8DF0A4A8F0EA8EF0A428F8E453
:1022C00035F0F9EB8DF0A428E935F0F9E433CA8F45
:1022D000F0A429F9EA35F0FAEBF88EF0A429F9EA2E
:1022E00035F0FAE433FBEC8DF0A429F9EA35F0FA85
:1022F000E43BFBE88FF0A42AFAEB35F0FBE433CCA7
:10230000FD8EF0A42AFAEB35F0FBE43CFCED8FF0F7
:10231000A42BFBEC35F0FC20E7031234B902346A3D
:10232000FFA8811818123538D2D133E6400730E7BC
:102330000B7582012220E70675820022C2D1123578
:102340001AE97003F5822230D101B3E433F5822219
:10235000FFA881181812353812351AE96401F58280
:10236000221224B5700AE582458345F0700122E40B
:1023700030D112F4700BE5F0F47006E58330E7011C
:102380002290800022700AE5F07006E58320E701C4
:1023900022907FFF22FFA8811818123538D2D1333E
:1023A000E6400730E70B7582002220E706758201C0
:1023B00022C2D112351AE97003F5822220D101B36D
:1023C000E433F58222E58330E709F4F583E582F40E
:1023D000F582A322AA83E58290018FF0A3EAF09010
:1023E000018FE0FAA3E0FB33E433FC6009C3E49A15
:1023F000FDE49BFE80048A058B068D028E0390010E
:102400008DE0FDA3E0FE33E433FF6009C3E49DF8F3
:10241000E49EF980048D008E019005B8E8F0A3E9F0
:10242000F08A828B83C004C007123563AA82AB8313
:10243000D007D004EF6C600CC3E49AFCE49BFD8CE5
:10244000828D83228A828B8322A882A983AAF0FBB1
:1024500088F0900191E0A4FCADF089F0E0A42DFD9E
:10246000E435F0FE88F0A3E0A42DFDE5F03EFEE4A7
:1024700033FF89F0E0A42EFEE5F03FFF88F0A3E0F3
:10248000A42EFEE5F03FFF8AF0900191E0A42EFE1D
:10249000E5F03FFF8BF0E0A42FFF8AF0A3E0A42F2C
:1024A000FF89F0A3E0A42FFF88F0A3E0A42F8EF013
:1024B0008D838C82221235FDC3749E9582403979BA
:1024C0000012360F30D126E9F42401F582EAF43403
:1024D00000F583EBF43400F5F0ECF43400700AE519
:1024E00082458345F0700122E430E70F22EC20E7BB
:1024F0001489828A838BF02230D10AE4F582F58335
:10250000F5F074802274FFF582F583F5F0747F2274
:10251000FCABF0AA83A982749EF582C2D1EC30E7AD
:1025200016D2D1E9F42401F9EAF43400FAEBF434D8
:1025300000FBECF43400FC1234B902346A1234ECBF
:1025400030D502B2D1BF0009BC00030234AE023460
:10255000A1BC000302348BE583B4FF0BE582B4FF1A
:10256000030234AE02348BE582B4FF030234A1C30C
:1025700095835007247F400B02348B248014500332
:102580000234A1C0E0E4CCCBCAF98D498E4A8F4B0E
:10259000EF54F0C4F54C758306854CF0EB84F5825E
:1025A000E9C4F9EAC4FAEBC4FBEC540FC47803D6CF
:1025B000FC18EBD6FB18EAD6FA8582F0EDA4A8F059
:1025C000FD8582F0EEA428FEE435F0F88582F0EF78
:1025D000A428FFE435F0F8E99DF9EA9EFAEB9FFBA9
:1025E000EC98FCAD49AE4AAF4B30E7101582E92DAF
:1025F000F9EA3EFAEB3FFBE43CFC80EDC082D58378
:1026000098C3E933F9EA33FAEB33FBEC33FCC3E963
:102610009DEA9EEB9FEC9400B3E413F9D002D0E066
:10262000C44AFAD003D0E0C44BFBD004D0E0F5F0AC
:10263000540FC44CFCD082158230F40FD3EC13FC41
:10264000EB13FBEA13FAE913F90582E930E70A74A0
:10265000012AFAE43BFBE43CFC023482E58290016F
:10266000A3F09001A3E0FA747CC0E07426C0E0906F
:102670000195E0C0E0A3E0C0E08A822290019CE0E6
:102680002401F0A3E03400F022E5829001A4F09050
:1026900001A4E0FA74302AFA24C6500A74072AFA10
:1026A000300B034302208A8202265CE5829001A55A
:1026B000F09001A5E0FAC4540FF582C002122689F9
:1026C000D00253020F8A82022689900197E0FAA372
:1026D000E0FBA3E0FCA3E0FD90019BE0FE9001A2E3
:1026E0007420F0EE2EFEED2354014206EA2AFAEBA6
:1026F00033FBEC33FCED33FD90019EE0FFC3EE9F16
:102700004007EEC39FFE4302019001A2E014900136
:10271000A2F09001A2E0FF70CA900197EAF0A3EB4B
:10272000F0A3ECF0A3EDF090019BEEF0227859E6D7
:1027300024D075F00AA4FA785AE624D02AFA900137
:10274000A6F078588603BB2D079001A6C3E49AF043
:1027500090019E7401F09001A6E0FAC3E464808ABF
:10276000F063F08095F0503C9001A27403F090016A
:10277000A2E0FBBB0A00502790019EE02401F0EB91
:1027800014244DF8EB244DF98704A604772E1A90F3
:1027900001A6EAF0EA60089001A2EB04F080CF9075
:1027A00001A6EAF09001A6E0FA30E712784E86031F
:1027B000784FA603784E762E9001A6EA04F0900199
:1027C000A0E0FA600E0A90019EE0FB90019EEA2BC9
:1027D000F0800A30160790019EE02401F0784D86C3
:1027E00002E4BA2D0104FA7006201103301207909A
:1027F000019EE02401F0300F030228A8301053EAB4
:10280000600875822D12265C801430110875822BA9
:1028100012265C800930120675822012265C784EE2
:102820008603BB2E0F75823012265C90019FE01448
:1028300090019FF090019FE0FB1490019FF09001A8
:102840009EE0FCC39B40030228F875823012265C90
:1028500080E290019FE0FB1490019FF090019EE0C8
:10286000FCC39B500875822012265C80E5784D865B
:1028700003BB2D0875822D12265C8014301108755B
:10288000822B12265C800930120675822012265C8B
:10289000784E8603BB2E6175823012265C90019FB4
:1028A000E01490019FF08050EA601175822D12268D
:1028B0005C90019FE01490019FF08026301111750B
:1028C000822B12265C90019FE01490019FF08012F1
:1028D00030120F75822012265C90019FE014900147
:1028E0009FF0784E8602BA2E0F75823012265C90C9
:1028F000019FE01490019FF09001A27401F0C218B2
:102900009001A2E0244DF88602BA45030229F6BAE6
:102910002E419001A6E0FAC3E464808AF063F0805F
:1029200095F05012758230C00212265CD0021A90C7
:1029300001A6EAF080E19001A6EAF0D2189001A089
:10294000E0FA704D2016030229F675822E12265CDD
:102950000229F630183B9001A6E0FAEA30E72D9004
:1029600001A0E0FBC3E464808BF063F08095F0503D
:1029700013758230C00212265CD0029001A0E014D0
:102980009001A0F00A9001A6EAF080CF9001A6EA9B
:10299000F03018129001A0E0FAC3E464808AF0637A
:1029A000F08095F050289001A2E0244DF886028A2C
:1029B0008212265C3018179001A2E0244DF886029E
:1029C000BA2E0280099001A0E0149001A0F09001BD
:1029D0009FE01490019FF09001A0E0FAC3E46480AE
:1029E0008AF063F08095F0400320180A9001A2E07D
:1029F0002401F00229009001A0E0FAC3E464808A77
:102A0000F063F08095F0501175823012265C9001D1
:102A1000A0E0149001A0F080DD300F1590019FE040
:102A2000FA1490019FF0EA600875822012265C80FB
:102A3000EB229001A0E0FA700330161174072AFA15
:102A400090019FE0FB90019FC39AF0800B90019F43
:102A5000E0FA24FA90019FF09001A2E4F0784D860C
:102A600002BA2B17201114784D762020120D9001F8
:102A7000A27401F090019FE02401F0200F23900147
:102A80009FE0FAC3E464808AF063F08095F050110F
:102A900075822012265C90019FE01490019FF080C7
:102AA000DDC2189001A2E0244DF88602BA000302AC
:102AB0002B41BA452A300B0276659001A0E0FAC39B
:102AC000E464808AF063F08095F0501175823012D2
:102AD000265C9001A0E0149001A0F080DDD2189057
:102AE00001A2E0FABA0200E433FA7018EA70129018
:102AF00001A0E0FAC3E464808AF063F08095F040BE
:102B0000033018229001A2E0244DF886028A821236
:102B1000265C9001A2E0FA24FD501C9001A0E01474
:102B20009001A0F080119001A2E0FABA02093016DB
:102B30000675822E12265C9001A2E02401F0022A82
:102B4000A3300F2390019FE0FAC3E464808AF0630E
:102B5000F08095F0501175822012265C90019FE064
:102B60001490019FF080DD22AA83E5829001ABF0F2
:102B7000A3EAF09001ABE0FAA3E0FB900195EAF044
:102B8000A3EBF090019CE4F0A3F09001A7E0FAA37E
:102B9000E0FBA3E0FC8A828B838CF0121C8AFD9000
:102BA00001A774012AF0E43BA3F0A3ECF0ED70035D
:102BB00002331EBD25028003023316C20FC210C2AB
:102BC00011C212C213C214C215C216C20CC20DC267
:102BD0000E90019EE4F090019FF09001A074FFF030
:102BE0009001A7E0FAA3E0FBA3E0FC8A828B838C30
:102BF000F0121C8AFEA3AA82AB839001A7EAF0A37D
:102C0000EBF0A3ECF09001ADEEF0BE25088E821241
:102C1000265C022B8A8E07BF300040468E07EF24C9
:102C2000C6403F9001A0E0FFBFFF27C002C003C025
:102C30000490019FE075F00AA4FAEE24D090019F61
:102C40002AF090019FE0D004D003D002709DD210F2
:102C50008099EF75F00AA4FFEE24D09001A02FF028
:102C600080899001ADE0FEBE2E159001A0E0FFBF6F
:102C7000FF028003022BEB9001A0E4F0022BEB8E0D
:102C800007BF610040128E07EF2485400B9001AD15
:102C900074DF5EF0D20B8002C20B9001ADE0FEBE8D
:102CA00020028075BE2303022D28BE2A03022D2D8B
:102CB000BE2B02805FBE2D028055BE4202805FBEE9
:102CC0004303022DABBE4403022F5CBE4503022F1B
:102CD00082BE4603022F7EBE4703022F86BE4903F3
:102CE000022F5CBE4C02803BBE4E03022F8ABE4FB9
:102CF00003022F66BE5003022ECFBE5303022DE205
:102D0000BE5503022F6EBE5803022F76022FC9D282
:102D10000F022BEBD211022BEBD212022BEBD214AF
:102D2000022BEBD215022BEBD216022BEB9001A05B
:102D3000E0FFBFFF3B3014139001AAE0FF14F890AE
:102D400001AAF090019FE6F0022BEBC002C003C085
:102D5000049001AAE024FEF89001AAF086070886F4
:102D6000021890019FEFF0D004D003D002022BEBA9
:102D70003014139001AAE0FF14F89001AAF090011A
:102D8000A0E6F0022BEBC002C003C0049001AAE051
:102D900024FEF89001AAF08607088602189001A088
:102DA000EFF0D004D003D002022BEB3014129001CC
:102DB000AAE0FA14F89001AAF09001ADE6F08016AE
:102DC0009001AAE024FEF89001AAF086020886038A
:102DD000189001ADEAF09001ADE0F58212265C0298
:102DE0002FCE9001AAE024FDF89001AAF0860208F7
:102DF00086030886041818900197EAF0A3EBF0A365
:102E0000ECF08A828B838CF012222AAA829001A194
:102E1000EAF09001A0E0FBBBFF059001A0EAF020E2
:102E20000F2690019FE0FBC3EA9B501C90019FEB93
:102E3000C39AF090019FE0FA1490019FF0EA6008B5
:102E400075822012265C80EB900197E0FAA3E0FBEC
:102E5000A3E0FC8A828B838CF0121C8AFA60399082
:102E600001A0E0FB149001A0F0C3E464808BF06348
:102E7000F08095F050228A8212265C900197E0FA49
:102E8000A3E0FBA3E0FC0ABA00010B900197EAF073
:102E9000A3EBF0A3ECF080B0200F03022FCE900143
:102EA000A1E0FA90019FE0FBC3EA9B4003022FCE12
:102EB00090019FEBC39AF090019FE0FA1490019F5C
:102EC000F0EA7003022FCE75822012265C80E89013
:102ED00001AAE024FDF89001AAF086020886030802
:102EE00086041818900197EAF0A3EBF0A3ECF09099
:102EF0000199E0FA30E7089001AD7443F0801FEAD1
:102F0000546060089001AD7450F08012EA30E60819
:102F10009001AD7449F080069001AD7458F09001B5
:102F2000ADE0FAF582C00212265C75823A12265C88
:102F300075823012265C75827812265CD002BA49FE
:102F400002800EBA50028009900198E0F5821226A4
:102F5000AB900197E0F5821226AB8072D2139001FC
:102F60009E740AF0806890019E7408F08060900161
:102F70009E740AF0805890019E7410F08050D20C1C
:102F8000804CD20D8048D20E80449001AAE024FDEE
:102F9000F89001AAF08646088647088648181890D7
:102FA0000197E546F0A3E547F0A3E548F090019CC2
:102FB000E0FFA3E0FA8546828547838548F0EF125B
:102FC00020D9A3EA1220D980058E8212265C200C1B
:102FD00009200D06200E030230739001AAE024FCA4
:102FE000F89001AAF086020886030886040886067F
:102FF000181818900197EAF0A3EBF0A3ECF0A3EEF9
:10300000F0900197E0A3E0A3E0A3E08A828B838C99
:10301000F0EE1236529001A0E0FABAFF069001A03D
:103020007406F0300E3E90019AE0FA53027F900150
:103030009BEAF0E0EA2A90019BF0900199E0FA30D7
:10304000E70D90019BE0FA43020190019BEAF090AA
:10305000019BE0FA2468400A90019BE0FABA6700FD
:103060005002D20D300D06122A32022B8A12272D61
:10307000022B8A90019EE0FA7003022B8A9001AE27
:103080007452F03014479001AAE014F89001AAF0AD
:10309000E6FA3395E0FBFCFE900197EAF0A3EBF033
:1030A000A3ECF0A3EEF030130302313F900197E060
:1030B000FAA3E0A3E0A3E07B007C007E00900197F0
:1030C000EAF0A3EBF0A3ECF0A3EEF0807230152948
:1030D0009001AAE024FCF89001AAF0860208860379
:1030E000088604088606181818900197EAF0A3EBE2
:1030F000F0A3ECF0A3EEF080469001AAE024FEF8E5
:103100009001AAF0860208860318EB3395E0FCFED6
:10311000900197EAF0A3EBF0A3ECF0A3EEF02013FC
:103120001E900197E0FAA3E0FBA3E0A3E07C007E01
:1031300000900197EAF0A3EBF0A3ECF0A3EEF030DF
:10314000163E900197E0FAA3E0FBA3E0FCA3E0FEAB
:10315000EA4B4C4E602A90019EE0FABA080875824C
:103160003012265C801ABA101775823012265C3035
:103170000B0875827812265C800675825812265CD0
:10318000301330900197E0FAA3E0FBA3E0FCA3E04A
:10319000FE30E71DC3E49AFAE49BFBE49CFCE49E4A
:1031A000FE900197EAF0A3EBF0A3ECF0A3EEF08021
:1031B00002C2139001A1E4F0D217785290019BE46F
:1031C000F0C0001226CAD00020171290019BE0C464
:1031D000FAE6FB4AF6189001AEE8F0800690019BF3
:1031E000E0FAF69001A1E02401F0B217900197E017
:1031F000FAA3E0FBA3E0FCA3E0FEEA4B4C4E70BC5C
:103200009001AEE8F090019FE0FA700690019F7483
:1032100001F0201024200F219001A1E0FA0A900172
:103220009FE0FBC3EA9B501175822012265C90013F
:103230009FE01490019FF080DF30131175822D12F2
:10324000265C90019FE01490019FF0802D9001A1D9
:10325000E0FA602630111175822B12265C90019FD6
:10326000E01490019FF0801230120F758220122618
:103270005C90019FE01490019FF0200F2390019F2C
:10328000E0FA1490019FF09001A1E0FBC39A502C4A
:103290003010047A3080027A208A8212265C80DD27
:1032A00090019FE0FA9001A1E0FBC39A50099001C0
:1032B0009FEAC39BF0800590019FE4F09001AEE08F
:1032C000F89001A1E0FA149001A1F0EA602AB21787
:1032D00020170C08E6C4540FFA90019BF0800A8670
:1032E0000253020F90019BEAF090019BE0F582C02F
:1032F00000122689D00080C9200F03022B8A90017A
:103300009FE0FA1490019FF0EA7003022B8A758205
:103310002012265C80E88D8212265C022B8A9001A6
:103320009CE0FAA3E08A82F58322AA82AB83ACF008
:10333000FD9001B3EAF0A3EBF0A3ECF0A3EDF09065
:1033400001B7E4F09001B3E0FAA3E0FBA3E0FCA333
:10335000E0FD7E009001AFE0F549A3E0F54AA3E06F
:10336000F54BA3E0F54C235401FF7074C006E5490A
:103370002549FFE54A33F8E54B33F9E54C33FE9038
:1033800001AFEFF0A3E8F0A3E9F0A3EEF09001AFF6
:10339000E0F549A3E0F54AA3E0F54BA3E0F54CC303
:1033A000EA9549EB954AEC954BED954CD0065027A4
:1033B000E54CC313F54CE54B13F54BE54A13F54AC1
:1033C000E54913F5499001AFF0A3E54AF0A3E54BB9
:1033D000F0A3E54CF080090E9001B7EEF0023354F3
:1033E0009001B7E0FA9001B3E0FBA3E0FCA3E0FD9D
:1033F000A3E0FE9001AFE0F549A3E0F54AA3E0F5B4
:103400004BA3E0F54CC3EB9549EC954AED954BEE9B
:10341000954C40179001B3EBC39549F0EC954AA346
:10342000F0ED954BA3F0EE954CA3F09001AFE0FBCF
:10343000A3E0FCA3E0FDA3E0C313FEED13FDEC133A
:10344000FCEB139001AFF0A3ECF0A3EDF0A3EEF0D2
:103450008A031AEB708F9001B3E0FAA3E0FBA3E0BC
:10346000FCA3E08A828B838CF022B98003EA13B339
:103470004010EA2401FAE43BFBE43CFC50047C806D
:103480000582BC000EBB000BBA0008E4F5F0F58322
:10349000F58222A2D1E582138CF092F78B838A8287
:1034A00022E4F583F58275F080F4A2D11322E4F5CD
:1034B00083F58275F0C0747F227804EC7011E58288
:1034C00024F8500AF582E4C9CACBFCD8EF22EC7884
:1034D00020058220E713D5820122C3E933F9EA33BC
:1034E000FAEB33FBEC33FCD8EA158222AA82AB83D9
:1034F000A2F73392D16002D2F7F582ACF0E58124D5
:10350000F9F8E6FD08E6FE0886F008E6A2F7339231
:10351000D56002D2F7F583AFF0227901AA82E68F57
:1035200082B5821318E6B5F00E18E6B5830918E6E1
:103530008A82B58202790022B4800FE5F0700AE534
:10354000837006E58270027F00EFB6801518B60022
:103550001018B6000B18B6000608080876002208F6
:10356000080822AA83E5829005BAF0A3EAF0900544
:10357000BCE4F0A3F09005B8E0FAA3E0FB7C109067
:1035800005BAE0FDA3E0FE339219EECD25E0CD3380
:10359000FE9005BAEDF0A3EEF09005BCE0FDA3E0CF
:1035A000CD25E0CD33FE9005BCEDF0A3EEF0301953
:1035B000129005BCE0FDA3E0FE9005BC74014DF047
:1035C000A3EEF09005BCE0FDA3E0FEC3ED9AEE9BF8
:1035D000401D9005BCEDC39AF0EE9BA3F09005BA98
:1035E000E0FDA3E0FE9005BA74014DF0A3EEF0DC1F
:1035F0008E9005BAE0FAA3E08A82F58322AA82AB14
:1036000083A2F73392D16002D2F7F582ACF0226048
:1036100040F82582500274FFF582E824F8501ECC51
:10362000CBCAF9E4CC24F85014CBCAF9E4CB24F883
:10363000500BCAF9E4CA24F8500379002224086028
:1036400010F8C3EC13FCEB13FBEA13FAE913F9D8F7
:10365000F122C0E0F84582458345F07009F5F0FBA2
:10366000FCFDFE023720E823A2F792E0F8A982AA27
:1036700083D2F7ABF07C007E07C374979840407408
:10368000FF2EFE740A89F0A4F985F082740A8AF08C
:10369000A4FA85F083740A8BF0A4FB740529F9EA77
:1036A0003582FAEB3583FB740035F0FCC3EC13FC78
:1036B000EB13FBEA13FAE913F908EC70EF80BAE8B0
:1036C000C3947FF88B838EF0E4FBFCFDFEFF08C300
:1036D000E933F9EA33FAE58333F583EB3BD4FBECCA
:1036E0003CD4FCED3DD4FDEE3ED4FEEF3FD4FF6074
:1036F0002D05F074052BD4FBE43CD4FCE43DD4FD53
:10370000E43ED4FEE43FD4FF758204C3EF13FFEE22
:1037100013FEED13FDEC13FCEB13FBD582EDD8AFDC
:10372000784DD0E020E704762B8002762D087906CC
:10373000E7C4540F4430F608B90603762E08E75460
:103740000F4430F60819B902E7764508E5F020E79E
:1037500004762B8004762DF4040875F00A84443036
:10376000F608E5F04430F608E4F690004D75F040B8
:103770002200000000000000000000000000000027
:00000001FF
