:100000000200962200000000000000000000000036
:1000100000000000000000000000000064000A0072
:1000200000000000000000000000000219F20000C3
:1000800000000000000000000000000204A60000C4
:10009000000000020FC775815B120217E582600342
:1000A000020102780479007AC37B057C1E7D00EC96
:1000B0004D601C88828983E493A3A882A9838A82E5
:1000C0008B83F0A3AA82AB831CBCFFE31D80E07589
:1000D00082007583007CC37D05EC4D600AE4F0A3CB
:1000E0001CBCFFF51D80F27582007583007C007DCD
:1000F00000EC4D600AE4F0A31CBCFFF51D80F21279
:10010000000312034680FE50574D20583A202566C2
:100110002C2050574D20593A2025660D0A00496E73
:1001200064756374616E636520284D6963726F48FE
:10013000293A2025640D0A0041542B445649444174
:100140004641460D0A0041542B5246494446464218
:10015000420D0A0041542B5645520D0A0041542BC2
:10016000424155440D0A0041542B524649440D0A60
:100170000041542B445649440D0A0041542B524629
:10018000430D0A0041542B504F57450D0A0041546E
:100190002B434C53530D0A00436F6D6D616E643AEF
:1001A00020257300526573706F6E73653A20257356
:1001B0000D0A004572726F723A20496E7075742094
:1001C000737472696E6720697320746F6F2073682F
:1001D0006F727420746F2073706C69742E0A0053F0
:1001E00054523A202573200D0A00253035640D0A3B
:1001F00000303132333435363738394142434445A3
:1002000046004672657175656E63793A20256C64A7
:1002100020487A0A00000475A7007597DE7597AD2F
:1002200075FF8075EF0675A71075C12075A700755D
:10023000A90075A900E5A930E7FB75A90375A90315
:10024000E5A930E7FB43A41143A60175E10175E27E
:100250000075E341759810758DE6858D8B53890F78
:10026000438920D28ED29943A50C43A61F758200E4
:1002700022AA82AB83ACF0FD900008EAF0A3EBF079
:10028000A3ECF0A3EDF075A72075930C75C810755D
:100290009400900008E0FAA3E0FBA3E0FCA3E0FDDB
:1002A000900140EAF0A3EBF0A3ECF0A3EDF090A2F4
:1002B0000075F04A7404121A16AA82AB83ACF0FDE2
:1002C0009001407418F0E4A3F0A3F0A3F08A828BAD
:1002D000838CF0ED121A16AA82AB83ACF0FDE4C356
:1002E0009AFAE49BFB74019CE49D8A958B96D2C993
:1002F00043944075A70022AA82AB83ACF0FD900026
:1003000010EAF0A3EBF0A3ECF0A3EDF090000CE00A
:10031000C0E0A3E0C0E0A3E0C0E0A3E0C0E0900044
:1003200010E0C0E0A3E0C0E0A3E0C0E0A3E0C0E0D4
:100330007407C0E07401C0E07480C0E0121B66E581
:100340008124F5F5812290001474E8F0A37403F081
:100350009001F4120F18902580E4F5F0120271124A
:10036000043A12158D1219DB12048B120FACD2AFA6
:10037000900014E0FAA3E0FB8A828B83120C6212D5
:100380000C98120CBC12191AAA82AB83900014EAC2
:10039000F0A3EBF0C002C003741EC0E07401C0E023
:1003A0007480C0E0121B66E58124FBF581120D0705
:1003B000AA82AB83ACF0FD900000EAF0A3EBF0A3BF
:1003C000ECF0A3EDF0120D16AA82AB83ACF0FD9019
:1003D0000004EAF0A3EBF0A3ECF0A3EDF090000032
:1003E000E0FEA3E0FFA3E0F8A3E0F9900132EAF019
:1003F000A3EBF0A3ECF0A3EDF08E828F8388F0E9FD
:10040000121590900000E0FAA3E0FBA3E0FCA3E04B
:10041000FD900004E0FEA3E0FFA3E0F8A3E0F99064
:10042000000CEEF0A3EFF0A3E8F0A3E9F08A828BD2
:10043000838CF0ED1202F702037090013875F080A2
:100440001206D490014675F0801206D490015475BE
:10045000F0801206D490015D75F0801206D49001F0
:100460006775F0801206D490017175F0801206D481
:1004700090017B75F0801206D490018475F0801293
:1004800006D490018E75F0800206D475A710759879
:100490000043A60175A26075A37375A4FF75A5FF3F
:1004A00043F304D29A22C0E0C082C083C002C003DA
:1004B000C004C005C006C007C0D075D000A28CE43F
:1004C00033FA7B00A2C2E433FC7D00C28CC2C27549
:1004D000A710C29F9005C3E02401F0A3E03400F010
:1004E0009005C3E0FEA3E0FFC3EE94C4EF648094E4
:1004F00089400F9005C3E4F0A3F0B2929005C5E0E7
:10050000A3E0BA0105BB0002D28CBC0105BD00020C
:10051000D2C2D0D0D007D006D005D004D003D002AC
:10052000D083D082D0E032E5829000BCF075A72065
:1005300010C90280FB9000BCE0F59275A70022AACA
:10054000F0AB83E5829000BDF0A3EBF0A3EAF0905E
:1005500000BDE0FAA3E0FBA3E0FC8A828B838CF071
:10056000121C52FD60238D82C002C003C00412051C
:1005700027D004D003D0020ABA00010B9000BDEAD4
:10058000F0A3EBF0A3ECF080D19000BDEAF0A3EB78
:10059000F0A3ECF02275A72010C80280FB53C83FDF
:1005A000AA9275A7008A822275A7207A007B002074
:1005B000C82675A700758214C002C003120EE5D0CC
:1005C00003D00275A7200ABA00010BBAA8E1BB61EB
:1005D000DE75A70075820A22C2C853C83FAA927569
:1005E000A7008A8222AAF0AB83E5829000C0F0A324
:1005F000EBF0A3EAF09000C0E0FAA3E0FBA3E0FC7C
:10060000C002C003C0041205A8AD82D004D003D03C
:1006100002BD0A209000C0EAF0A3EBF0A3ECF0903A
:1006200000C0EAF0A3EBF0A3ECF08A828B838CF09D
:10063000E40220A18A828B838CF0ED1220A1A3AA70
:1006400082AB839000C0EAF0A3EBF0A3ECF080B0A3
:1006500075A720A2C8920875A70022AA83E58290F8
:1006600000C3F0A3EAF09000C3E0FAA3E0FB7C0033
:100670007D00C3EC9AED9B50477E00BE04005039CC
:10068000C002C003C004C005C006120650E433D047
:1006900006D005D004D003D0026001227582FAC0D2
:1006A00002C003C004C005C006120EE5D006D00586
:1006B000D004D003D0020E80C20CBC00B50D80B2B5
:1006C00022C2CC30C80B9000C5E592F0A3E4F080C4
:1006D000F2D2CC22AAF0AB83E5829000C7F0A3EB64
:1006E000F0A3EAF09000C7E0C0E0A3E0C0E0A3E020
:1006F000C0E07498C0E07401C0E07480C0E0121BD8
:1007000066E58124FAF581C2A0900005120F1890C9
:1007100000C7E0FAA3E0FBA3E0FC8A828B838CF0A5
:1007200012053F90001675F0001205E590000A12C0
:100730000F18D2A07416C0E07400C0E0E4C0E074EA
:10074000A4C0E07401C0E07480C0E0121B66E581C3
:1007500024FAF58122AAF0AB83E5829000CAF0A3C7
:10076000EBF0A3EAF09000CDE4F0A3F09000CF749A
:1007700001F0E4A3F09000D1E4F0A3F09000CAE00F
:10078000FAA3E0FBA3E0FC8A828B838CF0121C525C
:10079000FDBD2D119000CF74FFF0A3F09000D17437
:1007A00001F0E4A3F09000D1E0FDA3E0FEED2AFF0C
:1007B000EE3BF88C018F82888389F0121C52FFBFB8
:1007C000000302083BC3EF648094B0406274B98FA9
:1007D000F063F08095F04057C002C003C004900061
:1007E000CDE0F8A3E0F990016CE8F0A3E9F0900007
:1007F0000AC002C003C004C005C006C007121E081C
:10080000A882A983D007D006D005D004D003D00297
:10081000EF3395E0FAEF24D0FFEA34FFFA9000CDF1
:10082000EF28F0EA39A3F0D004D003D0028004907E
:100830000000220DBD00010E0207AD9000CDE0FAD0
:10084000A3E0FB9000CFE0FCA3E0FD90016CEAF098
:10085000A3EBF08C828D83021E08AAF0AB83E582A5
:100860009000D9F0A3EBF0A3EAF09000D9E0FAA34E
:10087000E0FBA3E0FC8A828B838CF01221F285825C
:10088000288583299000DCE4F0A3F09000DEE4F0FA
:10089000A3F09000D9E0FCA3E0FDA3E0FEAF28A800
:1008A00029C3EF9406E8648094805031C004C005E9
:1008B000C00674B3C0E07401C0E07480C0E0121BD5
:1008C0006615811581158174DFC0E07401C0E07484
:1008D00080C0E0121B66E58124FAF581228C078D29
:1008E000008E018F82888389F0121C52F524602CBF
:1008F000742DB52420EFB50413E8B5050FE9B5064E
:100900000B9000DC7401F0E4A3F080099000DE7429
:1009100001F0E4A3F00FBF00CA0880C79000DCE03C
:10092000FFA3E0F84F606A9000D3E0F525A3E0F55F
:1009300026A3E0F52774012525FAE43526FBAF2729
:1009400090015174012CF0E43DA3F0A3EEF090016E
:10095000547403F0E4A3F08A828B838FF0C004C048
:1009600005C006121B90D006D005D00474042525BE
:10097000FAE43526FBAF278A828B838FF0E41220BE
:10098000A18525828526838527F0742D1220A180DC
:10099000509000D3E0FFA3E0F8A3E0F9900151EC00
:1009A000F0A3EDF0A3EEF09001547403F0E4A3F093
:1009B0008F82888389F0C004C005C006121B90D0C6
:1009C00006D005D0049000D3E0FFA3E0F8A3E0F93F
:1009D00074032FFFE438F88F82888389F0E41220B3
:1009E000A19000DEE0FFA3E0F84F60719000D6E038
:1009F000F525A3E0F526A3E0F52774012525F52AC2
:100A0000E43526F52B85272CE5282CF8E5293DF93A
:100A10008E02E824FDF8E934FFF9900151E8F0A3D3
:100A2000E9F0A3EAF09001547403F0E4A3F0852AFE
:100A300082852B83852CF0121B9074042525FAE403
:100A40003526FBAF278A828B838FF0E41220A185A5
:100A500025828526838527F0742D0220A19000D65B
:100A6000E0FAA3E0FBA3E0FFE5282CFCE5293DFD2F
:100A7000EC24FDFCED34FFFD900151ECF0A3EDF012
:100A8000A3EEF09001547403F0E4A3F08A828B8308
:100A90008FF0121B909000D6E0FAA3E0FBA3E0FCDD
:100AA00074032AFAE43BFB8A828B838CF0E40220F5
:100AB000A1AAF0AB83E5829000E6F0A3EBF0A3EAF5
:100AC000F0900005121F6DAA82AB837C0090000598
:100AD000C002C003C004121F6DAD82AE83D004D02B
:100AE00003D0028D368E377538009000E6E0F52D84
:100AF000A3E0F52EA3E0F52FE4F8F9F530F531E5A4
:100B000030252DF532E531352EF533852F348532FC
:100B1000828533838534F0121C52F535E4B53502F5
:100B20008071853582C002C003C004C000C00112BC
:100B300021D5E582D001D000D004D003D0027010BE
:100B40008532828533838534F0121C52FDBD2D38E9
:100B50008805890608B8000109ED252DF532EE3526
:100B60002EF533852F34E530252DFDE531352EFE6C
:100B7000AF2F8D828E838FF0121C52FD85328285BD
:100B800033838534F01220A10530E4B530020531FD
:100B9000020AFFE8252DF8E9352EF9AD2F88828964
:100BA000838DF0E41220A19000D3EAF0A3EBF0A330
:100BB000ECF09000D6E536F0A3E537F0A3E538F089
:100BC000852D82852E83852FF0C002C003C00412BC
:100BD000085AD004D003D0029000E0E0FDA3E0FE6C
:100BE000A3E0FF8A828B838CF0C002C003C004C0E4
:100BF00005C006C007120755A882A983D007D006F2
:100C0000D0058D828E838FF0E81220A1A3E91220F7
:100C1000A19000E3E0FDA3E0FEA3E0FF853682851E
:100C200037838538F0C005C006C007120755A88273
:100C3000A983D007D006D005D004D003D0028D827E
:100C40008E838FF0E81220A1A3E91220A18A828B63
:100C5000838CF0121E9D8536828537838538F0029D
:100C60001E9DAA83E5829000E9F0A3EAF09000E9D6
:100C7000E0C0E0A3E0C0E074EAC0E07401C0E0744A
:100C800080C0E07466C0E07400C0E0E4C0E01221FF
:100C900051E58124F8F581229005C5E0FAA3E0FB37
:100CA0004A70189005C5E0A3E090006675F0001248
:100CB000053F1206C19000C802065B221206505082
:100CC0004590001675F0001205E51206C190001659
:100CD00075F0001221F2E5828583F09000BAF0A34E
:100CE000E5F0F09000E074B6F0A37400F0A3E4F037
:100CF0009000E374B8F0A37400F0A3E4F090001641
:100D000075F000020AB1229000B6E0FAA3E0FB8A77
:100D1000828B830221AA9000B8E0FAA3E0FB8A82CA
:100D20008B830221AAAAF0AB83E5829000EBF0A3AB
:100D3000EBF0A3EAF09000EBE0FAA3E0FBA3E0FC09
:100D40008A828B838CF0121C52FD60238D82C0023C
:100D5000C003C0041221B7D004D003D0020ABA00E5
:100D6000010B9000EBEAF0A3EBF0A3ECF080D19044
:100D700000EBEAF0A3EBF0A3ECF022AA82AB83AC89
:100D8000F0FD9000F2EAF0A3EBF0A3ECF0A3EDF09D
:100D9000900116E4F09000F2E0FAA3E0FBA3E0FC7F
:100DA000A3E0FD30E72975822DC002C003C004C056
:100DB000051221B7D005D004D003D0029000F2C3B1
:100DC000E49AF0E49BA3F0E49CA3F0E49DA3F090EC
:100DD00000EEE0F53DA3E0F53E7C1F7D009000F0C5
:100DE000E0FEA3E0FF9000F2E0F539A3E0F53AA3BE
:100DF000E0F53BA3E0F53CC3E49539E4953AE4958E
:100E00003BE46480853CF063F08095F0E433F8C304
:100E1000E49EE464808FF063F08095F0E433F94859
:100E20007003020ED18C008D011CBCFF011DE82453
:100E3000F6F53FE93400F540853D41E53EF54233A6
:100E400095E0F543F544900164E541F0A3E542F0F7
:100E5000A3E543F0A3E544F0853982853A83853BD9
:100E6000F0E53CC004C005C006C007121D3FAA82C1
:100E7000AB83EA24F1F582EB3401F583E493853FFB
:100E800082854083F090015CE541F0A3E542F0A348
:100E9000E543F0A3E544F0853982853A83853BF04C
:100EA000E53C121C6EAA82AB83A8F0F9D007D006ED
:100EB000D005D0049000F2EAF0A3EBF0A3E8F0A391
:100EC000E9F0EE4F7003020DE51EBEFF011F020D9B
:100ED000E5EC0424F6FAE43400FB7C008A828B8380
:100EE0008CF0020D25E582900117F0438E4075923B
:100EF000B87593FF85929485939575910490011729
:100F0000E0FA7B00C3EB9A500BE59130E7FB53917D
:100F10007F0B80F075910022AA83E582900118F082
:100F2000A3EAF0900118E0FAA3E0FB7C007D00C387
:100F3000EC9AED9B502B7E00BE0400501D7582FA8A
:100F4000C002C003C004C005C006120EE5D006D022
:100F500005D004D003D0020E80DE0CBC00D10D8081
:100F6000CE22AA82AB83ACF0FD90011AEAF0A3EB8B
:100F7000F0A3ECF0A3EDF090011AE0FAA3E0FBA3DC
:100F8000E0FCA3E0FDC002C003C004C0058A828B60
:100F9000838CF0ED122245AA82AB83ACF0FDE58193
:100FA00024FCF5818A828B838CF0ED2275A7107565
:100FB000C00043A60475D2F075D3F175D4FF75D582
:100FC000FF43F308D2C222C020C0E0C0F0C082C0FC
:100FD00083C002C003C004C005C006C007C000C073
:100FE00001C0D075D000A28CE433FA7B00A2C2E429
:100FF00033FC7D00C28CC2C275A710C2C7B29290EA
:1010000005D9E0FEA3E0FF4E600302115B9005C727
:10101000E0FEA3E0FFC374649EE464808FF063F09D
:101020008095F050079005C7E4F0A3F09005C9E063
:10103000FEA3E0FF30E7030210CF9005C7E0FEA358
:10104000E0FF8E828F83C002C003C004C00512215E
:10105000AAAE82AF83A8F0F99005CDE0C0E0A3E08E
:10106000C0E0A3E0C0E0A3E0C0E08E828F8388F000
:10107000E91222E8E58124FCF581E58224FF92094A
:10108000B392A49005C7E0FEA3E0FF8E828F831287
:1010900021AAAE82AF83A8F0F990011EE0C0E0A3C0
:1010A000E0C0E0A3E0C0E0A3E0C0E08E828F8388D0
:1010B000F0E91222E8E58124FCF581D005D004D0C6
:1010C00003D002E58224FF9209B392A202115B9041
:1010D00005C7E0FEA3E0FF8E828F83C002C003C07D
:1010E00004C0051221AAAE82AF83A8F0F99005CD05
:1010F000E0C0E0A3E0C0E0A3E0C0E0A3E0C0E08E79
:10110000828F8388F0E91222E8E58224FF92A4E529
:101110008124FCF5819005C7E0FEA3E0FF8E828F5D
:10112000831221AAAE82AF83A8F0F990011EE0C01D
:10113000E0A3E0C0E0A3E0C0E0A3E0C0E08E828FC7
:101140008388F0E91222E8E58224FF92A2E5812457
:10115000FCF581D005D004D003D0029005C7E0246F
:1011600001F0A3E03400F0BA0105BB0002D28CBC50
:101170000105BD0002D2C2D0D0D001D000D007D02E
:1011800006D005D004D003D002D083D082D0F0D0D6
:10119000E0D02032C2A4C2A2C2A3C2A122C2A3C272
:1011A000A122D2A3D2A122AA82AB83ACF0FD9001EE
:1011B00026EAF0A3EBF0A3ECF0A3EDF0900126E01B
:1011C000F513A3E0F514A3E0F515A3E0F516E4C0CC
:1011D000E0C0E0C0E0C0E08513828514838515F08F
:1011E000E51612235DAE82E58124FCF581EE6003F5
:1011F00002129E900122E0FFA3E0F8A3E0F9A3E031
:101200008F82888389F0122329AA82AB83C002C00F
:101210000312238D1221AAAC82AD83AFF0F89005A2
:10122000CDECF0A3EDF0A3EFF0A3E8F085138285F9
:1012300014838515F0E51612232912238DAC82AD97
:1012400083D003D0027464C39CFCE49DFD8A828B2E
:1012500083C004C00512238DAA82AB83D005D004BD
:1012600090016CEAF0A3EBF08C828D83121E08AA29
:1012700082AB839001927464F0E4A3F08A828B8342
:1012800012239C1221AAAA82AB83ACF0FD9005D157
:10129000EAF0A3EBF0A3ECF0A3EDF0021354EE7030
:1012A000030213548513828514838515F0E5161205
:1012B000232912238DAA82AB837464C39AFAE49B18
:1012C000FB900122E0FCA3E0FDA3E0FEA3E08C8202
:1012D0008D838EF0C002C003122329AC82AD83C07F
:1012E00004C00512238DAE82AF83D005D004D00395
:1012F000D00290016CEEF0A3EFF08A828B83C004E1
:10130000C005121E08AA82AB839001927464F0E4B7
:10131000A3F08A828B8312239C1221AAAA82AB8318
:10132000AEF0FFD005D0049005CDEAF0A3EBF0A31A
:10133000EEF0A3EFF08C828D8312238D1221AAAAE6
:1013400082AB83ACF0FD9005D1EAF0A3EBF0A3EC07
:10135000F0A3EDF0900122E0FAA3E0FBA3E0FCA3F0
:10136000E08A828B838CF0122329AA82AB83C0028D
:10137000C00312238DAC82AD83D003D002C3741995
:101380009CE464808DF063F08095F040399005D145
:10139000E0C0E0A3E0C0E0A3E0C0E0A3E0C0E090D4
:1013A000666675F066743F122245AC82AD83AEF07E
:1013B000FFE58124FCF58190011EECF0A3EDF0A384
:1013C000EEF0A3EFF0228A828B83C002C0031223C7
:1013D0008DAC82AD83D003D002C374329CE46480B0
:1013E0008DF063F08095F040399005D1E0C0E0A326
:1013F000E0C0E0A3E0C0E0A3E0C0E090333375F0CC
:1014000073743F122245AC82AD83AEF0FFE58124B8
:10141000FCF58190011EECF0A3EDF0A3EEF0A3EF3C
:10142000F0228A828B83C002C00312238DAC82AD6E
:1014300083D003D002C3744B9CE464808DF063F0CE
:101440008095F040399005D1E0C0E0A3E0C0E0A372
:10145000E0C0E0A3E0C0E090333375F073743F1256
:101460002245AC82AD83AEF0FFE58124FCF581908E
:10147000011EECF0A3EDF0A3EEF0A3EFF0228A82C0
:101480008B8312238DAA82AB83C374649AE4648035
:101490008BF063F08095F040399005D1E0C0E0A377
:1014A000E0C0E0A3E0C0E0A3E0C0E090333375F01B
:1014B00073743F122245AA82AB83ACF0FDE5812410
:1014C000FCF58190011EEAF0A3EBF0A3ECF0A3ED94
:1014D000F0229005D1E0C0E0A3E0C0E0A3E0C0E0CE
:1014E000A3E0C0E090333375F073743F122245AA35
:1014F00082AB83ACF0FDE58124FCF58190011EEA0E
:10150000F0A3EBF0A3ECF0A3EDF022AA82AB83AC46
:10151000F0FD90012EEAF0A3EBF0A3ECF0A3EDF0C8
:1015200090012AE0FAA3E0FBA3E0FCA3E0FD900118
:101530002EE0FEA3E0FFA3E0F8A3E0F9C006C00799
:10154000C000C001C006C007C000C0018A828B83F2
:101550008CF0ED122318AA82E58124FCF581D001DC
:10156000D000D007D006EA7023C0E0C0E0C0E0C0E1
:10157000E08E828F8388F0E912235DAA82E58124C0
:10158000FCF581EA700302119D0211A2220211945E
:10159000AA82AB83ACF0FD900136EAF0A3EBF0A396
:1015A000ECF0A3EDF0900136E0FAA3E0FBA3E0FC41
:1015B000A3E08A828B838CF0122329E5828583F055
:1015C0009005CBF0A3E5F0F0900132E0FAA3E0FB48
:1015D000A3E0FCA3E08A828B838CF0122329AA82E9
:1015E000AB839005C9EAF0A3EBF08A828B831221CA
:1015F000AAAA82AB83ACF0FD9005D7E0FEA3E0FF82
:101600008E828F83C002C003C004C0051221AAAE1F
:1016100082AF83A8F0F9D005D004D003D0029001A6
:101620002AEEF0A3EFF0A3E8F0A3E9F08A828B831F
:101630008CF0ED12150B9005CBE0FAA3E0FB8A824B
:101640008B831221AAAA82AB83ACF0FD9005C9E07E
:10165000FEA3E0FF8E828F83C002C003C004C005DA
:101660001221AAAE82AF83A8F0F9D005D004D0032E
:10167000D002900122EEF0A3EFF0A3E8F0A3E9F08E
:101680008A828B838CF0ED1211A79005CBE0FAA330
:10169000E0FB9005D5EAF0A3EBF09005C9E0FAA3D2
:1016A000E0FB9005D7EAF0A3EBF022AA83E5829055
:1016B000013AF0A3EAF0C2AFC28C5389F04389012A
:1016C000C28C758A00758C00C28DD28C7A007B002A
:1016D000309019108D0280F80ABA00010BBA0AF096
:1016E000BB00EDC28C900000E4F5F022C28C758A3C
:1016F00000758C00C28DD28C7A007B00209019106E
:101700008D0280F80ABA00010BBA0AF0BB00EDC2E4
:101710008C900000E4F5F022C28C758A00758C0074
:10172000C28D90013CE4F0A3F0D28C90013AE0FA33
:10173000A3E0FB7C008C057E00C3ED9AEE64808BF9
:10174000F063F08095F0503190013CE0FDA3E0FEA5
:1017500030900C108D0280F80DBD00F40E80F12049
:10176000900C108D0280F80DBD00F40E80F19001F8
:101770003CEDF0A3EEF00C80BCC28CD2AF90013CEB
:10178000E0FAA3E0FB8B058A047B007A00AF8C7E35
:1017900000EF3395E0F8F9EE2AFAEF3BFBE83CFC6A
:1017A000E93DFDAE8AE4FF3395E0F8F9EE2AFAEF61
:1017B0003BFBE83CFCE93D8A828B838CF022900065
:1017C0001E1216ABAA82AB83ACF0FD900196EAF034
:1017D000A3EBF0A3ECF0A3EDF090000CE4F5F0C067
:1017E00002C003C004C0051224111224D8AE82AF77
:1017F00083A8F0F9C006C007C000C00190BEFC7508
:10180000F000744F122505AE82AF83A8F0F9E58190
:1018100024FCF5818E828F8388F0E912247DAE82CC
:10182000AF83A8F0F9C006C007C000C001C006C061
:1018300007C000C0017402C0E07402C0E07480C040
:10184000E0121B66E58124F9F581D001D000D007B4
:10185000D006D005D004D003D002C3E49AE49BE4C0
:101860009CE464808DF063F08095F050088E828F48
:101870008388F0E922900000E4F5F0229005DDE095
:10188000FAA3E0FB9005DBE0FCA3E0FD90016CEA2D
:10189000F0A3EBF08C828D83C002C003C004C005AE
:1018A000121E08AE82AF83D005D004D003D00290C0
:1018B0000192EA2CF0EB3DA3F08E828F8312239CE1
:1018C0001221AAAA82AB83ACF0FDE4C0E0C0E074B0
:1018D0007AC0E07444C0E08A828B838CF0ED1225DC
:1018E00005AA82AB83ACF0FDE58124FCF581E4C060
:1018F000E0C0E0747AC0E07444C0E08A828B838CDC
:10190000F0ED122505AA82AB83ACF0FDE58124FC45
:10191000F5818A828B838CF0ED221217BEAA82ABEE
:1019200083ACF0FDC002C003C004C00512187CAE39
:1019300082AF83A8F0F9D005D004D003D0028A8208
:101940008B838CF0EDC006C007C000C0011224D804
:10195000AA82AB83ACF0FDC002C003C004C00590F6
:101960000FDB75F0C97440122245AA82AB83ACF03C
:10197000FDE58124FCF5818A828B838CF0ED120FCA
:1019800062122245AA82AB83ACF0FDE58124FCF50E
:1019900081C002C003C004C00590000075F07A74D5
:1019A00044122505AA82AB83ACF0FDE58124FCF549
:1019B00081C002C003C004C00590240075F0747497
:1019C00049122245AA82AB83ACF0FDE58124FCF5E7
:1019D000818A828B838CF0ED02232975C800438EA7
:1019E0001075CAAB75CBDD75CEFF75CFFFD2ADD20A
:1019F000CA2275A700C2CFB28632AA83E5829001BF
:101A00003EF0A3EAF090013EE0FAA3E0FB4A600357
:101A1000D2CA22C2CA22AA82AB83ACF0FD90014492
:101A2000EAF0A3EBF0A3ECF0A3EDF0900148E4F0B2
:101A3000A3F0A3F0A3F0900140E0FAA3E0FBA3E041
:101A4000FCA3E0FD754820900144E0FFA3E0F8A36B
:101A5000E0F9A3E0FE33920AEF2FFFE833F8E93311
:101A6000F9EE33FE900144EFF0A3E8F0A3E9F0A310
:101A7000EEF0900148E0FEA3E0FFA3E0F8A3E0F958
:101A8000EE2EFEEF33FFE833F8E933F9900148EE2C
:101A9000F0A3EFF0A3E8F0A3E9F0300A1E900148AC
:101AA000E0FFA3E0F8A3E0F9A3E0FE900148740191
:101AB0004FF0A3E8F0A3E9F0A3EEF0900148E0FEB8
:101AC000A3E0FFA3E0F8A3E0F9C3EE9AEF9BE89C44
:101AD000E99D4031900148EEC39AF0EF9BA3F0E8F6
:101AE0009CA3F0E99DA3F0900144E0FEA3E0FFA3D6
:101AF000E0F8A3E0F990014474014EF0A3EFF0A3E5
:101B0000E8F0A3E9F0D548028003021A47900144A7
:101B1000E0FAA3E0FBA3E0FCA3E08A828B838CF0D5
:101B200022E58290014CF090014CE0F5820221B751
:101B3000AAF0AB83E58290014EF0A3EBF0A3EAF0AC
:101B400090014EE0FAA3E0FBA3E0FC90014DE0FD24
:101B50009001ACEAF0A3EBF0A3ECF09001AFEDF054
:101B6000901B21022B30C008858108E50824FBFA70
:101B7000E50824FBF89001ACE6F008A3E6F008A322
:101B8000E6F09001AFEAF0901B21122B30D0082232
:101B9000AAF0AB83E582900156F0A3EBF0A3EAF044
:101BA000900156E0FAA3E0FBA3E0FC900159EAF0B3
:101BB000A3EBF0A3ECF0900154E0FDA3E0FE900154
:101BC00051E0FFA3E0F8A3E0F9ED4E60348F828886
:101BD0008389F0121C52F54860271DBDFF011E0FBE
:101BE000BF0001088A828B838CF0E5481220A1A3F4
:101BF000AA82AB83900156EAF0A3EBF0A3ECF0804D
:101C0000C8900156EAF0A3EBF0A3ECF08D078E002C
:101C10001DBDFF011EEF48601C8A828B838CF0E49F
:101C20001220A1A3AA82AB83900156EAF0A3EBF0A5
:101C3000A3ECF080D7900156EAF0A3EBF0A3ECF010
:101C4000900159E0FAA3E0FBA3E0FC8A828B838C2D
:101C5000F02220F71430F6148883A88220F507E6D6
:101C6000A88375830022E280F7E49322E022AA820F
:101C7000AB83ACF0FD900160EAF0A3EBF0A3ECF0D5
:101C8000A3EDF0900160E0FAA3E0FBA3E0FCA3E089
:101C9000FD33E433FE6013C3E49AF517E49BF518B3
:101CA000E49CF519E49DF51A80088A178B188C19A5
:101CB0008D1AAA17AB18AC19AD1A90015CE0F51794
:101CC000A3E0F518A3E0F519A3E0F51A33E433FF18
:101CD0006017C3E49517F51BE49518F51CE49519F6
:101CE000F51DE4951AF51E800C85171B85181C85BB
:101CF000191D851A1E900140E51BF0A3E51CF0A3F9
:101D0000E51DF0A3E51EF08A828B838CF0EDC00602
:101D1000C007121A16AA82AB83ACF0FDD007D0061A
:101D2000EF6E6013C3E49AFEE49BFFE49CF8E49D2D
:101D30008E828F8388F0228A828B838CF0ED22AA98
:101D400082AB83ACF0FD900168EAF0A3EBF0A3EC6A
:101D5000F0A3EDF0900168E0FAA3E0FBA3E0FCA3A0
:101D6000E0FD33E433FE6013C3E49AF509E49BF528
:101D70000AE49CF50BE49DF50C80088A098B0A8C1B
:101D80000B8D0CAA09AB0AAC0BAD0C900164E0F50D
:101D900009A3E0F50AA3E0F50BA3E0F50C30E71783
:101DA000C3E49509F50DE4950AF50EE4950BF50FDE
:101DB000E4950CF510800C85090D850A0E850B0F36
:101DC000850C109001B4E50DF0A3E50EF0A3E50F2E
:101DD000F0A3E510F08A828B838CF0EDC0061232FE
:101DE000F2AA82AB83ACF0FDD006EE6013C3E49A96
:101DF000FEE49BFFE49CF8E49D8E828F8388F022B2
:101E00008A828B838CF0ED22AA83AB828BF09001C7
:101E10006CE0A4F8A9F08AF0E0A429F98BF0A3E023
:101E2000A429F58388822222AA83E582900170F09A
:101E3000A3EAF0900170E0FAA3E0FB4A700490007E
:101E40000022EA24FCFAEB34FFFB9005DFE0FCA360
:101E5000E0FD900172ECF0A3EDF090016EE4F0A3D0
:101E6000F0900172E0FCA3E0FD4C6025EAB50406A9
:101E7000EBB50502801B90016EECF0A3EDF08C82B7
:101E80008D83E0FCA3E0FD900172ECF0A3EDF08007
:101E9000D0900172E0FAA3E08A82F58322AAF0AB27
:101EA00083E582900174F0A3EBF0A3EAF090017453
:101EB000E0FAA3E0FBA3E08A828B83121E28AA82A9
:101EC000AB83EA4B602890016EE0FCA3E0FD4C7010
:101ED0000B8A828B83A3A3E4F0A3F0228A828B83F4
:101EE000E0FAA3E0FB8C828D83EAF0A3EBF0229072
:101EF000017774BDF0A37401F0900215E493FA74B5
:101F00000193FB900179EAF0A3EBF074BD440170FA
:101F10001A900177740124BDF0E43401A3F01ABAD9
:101F2000FF011B900179EAF0A3EBF0900177E0FA52
:101F3000A3E0FB9005DFEAF0A3EBF0900179E0FC71
:101F4000A3E0FDEC2AFCED3BFDEC24FEFCED34FFB0
:101F5000FD8A828B83ECF0A3EDF08C828D83E4F01C
:101F6000A3F08A828B83A3A3E4F0A3F022AA83E5E3
:101F70008290017BF0A3EAF090017BE0FAA3E0FB02
:101F8000C374FB9A74FF9B50049000002290017B65
:101F900074042AF0E43BA3F09005DFE0FAA3E0FB31
:101FA0004A7003121EEF9005DFE0FAA3E0FB9001F8
:101FB0007DEAF0A3EBF090017BE0FAA3E0FB900157
:101FC0007DE0FCA3E0FD8C828D83E0FEA3E0FF8E2C
:101FD000118F128C008D01E511C398F511E512994E
:101FE000F5128C828D83A3A3E0F8A3E0F9E511C379
:101FF00098F8E51299F9C3E89AE99B400D90017FA2
:1020000074042CF0E43DA3F0802390017DEEF0A356
:10201000EFF090017DE0FCA3E0FD8C828D83E0FC7D
:10202000A3E0FD4C709890017FE4F0A3F090017F55
:10203000E0FCA3E0FD4C605D90017DE0FCA3E0FDD1
:1020400074022CFEE43DFF8E828F83E0F8A3E0F95A
:1020500048700B8E828F83EAF0A3EBF08037E82C78
:10206000F8E93DF98C828D83E0FEA3E0FF88828948
:1020700083EEF0A3EFF08C828D83E8F0A3E9F08883
:10208000828983A3A3EAF0A3EBF090017F74042874
:10209000F0E439A3F090017FE0FAA3E08A82F583AF
:1020A0002220F71030F6118883A88220F507F6A8C1
:1020B0008375830022F280F7F022E582900185F09B
:1020C000900182E0FAA3E0FBA3E0FC900185E08AA6
:1020D000828B838CF01220A190018274012AF0E49B
:1020E0003BA3F0A3ECF022AAF0AB83E58290018A37
:1020F000F0A3EBF0A3EAF090018AE0FAA3E0FBA3DF
:10210000E0FC900182EAF0A3EBF0A3ECF0900186F2
:10211000E0FAA3E0FBA3E0FC900189E0FD9001ACB4
:10212000EAF0A3EBF0A3ECF09001AFEDF09020BA51
:10213000122B30AA82AB83900182E0FCA3E0FDA3C6
:10214000E0FE8C828D838EF0E41220A18A828B8344
:1021500022C008858108E50824F8FAE50824FBF880
:10216000900182E6F008A3E6F008A3E6F0E5082473
:10217000F8F89001ACE6F008A3E6F008A3E6F090CA
:1021800001AFEAF09020BA122B30AA82AB83900103
:1021900082E0FCA3E0FDA3E0FE8C828D838EF0E460
:1021A0001220A18A828B83D00822AC83AB827A0072
:1021B0007900748E0224E1E58290018DF090018D0A
:1021C000E0FABA0A0810990280FB75990D1099027D
:1021D00080FB8A9922E58290018EF090018EE0FAD0
:1021E000BA30004009EA24C6400475820122758293
:1021F0000022AAF0AB83E58290018FF0A3EBF0A35D
:10220000EAF07A007B0090018FE0FCA3E0FDA3E000
:10221000FE8C828D838EF0121C52FFA3AC82AD83A4
:1022200090018FECF0A3EDF0A3EEF0EF60070ABA97
:1022300000DF0B80DC90018FECF0A3EDF0A3EEF05B
:102240008A828B83221234B4BC0003023453EF60C1
:10225000FA30D502B2D1E583B4FF03023469E582D6
:10226000B4FF03023469258340072482400B023403
:10227000532483145003023469F582EA8DF0A4A834
:10228000F0EA8EF0A428F8E435F0F9EB8DF0A428FC
:10229000E935F0F9E433CA8FF0A429F9EA35F0FA08
:1022A000EBF88EF0A429F9EA35F0FAE433FBEC8D73
:1022B000F0A429F9EA35F0FAE43BFBE88FF0A42A10
:1022C000FAEB35F0FBE433CCFD8EF0A42AFAEB35C3
:1022D000F0FBE43CFCED8FF0A42BFBEC35F0FC2094
:1022E000E703123481023432FFA881181812350036
:1022F000D2D133E6400730E70B7582012220E70692
:1023000075820022C2D11234E2E97003F5822230D4
:10231000D101B3E433F58222FFA8811818123500E9
:102320001234E2E96401F5822212247D700AE5820A
:10233000458345F0700122E430D112F4700BE5F0D2
:10234000F47006E58330E7012290800022700AE5F0
:10235000F07006E58320E70122907FFF22FFA8812D
:102360001818123500D2D133E6400730E70B7582DA
:10237000002220E70675820122C2D11234E2E97000
:1023800003F5822220D101B3E433F58222E58330C4
:10239000E709F4F583E582F4F582A322AA83E582B6
:1023A000900194F0A3EAF0900194E0FAA3E0FB33EB
:1023B000E433FC6009C3E49AFDE49BFE80048A05D3
:1023C0008B068D028E03900192E0FDA3E0FE33E4C4
:1023D00033FF6009C3E49DF8E49EF980048D008E0C
:1023E000019005BDE8F0A3E9F08A828B83C004C0A8
:1023F0000712352BAA82AB83D007D004EF6C600C98
:10240000C3E49AFCE49BFD8C828D83228A828B83B9
:1024100022A882A983AAF0FB88F0900196E0A4FC90
:10242000ADF089F0E0A42DFDE435F0FE88F0A3E0E6
:10243000A42DFDE5F03EFEE433FF89F0E0A42EFE7E
:10244000E5F03FFF88F0A3E0A42EFEE5F03FFF8A11
:10245000F0900196E0A42EFEE5F03FFF8BF0E0A4A3
:102460002FFF8AF0A3E0A42FFF89F0A3E0A42FFFA1
:1024700088F0A3E0A42F8EF08D838C82221235C5C4
:10248000C3749E9582403979001235D730D126E940
:10249000F42401F582EAF43400F583EBF43400F51A
:1024A000F0ECF43400700AE582458345F0700122B7
:1024B000E430E70F22EC20E71489828A838BF02234
:1024C00030D10AE4F582F583F5F074802274FFF5CB
:1024D00082F583F5F0747F22FCABF0AA83A98274A5
:1024E0009EF582C2D1EC30E716D2D1E9F42401F98D
:1024F000EAF43400FAEBF43400FBECF43400FC12A0
:1025000034810234321234B430D502B2D1BF000962
:10251000BC0003023476023469BC0003023453E584
:1025200083B4FF0BE582B4FF03023476023453E533
:1025300082B4FF03023469C395835007247F400BA4
:102540000234532480145003023469C0E0E4CCCB3D
:10255000CAF98D488E498F4AEF54F0C4F54B758304
:1025600006854BF0EB84F582E9C4F9EAC4FAEBC4C2
:10257000FBEC540FC47803D6FC18EBD6FB18EAD654
:10258000FA8582F0EDA4A8F0FD8582F0EEA428FE85
:10259000E435F0F88582F0EFA428FFE435F0F8E99F
:1025A0009DF9EA9EFAEB9FFBEC98FCAD48AE49AF73
:1025B0004A30E7101582E92DF9EA3EFAEB3FFBE4D9
:1025C0003CFC80EDC082D58398C3E933F9EA33FA45
:1025D000EB33FBEC33FCC3E99DEA9EEB9FEC9400EC
:1025E000B3E413F9D002D0E0C44AFAD003D0E0C477
:1025F0004BFBD004D0E0F5F0540FC44CFCD0821556
:102600008230F40FD3EC13FCEB13FBEA13FAE9135B
:10261000F90582E930E70A74012AFAE43BFBE43C5D
:10262000FC02344AE5829001A8F09001A8E0FA7417
:1026300044C0E07426C0E090019AE0C0E0A3E0C08E
:10264000E08A82229001A1E02401F0A3E03400F0AE
:1026500022E5829001A9F09001A9E0FA74302AFAEB
:1026600024C6500A74072AFA300B034302208A82D8
:10267000022624E5829001AAF09001AAE0FAC4544F
:102680000FF582C002122651D00253020F8A820235
:10269000265190019CE0FAA3E0FBA3E0FCA3E0FD3F
:1026A0009001A0E0FE9001A77420F0EE2EFEED2335
:1026B00054014206EA2AFAEB33FBEC33FCED33FD1E
:1026C0009001A3E0FFC3EE9F4007EEC39FFE4302CD
:1026D000019001A7E0149001A7F09001A7E0FF701E
:1026E000CA90019CEAF0A3EBF0A3ECF0A3EDF0900C
:1026F00001A0EEF0227858E624D075F00AA4FA780A
:1027000059E624D02AFA9001ABF078578603BB2D06
:10271000079001ABC3E49AF09001A37401F090011B
:10272000ABE0FAC3E464808AF063F08095F0503C3B
:102730009001A77403F09001A7E0FBBB0A005027AB
:102740009001A3E02401F0EB14244CF8EB244CF9A5
:102750008704A604772E1A9001ABEAF0EA6008908D
:1027600001A7EB04F080CF9001ABEAF09001ABE061
:10277000FA30E712784D8603784EA603784D762E10
:102780009001ABEA04F09001A5E0FA600E0A900116
:10279000A3E0FB9001A3EA2BF0800A30160790011A
:1027A000A3E02401F0784C8602E4BA2D0104FA700B
:1027B000062011033012079001A3E02401F0300F2E
:1027C00003022870301053EA600875822D12262407
:1027D000801430110875822B1226248009301206CD
:1027E000758220122624784D8603BB2E0F75823009
:1027F0001226249001A4E0149001A4F09001A4E01A
:10280000FB149001A4F09001A3E0FCC39B400302E1
:1028100028C075823012262480E29001A4E0FB14C7
:102820009001A4F09001A3E0FCC39B5008758220A6
:1028300012262480E5784C8603BB2D0875822D1264
:102840002624801430110875822B1226248009302A
:102850001206758220122624784D8603BB2E6175E0
:1028600082301226249001A4E0149001A4F080503C
:10287000EA601175822D1226249001A4E0149001C3
:10288000A4F0802630111175822B1226249001A409
:10289000E0149001A4F0801230120F7582201226ED
:1028A000249001A4E0149001A4F0784D8602BA2E81
:1028B0000F7582301226249001A4E0149001A4F038
:1028C0009001A77401F0C2189001A7E0244CF8868B
:1028D00002BA45030229BEBA2E419001ABE0FAC309
:1028E000E464808AF063F08095F05012758230C005
:1028F00002122624D0021A9001ABEAF080E1900186
:10290000ABEAF0D2189001A5E0FA704D2016030250
:1029100029BE75822E1226240229BE30183B900152
:10292000ABE0FAEA30E72D9001A5E0FBC3E4648058
:102930008BF063F08095F05013758230C002122640
:1029400024D0029001A5E0149001A5F00A9001ABFB
:10295000EAF080CF9001ABEAF03018129001A5E0C8
:10296000FAC3E464808AF063F08095F05028900107
:10297000A7E0244CF886028A821226243018179089
:1029800001A7E0244CF88602BA2E0280099001A526
:10299000E0149001A5F09001A4E0149001A4F0903F
:1029A00001A5E0FAC3E464808AF063F08095F0400A
:1029B0000320180A9001A7E02401F00228C8900122
:1029C000A5E0FAC3E464808AF063F08095F05011CA
:1029D0007582301226249001A5E0149001A5F080A4
:1029E000DD300F159001A4E0FA149001A4F0EA6024
:1029F0000875822012262480EB229001A5E0FA704F
:102A00000330161174072AFA9001A4E0FB9001A488
:102A1000C39AF0800B9001A4E0FA24FA9001A4F08C
:102A20009001A7E4F0784C8602BA2B172011147895
:102A30004C762020120D9001A77401F09001A4E0C3
:102A40002401F0200F239001A4E0FAC3E464808AFB
:102A5000F063F08095F050117582201226249001C9
:102A6000A4E0149001A4F080DDC2189001A7E02436
:102A70004CF88602BA0003022B09BA452A300B0231
:102A800076659001A5E0FAC3E464808AF063F08083
:102A900095F050117582301226249001A5E0149013
:102AA00001A5F080DDD2189001A7E0FABA0200E497
:102AB00033FA7018EA70129001A5E0FAC3E464805A
:102AC0008AF063F08095F040033018229001A7E06F
:102AD000244CF886028A821226249001A7E0FA2468
:102AE000FD501C9001A5E0149001A5F0801190010B
:102AF000A7E0FABA020930160675822E1226249033
:102B000001A7E02401F0022A6B300F239001A4E01A
:102B1000FAC3E464808AF063F08095F05011758206
:102B2000201226249001A4E0149001A4F080DD225C
:102B3000AA83E5829001B0F0A3EAF09001B0E0FA38
:102B4000A3E0FB90019AEAF0A3EBF09001A1E4F07E
:102B5000A3F09001ACE0FAA3E0FBA3E0FC8A828B37
:102B6000838CF0121C52FD9001AC74012AF0E43BFE
:102B7000A3F0A3ECF0ED70030232E6BD2502800362
:102B80000232DEC20FC210C211C212C213C214C27C
:102B900015C216C20CC20DC20E9001A3E4F0900142
:102BA000A4F09001A574FFF09001ACE0FAA3E0FB63
:102BB000A3E0FC8A828B838CF0121C52FEA3AA82B3
:102BC000AB839001ACEAF0A3EBF0A3ECF09001B280
:102BD000EEF0BE25088E82122624022B528E07BFED
:102BE000300040468E07EF24C6403F9001A5E0FF2D
:102BF000BFFF27C002C003C0049001A4E075F00A23
:102C0000A4FAEE24D09001A42AF09001A4E0D0040C
:102C1000D003D002709DD2108099EF75F00AA4FF06
:102C2000EE24D09001A52FF080899001B2E0FEBE85
:102C30002E159001A5E0FFBFFF028003022BB39089
:102C400001A5E4F0022BB38E07BF610040128E078E
:102C5000EF2485400B9001B274DF5EF0D20B80024E
:102C6000C20B9001B2E0FEBE20028075BE230302BB
:102C70002CF0BE2A03022CF5BE2B02805FBE2D0273
:102C80008055BE4202805FBE4303022D73BE4403E3
:102C9000022F24BE4503022F4ABE4603022F46BE22
:102CA0004703022F4EBE4903022F24BE4C02803B35
:102CB000BE4E03022F52BE4F03022F2EBE50030200
:102CC0002E97BE5303022DAABE5503022F36BE58BF
:102CD00003022F3E022F91D20F022BB3D211022BEF
:102CE000B3D212022BB3D214022BB3D215022BB3E0
:102CF000D216022BB39001A5E0FFBFFF3B301413A7
:102D00009001AFE0FF14F89001AFF09001A4E6F05D
:102D1000022BB3C002C003C0049001AFE024FEF850
:102D20009001AFF08607088602189001A4EFF0D05A
:102D300004D003D002022BB33014139001AFE0FF94
:102D400014F89001AFF09001A5E6F0022BB3C00299
:102D5000C003C0049001AFE024FEF89001AFF086FC
:102D600007088602189001A5EFF0D004D003D00226
:102D7000022BB33014129001AFE0FA14F89001AFB7
:102D8000F09001B2E6F080169001AFE024FEF890DA
:102D900001AFF08602088603189001B2EAF09001B4
:102DA000B2E0F582122624022F969001AFE024FDB6
:102DB000F89001AFF0860208860308860418189080
:102DC000019CEAF0A3EBF0A3ECF08A828B838CF0F9
:102DD0001221F2AA829001A6EAF09001A5E0FBBBC5
:102DE000FF059001A5EAF0200F269001A4E0FBC3A7
:102DF000EA9B501C9001A4EBC39AF09001A4E0FA66
:102E0000149001A4F0EA600875822012262480EB59
:102E100090019CE0FAA3E0FBA3E0FC8A828B838C08
:102E2000F0121C52FA60399001A5E0FB149001A544
:102E3000F0C3E464808BF063F08095F050228A82C6
:102E400012262490019CE0FAA3E0FBA3E0FC0ABA5E
:102E500000010B90019CEAF0A3EBF0A3ECF080B032
:102E6000200F03022F969001A6E0FA9001A4E0FB48
:102E7000C3EA9B4003022F969001A4EBC39AF09003
:102E800001A4E0FA149001A4F0EA7003022F9675F1
:102E9000822012262480E89001AFE024FDF8900102
:102EA000AFF08602088603088604181890019CEA91
:102EB000F0A3EBF0A3ECF090019EE0FA30E708906D
:102EC00001B27443F0801FEA546060089001B2744C
:102ED00050F08012EA30E6089001B27449F08006A2
:102EE0009001B27458F09001B2E0FAF582C002127B
:102EF000262475823A122624758230122624758281
:102F000078122624D002BA4902800EBA50028009F3
:102F100090019DE0F58212267390019CE0F58212EB
:102F200026738072D2139001A3740AF08068900116
:102F3000A37408F080609001A3740AF08058900197
:102F4000A37410F08050D20C804CD20D8048D20E69
:102F500080449001AFE024FDF89001AFF086450871
:102F60008646088647181890019CE545F0A3E5467B
:102F7000F0A3E547F09001A1E0FFA3E0FA854582C8
:102F80008546838547F0EF1220A1A3EA1220A18095
:102F9000058E82122624200C09200D06200E030225
:102FA000303B9001AFE024FCF89001AFF0860208BE
:102FB000860308860408860618181890019CEAF013
:102FC000A3EBF0A3ECF0A3EEF090019CE0A3E0A350
:102FD000E0A3E08A828B838CF0EE12361A9001A572
:102FE000E0FABAFF069001A57406F0300E3E90019B
:102FF0009FE0FA53027F9001A0EAF0E0EA2A9001F4
:10300000A0F090019EE0FA30E70D9001A0E0FA43B5
:1030100002019001A0EAF09001A0E0FA2468400AC1
:103020009001A0E0FABA67005002D20D300D0612EE
:1030300029FA022B521226F5022B529001A3E0FA34
:103040007003022B529001B37451F0301447900179
:10305000AFE014F89001AFF0E6FA3395E0FBFCFE28
:1030600090019CEAF0A3EBF0A3ECF0A3EEF0301398
:103070000302310790019CE0FAA3E0A3E0A3E07B08
:10308000007C007E0090019CEAF0A3EBF0A3ECF042
:10309000A3EEF080723015299001AFE024FCF89087
:1030A00001AFF08602088603088604088606181811
:1030B0001890019CEAF0A3EBF0A3ECF0A3EEF080F3
:1030C000469001AFE024FEF89001AFF0860208863A
:1030D0000318EB3395E0FCFE90019CEAF0A3EBF0C3
:1030E000A3ECF0A3EEF020131E90019CE0FAA3E005
:1030F000FBA3E0A3E07C007E0090019CEAF0A3EB40
:10310000F0A3ECF0A3EEF030163E90019CE0FAA3A1
:10311000E0FBA3E0FCA3E0FEEA4B4C4E602A9001EA
:10312000A3E0FABA0808758230122624801ABA1071
:1031300017758230122624300B08758278122624E7
:10314000800675825812262430133090019CE0FAD4
:10315000A3E0FBA3E0FCA3E0FE30E71DC3E49AFA82
:10316000E49BFBE49CFCE49EFE90019CEAF0A3EB54
:10317000F0A3ECF0A3EEF08002C2139001A6E4F0FD
:10318000D21778519001A0E4F0C000122692D0002E
:103190002017129001A0E0C4FAE6FB4AF61890014D
:1031A000B3E8F080069001A0E0FAF69001A6E024D2
:1031B00001F0B21790019CE0FAA3E0FBA3E0FCA3AE
:1031C000E0FEEA4B4C4E70BC9001B3E8F09001A4D5
:1031D000E0FA70069001A47401F0201024200F2161
:1031E0009001A6E0FA0A9001A4E0FBC3EA9B50110B
:1031F0007582201226249001A4E0149001A4F0808E
:10320000DF30131175822D1226249001A4E0149052
:1032100001A4F0802D9001A6E0FA6026301111750E
:10322000822B1226249001A4E0149001A4F08012B5
:1032300030120F7582201226249001A4E014900110
:10324000A4F0200F239001A4E0FA149001A4F090C0
:1032500001A6E0FBC39A502C3010047A3080027A29
:10326000208A8212262480DD9001A4E0FA9001A633
:10327000E0FBC39A50099001A4EAC39BF08005903B
:1032800001A4E4F09001B3E0F89001A6E0FA1490F4
:1032900001A6F0EA602AB21720170C08E6C4540F02
:1032A000FA9001A0F0800A860253020F9001A0EA72
:1032B000F09001A0E0F582C000122651D00080C934
:1032C000200F03022B529001A4E0FA149001A4F005
:1032D000EA7003022B5275822012262480E88D8228
:1032E000122624022B529001A1E0FAA3E08A82F573
:1032F0008322AA82AB83ACF0FD9001B8EAF0A3EB85
:10330000F0A3ECF0A3EDF09001BCE4F09001B8E084
:10331000FAA3E0FBA3E0FCA3E0FD7E009001B4E093
:10332000F548A3E0F549A3E0F54AA3E0F54B2354A3
:1033300001FF7074C006E5482548FFE54933F8E50C
:103340004A33F9E54B33FE9001B4EFF0A3E8F0A364
:10335000E9F0A3EEF09001B4E0F548A3E0F549A34D
:10336000E0F54AA3E0F54BC3EA9548EB9549EC95A7
:103370004AED954BD0065027E54BC313F54BE54A74
:1033800013F54AE54913F549E54813F5489001B4AA
:10339000F0A3E549F0A3E54AF0A3E54BF080090E60
:1033A0009001BCEEF002331C9001BCE0FA9001B831
:1033B000E0FBA3E0FCA3E0FDA3E0FE9001B4E0F598
:1033C00048A3E0F549A3E0F54AA3E0F54BC3EB952C
:1033D00048EC9549ED954AEE954B40179001B8EBB6
:1033E000C39548F0EC9549A3F0ED954AA3F0EE950E
:1033F0004BA3F09001B4E0FBA3E0FCA3E0FDA3E04D
:10340000C313FEED13FDEC13FCEB139001B4F0A31A
:10341000ECF0A3EDF0A3EEF08A031AEB708F9001AD
:10342000B8E0FAA3E0FBA3E0FCA3E08A828B838CE4
:10343000F022B98003EA13B34010EA2401FAE43B16
:10344000FBE43CFC50047C800582BC000EBB000BFE
:10345000BA0008E4F5F0F583F58222A2D1E58213E3
:103460008CF092F78B838A8222E4F583F58275F0E3
:1034700080F4A2D11322E4F583F58275F0C0747F45
:10348000227804EC7011E58224F8500AF582E4C930
:10349000CACBFCD8EF22EC7820058220E713D58236
:1034A0000122C3E933F9EA33FAEB33FBEC33FCD8FE
:1034B000EA158222AA82AB83A2F73392D16002D2AC
:1034C000F7F582ACF0E58124F9F8E6FD08E6FE08A0
:1034D00086F008E6A2F73392D56002D2F7F583AF03
:1034E000F0227901AA82E68F82B5821318E6B5F040
:1034F0000E18E6B5830918E68A82B58202790022A1
:10350000B4800FE5F0700AE5837006E58270027FF3
:1035100000EFB6801518B6001018B6000B18B600EC
:103520000608080876002208080822AA83E5829087
:1035300005BFF0A3EAF09005C1E4F0A3F09005BD4B
:10354000E0FAA3E0FB7C109005BFE0FDA3E0FE33B2
:103550009219EECD25E0CD33FE9005BFEDF0A3EE40
:10356000F09005C1E0FDA3E0CD25E0CD33FE900550
:10357000C1EDF0A3EEF03019129005C1E0FDA3E01B
:10358000FE9005C174014DF0A3EEF09005C1E0FD81
:10359000A3E0FEC3ED9AEE9B401D9005C1EDC39ADA
:1035A000F0EE9BA3F09005BFE0FDA3E0FE9005BF09
:1035B00074014DF0A3EEF0DC8E9005BFE0FAA3E0BD
:1035C0008A82F58322AA82AB83A2F73392D160026A
:1035D000D2F7F582ACF0226040F82582500274FFE9
:1035E000F582E824F8501ECCCBCAF9E4CC24F8507C
:1035F00014CBCAF9E4CB24F8500BCAF9E4CA24F876
:10360000500379002224086010F8C3EC13FCEB137C
:10361000FBEA13FAE913F9D8F122C0E0F845824534
:103620008345F07009F5F0FBFCFDFE0236E8E82367
:10363000A2F792E0F8A982AA83D2F7ABF07C007ED1
:1036400007C3749798404074FF2EFE740A89F0A453
:10365000F985F082740A8AF0A4FA85F083740A8BE3
:10366000F0A4FB740529F9EA3582FAEB3583FB7483
:103670000035F0FCC3EC13FCEB13FBEA13FAE9137F
:10368000F908EC70EF80BAE8C3947FF88B838EF072
:10369000E4FBFCFDFEFF08C3E933F9EA33FAE583F6
:1036A00033F583EB3BD4FBEC3CD4FCED3DD4FDEE99
:1036B0003ED4FEEF3FD4FF602D05F074052BD4FB04
:1036C000E43CD4FCE43DD4FDE43ED4FEE43FD4FF2E
:1036D000758204C3EF13FFEE13FEED13FDEC13FC34
:1036E000EB13FBD582EDD8AF784CD0E020E7047621
:1036F0002B8002762D087906E7C4540F4430F60873
:10370000B90603762E08E7540F4430F60819B902BB
:10371000E7764508E5F020E704762B8004762DF463
:10372000040875F00A844430F608E5F04430F608E1
:10373000E4F690004C75F04022000000000000000C
:00000001FF
